{
  "contractName": "Getters",
  "abi": [
    {
      "anonymous": false,
      "inputs": [
        {
          "indexed": true,
          "internalType": "address",
          "name": "owner",
          "type": "address"
        },
        {
          "indexed": true,
          "internalType": "address",
          "name": "approved",
          "type": "address"
        },
        {
          "indexed": true,
          "internalType": "uint256",
          "name": "tokenId",
          "type": "uint256"
        }
      ],
      "name": "Approval",
      "type": "event"
    },
    {
      "anonymous": false,
      "inputs": [
        {
          "indexed": true,
          "internalType": "address",
          "name": "owner",
          "type": "address"
        },
        {
          "indexed": true,
          "internalType": "address",
          "name": "operator",
          "type": "address"
        },
        {
          "indexed": false,
          "internalType": "bool",
          "name": "approved",
          "type": "bool"
        }
      ],
      "name": "ApprovalForAll",
      "type": "event"
    },
    {
      "anonymous": false,
      "inputs": [
        {
          "indexed": true,
          "internalType": "address",
          "name": "payee",
          "type": "address"
        },
        {
          "indexed": true,
          "internalType": "uint256",
          "name": "amountInWei",
          "type": "uint256"
        }
      ],
      "name": "DepositedToEscrow",
      "type": "event"
    },
    {
      "anonymous": false,
      "inputs": [
        {
          "indexed": true,
          "internalType": "uint256",
          "name": "hornId",
          "type": "uint256"
        },
        {
          "indexed": true,
          "internalType": "address",
          "name": "from",
          "type": "address"
        },
        {
          "indexed": true,
          "internalType": "address",
          "name": "to",
          "type": "address"
        }
      ],
      "name": "HornDeliveredAndNFTOwnershipTransferred",
      "type": "event"
    },
    {
      "anonymous": false,
      "inputs": [
        {
          "indexed": true,
          "internalType": "uint256",
          "name": "hornId",
          "type": "uint256"
        },
        {
          "indexed": true,
          "internalType": "address",
          "name": "seller",
          "type": "address"
        },
        {
          "indexed": true,
          "internalType": "string",
          "name": "make",
          "type": "string"
        }
      ],
      "name": "HornListedForSale",
      "type": "event"
    },
    {
      "anonymous": false,
      "inputs": [
        {
          "indexed": true,
          "internalType": "uint256",
          "name": "hornId",
          "type": "uint256"
        },
        {
          "indexed": true,
          "internalType": "string",
          "name": "shipTo",
          "type": "string"
        },
        {
          "indexed": true,
          "internalType": "address",
          "name": "buyer",
          "type": "address"
        }
      ],
      "name": "HornPurchased",
      "type": "event"
    },
    {
      "anonymous": false,
      "inputs": [
        {
          "indexed": true,
          "internalType": "uint256",
          "name": "hornId",
          "type": "uint256"
        },
        {
          "indexed": true,
          "internalType": "string",
          "name": "shipTo",
          "type": "string"
        },
        {
          "indexed": true,
          "internalType": "address",
          "name": "to",
          "type": "address"
        }
      ],
      "name": "HornShipped",
      "type": "event"
    },
    {
      "anonymous": false,
      "inputs": [
        {
          "indexed": true,
          "internalType": "uint256",
          "name": "hornId",
          "type": "uint256"
        },
        {
          "indexed": true,
          "internalType": "address",
          "name": "seller",
          "type": "address"
        },
        {
          "indexed": true,
          "internalType": "string",
          "name": "make",
          "type": "string"
        }
      ],
      "name": "NewHornNFTMinted",
      "type": "event"
    },
    {
      "anonymous": false,
      "inputs": [
        {
          "indexed": true,
          "internalType": "address",
          "name": "previousOwner",
          "type": "address"
        },
        {
          "indexed": true,
          "internalType": "address",
          "name": "newOwner",
          "type": "address"
        }
      ],
      "name": "OwnershipTransferred",
      "type": "event"
    },
    {
      "anonymous": false,
      "inputs": [
        {
          "indexed": true,
          "internalType": "uint256",
          "name": "hornId",
          "type": "uint256"
        },
        {
          "indexed": true,
          "internalType": "address",
          "name": "payer",
          "type": "address"
        },
        {
          "indexed": true,
          "internalType": "address",
          "name": "payee",
          "type": "address"
        }
      ],
      "name": "SellerPaid",
      "type": "event"
    },
    {
      "anonymous": false,
      "inputs": [
        {
          "indexed": true,
          "internalType": "address",
          "name": "from",
          "type": "address"
        },
        {
          "indexed": true,
          "internalType": "address",
          "name": "to",
          "type": "address"
        },
        {
          "indexed": true,
          "internalType": "uint256",
          "name": "tokenId",
          "type": "uint256"
        }
      ],
      "name": "Transfer",
      "type": "event"
    },
    {
      "anonymous": false,
      "inputs": [
        {
          "indexed": true,
          "internalType": "address",
          "name": "payee",
          "type": "address"
        },
        {
          "indexed": true,
          "internalType": "uint256",
          "name": "amountInWei",
          "type": "uint256"
        }
      ],
      "name": "WithdrawnFromEscrow",
      "type": "event"
    },
    {
      "stateMutability": "payable",
      "type": "fallback"
    },
    {
      "inputs": [],
      "name": "_hornId",
      "outputs": [
        {
          "internalType": "uint256",
          "name": "_value",
          "type": "uint256"
        }
      ],
      "stateMutability": "view",
      "type": "function"
    },
    {
      "inputs": [
        {
          "internalType": "address",
          "name": "to",
          "type": "address"
        },
        {
          "internalType": "uint256",
          "name": "tokenId",
          "type": "uint256"
        }
      ],
      "name": "approve",
      "outputs": [],
      "stateMutability": "nonpayable",
      "type": "function"
    },
    {
      "inputs": [
        {
          "internalType": "address",
          "name": "owner",
          "type": "address"
        }
      ],
      "name": "balanceOf",
      "outputs": [
        {
          "internalType": "uint256",
          "name": "",
          "type": "uint256"
        }
      ],
      "stateMutability": "view",
      "type": "function"
    },
    {
      "inputs": [
        {
          "internalType": "uint256",
          "name": "",
          "type": "uint256"
        }
      ],
      "name": "buyers",
      "outputs": [
        {
          "internalType": "address",
          "name": "",
          "type": "address"
        }
      ],
      "stateMutability": "view",
      "type": "function"
    },
    {
      "inputs": [
        {
          "internalType": "uint256",
          "name": "tokenId",
          "type": "uint256"
        }
      ],
      "name": "getApproved",
      "outputs": [
        {
          "internalType": "address",
          "name": "",
          "type": "address"
        }
      ],
      "stateMutability": "view",
      "type": "function"
    },
    {
      "inputs": [
        {
          "internalType": "uint256",
          "name": "",
          "type": "uint256"
        }
      ],
      "name": "horns",
      "outputs": [
        {
          "internalType": "string",
          "name": "make",
          "type": "string"
        },
        {
          "internalType": "string",
          "name": "model",
          "type": "string"
        },
        {
          "internalType": "string",
          "name": "style",
          "type": "string"
        },
        {
          "internalType": "uint256",
          "name": "serialNumber",
          "type": "uint256"
        },
        {
          "internalType": "uint256",
          "name": "listPrice",
          "type": "uint256"
        },
        {
          "internalType": "enum HornMarketplace.HornStatus",
          "name": "status",
          "type": "uint8"
        },
        {
          "internalType": "address payable",
          "name": "currentOwner",
          "type": "address"
        }
      ],
      "stateMutability": "view",
      "type": "function"
    },
    {
      "inputs": [
        {
          "internalType": "uint256",
          "name": "",
          "type": "uint256"
        }
      ],
      "name": "hornsForSale",
      "outputs": [
        {
          "internalType": "uint256",
          "name": "",
          "type": "uint256"
        }
      ],
      "stateMutability": "view",
      "type": "function"
    },
    {
      "inputs": [
        {
          "internalType": "address",
          "name": "owner",
          "type": "address"
        },
        {
          "internalType": "address",
          "name": "operator",
          "type": "address"
        }
      ],
      "name": "isApprovedForAll",
      "outputs": [
        {
          "internalType": "bool",
          "name": "",
          "type": "bool"
        }
      ],
      "stateMutability": "view",
      "type": "function"
    },
    {
      "inputs": [
        {
          "internalType": "uint256",
          "name": "__hornId",
          "type": "uint256"
        },
        {
          "internalType": "uint256",
          "name": "_desiredPrice",
          "type": "uint256"
        }
      ],
      "name": "listExistingHornNFT",
      "outputs": [
        {
          "internalType": "uint256",
          "name": "",
          "type": "uint256"
        }
      ],
      "stateMutability": "nonpayable",
      "type": "function"
    },
    {
      "inputs": [
        {
          "internalType": "uint256",
          "name": "__hornId",
          "type": "uint256"
        }
      ],
      "name": "markHornDeliveredAndOwnershipTransferred",
      "outputs": [
        {
          "internalType": "uint256",
          "name": "",
          "type": "uint256"
        }
      ],
      "stateMutability": "nonpayable",
      "type": "function"
    },
    {
      "inputs": [
        {
          "internalType": "uint256",
          "name": "__hornId",
          "type": "uint256"
        },
        {
          "internalType": "string",
          "name": "shippedTo",
          "type": "string"
        }
      ],
      "name": "markHornShipped",
      "outputs": [],
      "stateMutability": "nonpayable",
      "type": "function"
    },
    {
      "inputs": [
        {
          "internalType": "string",
          "name": "_make",
          "type": "string"
        },
        {
          "internalType": "string",
          "name": "_model",
          "type": "string"
        },
        {
          "internalType": "string",
          "name": "_style",
          "type": "string"
        },
        {
          "internalType": "uint256",
          "name": "_serialNumber",
          "type": "uint256"
        }
      ],
      "name": "mintButDontListNewHornNFT",
      "outputs": [
        {
          "internalType": "uint256",
          "name": "",
          "type": "uint256"
        }
      ],
      "stateMutability": "nonpayable",
      "type": "function"
    },
    {
      "inputs": [
        {
          "internalType": "string",
          "name": "_make",
          "type": "string"
        },
        {
          "internalType": "string",
          "name": "_model",
          "type": "string"
        },
        {
          "internalType": "string",
          "name": "_style",
          "type": "string"
        },
        {
          "internalType": "uint256",
          "name": "_serialNumber",
          "type": "uint256"
        },
        {
          "internalType": "uint256",
          "name": "_desiredPrice",
          "type": "uint256"
        }
      ],
      "name": "mintThenListNewHornNFT",
      "outputs": [
        {
          "internalType": "uint256",
          "name": "",
          "type": "uint256"
        }
      ],
      "stateMutability": "nonpayable",
      "type": "function"
    },
    {
      "inputs": [],
      "name": "name",
      "outputs": [
        {
          "internalType": "string",
          "name": "",
          "type": "string"
        }
      ],
      "stateMutability": "view",
      "type": "function"
    },
    {
      "inputs": [],
      "name": "owner",
      "outputs": [
        {
          "internalType": "address",
          "name": "",
          "type": "address"
        }
      ],
      "stateMutability": "view",
      "type": "function"
    },
    {
      "inputs": [
        {
          "internalType": "uint256",
          "name": "tokenId",
          "type": "uint256"
        }
      ],
      "name": "ownerOf",
      "outputs": [
        {
          "internalType": "address",
          "name": "",
          "type": "address"
        }
      ],
      "stateMutability": "view",
      "type": "function"
    },
    {
      "inputs": [
        {
          "internalType": "uint256",
          "name": "__hornId",
          "type": "uint256"
        },
        {
          "internalType": "string",
          "name": "_shipTo",
          "type": "string"
        }
      ],
      "name": "purchaseHornByHornId",
      "outputs": [],
      "stateMutability": "payable",
      "type": "function"
    },
    {
      "inputs": [],
      "name": "renounceOwnership",
      "outputs": [],
      "stateMutability": "nonpayable",
      "type": "function"
    },
    {
      "inputs": [
        {
          "internalType": "address",
          "name": "from",
          "type": "address"
        },
        {
          "internalType": "address",
          "name": "to",
          "type": "address"
        },
        {
          "internalType": "uint256",
          "name": "tokenId",
          "type": "uint256"
        }
      ],
      "name": "safeTransferFrom",
      "outputs": [],
      "stateMutability": "nonpayable",
      "type": "function"
    },
    {
      "inputs": [
        {
          "internalType": "address",
          "name": "from",
          "type": "address"
        },
        {
          "internalType": "address",
          "name": "to",
          "type": "address"
        },
        {
          "internalType": "uint256",
          "name": "tokenId",
          "type": "uint256"
        },
        {
          "internalType": "bytes",
          "name": "_data",
          "type": "bytes"
        }
      ],
      "name": "safeTransferFrom",
      "outputs": [],
      "stateMutability": "nonpayable",
      "type": "function"
    },
    {
      "inputs": [
        {
          "internalType": "address",
          "name": "operator",
          "type": "address"
        },
        {
          "internalType": "bool",
          "name": "approved",
          "type": "bool"
        }
      ],
      "name": "setApprovalForAll",
      "outputs": [],
      "stateMutability": "nonpayable",
      "type": "function"
    },
    {
      "inputs": [
        {
          "internalType": "address",
          "name": "",
          "type": "address"
        }
      ],
      "name": "shippingAddresses",
      "outputs": [
        {
          "internalType": "string",
          "name": "",
          "type": "string"
        }
      ],
      "stateMutability": "view",
      "type": "function"
    },
    {
      "inputs": [
        {
          "internalType": "bytes4",
          "name": "interfaceId",
          "type": "bytes4"
        }
      ],
      "name": "supportsInterface",
      "outputs": [
        {
          "internalType": "bool",
          "name": "",
          "type": "bool"
        }
      ],
      "stateMutability": "view",
      "type": "function"
    },
    {
      "inputs": [],
      "name": "symbol",
      "outputs": [
        {
          "internalType": "string",
          "name": "",
          "type": "string"
        }
      ],
      "stateMutability": "view",
      "type": "function"
    },
    {
      "inputs": [
        {
          "internalType": "uint256",
          "name": "tokenId",
          "type": "uint256"
        }
      ],
      "name": "tokenURI",
      "outputs": [
        {
          "internalType": "string",
          "name": "",
          "type": "string"
        }
      ],
      "stateMutability": "view",
      "type": "function"
    },
    {
      "inputs": [
        {
          "internalType": "address",
          "name": "from",
          "type": "address"
        },
        {
          "internalType": "address",
          "name": "to",
          "type": "address"
        },
        {
          "internalType": "uint256",
          "name": "tokenId",
          "type": "uint256"
        }
      ],
      "name": "transferFrom",
      "outputs": [],
      "stateMutability": "nonpayable",
      "type": "function"
    },
    {
      "inputs": [
        {
          "internalType": "address",
          "name": "newOwner",
          "type": "address"
        }
      ],
      "name": "transferOwnership",
      "outputs": [],
      "stateMutability": "nonpayable",
      "type": "function"
    },
    {
      "inputs": [
        {
          "internalType": "uint256",
          "name": "_index",
          "type": "uint256"
        }
      ],
      "name": "getHornById",
      "outputs": [
        {
          "components": [
            {
              "internalType": "string",
              "name": "make",
              "type": "string"
            },
            {
              "internalType": "string",
              "name": "model",
              "type": "string"
            },
            {
              "internalType": "string",
              "name": "style",
              "type": "string"
            },
            {
              "internalType": "uint256",
              "name": "serialNumber",
              "type": "uint256"
            },
            {
              "internalType": "uint256",
              "name": "listPrice",
              "type": "uint256"
            },
            {
              "internalType": "enum HornMarketplace.HornStatus",
              "name": "status",
              "type": "uint8"
            },
            {
              "internalType": "address payable",
              "name": "currentOwner",
              "type": "address"
            }
          ],
          "internalType": "struct HornMarketplace.Horn",
          "name": "",
          "type": "tuple"
        }
      ],
      "stateMutability": "view",
      "type": "function"
    },
    {
      "inputs": [],
      "name": "getCurrentHornsForSale",
      "outputs": [
        {
          "internalType": "uint256[]",
          "name": "",
          "type": "uint256[]"
        }
      ],
      "stateMutability": "view",
      "type": "function"
    },
    {
      "inputs": [
        {
          "internalType": "uint256",
          "name": "__hornId",
          "type": "uint256"
        }
      ],
      "name": "getListPriceByHornId",
      "outputs": [
        {
          "internalType": "uint256",
          "name": "",
          "type": "uint256"
        }
      ],
      "stateMutability": "view",
      "type": "function"
    },
    {
      "inputs": [
        {
          "internalType": "uint256",
          "name": "__hornId",
          "type": "uint256"
        }
      ],
      "name": "getCurrentOwnerByMapping",
      "outputs": [
        {
          "internalType": "address payable",
          "name": "",
          "type": "address"
        }
      ],
      "stateMutability": "view",
      "type": "function"
    },
    {
      "inputs": [
        {
          "internalType": "uint256",
          "name": "__hornId",
          "type": "uint256"
        }
      ],
      "name": "getCurrentOwnerByStructAttribute",
      "outputs": [
        {
          "internalType": "address payable",
          "name": "",
          "type": "address"
        }
      ],
      "stateMutability": "view",
      "type": "function"
    },
    {
      "inputs": [
        {
          "internalType": "uint256",
          "name": "__hornId",
          "type": "uint256"
        }
      ],
      "name": "getStatusOfHornByHornId",
      "outputs": [
        {
          "internalType": "enum HornMarketplace.HornStatus",
          "name": "",
          "type": "uint8"
        }
      ],
      "stateMutability": "view",
      "type": "function"
    },
    {
      "inputs": [
        {
          "internalType": "address",
          "name": "payee",
          "type": "address"
        }
      ],
      "name": "getEscrowDepositValue",
      "outputs": [
        {
          "internalType": "uint256",
          "name": "",
          "type": "uint256"
        }
      ],
      "stateMutability": "view",
      "type": "function"
    },
    {
      "inputs": [
        {
          "internalType": "address",
          "name": "_owner",
          "type": "address"
        }
      ],
      "name": "getBalanceOf",
      "outputs": [
        {
          "internalType": "uint256",
          "name": "",
          "type": "uint256"
        }
      ],
      "stateMutability": "view",
      "type": "function"
    },
    {
      "inputs": [
        {
          "internalType": "uint256",
          "name": "_tokenId",
          "type": "uint256"
        }
      ],
      "name": "getApprovedToSpend",
      "outputs": [
        {
          "internalType": "address",
          "name": "",
          "type": "address"
        }
      ],
      "stateMutability": "view",
      "type": "function"
    }
  ],
  "bytecode": "0x60806040523480156200001157600080fd5b506040518060400160405280600481526020017f486f726e000000000000000000000000000000000000000000000000000000008152506040518060400160405280600481526020017f484f524e00000000000000000000000000000000000000000000000000000000815250620000aa6200009b6200012a640100000000026401000000009004565b6401000000006200012e810204565b8151620000bf9060019060208501906200017e565b508051620000d59060029060208401906200017e565b505050604051620000e6906200020d565b604051809103906000f08015801562000103573d6000803e3d6000fd5b5060088054600160a060020a031916600160a060020a039290921691909117905562000288565b3390565b60008054600160a060020a03838116600160a060020a0319831681178455604051919092169283917f8be0079c531659141344cd1fd0a4f28419497f9722a3daafe3b4186f6b6457e09190a35050565b8280546200018c9062000232565b90600052602060002090601f016020900481019282620001b05760008555620001fb565b82601f10620001cb57805160ff1916838001178555620001fb565b82800160010185558215620001fb579182015b82811115620001fb578251825591602001919060010190620001de565b50620002099291506200021b565b5090565b610720806200402983390190565b5b808211156200020957600081556001016200021c565b6002810460018216806200024757607f821691505b6020821081141562000282577f4e487b7100000000000000000000000000000000000000000000000000000000600052602260045260246000fd5b50919050565b613d9180620002986000396000f3fe60806040526004361061022c576000357c0100000000000000000000000000000000000000000000000000000000900480638da5cb5b11610135578063c0227bbb116100bd578063e40b96cf1161008c578063e40b96cf1461065a578063e985e9c51461067a578063f2aa82181461069a578063f2fde38b146106ba578063fd92de01146106da5761022c565b8063c0227bbb146105da578063c87b56dd146105fa578063cf44981a1461061a578063e3cbb3681461063a5761022c565b8063a22cb46511610104578063a22cb46514610527578063b15fca9e14610547578063b5178ed514610567578063b7d002f41461059a578063b88d4fde146105ba5761022c565b80638da5cb5b146104bb57806395d89b41146104d057806398960435146104e55780639b96eece146105075761022c565b806330333e97116101b857806349870e531161018757806349870e531461040c5780636352211e1461043957806370a0823114610459578063715018a61461047957806376cb00ee1461048e5761022c565b806330333e97146103a45780633a770745146103b95780633dda1fca146103cc57806342842e0e146103ec5761022c565b806311723dc2116101ff57806311723dc2146102f7578063125bba371461031757806319df66f4146103445780631c5e1d5e1461036457806323b872dd146103845761022c565b806301ffc9a71461025057806306fdde0314610286578063081812fc146102a8578063095ea7b3146102d5575b60405160e560020a62461bcd02815260040161024790613ac0565b60405180910390fd5b34801561025c57600080fd5b5061027061026b366004612ca5565b6106fa565b60405161027d9190613093565b60405180910390f35b34801561029257600080fd5b5061029b610774565b60405161027d91906130ac565b3480156102b457600080fd5b506102c86102c3366004612e21565b610806565b60405161027d9190612fff565b3480156102e157600080fd5b506102f56102f0366004612c7c565b61084c565b005b34801561030357600080fd5b506102c8610312366004612e21565b6108ea565b34801561032357600080fd5b50610337610332366004612e9b565b61090d565b60405161027d9190613c09565b34801561035057600080fd5b5061033761035f366004612aef565b610a5f565b34801561037057600080fd5b506102c861037f366004612e21565b610b04565b34801561039057600080fd5b506102f561039f366004612b3b565b610b1f565b3480156103b057600080fd5b50610337610b5a565b6102f56103c7366004612e51565b610b60565b3480156103d857600080fd5b506102c86103e7366004612e21565b610e16565b3480156103f857600080fd5b506102f5610407366004612b3b565b610e22565b34801561041857600080fd5b5061042c610427366004612e21565b610e3d565b60405161027d919061309e565b34801561044557600080fd5b506102c8610454366004612e21565b610e55565b34801561046557600080fd5b50610337610474366004612aef565b610e8d565b34801561048557600080fd5b506102f5610ed4565b34801561049a57600080fd5b506104ae6104a9366004612e21565b610f22565b60405161027d9190613b69565b3480156104c757600080fd5b506102c8611180565b3480156104dc57600080fd5b5061029b61118f565b3480156104f157600080fd5b506104fa61119e565b60405161027d919061304f565b34801561051357600080fd5b50610337610522366004612aef565b6111f5565b34801561053357600080fd5b506102f5610542366004612c42565b611201565b34801561055357600080fd5b5061029b610562366004612aef565b6112d2565b34801561057357600080fd5b50610587610582366004612e21565b61136c565b60405161027d97969594939291906130bf565b3480156105a657600080fd5b506103376105b5366004612e21565b61154d565b3480156105c657600080fd5b506102f56105d5366004612b76565b6118a6565b3480156105e657600080fd5b506103376105f5366004612e21565b6118e8565b34801561060657600080fd5b5061029b610615366004612e21565b611909565b34801561062657600080fd5b506102f5610635366004612e51565b61198e565b34801561064657600080fd5b50610337610655366004612d7c565b611c0f565b34801561066657600080fd5b50610337610675366004612cdd565b611ef1565b34801561068657600080fd5b50610270610695366004612b09565b61217b565b3480156106a657600080fd5b506102c86106b5366004612e21565b6121ab565b3480156106c657600080fd5b506102f56106d5366004612aef565b6121c6565b3480156106e657600080fd5b506103376106f5366004612e21565b61223d565b6000600160e060020a031982167f80ac58cd00000000000000000000000000000000000000000000000000000000148061075d5750600160e060020a031982167f5b5e139f00000000000000000000000000000000000000000000000000000000145b8061076c575061076c82612252565b90505b919050565b60606001805461078390613c8d565b80601f01602080910402602001604051908101604052809291908181526020018280546107af90613c8d565b80156107fc5780601f106107d1576101008083540402835291602001916107fc565b820191906000526020600020905b8154815290600101906020018083116107df57829003601f168201915b5050505050905090565b600061081182612284565b6108305760405160e560020a62461bcd028152600401610247906136e9565b50600090815260056020526040902054600160a060020a031690565b600061085782610e55565b905080600160a060020a031683600160a060020a0316141561088e5760405160e560020a62461bcd0281526004016102479061394c565b80600160a060020a03166108a06122a1565b600160a060020a031614806108bc57506108bc816106956122a1565b6108db5760405160e560020a62461bcd028152600401610247906133cb565b6108e583836122a5565b505050565b6000908152600a60205260409020600501546101009004600160a060020a031690565b6000828152600c60205260408120548390600160a060020a031633146109485760405160e560020a62461bcd0281526004016102479061368c565b6000831161096b5760405160e560020a62461bcd02815260040161024790613311565b6000848152600a602052604081206005015460ff1660038111156109a25760e060020a634e487b7102600052602160045260246000fd5b14156109c35760405160e560020a62461bcd02815260040161024790613a63565b60098054600181019091557f6e1540171b6c0c960b71a7020d9f60077f6af931a8bbf590da0223dacf75c7af018490556000848152600a6020526040908190206004810185905560058101805460ff1916905590518591610a2391612f61565b60405190819003812090339083907f762f1a2f7e87bdc2ebbbeb92df2d742317f8e1353aafc0c70b060981e72271f490600090a4949350505050565b6008546040517fe3a9db1a0000000000000000000000000000000000000000000000000000000081526000918291600160a060020a039091169063e3a9db1a90610aad908690600401612fff565b60206040518083038186803b158015610ac557600080fd5b505afa158015610ad9573d6000803e3d6000fd5b505050506040513d601f19601f82011682018060405250810190610afd9190612e39565b9392505050565b6000908152600c6020526040902054600160a060020a031690565b610b30610b2a6122a1565b82612313565b610b4f5760405160e560020a62461bcd028152600401610247906139a9565b6108e583838361239b565b60075481565b6000838152600a60205260409020600401548390610b935760405160e560020a62461bcd028152600401610247906137d8565b6000818152600a602052604090206005015460ff166003811115610bca5760e060020a634e487b7102600052602160045260246000fd5b15610bea5760405160e560020a62461bcd028152600401610247906135fa565b6000848152600a602052604090206004015484903414610c1f5760405160e560020a62461bcd0281526004016102479061312f565b6008546000868152600c6020526040908190205490517ff340fa01000000000000000000000000000000000000000000000000000000008152600160a060020a039283169263f340fa0192610c7992911690600401612fff565b600060405180830381600087803b158015610c9357600080fd5b505af1158015610ca7573d6000803e3d6000fd5b5050336000908152600e60205260409020610cc6925090508585612925565b506000858152600d602090815260408083208054600160a060020a03191633179055600a9091528120600501805460ff191660011790555b600954811015610d80578560098281548110610d2d5760e060020a634e487b7102600052603260045260246000fd5b90600052602060002001541415610d6e5760098181548110610d625760e060020a634e487b7102600052603260045260246000fd5b60009182526020822001555b80610d7881613ccb565b915050610cfe565b506040513390610d939086908690612f0d565b6040519081900381209087907fdbca9a11cad69a5ab275fd9838feb30068a34f31d0f876d995c14a8dd906f70990600090a46000858152600a60205260408082206005015490513492610100909204600160a060020a0316917fe6138e0eb7be5ea87d2296f3ad7469a8364406bface7d4e5de0a21dce1841cdd91a35050505050565b600080610afd83610806565b6108e5838383604051806020016040528060008152506118a6565b6000908152600a602052604090206005015460ff1690565b600081815260036020526040812054600160a060020a03168061076c5760405160e560020a62461bcd028152600401610247906134e2565b6000600160a060020a038216610eb85760405160e560020a62461bcd02815260040161024790613485565b50600160a060020a031660009081526004602052604090205490565b610edc6122a1565b600160a060020a0316610eed611180565b600160a060020a031614610f165760405160e560020a62461bcd028152600401610247906137a3565b610f2060006124ce565b565b610f2a6129a9565b6000828152600a602052604090819020815160e08101909252805482908290610f5290613c8d565b80601f0160208091040260200160405190810160405280929190818152602001828054610f7e90613c8d565b8015610fcb5780601f10610fa057610100808354040283529160200191610fcb565b820191906000526020600020905b815481529060010190602001808311610fae57829003601f168201915b50505050508152602001600182018054610fe490613c8d565b80601f016020809104026020016040519081016040528092919081815260200182805461101090613c8d565b801561105d5780601f106110325761010080835404028352916020019161105d565b820191906000526020600020905b81548152906001019060200180831161104057829003601f168201915b5050505050815260200160028201805461107690613c8d565b80601f01602080910402602001604051908101604052809291908181526020018280546110a290613c8d565b80156110ef5780601f106110c4576101008083540402835291602001916110ef565b820191906000526020600020905b8154815290600101906020018083116110d257829003601f168201915b5050509183525050600382810154602083015260048301546040830152600583015460609092019160ff169081111561113b5760e060020a634e487b7102600052602160045260246000fd5b600381111561115d5760e060020a634e487b7102600052602160045260246000fd5b8152600591909101546101009004600160a060020a031660209091015292915050565b600054600160a060020a031690565b60606002805461078390613c8d565b606060098054806020026020016040519081016040528092919081815260200182805480156107fc57602002820191906000526020600020905b8154815260200190600101908083116111d8575050505050905090565b600080610afd83610e8d565b6112096122a1565b600160a060020a031682600160a060020a0316141561123d5760405160e560020a62461bcd028152600401610247906132da565b806006600061124a6122a1565b600160a060020a03908116825260208083019390935260409182016000908120918716808252919093529120805460ff19169215159290921790915561128e6122a1565b600160a060020a03167f17307eab39ab6107e8899845ad3d59bd9653f200f220920489ca2b5937696c31836040516112c69190613093565b60405180910390a35050565b600e60205260009081526040902080546112eb90613c8d565b80601f016020809104026020016040519081016040528092919081815260200182805461131790613c8d565b80156113645780601f1061133957610100808354040283529160200191611364565b820191906000526020600020905b81548152906001019060200180831161134757829003601f168201915b505050505081565b600a6020526000908152604090208054819061138790613c8d565b80601f01602080910402602001604051908101604052809291908181526020018280546113b390613c8d565b80156114005780601f106113d557610100808354040283529160200191611400565b820191906000526020600020905b8154815290600101906020018083116113e357829003601f168201915b50505050509080600101805461141590613c8d565b80601f016020809104026020016040519081016040528092919081815260200182805461144190613c8d565b801561148e5780601f106114635761010080835404028352916020019161148e565b820191906000526020600020905b81548152906001019060200180831161147157829003601f168201915b5050505050908060020180546114a390613c8d565b80601f01602080910402602001604051908101604052809291908181526020018280546114cf90613c8d565b801561151c5780601f106114f15761010080835404028352916020019161151c565b820191906000526020600020905b8154815290600101906020018083116114ff57829003601f168201915b50505050600383015460048401546005909401549293909290915060ff8116906101009004600160a060020a031687565b6000818152600d60205260408120548290600160a060020a031633146115885760405160e560020a62461bcd0281526004016102479061359c565b826115933082612313565b6115b25760405160e560020a62461bcd02815260040161024790613428565b6000818152600a602052604090206005015460ff1660038111156115e95760e060020a634e487b7102600052602160045260246000fd5b60021461160b5760405160e560020a62461bcd02815260040161024790613a06565b6008546000858152600a60205260408082206005015490517fe3a9db1a0000000000000000000000000000000000000000000000000000000081529192600160a060020a039081169263e3a9db1a9261166e926101009091041690600401612fff565b60206040518083038186803b15801561168657600080fd5b505afa15801561169a573d6000803e3d6000fd5b505050506040513d601f19601f820116820180604052508101906116be9190612e39565b6008546000878152600a6020526040908190206005015490517f51cff8d9000000000000000000000000000000000000000000000000000000008152929350600160a060020a03918216926351cff8d9926117229261010090041690600401612fff565b600060405180830381600087803b15801561173c57600080fd5b505af1158015611750573d6000803e3d6000fd5b5050506000868152600d602090815260408083208054600160a060020a03191690558051808301808352848252338552600e909352922091516117939350612a08565b506000858152600a602090815260408083206005018054600360ff199091161774ffffffffffffffffffffffffffffffffffffffff00191633610100810291909117909155600c90925290912054600160a060020a0316906117f790829088610e22565b6040513390600160a060020a0383169088907f86ff2a738e00d7cf2613e4bd44ae641e080a2877f978be45ac950525d26d04c590600090a46040513390600160a060020a0383169088907ffc99b02f822d46feedca53aafaa97c596bf87bb34925d350b64a13275388de4a90600090a46040518290600160a060020a038316907f033e0f8c9aa8fcdd1b01ad637814ecdb49b6ddc7445f13555d21b3c2959b5d1f90600090a350949350505050565b6118b76118b16122a1565b83612313565b6118d65760405160e560020a62461bcd028152600401610247906139a9565b6118e28484848461251e565b50505050565b600981815481106118f857600080fd5b600091825260209091200154905081565b606061191482612284565b6119335760405160e560020a62461bcd02815260040161024790613892565b600061193d612554565b9050600081511161195d5760405180602001604052806000815250610afd565b8061196784612566565b604051602001611978929190612f32565b6040516020818303038152906040529392505050565b6000838152600c60205260409020548390600160a060020a031633146119c95760405160e560020a62461bcd0281526004016102479061368c565b6000848152600a60205260409081902060049081015460085492517fe3a9db1a00000000000000000000000000000000000000000000000000000000815287939192600160a060020a039092169163e3a9db1a91611a2991339101612fff565b60206040518083038186803b158015611a4157600080fd5b505afa158015611a55573d6000803e3d6000fd5b505050506040513d601f19601f82011682018060405250810190611a799190612e39565b14611a995760405160e560020a62461bcd02815260040161024790613746565b6000818152600a602052604090206005015460ff166003811115611ad05760e060020a634e487b7102600052602160045260246000fd5b600114611af25760405160e560020a62461bcd0281526004016102479061353f565b6000858152600d6020908152604080832054600160a060020a0316808452600e8352928190209051611b249201612f61565b604051602081830303815290604052805190602001208585604051602001611b4d929190612f0d565b6040516020818303038152906040528051906020012014611b835760405160e560020a62461bcd028152600401610247906138ef565b6000868152600a60205260409020600501805460ff19166002179055611ba9308761084c565b6000868152600d602052604090819020549051600160a060020a0390911690611bd59087908790612f0d565b6040519081900381209088907f39fd051deea672a32743d0c813cc2c161b3dacddbff9e2415abc2acbf2e088fb90600090a4505050505050565b6000808211611c335760405160e560020a62461bcd02815260040161024790613311565b611c3d60076126da565b6000611c4960076126e3565b9050611c5533826126e7565b6040518060e001604052808b8b8080601f016020809104026020016040519081016040528093929190818152602001838380828437600092019190915250505090825250604080516020601f8c018190048102820181019092528a815291810191908b908b9081908401838280828437600092019190915250505090825250604080516020601f8a0181900481028201810190925288815291810191908990899081908401838280828437600092018290525093855250505060208201879052604082018690526060909101908152336020918201526000838152600a825260409020825180519192611d4d92849290910190612a08565b506020828101518051611d669260018501920190612a08565b5060408201518051611d82916002840191602090910190612a08565b50606082015181600301556080820151816004015560a08201518160050160006101000a81548160ff02191690836003811115611dd25760e060020a634e487b7102600052602160045260246000fd5b021790555060c0919091015160059091018054600160a060020a039092166101000274ffffffffffffffffffffffffffffffffffffffff00199092169190911790556000818152600c602090815260408083208054600160a060020a03191633179055600980546001810182559084527f6e1540171b6c0c960b71a7020d9f60077f6af931a8bbf590da0223dacf75c7af0184905551611e78918d918d91899101612f1d565b60408051601f1981840301815282825280516020918201206000868152600b9092529190208190559150611eaf908c908c90612f0d565b60405190819003812090339084907f762f1a2f7e87bdc2ebbbeb92df2d742317f8e1353aafc0c70b060981e72271f490600090a4509998505050505050505050565b6000611efd60076126da565b6000611f0960076126e3565b9050611f1533826126e7565b6040518060e001604052808a8a8080601f016020809104026020016040519081016040528093929190818152602001838380828437600092019190915250505090825250604080516020601f8b0181900481028201810190925289815291810191908a908a9081908401838280828437600092019190915250505090825250604080516020601f890181900481028201810190925287815291810191908890889081908401838280828437600092018290525093855250505060208201869052604082015260600160038152336020918201526000838152600a82526040902082518051919261200a92849290910190612a08565b5060208281015180516120239260018501920190612a08565b506040820151805161203f916002840191602090910190612a08565b50606082015181600301556080820151816004015560a08201518160050160006101000a81548160ff0219169083600381111561208f5760e060020a634e487b7102600052602160045260246000fd5b021790555060c0919091015160059091018054600160a060020a039092166101000274ffffffffffffffffffffffffffffffffffffffff00199092169190911790556000818152600c602090815260408083208054600160a060020a0319163317905551612103918c918c91889101612f1d565b60408051601f1981840301815282825280516020918201206000868152600b909252919020819055915061213a908b908b90612f0d565b60405190819003812090339084907f4d80549dfe39c90078d620fcd854e5cbf03ace471593a7df725d1191056f30a190600090a45098975050505050505050565b600160a060020a0380831660009081526006602090815260408083209385168352929052205460ff165b92915050565b600d60205260009081526040902054600160a060020a031681565b6121ce6122a1565b600160a060020a03166121df611180565b600160a060020a0316146122085760405160e560020a62461bcd028152600401610247906137a3565b600160a060020a0381166122315760405160e560020a62461bcd028152600401610247906131e9565b61223a816124ce565b50565b6000908152600a602052604090206004015490565b600160e060020a031981167f01ffc9a70000000000000000000000000000000000000000000000000000000014919050565b600090815260036020526040902054600160a060020a0316151590565b3390565b60008181526005602052604090208054600160a060020a031916600160a060020a03841690811790915581906122da82610e55565b600160a060020a03167f8c5be1e5ebec7d5bd14f71427d1e84f3dd0314c0f7b2291e5b200ac8c7c3b92560405160405180910390a45050565b600061231e82612284565b61233d5760405160e560020a62461bcd0281526004016102479061336e565b600061234883610e55565b905080600160a060020a031684600160a060020a03161480612383575083600160a060020a031661237884610806565b600160a060020a0316145b806123935750612393818561217b565b949350505050565b82600160a060020a03166123ae82610e55565b600160a060020a0316146123d75760405160e560020a62461bcd02815260040161024790613835565b600160a060020a0382166124005760405160e560020a62461bcd0281526004016102479061327d565b61240b8383836108e5565b6124166000826122a5565b600160a060020a038316600090815260046020526040812080546001929061243f908490613c4a565b9091555050600160a060020a038216600090815260046020526040812080546001929061246d908490613c1e565b90915550506000818152600360205260408082208054600160a060020a031916600160a060020a0386811691821790925591518493918716917fddf252ad1be2c89b69c2b068fc378daa952ba7f163c4a11628f55a4df523b3ef91a4505050565b60008054600160a060020a03838116600160a060020a0319831681178455604051919092169283917f8be0079c531659141344cd1fd0a4f28419497f9722a3daafe3b4186f6b6457e09190a35050565b61252984848461239b565b612535848484846127cc565b6118e25760405160e560020a62461bcd0281526004016102479061318c565b60408051602081019091526000815290565b6060816125a7575060408051808201909152600181527f3000000000000000000000000000000000000000000000000000000000000000602082015261076f565b8160005b81156125d157806125bb81613ccb565b91506125ca9050600a83613c36565b91506125ab565b60008167ffffffffffffffff8111156125fd5760e060020a634e487b7102600052604160045260246000fd5b6040519080825280601f01601f191660200182016040528015612627576020820181803683370190505b5090505b84156123935761263c600183613c4a565b9150612649600a86613ce6565b612654906030613c1e565b7f0100000000000000000000000000000000000000000000000000000000000000028183815181106126995760e060020a634e487b7102600052603260045260246000fd5b60200101907effffffffffffffffffffffffffffffffffffffffffffffffffffffffffffff1916908160001a9053506126d3600a86613c36565b945061262b565b80546001019055565b5490565b600160a060020a0382166127105760405160e560020a62461bcd02815260040161024790613657565b61271981612284565b156127395760405160e560020a62461bcd02815260040161024790613246565b612745600083836108e5565b600160a060020a038216600090815260046020526040812080546001929061276e908490613c1e565b90915550506000818152600360205260408082208054600160a060020a031916600160a060020a03861690811790915590518392907fddf252ad1be2c89b69c2b068fc378daa952ba7f163c4a11628f55a4df523b3ef908290a45050565b60006127e084600160a060020a031661291f565b156129145783600160a060020a031663150b7a026127fc6122a1565b8786866040518563ffffffff167c010000000000000000000000000000000000000000000000000000000002815260040161283a9493929190613013565b602060405180830381600087803b15801561285457600080fd5b505af1925050508015612884575060408051601f3d908101601f1916820190925261288191810190612cc1565b60015b6128e1573d8080156128b2576040519150601f19603f3d011682016040523d82523d6000602084013e6128b7565b606091505b5080516128d95760405160e560020a62461bcd0281526004016102479061318c565b805181602001fd5b600160e060020a0319167f150b7a0200000000000000000000000000000000000000000000000000000000149050612393565b506001949350505050565b3b151590565b82805461293190613c8d565b90600052602060002090601f0160209004810192826129535760008555612999565b82601f1061296c5782800160ff19823516178555612999565b82800160010185558215612999579182015b8281111561299957823582559160200191906001019061297e565b506129a5929150612a7c565b5090565b6040518060e001604052806060815260200160608152602001606081526020016000815260200160008152602001600060038111156129fb5760e060020a634e487b7102600052602160045260246000fd5b8152600060209091015290565b828054612a1490613c8d565b90600052602060002090601f016020900481019282612a365760008555612999565b82601f10612a4f57805160ff1916838001178555612999565b82800160010185558215612999579182015b82811115612999578251825591602001919060010190612a61565b5b808211156129a55760008155600101612a7d565b8035600160a060020a038116811461076f57600080fd5b60008083601f840112612ab9578182fd5b50813567ffffffffffffffff811115612ad0578182fd5b602083019150836020828501011115612ae857600080fd5b9250929050565b600060208284031215612b00578081fd5b610afd82612a91565b60008060408385031215612b1b578081fd5b612b2483612a91565b9150612b3260208401612a91565b90509250929050565b600080600060608486031215612b4f578081fd5b612b5884612a91565b9250612b6660208501612a91565b9150604084013590509250925092565b60008060008060808587031215612b8b578081fd5b612b9485612a91565b93506020612ba3818701612a91565b935060408601359250606086013567ffffffffffffffff80821115612bc6578384fd5b818801915088601f830112612bd9578384fd5b813581811115612beb57612beb613d2c565b604051601f8201601f1916810185018381118282101715612c0e57612c0e613d2c565b60405281815283820185018b1015612c24578586fd5b81858501868301379081019093019390935250939692955090935050565b60008060408385031215612c54578182fd5b612c5d83612a91565b915060208301358015158114612c71578182fd5b809150509250929050565b60008060408385031215612c8e578182fd5b612c9783612a91565b946020939093013593505050565b600060208284031215612cb6578081fd5b8135610afd81613d45565b600060208284031215612cd2578081fd5b8151610afd81613d45565b60008060008060008060006080888a031215612cf7578283fd5b873567ffffffffffffffff80821115612d0e578485fd5b612d1a8b838c01612aa8565b909950975060208a0135915080821115612d32578485fd5b612d3e8b838c01612aa8565b909750955060408a0135915080821115612d56578485fd5b50612d638a828b01612aa8565b989b979a50959894979596606090950135949350505050565b60008060008060008060008060a0898b031215612d97578081fd5b883567ffffffffffffffff80821115612dae578283fd5b612dba8c838d01612aa8565b909a50985060208b0135915080821115612dd2578283fd5b612dde8c838d01612aa8565b909850965060408b0135915080821115612df6578283fd5b50612e038b828c01612aa8565b999c989b509699959896976060870135966080013595509350505050565b600060208284031215612e32578081fd5b5035919050565b600060208284031215612e4a578081fd5b5051919050565b600080600060408486031215612e65578081fd5b83359250602084013567ffffffffffffffff811115612e82578182fd5b612e8e86828701612aa8565b9497909650939450505050565b60008060408385031215612ead578182fd5b50508035926020909101359150565b60008151808452612ed4816020860160208601613c61565b601f01601f19169290920160200192915050565b60048110612f095760e060020a634e487b7102600052602160045260246000fd5b9052565b6000828483379101908152919050565b60008385833750909101908152602001919050565b60008351612f44818460208801613c61565b835190830190612f58818360208801613c61565b01949350505050565b8154600090819060028104600180831680612f7d57607f831692505b6020808410821415612fa05760e060020a634e487b710287526022600452602487fd5b818015612fb45760018114612fc557612ff1565b60ff19861689528489019650612ff1565b612fce8a613c12565b885b86811015612fe95781548b820152908501908301612fd0565b505084890196505b509498975050505050505050565b600160a060020a0391909116815260200190565b6000600160a060020a038087168352808616602084015250836040830152608060608301526130456080830184612ebc565b9695505050505050565b6020808252825182820181905260009190848201906040850190845b818110156130875783518352928401929184019160010161306b565b50909695505050505050565b901515815260200190565b602081016121a58284612ee8565b600060208252610afd6020830184612ebc565b600060e082526130d260e083018a612ebc565b82810360208401526130e4818a612ebc565b905082810360408401526130f88189612ebc565b91505085606083015284608083015261311460a0830185612ee8565b600160a060020a03831660c083015298975050505050505050565b6020808252602e908201527f5061796d656e7420616d6f756e74206d7573742065786163746c79206d61746360408201527f68206c6973746564207072696365000000000000000000000000000000000000606082015260800190565b60208082526032908201527f4552433732313a207472616e7366657220746f206e6f6e20455243373231526560408201527f63656976657220696d706c656d656e7465720000000000000000000000000000606082015260800190565b60208082526026908201527f4f776e61626c653a206e6577206f776e657220697320746865207a65726f206160408201527f6464726573730000000000000000000000000000000000000000000000000000606082015260800190565b6020808252601c908201527f4552433732313a20746f6b656e20616c7265616479206d696e74656400000000604082015260600190565b60208082526024908201527f4552433732313a207472616e7366657220746f20746865207a65726f2061646460408201527f7265737300000000000000000000000000000000000000000000000000000000606082015260800190565b60208082526019908201527f4552433732313a20617070726f766520746f2063616c6c657200000000000000604082015260600190565b60208082526032908201527f596f757220486f726e2069732076616c7561626c6520616e642063616e6e6f7460408201527f20626520736f6c6420666f722066726565210000000000000000000000000000606082015260800190565b6020808252602c908201527f4552433732313a206f70657261746f7220717565727920666f72206e6f6e657860408201527f697374656e7420746f6b656e0000000000000000000000000000000000000000606082015260800190565b60208082526038908201527f4552433732313a20617070726f76652063616c6c6572206973206e6f74206f7760408201527f6e6572206e6f7220617070726f76656420666f7220616c6c0000000000000000606082015260800190565b6020808252603a908201527f5468697320636f6e7472616374206d757374206669727374206265206170707260408201527f6f7665642062792063757272656e7420686f726e206f776e6572000000000000606082015260800190565b6020808252602a908201527f4552433732313a2062616c616e636520717565727920666f7220746865207a6560408201527f726f206164647265737300000000000000000000000000000000000000000000606082015260800190565b60208082526029908201527f4552433732313a206f776e657220717565727920666f72206e6f6e657869737460408201527f656e7420746f6b656e0000000000000000000000000000000000000000000000606082015260800190565b60208082526028908201527f486f726e20686173206e6f74206265656e206d61726b6564206173207061696460408201527f20666f7220796574000000000000000000000000000000000000000000000000606082015260800190565b602080825260409082018190527f546869732066756e6374696f6e206d6179206f6e6c792062652063616c6c6564908201527f20627920612062757965722077686f2068617320616c72656164792070616964606082015260800190565b60208082526025908201527f486f726e206973206e6f742063757272656e746c79206c697374656420666f7260408201527f2073616c65000000000000000000000000000000000000000000000000000000606082015260800190565b6020808252818101527f4552433732313a206d696e7420746f20746865207a65726f2061646472657373604082015260600190565b60208082526038908201527f546869732066756e6374696f6e206d6179206f6e6c792062652063616c6c656460408201527f2062792074686520686f726e204e46542773206f776e65720000000000000000606082015260800190565b6020808252602c908201527f4552433732313a20617070726f76656420717565727920666f72206e6f6e657860408201527f697374656e7420746f6b656e0000000000000000000000000000000000000000606082015260800190565b60208082526034908201527f4275796572206d7573742073656e64207061796d656e7420666f7220486f726e60408201527f204e465420746f20657363726f77206669727374000000000000000000000000606082015260800190565b6020808252818101527f4f776e61626c653a2063616c6c6572206973206e6f7420746865206f776e6572604082015260600190565b60208082526026908201527f486f726e204e4654206d75737420657869737420616e642063616e6e6f74206260408201527f6520667265650000000000000000000000000000000000000000000000000000606082015260800190565b60208082526029908201527f4552433732313a207472616e73666572206f6620746f6b656e2074686174206960408201527f73206e6f74206f776e0000000000000000000000000000000000000000000000606082015260800190565b6020808252602f908201527f4552433732314d657461646174613a2055524920717565727920666f72206e6f60408201527f6e6578697374656e7420746f6b656e0000000000000000000000000000000000606082015260800190565b6020808252603a908201527f4164647265737320676976656e20646f6573206e6f74206d617463682074686560408201527f206f6e65206f6e2066696c6520666f7220746865206275796572000000000000606082015260800190565b60208082526021908201527f4552433732313a20617070726f76616c20746f2063757272656e74206f776e6560408201527f7200000000000000000000000000000000000000000000000000000000000000606082015260800190565b60208082526031908201527f4552433732313a207472616e736665722063616c6c6572206973206e6f74206f60408201527f776e6572206e6f7220617070726f766564000000000000000000000000000000606082015260800190565b60208082526027908201527f486f726e20686173206e6f74206265656e206d61726b6564206173207368697060408201527f7065642079657400000000000000000000000000000000000000000000000000606082015260800190565b60208082526024908201527f596f757220486f726e20697320616c7265616479206c697374656420666f722060408201527f73616c6500000000000000000000000000000000000000000000000000000000606082015260800190565b6020808252606b908201527f506c6561736520646f206e6f742073656e64207468697320636f6e747261637460408201527f2066756e647320776974686f757420616e792066756e6374696f6e2063616c6c60608201527f2064617461206f722063616c6c20612066756e6374696f6e207468617420646f60808201527f65736e277420657869737400000000000000000000000000000000000000000060a082015260c00190565b600060208252825160e06020840152613b86610100840182612ebc565b90506020840151601f1980858403016040860152613ba48383612ebc565b9250604086015191508085840301606086015250613bc28282612ebc565b91505060608401516080840152608084015160a084015260a0840151613beb60c0850182612ee8565b50600160a060020a0360c08501511660e08401528091505092915050565b90815260200190565b60009081526020902090565b60008219821115613c3157613c31613cfa565b500190565b600082613c4557613c45613d13565b500490565b600082821015613c5c57613c5c613cfa565b500390565b60005b83811015613c7c578181015183820152602001613c64565b838111156118e25750506000910152565b600281046001821680613ca157607f821691505b60208210811415613cc55760e060020a634e487b7102600052602260045260246000fd5b50919050565b6000600019821415613cdf57613cdf613cfa565b5060010190565b600082613cf557613cf5613d13565b500690565b60e060020a634e487b7102600052601160045260246000fd5b60e060020a634e487b7102600052601260045260246000fd5b60e060020a634e487b7102600052604160045260246000fd5b600160e060020a03198116811461223a57600080fdfea2646970667358221220a1dffef419f93195dd7fe5c7c768e0f21e98e963afe26d77fe750a33df9635b464736f6c63430008000033608060405234801561001057600080fd5b50610033610025640100000000610038810204565b64010000000061003c810204565b61008c565b3390565b60008054600160a060020a03838116600160a060020a0319831681178455604051919092169283917f8be0079c531659141344cd1fd0a4f28419497f9722a3daafe3b4186f6b6457e09190a35050565b6106858061009b6000396000f3fe608060405260043610610071577c0100000000000000000000000000000000000000000000000000000000600035046351cff8d98114610076578063715018a6146100985780638da5cb5b146100ad578063e3a9db1a146100d8578063f2fde38b14610105578063f340fa0114610125575b600080fd5b34801561008257600080fd5b50610096610091366004610494565b610138565b005b3480156100a457600080fd5b506100966101f0565b3480156100b957600080fd5b506100c261023e565b6040516100cf91906104ba565b60405180910390f35b3480156100e457600080fd5b506100f86100f3366004610494565b61024d565b6040516100cf91906105f4565b34801561011157600080fd5b50610096610120366004610494565b610268565b610096610133366004610494565b6102df565b61014061038b565b600160a060020a031661015161023e565b600160a060020a0316146101835760405160e560020a62461bcd02815260040161017a906105bf565b60405180910390fd5b600160a060020a03811660008181526001602052604081208054919055906101ab908261038f565b81600160a060020a03167f7084f5476618d8e60b11ef0d7d3f06914655adb8793e28ff7f018d4c76d505d5826040516101e491906105f4565b60405180910390a25050565b6101f861038b565b600160a060020a031661020961023e565b600160a060020a0316146102325760405160e560020a62461bcd02815260040161017a906105bf565b61023c6000610437565b565b600054600160a060020a031690565b600160a060020a031660009081526001602052604090205490565b61027061038b565b600160a060020a031661028161023e565b600160a060020a0316146102aa5760405160e560020a62461bcd02815260040161017a906105bf565b600160a060020a0381166102d35760405160e560020a62461bcd02815260040161017a906104ce565b6102dc81610437565b50565b6102e761038b565b600160a060020a03166102f861023e565b600160a060020a0316146103215760405160e560020a62461bcd02815260040161017a906105bf565b600160a060020a03811660009081526001602052604081208054349283929161034b9084906105fd565b9250508190555081600160a060020a03167f2da466a7b24304f47e87fa2e1e5a81b9831ce54fec19055ce277ca2f39ba42c4826040516101e491906105f4565b3390565b30318111156103b35760405160e560020a62461bcd02815260040161017a90610588565b600082600160a060020a0316826040516103cc906104b7565b60006040518083038185875af1925050503d8060008114610409576040519150601f19603f3d011682016040523d82523d6000602084013e61040e565b606091505b50509050806104325760405160e560020a62461bcd02815260040161017a9061052b565b505050565b60008054600160a060020a0383811673ffffffffffffffffffffffffffffffffffffffff19831681178455604051919092169283917f8be0079c531659141344cd1fd0a4f28419497f9722a3daafe3b4186f6b6457e09190a35050565b6000602082840312156104a5578081fd5b81356104b08161063a565b9392505050565b90565b600160a060020a0391909116815260200190565b60208082526026908201527f4f776e61626c653a206e6577206f776e657220697320746865207a65726f206160408201527f6464726573730000000000000000000000000000000000000000000000000000606082015260800190565b6020808252603a908201527f416464726573733a20756e61626c6520746f2073656e642076616c75652c207260408201527f6563697069656e74206d61792068617665207265766572746564000000000000606082015260800190565b6020808252601d908201527f416464726573733a20696e73756666696369656e742062616c616e6365000000604082015260600190565b6020808252818101527f4f776e61626c653a2063616c6c6572206973206e6f7420746865206f776e6572604082015260600190565b90815260200190565b60008219821115610635577f4e487b710000000000000000000000000000000000000000000000000000000081526011600452602481fd5b500190565b600160a060020a03811681146102dc57600080fdfea2646970667358221220f305965515bf56bd3bdd388a27299eb6d2511a6b76cdf0be030db5497f01ed0064736f6c63430008000033",
  "immutableReferences": {},
  "source": "// SPDX-License-Identifier: MIT\npragma solidity 0.8.0;\n\nimport \"./HornMarketplace.sol\";\n\ncontract Getters is HornMarketplace {\n\n    /*\n        Helper functions that provide getter functionality\n    */\n    // @dev Returns an array of hornId uints that are read by the front end to display Horns listed for sale\n    function getHornById(uint _index) public view returns (Horn memory) {\n        return horns[_index];\n    }\n\n    function getCurrentHornsForSale() public view returns (uint[] memory) {\n        return hornsForSale;\n    }\n\n    function getListPriceByHornId(uint __hornId) public view returns (uint) {\n        return horns[__hornId].listPrice; \n    }\n\n    function getCurrentOwnerByMapping(uint __hornId) public view returns (address payable) {\n        return payable(currentOwners[__hornId]);\n    }\n\n    function getCurrentOwnerByStructAttribute(uint __hornId) public view returns (address payable) {\n        return horns[__hornId].currentOwner;\n    }\n\n    function getStatusOfHornByHornId(uint __hornId) public view returns (HornStatus) {\n        return horns[__hornId].status;\n    }\n\n    function getEscrowDepositValue(address payee) public view returns (uint) {\n        uint escrowBalance = escrow.depositsOf(payee);\n        return escrowBalance;\n    }\n\n    function getBalanceOf(address _owner) public view returns (uint) {\n        uint hornBalance = balanceOf(_owner);\n        return hornBalance;\n    }\n\n    function getApprovedToSpend(uint _tokenId) public view returns (address) {\n        address _approved = getApproved(_tokenId);\n        return _approved;\n    }\n}\n",
  "sourcePath": "/home/robriks/ConsensysAcademyBootCamp/final-proj/contracts/Getters.sol",
  "compiler": {
    "name": "solc",
    "version": "0.8.0+commit.c7dfd78e.Emscripten.clang"
  },
  "schemaVersion": "3.4.3",
  "updatedAt": "2021-11-15T01:55:58.341Z",
  "devdoc": {
    "kind": "dev",
    "methods": {
      "approve(address,uint256)": {
        "details": "See {IERC721-approve}."
      },
      "balanceOf(address)": {
        "details": "See {IERC721-balanceOf}."
      },
      "getApproved(uint256)": {
        "details": "See {IERC721-getApproved}."
      },
      "isApprovedForAll(address,address)": {
        "details": "See {IERC721-isApprovedForAll}."
      },
      "name()": {
        "details": "See {IERC721Metadata-name}."
      },
      "owner()": {
        "details": "Returns the address of the current owner."
      },
      "ownerOf(uint256)": {
        "details": "See {IERC721-ownerOf}."
      },
      "renounceOwnership()": {
        "details": "Leaves the contract without owner. It will not be possible to call `onlyOwner` functions anymore. Can only be called by the current owner. NOTE: Renouncing ownership will leave the contract without an owner, thereby removing any functionality that is only available to the owner."
      },
      "safeTransferFrom(address,address,uint256)": {
        "details": "See {IERC721-safeTransferFrom}."
      },
      "safeTransferFrom(address,address,uint256,bytes)": {
        "details": "See {IERC721-safeTransferFrom}."
      },
      "setApprovalForAll(address,bool)": {
        "details": "See {IERC721-setApprovalForAll}."
      },
      "supportsInterface(bytes4)": {
        "details": "See {IERC165-supportsInterface}."
      },
      "symbol()": {
        "details": "See {IERC721Metadata-symbol}."
      },
      "tokenURI(uint256)": {
        "details": "See {IERC721Metadata-tokenURI}."
      },
      "transferFrom(address,address,uint256)": {
        "details": "See {IERC721-transferFrom}."
      },
      "transferOwnership(address)": {
        "details": "Transfers ownership of the contract to a new account (`newOwner`). Can only be called by the current owner."
      }
    },
    "version": 1
  },
  "userdoc": {
    "kind": "user",
    "methods": {},
    "version": 1
  }
}