{
  "contractName": "Getters",
  "abi": [
    {
      "anonymous": false,
      "inputs": [
        {
          "indexed": true,
          "internalType": "address",
          "name": "owner",
          "type": "address"
        },
        {
          "indexed": true,
          "internalType": "address",
          "name": "approved",
          "type": "address"
        },
        {
          "indexed": true,
          "internalType": "uint256",
          "name": "tokenId",
          "type": "uint256"
        }
      ],
      "name": "Approval",
      "type": "event"
    },
    {
      "anonymous": false,
      "inputs": [
        {
          "indexed": true,
          "internalType": "address",
          "name": "owner",
          "type": "address"
        },
        {
          "indexed": true,
          "internalType": "address",
          "name": "operator",
          "type": "address"
        },
        {
          "indexed": false,
          "internalType": "bool",
          "name": "approved",
          "type": "bool"
        }
      ],
      "name": "ApprovalForAll",
      "type": "event"
    },
    {
      "anonymous": false,
      "inputs": [
        {
          "indexed": true,
          "internalType": "address",
          "name": "payee",
          "type": "address"
        },
        {
          "indexed": true,
          "internalType": "uint256",
          "name": "amountInWei",
          "type": "uint256"
        }
      ],
      "name": "DepositedToEscrow",
      "type": "event"
    },
    {
      "anonymous": false,
      "inputs": [
        {
          "indexed": true,
          "internalType": "uint256",
          "name": "hornId",
          "type": "uint256"
        },
        {
          "indexed": true,
          "internalType": "address",
          "name": "from",
          "type": "address"
        },
        {
          "indexed": true,
          "internalType": "address",
          "name": "to",
          "type": "address"
        }
      ],
      "name": "HornDeliveredAndNFTOwnershipTransferred",
      "type": "event"
    },
    {
      "anonymous": false,
      "inputs": [
        {
          "indexed": true,
          "internalType": "uint256",
          "name": "hornId",
          "type": "uint256"
        },
        {
          "indexed": true,
          "internalType": "address",
          "name": "seller",
          "type": "address"
        },
        {
          "indexed": true,
          "internalType": "string",
          "name": "make",
          "type": "string"
        }
      ],
      "name": "HornListedForSale",
      "type": "event"
    },
    {
      "anonymous": false,
      "inputs": [
        {
          "indexed": true,
          "internalType": "uint256",
          "name": "hornId",
          "type": "uint256"
        },
        {
          "indexed": true,
          "internalType": "string",
          "name": "shipTo",
          "type": "string"
        },
        {
          "indexed": true,
          "internalType": "address",
          "name": "buyer",
          "type": "address"
        }
      ],
      "name": "HornPurchased",
      "type": "event"
    },
    {
      "anonymous": false,
      "inputs": [
        {
          "indexed": true,
          "internalType": "uint256",
          "name": "hornId",
          "type": "uint256"
        },
        {
          "indexed": true,
          "internalType": "string",
          "name": "shipTo",
          "type": "string"
        },
        {
          "indexed": true,
          "internalType": "address",
          "name": "to",
          "type": "address"
        }
      ],
      "name": "HornShipped",
      "type": "event"
    },
    {
      "anonymous": false,
      "inputs": [
        {
          "indexed": true,
          "internalType": "uint256",
          "name": "hornId",
          "type": "uint256"
        },
        {
          "indexed": true,
          "internalType": "address",
          "name": "seller",
          "type": "address"
        },
        {
          "indexed": true,
          "internalType": "string",
          "name": "make",
          "type": "string"
        }
      ],
      "name": "NewHornNFTMinted",
      "type": "event"
    },
    {
      "anonymous": false,
      "inputs": [
        {
          "indexed": true,
          "internalType": "address",
          "name": "previousOwner",
          "type": "address"
        },
        {
          "indexed": true,
          "internalType": "address",
          "name": "newOwner",
          "type": "address"
        }
      ],
      "name": "OwnershipTransferred",
      "type": "event"
    },
    {
      "anonymous": false,
      "inputs": [
        {
          "indexed": true,
          "internalType": "uint256",
          "name": "hornId",
          "type": "uint256"
        },
        {
          "indexed": true,
          "internalType": "address",
          "name": "payer",
          "type": "address"
        },
        {
          "indexed": true,
          "internalType": "address",
          "name": "payee",
          "type": "address"
        }
      ],
      "name": "SellerPaid",
      "type": "event"
    },
    {
      "anonymous": false,
      "inputs": [
        {
          "indexed": true,
          "internalType": "address",
          "name": "from",
          "type": "address"
        },
        {
          "indexed": true,
          "internalType": "address",
          "name": "to",
          "type": "address"
        },
        {
          "indexed": true,
          "internalType": "uint256",
          "name": "tokenId",
          "type": "uint256"
        }
      ],
      "name": "Transfer",
      "type": "event"
    },
    {
      "anonymous": false,
      "inputs": [
        {
          "indexed": true,
          "internalType": "address",
          "name": "payee",
          "type": "address"
        },
        {
          "indexed": true,
          "internalType": "uint256",
          "name": "amountInWei",
          "type": "uint256"
        }
      ],
      "name": "WithdrawnFromEscrow",
      "type": "event"
    },
    {
      "stateMutability": "payable",
      "type": "fallback"
    },
    {
      "inputs": [],
      "name": "_hornId",
      "outputs": [
        {
          "internalType": "uint256",
          "name": "_value",
          "type": "uint256"
        }
      ],
      "stateMutability": "view",
      "type": "function"
    },
    {
      "inputs": [
        {
          "internalType": "address",
          "name": "to",
          "type": "address"
        },
        {
          "internalType": "uint256",
          "name": "tokenId",
          "type": "uint256"
        }
      ],
      "name": "approve",
      "outputs": [],
      "stateMutability": "nonpayable",
      "type": "function"
    },
    {
      "inputs": [
        {
          "internalType": "address",
          "name": "owner",
          "type": "address"
        }
      ],
      "name": "balanceOf",
      "outputs": [
        {
          "internalType": "uint256",
          "name": "",
          "type": "uint256"
        }
      ],
      "stateMutability": "view",
      "type": "function"
    },
    {
      "inputs": [
        {
          "internalType": "uint256",
          "name": "",
          "type": "uint256"
        }
      ],
      "name": "buyers",
      "outputs": [
        {
          "internalType": "address",
          "name": "",
          "type": "address"
        }
      ],
      "stateMutability": "view",
      "type": "function"
    },
    {
      "inputs": [
        {
          "internalType": "uint256",
          "name": "tokenId",
          "type": "uint256"
        }
      ],
      "name": "getApproved",
      "outputs": [
        {
          "internalType": "address",
          "name": "",
          "type": "address"
        }
      ],
      "stateMutability": "view",
      "type": "function"
    },
    {
      "inputs": [
        {
          "internalType": "uint256",
          "name": "_tokenId",
          "type": "uint256"
        }
      ],
      "name": "getApprovedToSpend",
      "outputs": [
        {
          "internalType": "address",
          "name": "",
          "type": "address"
        }
      ],
      "stateMutability": "view",
      "type": "function"
    },
    {
      "inputs": [
        {
          "internalType": "address",
          "name": "_owner",
          "type": "address"
        }
      ],
      "name": "getBalanceOf",
      "outputs": [
        {
          "internalType": "uint256",
          "name": "",
          "type": "uint256"
        }
      ],
      "stateMutability": "view",
      "type": "function"
    },
    {
      "inputs": [],
      "name": "getCurrentHornsForSale",
      "outputs": [
        {
          "internalType": "uint256[]",
          "name": "",
          "type": "uint256[]"
        }
      ],
      "stateMutability": "view",
      "type": "function"
    },
    {
      "inputs": [
        {
          "internalType": "uint256",
          "name": "__hornId",
          "type": "uint256"
        }
      ],
      "name": "getCurrentOwnerByMapping",
      "outputs": [
        {
          "internalType": "address payable",
          "name": "",
          "type": "address"
        }
      ],
      "stateMutability": "view",
      "type": "function"
    },
    {
      "inputs": [
        {
          "internalType": "uint256",
          "name": "__hornId",
          "type": "uint256"
        }
      ],
      "name": "getCurrentOwnerByStructAttribute",
      "outputs": [
        {
          "internalType": "address payable",
          "name": "",
          "type": "address"
        }
      ],
      "stateMutability": "view",
      "type": "function"
    },
    {
      "inputs": [
        {
          "internalType": "address",
          "name": "payee",
          "type": "address"
        }
      ],
      "name": "getEscrowDepositValue",
      "outputs": [
        {
          "internalType": "uint256",
          "name": "",
          "type": "uint256"
        }
      ],
      "stateMutability": "view",
      "type": "function"
    },
    {
      "inputs": [],
      "name": "getEscrowOwner",
      "outputs": [
        {
          "internalType": "address",
          "name": "",
          "type": "address"
        }
      ],
      "stateMutability": "view",
      "type": "function"
    },
    {
      "inputs": [
        {
          "internalType": "uint256",
          "name": "_index",
          "type": "uint256"
        }
      ],
      "name": "getHornById",
      "outputs": [
        {
          "components": [
            {
              "internalType": "string",
              "name": "make",
              "type": "string"
            },
            {
              "internalType": "string",
              "name": "model",
              "type": "string"
            },
            {
              "internalType": "string",
              "name": "style",
              "type": "string"
            },
            {
              "internalType": "uint256",
              "name": "serialNumber",
              "type": "uint256"
            },
            {
              "internalType": "uint256",
              "name": "listPrice",
              "type": "uint256"
            },
            {
              "internalType": "enum HornMarketplace.HornStatus",
              "name": "status",
              "type": "uint8"
            },
            {
              "internalType": "address payable",
              "name": "currentOwner",
              "type": "address"
            }
          ],
          "internalType": "struct HornMarketplace.Horn",
          "name": "",
          "type": "tuple"
        }
      ],
      "stateMutability": "view",
      "type": "function"
    },
    {
      "inputs": [
        {
          "internalType": "uint256",
          "name": "__hornId",
          "type": "uint256"
        }
      ],
      "name": "getListPriceByHornId",
      "outputs": [
        {
          "internalType": "uint256",
          "name": "",
          "type": "uint256"
        }
      ],
      "stateMutability": "view",
      "type": "function"
    },
    {
      "inputs": [
        {
          "internalType": "uint256",
          "name": "__hornId",
          "type": "uint256"
        }
      ],
      "name": "getStatusOfHornByHornId",
      "outputs": [
        {
          "internalType": "enum HornMarketplace.HornStatus",
          "name": "",
          "type": "uint8"
        }
      ],
      "stateMutability": "view",
      "type": "function"
    },
    {
      "inputs": [
        {
          "internalType": "uint256",
          "name": "",
          "type": "uint256"
        }
      ],
      "name": "horns",
      "outputs": [
        {
          "internalType": "string",
          "name": "make",
          "type": "string"
        },
        {
          "internalType": "string",
          "name": "model",
          "type": "string"
        },
        {
          "internalType": "string",
          "name": "style",
          "type": "string"
        },
        {
          "internalType": "uint256",
          "name": "serialNumber",
          "type": "uint256"
        },
        {
          "internalType": "uint256",
          "name": "listPrice",
          "type": "uint256"
        },
        {
          "internalType": "enum HornMarketplace.HornStatus",
          "name": "status",
          "type": "uint8"
        },
        {
          "internalType": "address payable",
          "name": "currentOwner",
          "type": "address"
        }
      ],
      "stateMutability": "view",
      "type": "function"
    },
    {
      "inputs": [
        {
          "internalType": "uint256",
          "name": "",
          "type": "uint256"
        }
      ],
      "name": "hornsForSale",
      "outputs": [
        {
          "internalType": "uint256",
          "name": "",
          "type": "uint256"
        }
      ],
      "stateMutability": "view",
      "type": "function"
    },
    {
      "inputs": [
        {
          "internalType": "address",
          "name": "owner",
          "type": "address"
        },
        {
          "internalType": "address",
          "name": "operator",
          "type": "address"
        }
      ],
      "name": "isApprovedForAll",
      "outputs": [
        {
          "internalType": "bool",
          "name": "",
          "type": "bool"
        }
      ],
      "stateMutability": "view",
      "type": "function"
    },
    {
      "inputs": [
        {
          "internalType": "uint256",
          "name": "__hornId",
          "type": "uint256"
        },
        {
          "internalType": "uint256",
          "name": "_desiredPrice",
          "type": "uint256"
        }
      ],
      "name": "listExistingHornNFT",
      "outputs": [
        {
          "internalType": "uint256",
          "name": "",
          "type": "uint256"
        }
      ],
      "stateMutability": "nonpayable",
      "type": "function"
    },
    {
      "inputs": [
        {
          "internalType": "uint256",
          "name": "__hornId",
          "type": "uint256"
        }
      ],
      "name": "markHornDeliveredAndOwnershipTransferred",
      "outputs": [
        {
          "internalType": "uint256",
          "name": "",
          "type": "uint256"
        }
      ],
      "stateMutability": "nonpayable",
      "type": "function"
    },
    {
      "inputs": [
        {
          "internalType": "uint256",
          "name": "__hornId",
          "type": "uint256"
        },
        {
          "internalType": "string",
          "name": "shippedTo",
          "type": "string"
        }
      ],
      "name": "markHornShipped",
      "outputs": [],
      "stateMutability": "nonpayable",
      "type": "function"
    },
    {
      "inputs": [
        {
          "internalType": "string",
          "name": "_make",
          "type": "string"
        },
        {
          "internalType": "string",
          "name": "_model",
          "type": "string"
        },
        {
          "internalType": "string",
          "name": "_style",
          "type": "string"
        },
        {
          "internalType": "uint256",
          "name": "_serialNumber",
          "type": "uint256"
        }
      ],
      "name": "mintButDontListNewHornNFT",
      "outputs": [
        {
          "internalType": "uint256",
          "name": "",
          "type": "uint256"
        }
      ],
      "stateMutability": "nonpayable",
      "type": "function"
    },
    {
      "inputs": [
        {
          "internalType": "string",
          "name": "_make",
          "type": "string"
        },
        {
          "internalType": "string",
          "name": "_model",
          "type": "string"
        },
        {
          "internalType": "string",
          "name": "_style",
          "type": "string"
        },
        {
          "internalType": "uint256",
          "name": "_serialNumber",
          "type": "uint256"
        },
        {
          "internalType": "uint256",
          "name": "_desiredPrice",
          "type": "uint256"
        }
      ],
      "name": "mintThenListNewHornNFT",
      "outputs": [
        {
          "internalType": "uint256",
          "name": "",
          "type": "uint256"
        }
      ],
      "stateMutability": "nonpayable",
      "type": "function"
    },
    {
      "inputs": [],
      "name": "name",
      "outputs": [
        {
          "internalType": "string",
          "name": "",
          "type": "string"
        }
      ],
      "stateMutability": "view",
      "type": "function"
    },
    {
      "inputs": [],
      "name": "owner",
      "outputs": [
        {
          "internalType": "address",
          "name": "",
          "type": "address"
        }
      ],
      "stateMutability": "view",
      "type": "function"
    },
    {
      "inputs": [
        {
          "internalType": "uint256",
          "name": "tokenId",
          "type": "uint256"
        }
      ],
      "name": "ownerOf",
      "outputs": [
        {
          "internalType": "address",
          "name": "",
          "type": "address"
        }
      ],
      "stateMutability": "view",
      "type": "function"
    },
    {
      "inputs": [
        {
          "internalType": "uint256",
          "name": "__hornId",
          "type": "uint256"
        },
        {
          "internalType": "string",
          "name": "_shipTo",
          "type": "string"
        }
      ],
      "name": "purchaseHornByHornId",
      "outputs": [],
      "stateMutability": "payable",
      "type": "function"
    },
    {
      "inputs": [],
      "name": "renounceOwnership",
      "outputs": [],
      "stateMutability": "nonpayable",
      "type": "function"
    },
    {
      "inputs": [
        {
          "internalType": "address",
          "name": "from",
          "type": "address"
        },
        {
          "internalType": "address",
          "name": "to",
          "type": "address"
        },
        {
          "internalType": "uint256",
          "name": "tokenId",
          "type": "uint256"
        }
      ],
      "name": "safeTransferFrom",
      "outputs": [],
      "stateMutability": "nonpayable",
      "type": "function"
    },
    {
      "inputs": [
        {
          "internalType": "address",
          "name": "from",
          "type": "address"
        },
        {
          "internalType": "address",
          "name": "to",
          "type": "address"
        },
        {
          "internalType": "uint256",
          "name": "tokenId",
          "type": "uint256"
        },
        {
          "internalType": "bytes",
          "name": "_data",
          "type": "bytes"
        }
      ],
      "name": "safeTransferFrom",
      "outputs": [],
      "stateMutability": "nonpayable",
      "type": "function"
    },
    {
      "inputs": [
        {
          "internalType": "uint256",
          "name": "__hornId",
          "type": "uint256"
        }
      ],
      "name": "sellerInitiateRefundOrSetStatusToOwnedNotForSale",
      "outputs": [
        {
          "internalType": "enum HornMarketplace.HornStatus",
          "name": "",
          "type": "uint8"
        }
      ],
      "stateMutability": "nonpayable",
      "type": "function"
    },
    {
      "inputs": [
        {
          "internalType": "address",
          "name": "operator",
          "type": "address"
        },
        {
          "internalType": "bool",
          "name": "approved",
          "type": "bool"
        }
      ],
      "name": "setApprovalForAll",
      "outputs": [],
      "stateMutability": "nonpayable",
      "type": "function"
    },
    {
      "inputs": [
        {
          "internalType": "address",
          "name": "",
          "type": "address"
        }
      ],
      "name": "shippingAddresses",
      "outputs": [
        {
          "internalType": "string",
          "name": "",
          "type": "string"
        }
      ],
      "stateMutability": "view",
      "type": "function"
    },
    {
      "inputs": [
        {
          "internalType": "bytes4",
          "name": "interfaceId",
          "type": "bytes4"
        }
      ],
      "name": "supportsInterface",
      "outputs": [
        {
          "internalType": "bool",
          "name": "",
          "type": "bool"
        }
      ],
      "stateMutability": "view",
      "type": "function"
    },
    {
      "inputs": [],
      "name": "symbol",
      "outputs": [
        {
          "internalType": "string",
          "name": "",
          "type": "string"
        }
      ],
      "stateMutability": "view",
      "type": "function"
    },
    {
      "inputs": [
        {
          "internalType": "uint256",
          "name": "tokenId",
          "type": "uint256"
        }
      ],
      "name": "tokenURI",
      "outputs": [
        {
          "internalType": "string",
          "name": "",
          "type": "string"
        }
      ],
      "stateMutability": "view",
      "type": "function"
    },
    {
      "inputs": [
        {
          "internalType": "address",
          "name": "from",
          "type": "address"
        },
        {
          "internalType": "address",
          "name": "to",
          "type": "address"
        },
        {
          "internalType": "uint256",
          "name": "tokenId",
          "type": "uint256"
        }
      ],
      "name": "transferFrom",
      "outputs": [],
      "stateMutability": "nonpayable",
      "type": "function"
    },
    {
      "inputs": [
        {
          "internalType": "address",
          "name": "newOwner",
          "type": "address"
        }
      ],
      "name": "transferOwnership",
      "outputs": [],
      "stateMutability": "nonpayable",
      "type": "function"
    }
  ],
  "bytecode": "0x60806040523480156200001157600080fd5b506040518060400160405280600481526020017f486f726e000000000000000000000000000000000000000000000000000000008152506040518060400160405280600481526020017f484f524e00000000000000000000000000000000000000000000000000000000815250620000aa6200009b6200012a640100000000026401000000009004565b6401000000006200012e810204565b8151620000bf9060019060208501906200017e565b508051620000d59060029060208401906200017e565b505050604051620000e6906200020d565b604051809103906000f08015801562000103573d6000803e3d6000fd5b5060088054600160a060020a031916600160a060020a039290921691909117905562000288565b3390565b60008054600160a060020a03838116600160a060020a0319831681178455604051919092169283917f8be0079c531659141344cd1fd0a4f28419497f9722a3daafe3b4186f6b6457e09190a35050565b8280546200018c9062000232565b90600052602060002090601f016020900481019282620001b05760008555620001fb565b82601f10620001cb57805160ff1916838001178555620001fb565b82800160010185558215620001fb579182015b82811115620001fb578251825591602001919060010190620001de565b50620002099291506200021b565b5090565b6108d480620047f983390190565b5b808211156200020957600081556001016200021c565b6002810460018216806200024757607f821691505b6020821081141562000282577f4e487b7100000000000000000000000000000000000000000000000000000000600052602260045260246000fd5b50919050565b61456180620002986000396000f3fe6080604052600436106102a2576000357c0100000000000000000000000000000000000000000000000000000000900480638da5cb5b11610170578063c0227bbb116100e8578063e40b96cf1161009c578063f2aa821811610081578063f2aa821814610745578063f2fde38b14610765578063fd92de0114610785576102a2565b8063e40b96cf14610705578063e985e9c514610725576102a2565b8063cce44056116100cd578063cce44056146106b0578063cf44981a146106c5578063e3cbb368146106e5576102a2565b8063c0227bbb14610670578063c87b56dd14610690576102a2565b8063a22cb4651161013f578063b5178ed511610124578063b5178ed5146105fd578063b7d002f414610630578063b88d4fde14610650576102a2565b8063a22cb465146105bd578063b15fca9e146105dd576102a2565b80638da5cb5b1461055157806395d89b4114610566578063989604351461057b5780639b96eece1461059d576102a2565b806330333e971161021e5780636352211e116101d2578063715018a6116101b7578063715018a6146104ef57806376cb00ee146105045780638007eb4814610531576102a2565b80636352211e146104af57806370a08231146104cf576102a2565b80633dda1fca116102035780633dda1fca1461044257806342842e0e1461046257806349870e5314610482576102a2565b806330333e971461041a5780633a7707451461042f576102a2565b806311723dc21161027557806319df66f41161025a57806319df66f4146103ba5780631c5e1d5e146103da57806323b872dd146103fa576102a2565b806311723dc21461036d578063125bba371461038d576102a2565b806301ffc9a7146102c657806306fdde03146102fc578063081812fc1461031e578063095ea7b31461034b575b60405160e560020a62461bcd0281526004016102bd90614233565b60405180910390fd5b3480156102d257600080fd5b506102e66102e136600461315a565b6107a5565b6040516102f39190613550565b60405180910390f35b34801561030857600080fd5b5061031161084f565b6040516102f39190613569565b34801561032a57600080fd5b5061033e6103393660046132d6565b6108e1565b6040516102f391906134bc565b34801561035757600080fd5b5061036b61036636600461312f565b610927565b005b34801561037957600080fd5b5061033e6103883660046132d6565b6109c5565b34801561039957600080fd5b506103ad6103a8366004613350565b6109e8565b6040516102f3919061437c565b3480156103c657600080fd5b506103ad6103d5366004612f7e565b610b66565b3480156103e657600080fd5b5061033e6103f53660046132d6565b610c0b565b34801561040657600080fd5b5061036b610415366004612fee565b610c26565b34801561042657600080fd5b506103ad610c61565b61036b61043d366004613306565b610c67565b34801561044e57600080fd5b5061033e61045d3660046132d6565b610f36565b34801561046e57600080fd5b5061036b61047d366004612fee565b610f42565b34801561048e57600080fd5b506104a261049d3660046132d6565b610f5d565b6040516102f3919061355b565b3480156104bb57600080fd5b5061033e6104ca3660046132d6565b610f75565b3480156104db57600080fd5b506103ad6104ea366004612f7e565b610fad565b3480156104fb57600080fd5b5061036b610ff4565b34801561051057600080fd5b5061052461051f3660046132d6565b611042565b6040516102f391906142dc565b34801561053d57600080fd5b506104a261054c3660046132d6565b6112a8565b34801561055d57600080fd5b5061033e61142f565b34801561057257600080fd5b5061031161143e565b34801561058757600080fd5b5061059061144d565b6040516102f3919061350c565b3480156105a957600080fd5b506103ad6105b8366004612f7e565b6114a4565b3480156105c957600080fd5b5061036b6105d83660046130fe565b6114b0565b3480156105e957600080fd5b506103116105f8366004612f7e565b6114c6565b34801561060957600080fd5b5061061d6106183660046132d6565b611560565b6040516102f3979695949392919061357c565b34801561063c57600080fd5b506103ad61064b3660046132d6565b611741565b34801561065c57600080fd5b5061036b61066b36600461302e565b611aab565b34801561067c57600080fd5b506103ad61068b3660046132d6565b611aed565b34801561069c57600080fd5b506103116106ab3660046132d6565b611b0e565b3480156106bc57600080fd5b5061033e611b93565b3480156106d157600080fd5b5061036b6106e0366004613306565b611c3e565b3480156106f157600080fd5b506103ad610700366004613231565b611ec3565b34801561071157600080fd5b506103ad610720366004613192565b6121b6565b34801561073157600080fd5b506102e6610740366004612fb6565b61250b565b34801561075157600080fd5b5061033e6107603660046132d6565b61253b565b34801561077157600080fd5b5061036b610780366004612f7e565b612556565b34801561079157600080fd5b506103ad6107a03660046132d6565b6125cd565b60007fffffffff0000000000000000000000000000000000000000000000000000000082167f80ac58cd00000000000000000000000000000000000000000000000000000000148061083857507fffffffff0000000000000000000000000000000000000000000000000000000082167f5b5e139f00000000000000000000000000000000000000000000000000000000145b806108475750610847826125e2565b90505b919050565b60606001805461085e90614400565b80601f016020809104026020016040519081016040528092919081815260200182805461088a90614400565b80156108d75780601f106108ac576101008083540402835291602001916108d7565b820191906000526020600020905b8154815290600101906020018083116108ba57829003601f168201915b5050505050905090565b60006108ec8261262c565b61090b5760405160e560020a62461bcd0281526004016102bd90613c60565b50600090815260056020526040902054600160a060020a031690565b600061093282610f75565b905080600160a060020a031683600160a060020a031614156109695760405160e560020a62461bcd0281526004016102bd90613ec3565b80600160a060020a031661097b612649565b600160a060020a03161480610997575061099781610740612649565b6109b65760405160e560020a62461bcd0281526004016102bd90613942565b6109c0838361264d565b505050565b6000908152600a60205260409020600501546101009004600160a060020a031690565b6000828152600c60205260408120548390600160a060020a03163314610a235760405160e560020a62461bcd0281526004016102bd90613c03565b610a2c8461262c565b610a4b5760405160e560020a62461bcd0281526004016102bd90614016565b60008311610a6e5760405160e560020a62461bcd0281526004016102bd90613888565b6000848152600a602052604081206005015460ff166003811115610aa95760008051602061450c833981519152600052602160045260246000fd5b1415610aca5760405160e560020a62461bcd0281526004016102bd9061412d565b60098054600181019091557f6e1540171b6c0c960b71a7020d9f60077f6af931a8bbf590da0223dacf75c7af018490556000848152600a6020526040908190206004810185905560058101805460ff1916905590518591610b2a9161341a565b60405190819003812090339083907f762f1a2f7e87bdc2ebbbeb92df2d742317f8e1353aafc0c70b060981e72271f490600090a4949350505050565b6008546040517fe3a9db1a0000000000000000000000000000000000000000000000000000000081526000918291600160a060020a039091169063e3a9db1a90610bb49086906004016134bc565b60206040518083038186803b158015610bcc57600080fd5b505afa158015610be0573d6000803e3d6000fd5b505050506040513d601f19601f82011682018060405250810190610c0491906132ee565b9392505050565b6000908152600c6020526040902054600160a060020a031690565b610c37610c31612649565b826126c8565b610c565760405160e560020a62461bcd0281526004016102bd90614073565b6109c0838383612750565b60075481565b6000838152600a60205260409020600401548390610c9a5760405160e560020a62461bcd0281526004016102bd90613d4f565b6000818152600a602052604090206005015460ff166003811115610cd55760008051602061450c833981519152600052602160045260246000fd5b15610cf55760405160e560020a62461bcd0281526004016102bd90613b71565b6000848152600a602052604090206004015484903414610d2a5760405160e560020a62461bcd0281526004016102bd906135ec565b6008546000868152600c6020526040908190205490517ff340fa01000000000000000000000000000000000000000000000000000000008152600160a060020a039283169263f340fa0192610d84929116906004016134bc565b600060405180830381600087803b158015610d9e57600080fd5b505af1158015610db2573d6000803e3d6000fd5b5050336000908152600e60205260409020610dd1925090508585612dc7565b506000858152600d60209081526040808320805473ffffffffffffffffffffffffffffffffffffffff191633179055600a9091528120600501805460ff191660011790555b600954811015610ea0578560098281548110610e495760008051602061450c833981519152600052603260045260246000fd5b90600052602060002001541415610e8e5760098181548110610e825760008051602061450c833981519152600052603260045260246000fd5b60009182526020822001555b80610e9881614442565b915050610e16565b506040513390610eb390869086906133c6565b6040519081900381209087907fdbca9a11cad69a5ab275fd9838feb30068a34f31d0f876d995c14a8dd906f70990600090a46000858152600a60205260408082206005015490513492610100909204600160a060020a0316917fe6138e0eb7be5ea87d2296f3ad7469a8364406bface7d4e5de0a21dce1841cdd91a35050505050565b600080610c04836108e1565b6109c083838360405180602001604052806000815250611aab565b6000908152600a602052604090206005015460ff1690565b600081815260036020526040812054600160a060020a0316806108475760405160e560020a62461bcd0281526004016102bd90613a59565b6000600160a060020a038216610fd85760405160e560020a62461bcd0281526004016102bd906139fc565b50600160a060020a031660009081526004602052604090205490565b610ffc612649565b600160a060020a031661100d61142f565b600160a060020a0316146110365760405160e560020a62461bcd0281526004016102bd90613d1a565b6110406000612890565b565b61104a612e4b565b6000828152600a602052604090819020815160e0810190925280548290829061107290614400565b80601f016020809104026020016040519081016040528092919081815260200182805461109e90614400565b80156110eb5780601f106110c0576101008083540402835291602001916110eb565b820191906000526020600020905b8154815290600101906020018083116110ce57829003601f168201915b5050505050815260200160018201805461110490614400565b80601f016020809104026020016040519081016040528092919081815260200182805461113090614400565b801561117d5780601f106111525761010080835404028352916020019161117d565b820191906000526020600020905b81548152906001019060200180831161116057829003601f168201915b5050505050815260200160028201805461119690614400565b80601f01602080910402602001604051908101604052809291908181526020018280546111c290614400565b801561120f5780601f106111e45761010080835404028352916020019161120f565b820191906000526020600020905b8154815290600101906020018083116111f257829003601f168201915b5050509183525050600382810154602083015260048301546040830152600583015460609092019160ff169081111561125f5760008051602061450c833981519152600052602160045260246000fd5b60038111156112855760008051602061450c833981519152600052602160045260246000fd5b8152600591909101546101009004600160a060020a031660209091015292915050565b6000806000838152600a602052604090206005015460ff1660038111156112e65760008051602061450c833981519152600052602160045260246000fd5b141561130d576000828152600a60205260409020600501805460ff19166003179055611427565b60016000838152600a602052604090206005015460ff16600381111561134a5760008051602061450c833981519152600052602160045260246000fd5b141561136b5760405160e560020a62461bcd0281526004016102bd9061418a565b60026000838152600a602052604090206005015460ff1660038111156113a85760008051602061450c833981519152600052602160045260246000fd5b14156113c95760405160e560020a62461bcd0281526004016102bd90613f20565b60036000838152600a602052604090206005015460ff1660038111156114065760008051602061450c833981519152600052602160045260246000fd5b14156114275760405160e560020a62461bcd0281526004016102bd9061382b565b506003919050565b600054600160a060020a031690565b60606002805461085e90614400565b606060098054806020026020016040519081016040528092919081815260200182805480156108d757602002820191906000526020600020905b815481526020019060010190808311611487575050505050905090565b600080610c0483610fad565b6114c26114bb612649565b83836128ed565b5050565b600e60205260009081526040902080546114df90614400565b80601f016020809104026020016040519081016040528092919081815260200182805461150b90614400565b80156115585780601f1061152d57610100808354040283529160200191611558565b820191906000526020600020905b81548152906001019060200180831161153b57829003601f168201915b505050505081565b600a6020526000908152604090208054819061157b90614400565b80601f01602080910402602001604051908101604052809291908181526020018280546115a790614400565b80156115f45780601f106115c9576101008083540402835291602001916115f4565b820191906000526020600020905b8154815290600101906020018083116115d757829003601f168201915b50505050509080600101805461160990614400565b80601f016020809104026020016040519081016040528092919081815260200182805461163590614400565b80156116825780601f1061165757610100808354040283529160200191611682565b820191906000526020600020905b81548152906001019060200180831161166557829003601f168201915b50505050509080600201805461169790614400565b80601f01602080910402602001604051908101604052809291908181526020018280546116c390614400565b80156117105780601f106116e557610100808354040283529160200191611710565b820191906000526020600020905b8154815290600101906020018083116116f357829003601f168201915b50505050600383015460048401546005909401549293909290915060ff8116906101009004600160a060020a031687565b6000818152600d60205260408120548290600160a060020a0316331461177c5760405160e560020a62461bcd0281526004016102bd90613b13565b8261178730826126c8565b6117a65760405160e560020a62461bcd0281526004016102bd9061399f565b6000818152600a602052604090206005015460ff1660038111156117e15760008051602061450c833981519152600052602160045260246000fd5b6002146118035760405160e560020a62461bcd0281526004016102bd906140d0565b6008546000858152600a60205260408082206005015490517fe3a9db1a0000000000000000000000000000000000000000000000000000000081529192600160a060020a039081169263e3a9db1a926118669261010090910416906004016134bc565b60206040518083038186803b15801561187e57600080fd5b505afa158015611892573d6000803e3d6000fd5b505050506040513d601f19601f820116820180604052508101906118b691906132ee565b6008546000878152600a6020526040908190206005015490517f51cff8d9000000000000000000000000000000000000000000000000000000008152929350600160a060020a03918216926351cff8d99261191a92610100900416906004016134bc565b600060405180830381600087803b15801561193457600080fd5b505af1158015611948573d6000803e3d6000fd5b5050506000868152600d60209081526040808320805473ffffffffffffffffffffffffffffffffffffffff191690558051808301808352848252338552600e909352922091516119989350612eae565b506000858152600a602090815260408083206005018054600360ff199091161774ffffffffffffffffffffffffffffffffffffffff00191633610100810291909117909155600c90925290912054600160a060020a0316906119fc90829088610f42565b6040513390600160a060020a0383169088907f86ff2a738e00d7cf2613e4bd44ae641e080a2877f978be45ac950525d26d04c590600090a46040513390600160a060020a0383169088907ffc99b02f822d46feedca53aafaa97c596bf87bb34925d350b64a13275388de4a90600090a46040518290600160a060020a038316907f033e0f8c9aa8fcdd1b01ad637814ecdb49b6ddc7445f13555d21b3c2959b5d1f90600090a350949350505050565b611abc611ab6612649565b836126c8565b611adb5760405160e560020a62461bcd0281526004016102bd90614073565b611ae784848484612993565b50505050565b60098181548110611afd57600080fd5b600091825260209091200154905081565b6060611b198261262c565b611b385760405160e560020a62461bcd0281526004016102bd90613e09565b6000611b426129c9565b90506000815111611b625760405180602001604052806000815250610c04565b80611b6c846129db565b604051602001611b7d9291906133eb565b6040516020818303038152906040529392505050565b600080600860009054906101000a9004600160a060020a0316600160a060020a0316638da5cb5b6040518163ffffffff167c010000000000000000000000000000000000000000000000000000000002815260040160206040518083038186803b158015611c0057600080fd5b505afa158015611c14573d6000803e3d6000fd5b505050506040513d601f19601f82011682018060405250810190611c389190612f9a565b91505090565b6000838152600c60205260409020548390600160a060020a03163314611c795760405160e560020a62461bcd0281526004016102bd90613c03565b6000848152600a60205260409081902060049081015460085492517fe3a9db1a00000000000000000000000000000000000000000000000000000000815287939192600160a060020a039092169163e3a9db1a91611cd9913391016134bc565b60206040518083038186803b158015611cf157600080fd5b505afa158015611d05573d6000803e3d6000fd5b505050506040513d601f19601f82011682018060405250810190611d2991906132ee565b14611d495760405160e560020a62461bcd0281526004016102bd90613cbd565b6000818152600a602052604090206005015460ff166003811115611d845760008051602061450c833981519152600052602160045260246000fd5b600114611da65760405160e560020a62461bcd0281526004016102bd90613ab6565b6000858152600d6020908152604080832054600160a060020a0316808452600e8352928190209051611dd8920161341a565b604051602081830303815290604052805190602001208585604051602001611e019291906133c6565b6040516020818303038152906040528051906020012014611e375760405160e560020a62461bcd0281526004016102bd90613e66565b6000868152600a60205260409020600501805460ff19166002179055611e5d3087610927565b6000868152600d602052604090819020549051600160a060020a0390911690611e8990879087906133c6565b6040519081900381209088907f39fd051deea672a32743d0c813cc2c161b3dacddbff9e2415abc2acbf2e088fb90600090a4505050505050565b6000808211611ee75760405160e560020a62461bcd0281526004016102bd90613888565b611ef16007612b57565b6000611efd6007612b60565b9050611f093382612b64565b6040518060e001604052808b8b8080601f016020809104026020016040519081016040528093929190818152602001838380828437600092019190915250505090825250604080516020601f8c018190048102820181019092528a815291810191908b908b9081908401838280828437600092019190915250505090825250604080516020601f8a0181900481028201810190925288815291810191908990899081908401838280828437600092018290525093855250505060208201879052604082018690526060909101908152336020918201526000838152600a82526040902082518051919261200192849290910190612eae565b50602082810151805161201a9260018501920190612eae565b5060408201518051612036916002840191602090910190612eae565b50606082015181600301556080820151816004015560a08201518160050160006101000a81548160ff0219169083600381111561208a5760008051602061450c833981519152600052602160045260246000fd5b021790555060c0919091015160059091018054600160a060020a039092166101000274ffffffffffffffffffffffffffffffffffffffff00199092169190911790556000818152600c60209081526040808320805473ffffffffffffffffffffffffffffffffffffffff191633179055600980546001810182559084527f6e1540171b6c0c960b71a7020d9f60077f6af931a8bbf590da0223dacf75c7af018490555161213d918d918d918991016133d6565b60408051601f1981840301815282825280516020918201206000868152600b9092529190208190559150612174908c908c906133c6565b60405190819003812090339084907f762f1a2f7e87bdc2ebbbeb92df2d742317f8e1353aafc0c70b060981e72271f490600090a4509998505050505050505050565b600087878360008383836040516020016121d2939291906133d6565b60405160208183030381529060405280519060200120905060006121f66007612b60565b612201906001614391565b905060005b81811015612251576000818152600b602052604090205483141561223f5760405160e560020a62461bcd0281526004016102bd9061373a565b8061224981614442565b915050612206565b5061225c6007612b57565b60006122686007612b60565b90506122743382612b64565b6040518060e001604052808f8f8080601f016020809104026020016040519081016040528093929190818152602001838380828437600081840152601f19601f8201169050808301925050505050505081526020018d8d8080601f016020809104026020016040519081016040528093929190818152602001838380828437600092019190915250505090825250604080516020601f8e018190048102820181019092528c815291810191908d908d90819084018382808284376000920182905250938552505050602082018b9052604082015260600160038152336020918201526000838152600a82526040902082518051919261237892849290910190612eae565b5060208281015180516123919260018501920190612eae565b50604082015180516123ad916002840191602090910190612eae565b50606082015181600301556080820151816004015560a08201518160050160006101000a81548160ff021916908360038111156124015760008051602061450c833981519152600052602160045260246000fd5b021790555060c08201518160050160016101000a815481600160a060020a030219169083600160a060020a0316021790555090505033600c600083815260200190815260200160002060006101000a815481600160a060020a030219169083600160a060020a0316021790555060008e8e8a604051602001612485939291906133d6565b60405160208183030381529060405280519060200120905080600b6000848152602001908152602001600020819055508e8e6040516124c59291906133c6565b60405190819003812090339084907f4d80549dfe39c90078d620fcd854e5cbf03ace471593a7df725d1191056f30a190600090a4509d9c50505050505050505050505050565b600160a060020a0380831660009081526006602090815260408083209385168352929052205460ff165b92915050565b600d60205260009081526040902054600160a060020a031681565b61255e612649565b600160a060020a031661256f61142f565b600160a060020a0316146125985760405160e560020a62461bcd0281526004016102bd90613d1a565b600160a060020a0381166125c15760405160e560020a62461bcd0281526004016102bd906136a6565b6125ca81612890565b50565b6000908152600a602052604090206004015490565b7fffffffff0000000000000000000000000000000000000000000000000000000081167f01ffc9a70000000000000000000000000000000000000000000000000000000014919050565b600090815260036020526040902054600160a060020a0316151590565b3390565b6000818152600560205260409020805473ffffffffffffffffffffffffffffffffffffffff1916600160a060020a038416908117909155819061268f82610f75565b600160a060020a03167f8c5be1e5ebec7d5bd14f71427d1e84f3dd0314c0f7b2291e5b200ac8c7c3b92560405160405180910390a45050565b60006126d38261262c565b6126f25760405160e560020a62461bcd0281526004016102bd906138e5565b60006126fd83610f75565b905080600160a060020a031684600160a060020a03161480612738575083600160a060020a031661272d846108e1565b600160a060020a0316145b806127485750612748818561250b565b949350505050565b82600160a060020a031661276382610f75565b600160a060020a03161461278c5760405160e560020a62461bcd0281526004016102bd90613dac565b600160a060020a0382166127b55760405160e560020a62461bcd0281526004016102bd90613797565b6127c08383836109c0565b6127cb60008261264d565b600160a060020a03831660009081526004602052604081208054600192906127f49084906143bd565b9091555050600160a060020a0382166000908152600460205260408120805460019290612822908490614391565b9091555050600081815260036020526040808220805473ffffffffffffffffffffffffffffffffffffffff1916600160a060020a0386811691821790925591518493918716917fddf252ad1be2c89b69c2b068fc378daa952ba7f163c4a11628f55a4df523b3ef91a4505050565b60008054600160a060020a0383811673ffffffffffffffffffffffffffffffffffffffff19831681178455604051919092169283917f8be0079c531659141344cd1fd0a4f28419497f9722a3daafe3b4186f6b6457e09190a35050565b81600160a060020a031683600160a060020a031614156129225760405160e560020a62461bcd0281526004016102bd906137f4565b600160a060020a0383811660008181526006602090815260408083209487168084529490915290819020805460ff1916851515179055517f17307eab39ab6107e8899845ad3d59bd9653f200f220920489ca2b5937696c3190612986908590613550565b60405180910390a3505050565b61299e848484612750565b6129aa84848484612c56565b611ae75760405160e560020a62461bcd0281526004016102bd90613649565b60408051602081019091526000815290565b606081612a1c575060408051808201909152600181527f3000000000000000000000000000000000000000000000000000000000000000602082015261084a565b8160005b8115612a465780612a3081614442565b9150612a3f9050600a836143a9565b9150612a20565b60008167ffffffffffffffff811115612a765760008051602061450c833981519152600052604160045260246000fd5b6040519080825280601f01601f191660200182016040528015612aa0576020820181803683370190505b5090505b841561274857612ab56001836143bd565b9150612ac2600a8661445d565b612acd906030614391565b7f010000000000000000000000000000000000000000000000000000000000000002818381518110612b165760008051602061450c833981519152600052603260045260246000fd5b60200101907effffffffffffffffffffffffffffffffffffffffffffffffffffffffffffff1916908160001a905350612b50600a866143a9565b9450612aa4565b80546001019055565b5490565b600160a060020a038216612b8d5760405160e560020a62461bcd0281526004016102bd90613bce565b612b968161262c565b15612bb65760405160e560020a62461bcd0281526004016102bd90613703565b612bc2600083836109c0565b600160a060020a0382166000908152600460205260408120805460019290612beb908490614391565b9091555050600081815260036020526040808220805473ffffffffffffffffffffffffffffffffffffffff1916600160a060020a03861690811790915590518392907fddf252ad1be2c89b69c2b068fc378daa952ba7f163c4a11628f55a4df523b3ef908290a45050565b6000612c6a84600160a060020a0316612dc1565b15612db65783600160a060020a031663150b7a02612c86612649565b8786866040518563ffffffff167c0100000000000000000000000000000000000000000000000000000000028152600401612cc494939291906134d0565b602060405180830381600087803b158015612cde57600080fd5b505af1925050508015612d0e575060408051601f3d908101601f19168201909252612d0b91810190613176565b60015b612d6b573d808015612d3c576040519150601f19603f3d011682016040523d82523d6000602084013e612d41565b606091505b508051612d635760405160e560020a62461bcd0281526004016102bd90613649565b805181602001fd5b7fffffffff00000000000000000000000000000000000000000000000000000000167f150b7a0200000000000000000000000000000000000000000000000000000000149050612748565b506001949350505050565b3b151590565b828054612dd390614400565b90600052602060002090601f016020900481019282612df55760008555612e3b565b82601f10612e0e5782800160ff19823516178555612e3b565b82800160010185558215612e3b579182015b82811115612e3b578235825591602001919060010190612e20565b50612e47929150612f22565b5090565b6040518060e00160405280606081526020016060815260200160608152602001600081526020016000815260200160006003811115612ea15760008051602061450c833981519152600052602160045260246000fd5b8152600060209091015290565b828054612eba90614400565b90600052602060002090601f016020900481019282612edc5760008555612e3b565b82601f10612ef557805160ff1916838001178555612e3b565b82800160010185558215612e3b579182015b82811115612e3b578251825591602001919060010190612f07565b5b80821115612e475760008155600101612f23565b60008083601f840112612f48578182fd5b50813567ffffffffffffffff811115612f5f578182fd5b602083019150836020828501011115612f7757600080fd5b9250929050565b600060208284031215612f8f578081fd5b8135610c04816144c8565b600060208284031215612fab578081fd5b8151610c04816144c8565b60008060408385031215612fc8578081fd5b8235612fd3816144c8565b91506020830135612fe3816144c8565b809150509250929050565b600080600060608486031215613002578081fd5b833561300d816144c8565b9250602084013561301d816144c8565b929592945050506040919091013590565b60008060008060808587031215613043578081fd5b843561304e816144c8565b935060208581013561305f816144c8565b935060408601359250606086013567ffffffffffffffff80821115613082578384fd5b818801915088601f830112613095578384fd5b8135818111156130a7576130a76144ab565b604051601f8201601f19168101850183811182821017156130ca576130ca6144ab565b60405281815283820185018b10156130e0578586fd5b81858501868301379081019093019390935250939692955090935050565b60008060408385031215613110578182fd5b823561311b816144c8565b915060208301358015158114612fe3578182fd5b60008060408385031215613141578182fd5b823561314c816144c8565b946020939093013593505050565b60006020828403121561316b578081fd5b8135610c04816144dd565b600060208284031215613187578081fd5b8151610c04816144dd565b60008060008060008060006080888a0312156131ac578283fd5b873567ffffffffffffffff808211156131c3578485fd5b6131cf8b838c01612f37565b909950975060208a01359150808211156131e7578485fd5b6131f38b838c01612f37565b909750955060408a013591508082111561320b578485fd5b506132188a828b01612f37565b989b979a50959894979596606090950135949350505050565b60008060008060008060008060a0898b03121561324c578081fd5b883567ffffffffffffffff80821115613263578283fd5b61326f8c838d01612f37565b909a50985060208b0135915080821115613287578283fd5b6132938c838d01612f37565b909850965060408b01359150808211156132ab578283fd5b506132b88b828c01612f37565b999c989b509699959896976060870135966080013595509350505050565b6000602082840312156132e7578081fd5b5035919050565b6000602082840312156132ff578081fd5b5051919050565b60008060006040848603121561331a578081fd5b83359250602084013567ffffffffffffffff811115613337578182fd5b61334386828701612f37565b9497909650939450505050565b60008060408385031215613362578182fd5b50508035926020909101359150565b600081518084526133898160208601602086016143d4565b601f01601f19169290920160200192915050565b600481106133c25760008051602061450c833981519152600052602160045260246000fd5b9052565b6000828483379101908152919050565b60008385833750909101908152602001919050565b600083516133fd8184602088016143d4565b8351908301906134118183602088016143d4565b01949350505050565b815460009081906002810460018083168061343657607f831692505b602080841082141561345d5760008051602061450c83398151915287526022600452602487fd5b8180156134715760018114613482576134ae565b60ff198616895284890196506134ae565b61348b8a614385565b885b868110156134a65781548b82015290850190830161348d565b505084890196505b509498975050505050505050565b600160a060020a0391909116815260200190565b6000600160a060020a038087168352808616602084015250836040830152608060608301526135026080830184613371565b9695505050505050565b6020808252825182820181905260009190848201906040850190845b8181101561354457835183529284019291840191600101613528565b50909695505050505050565b901515815260200190565b60208101612535828461339d565b600060208252610c046020830184613371565b600060e0825261358f60e083018a613371565b82810360208401526135a1818a613371565b905082810360408401526135b58189613371565b9150508560608301528460808301526135d160a083018561339d565b600160a060020a03831660c083015298975050505050505050565b6020808252602e908201527f5061796d656e7420616d6f756e74206d7573742065786163746c79206d61746360408201527f68206c6973746564207072696365000000000000000000000000000000000000606082015260800190565b60208082526032908201527f4552433732313a207472616e7366657220746f206e6f6e20455243373231526560408201527f63656976657220696d706c656d656e7465720000000000000000000000000000606082015260800190565b60208082526026908201527f4f776e61626c653a206e6577206f776e657220697320746865207a65726f206160408201527f6464726573730000000000000000000000000000000000000000000000000000606082015260800190565b6020808252601c908201527f4552433732313a20746f6b656e20616c7265616479206d696e74656400000000604082015260600190565b60208082526025908201527f5468697320486f726e204e46542068617320616c7265616479206265656e206d60408201527f696e746564000000000000000000000000000000000000000000000000000000606082015260800190565b60208082526024908201527f4552433732313a207472616e7366657220746f20746865207a65726f2061646460408201527f7265737300000000000000000000000000000000000000000000000000000000606082015260800190565b60208082526019908201527f4552433732313a20617070726f766520746f2063616c6c657200000000000000604082015260600190565b60208082526030908201527f486f726e20697320616c7265616479206d61726b6564206173206f776e65642060408201527f616e64206e6f7420666f722073616c6500000000000000000000000000000000606082015260800190565b60208082526032908201527f596f757220486f726e2069732076616c7561626c6520616e642063616e6e6f7460408201527f20626520736f6c6420666f722066726565210000000000000000000000000000606082015260800190565b6020808252602c908201527f4552433732313a206f70657261746f7220717565727920666f72206e6f6e657860408201527f697374656e7420746f6b656e0000000000000000000000000000000000000000606082015260800190565b60208082526038908201527f4552433732313a20617070726f76652063616c6c6572206973206e6f74206f7760408201527f6e6572206e6f7220617070726f76656420666f7220616c6c0000000000000000606082015260800190565b6020808252603a908201527f5468697320636f6e7472616374206d757374206669727374206265206170707260408201527f6f7665642062792063757272656e7420686f726e206f776e6572000000000000606082015260800190565b6020808252602a908201527f4552433732313a2062616c616e636520717565727920666f7220746865207a6560408201527f726f206164647265737300000000000000000000000000000000000000000000606082015260800190565b60208082526029908201527f4552433732313a206f776e657220717565727920666f72206e6f6e657869737460408201527f656e7420746f6b656e0000000000000000000000000000000000000000000000606082015260800190565b60208082526028908201527f486f726e20686173206e6f74206265656e206d61726b6564206173207061696460408201527f20666f7220796574000000000000000000000000000000000000000000000000606082015260800190565b602080825260409082018190527f546869732066756e6374696f6e206d6179206f6e6c792062652063616c6c6564908201527f20627920612062757965722077686f2068617320616c72656164792070616964606082015260800190565b60208082526025908201527f486f726e206973206e6f742063757272656e746c79206c697374656420666f7260408201527f2073616c65000000000000000000000000000000000000000000000000000000606082015260800190565b6020808252818101527f4552433732313a206d696e7420746f20746865207a65726f2061646472657373604082015260600190565b60208082526038908201527f546869732066756e6374696f6e206d6179206f6e6c792062652063616c6c656460408201527f2062792074686520686f726e204e46542773206f776e65720000000000000000606082015260800190565b6020808252602c908201527f4552433732313a20617070726f76656420717565727920666f72206e6f6e657860408201527f697374656e7420746f6b656e0000000000000000000000000000000000000000606082015260800190565b60208082526034908201527f4275796572206d7573742073656e64207061796d656e7420666f7220486f726e60408201527f204e465420746f20657363726f77206669727374000000000000000000000000606082015260800190565b6020808252818101527f4f776e61626c653a2063616c6c6572206973206e6f7420746865206f776e6572604082015260600190565b60208082526026908201527f486f726e204e4654206d75737420657869737420616e642063616e6e6f74206260408201527f6520667265650000000000000000000000000000000000000000000000000000606082015260800190565b60208082526029908201527f4552433732313a207472616e73666572206f6620746f6b656e2074686174206960408201527f73206e6f74206f776e0000000000000000000000000000000000000000000000606082015260800190565b6020808252602f908201527f4552433732314d657461646174613a2055524920717565727920666f72206e6f60408201527f6e6578697374656e7420746f6b656e0000000000000000000000000000000000606082015260800190565b6020808252603a908201527f4164647265737320676976656e20646f6573206e6f74206d617463682074686560408201527f206f6e65206f6e2066696c6520666f7220746865206275796572000000000000606082015260800190565b60208082526021908201527f4552433732313a20617070726f76616c20746f2063757272656e74206f776e6560408201527f7200000000000000000000000000000000000000000000000000000000000000606082015260800190565b602080825260a6908201527f486f726e2068617320616c7265616479206265656e207368697070656420616e60408201527f64206e6f206c6f6e676572207175616c696669657320666f722061207265667560608201527f6e642c20706c6561736520636f6d706c657465207468652065786368616e676560808201527f20616e64207265646f207468652065786368616e676520696e2072657665727360a08201527f6520696620796f75207769736820746f20737769746368206261636b206f776e60c08201527f657273686970000000000000000000000000000000000000000000000000000060e08201526101000190565b60208082526023908201527f5468617420486f726e204e465420746f6b656e496420646f65736e277420657860408201527f6973740000000000000000000000000000000000000000000000000000000000606082015260800190565b60208082526031908201527f4552433732313a207472616e736665722063616c6c6572206973206e6f74206f60408201527f776e6572206e6f7220617070726f766564000000000000000000000000000000606082015260800190565b60208082526027908201527f486f726e20686173206e6f74206265656e206d61726b6564206173207368697060408201527f7065642079657400000000000000000000000000000000000000000000000000606082015260800190565b60208082526024908201527f596f757220486f726e20697320616c7265616479206c697374656420666f722060408201527f73616c6500000000000000000000000000000000000000000000000000000000606082015260800190565b60208082526068908201527f486f726e2068617320616c7265616479206265656e207075726368617365642060408201527f616e64207061696420666f72206279206120627579657220616e64206f6e2d6360608201527f6861696e20726566756e647320617265206e6f742063757272656e746c79207360808201527f7570706f7274656400000000000000000000000000000000000000000000000060a082015260c00190565b6020808252606b908201527f506c6561736520646f206e6f742073656e64207468697320636f6e747261637460408201527f2066756e647320776974686f757420616e792066756e6374696f6e2063616c6c60608201527f2064617461206f722063616c6c20612066756e6374696f6e207468617420646f60808201527f65736e277420657869737400000000000000000000000000000000000000000060a082015260c00190565b600060208252825160e060208401526142f9610100840182613371565b90506020840151601f19808584030160408601526143178383613371565b92506040860151915080858403016060860152506143358282613371565b91505060608401516080840152608084015160a084015260a084015161435e60c085018261339d565b50600160a060020a0360c08501511660e08401528091505092915050565b90815260200190565b60009081526020902090565b600082198211156143a4576143a4614471565b500190565b6000826143b8576143b861448e565b500490565b6000828210156143cf576143cf614471565b500390565b60005b838110156143ef5781810151838201526020016143d7565b83811115611ae75750506000910152565b60028104600182168061441457607f821691505b6020821081141561443c5760008051602061450c833981519152600052602260045260246000fd5b50919050565b600060001982141561445657614456614471565b5060010190565b60008261446c5761446c61448e565b500690565b60008051602061450c833981519152600052601160045260246000fd5b60008051602061450c833981519152600052601260045260246000fd5b60008051602061450c833981519152600052604160045260246000fd5b600160a060020a03811681146125ca57600080fd5b7fffffffff00000000000000000000000000000000000000000000000000000000811681146125ca57600080fdfe4e487b7100000000000000000000000000000000000000000000000000000000a2646970667358221220d3967b92d3e0fefaafc614605cff410a70cb5817b1496adeb4823384e8f87df164736f6c63430008000033608060405234801561001057600080fd5b50610033610025640100000000610038810204565b64010000000061003c810204565b61008c565b3390565b60008054600160a060020a03838116600160a060020a0319831681178455604051919092169283917f8be0079c531659141344cd1fd0a4f28419497f9722a3daafe3b4186f6b6457e09190a35050565b6108398061009b6000396000f3fe608060405260043610610082576000357c010000000000000000000000000000000000000000000000000000000090048063e3a9db1a11610060578063e3a9db1a146100e9578063f2fde38b14610116578063f340fa011461013657610082565b806351cff8d914610087578063715018a6146100a95780638da5cb5b146100be575b600080fd5b34801561009357600080fd5b506100a76100a236600461062e565b610149565b005b3480156100b557600080fd5b506100a761024c565b3480156100ca57600080fd5b506100d36102cb565b6040516100e09190610654565b60405180910390f35b3480156100f557600080fd5b5061010961010436600461062e565b6102e7565b6040516100e0919061079b565b34801561012257600080fd5b506100a761013136600461062e565b61030f565b6100a761014436600461062e565b6103db565b6101516104d2565b73ffffffffffffffffffffffffffffffffffffffff1661016f6102cb565b73ffffffffffffffffffffffffffffffffffffffff16146101c5576040517f08c379a00000000000000000000000000000000000000000000000000000000081526004016101bc90610766565b60405180910390fd5b73ffffffffffffffffffffffffffffffffffffffff811660008181526001602052604081208054919055906101fa90826104d6565b8173ffffffffffffffffffffffffffffffffffffffff167f7084f5476618d8e60b11ef0d7d3f06914655adb8793e28ff7f018d4c76d505d582604051610240919061079b565b60405180910390a25050565b6102546104d2565b73ffffffffffffffffffffffffffffffffffffffff166102726102cb565b73ffffffffffffffffffffffffffffffffffffffff16146102bf576040517f08c379a00000000000000000000000000000000000000000000000000000000081526004016101bc90610766565b6102c960006105b9565b565b60005473ffffffffffffffffffffffffffffffffffffffff1690565b73ffffffffffffffffffffffffffffffffffffffff1660009081526001602052604090205490565b6103176104d2565b73ffffffffffffffffffffffffffffffffffffffff166103356102cb565b73ffffffffffffffffffffffffffffffffffffffff1614610382576040517f08c379a00000000000000000000000000000000000000000000000000000000081526004016101bc90610766565b73ffffffffffffffffffffffffffffffffffffffff81166103cf576040517f08c379a00000000000000000000000000000000000000000000000000000000081526004016101bc90610675565b6103d8816105b9565b50565b6103e36104d2565b73ffffffffffffffffffffffffffffffffffffffff166104016102cb565b73ffffffffffffffffffffffffffffffffffffffff161461044e576040517f08c379a00000000000000000000000000000000000000000000000000000000081526004016101bc90610766565b73ffffffffffffffffffffffffffffffffffffffff81166000908152600160205260408120805434928392916104859084906107a4565b925050819055508173ffffffffffffffffffffffffffffffffffffffff167f2da466a7b24304f47e87fa2e1e5a81b9831ce54fec19055ce277ca2f39ba42c482604051610240919061079b565b3390565b3031811115610511576040517f08c379a00000000000000000000000000000000000000000000000000000000081526004016101bc9061072f565b60008273ffffffffffffffffffffffffffffffffffffffff168260405161053790610651565b60006040518083038185875af1925050503d8060008114610574576040519150601f19603f3d011682016040523d82523d6000602084013e610579565b606091505b50509050806105b4576040517f08c379a00000000000000000000000000000000000000000000000000000000081526004016101bc906106d2565b505050565b6000805473ffffffffffffffffffffffffffffffffffffffff8381167fffffffffffffffffffffffff0000000000000000000000000000000000000000831681178455604051919092169283917f8be0079c531659141344cd1fd0a4f28419497f9722a3daafe3b4186f6b6457e09190a35050565b60006020828403121561063f578081fd5b813561064a816107e1565b9392505050565b90565b73ffffffffffffffffffffffffffffffffffffffff91909116815260200190565b60208082526026908201527f4f776e61626c653a206e6577206f776e657220697320746865207a65726f206160408201527f6464726573730000000000000000000000000000000000000000000000000000606082015260800190565b6020808252603a908201527f416464726573733a20756e61626c6520746f2073656e642076616c75652c207260408201527f6563697069656e74206d61792068617665207265766572746564000000000000606082015260800190565b6020808252601d908201527f416464726573733a20696e73756666696369656e742062616c616e6365000000604082015260600190565b6020808252818101527f4f776e61626c653a2063616c6c6572206973206e6f7420746865206f776e6572604082015260600190565b90815260200190565b600082198211156107dc577f4e487b710000000000000000000000000000000000000000000000000000000081526011600452602481fd5b500190565b73ffffffffffffffffffffffffffffffffffffffff811681146103d857600080fdfea2646970667358221220c0f1510f57c93677ce98a75dc5c87006883e09d10ffa34b1e2e7b9631b9408f864736f6c63430008000033",
  "immutableReferences": {},
  "source": "// SPDX-License-Identifier: MIT\npragma solidity 0.8.0;\n\nimport \"./HornMarketplace.sol\";\n\ncontract Getters is HornMarketplace {\n\n    /*\n        Helper functions that provide getter functionality\n    */\n    // @dev Returns an array of hornId uints that are read by the front end to display Horns listed for sale\n//     function getHornById(uint _index) public view returns (Horn memory) {\n//         return horns[_index];\n//     }\n\n//     function getCurrentHornsForSale() public view returns (uint[] memory) {\n//         return hornsForSale;\n//     }\n\n//     function getListPriceByHornId(uint __hornId) public view returns (uint) {\n//         return horns[__hornId].listPrice; \n//     }\n\n//     function getCurrentOwnerByMapping(uint __hornId) public view returns (address payable) {\n//         return payable(currentOwners[__hornId]);\n//     }\n\n//     function getCurrentOwnerByStructAttribute(uint __hornId) public view returns (address payable) {\n//         return horns[__hornId].currentOwner;\n//     }\n\n//     function getStatusOfHornByHornId(uint __hornId) public view returns (HornStatus) {\n//         return horns[__hornId].status;\n//     }\n\n//     function getEscrowDepositValue(address payee) public view returns (uint) {\n//         uint escrowBalance = escrow.depositsOf(payee);\n//         return escrowBalance;\n//     }\n\n//     function getBalanceOf(address _owner) public view returns (uint) {\n//         uint hornBalance = balanceOf(_owner);\n//         return hornBalance;\n//     }\n\n//     function getApprovedToSpend(uint _tokenId) public view returns (address) {\n//         address _approved = getApproved(_tokenId);\n//         return _approved;\n//     }\n\n//     function getEscrowOwner() public view returns (address) {\n//         address escrowOwner = escrow.owner();\n//         return escrowOwner;\n//     }\n}\n",
  "sourcePath": "/home/robriks/ConsensysAcademyBootCamp/final-proj/contracts/Getters.sol",
  "compiler": {
    "name": "solc",
    "version": "0.8.0+commit.c7dfd78e.Emscripten.clang"
  },
  "schemaVersion": "3.4.3",
  "updatedAt": "2021-11-13T17:51:55.290Z",
  "devdoc": {
    "kind": "dev",
    "methods": {
      "approve(address,uint256)": {
        "details": "See {IERC721-approve}."
      },
      "balanceOf(address)": {
        "details": "See {IERC721-balanceOf}."
      },
      "getApproved(uint256)": {
        "details": "See {IERC721-getApproved}."
      },
      "isApprovedForAll(address,address)": {
        "details": "See {IERC721-isApprovedForAll}."
      },
      "name()": {
        "details": "See {IERC721Metadata-name}."
      },
      "owner()": {
        "details": "Returns the address of the current owner."
      },
      "ownerOf(uint256)": {
        "details": "See {IERC721-ownerOf}."
      },
      "renounceOwnership()": {
        "details": "Leaves the contract without owner. It will not be possible to call `onlyOwner` functions anymore. Can only be called by the current owner. NOTE: Renouncing ownership will leave the contract without an owner, thereby removing any functionality that is only available to the owner."
      },
      "safeTransferFrom(address,address,uint256)": {
        "details": "See {IERC721-safeTransferFrom}."
      },
      "safeTransferFrom(address,address,uint256,bytes)": {
        "details": "See {IERC721-safeTransferFrom}."
      },
      "setApprovalForAll(address,bool)": {
        "details": "See {IERC721-setApprovalForAll}."
      },
      "supportsInterface(bytes4)": {
        "details": "See {IERC165-supportsInterface}."
      },
      "symbol()": {
        "details": "See {IERC721Metadata-symbol}."
      },
      "tokenURI(uint256)": {
        "details": "See {IERC721Metadata-tokenURI}."
      },
      "transferFrom(address,address,uint256)": {
        "details": "See {IERC721-transferFrom}."
      },
      "transferOwnership(address)": {
        "details": "Transfers ownership of the contract to a new account (`newOwner`). Can only be called by the current owner."
      }
    },
    "version": 1
  },
  "userdoc": {
    "kind": "user",
    "methods": {},
    "version": 1
  }
}