{
  "contractName": "Helpers",
  "abi": [
    {
      "anonymous": false,
      "inputs": [
        {
          "indexed": true,
          "internalType": "address",
          "name": "owner",
          "type": "address"
        },
        {
          "indexed": true,
          "internalType": "address",
          "name": "approved",
          "type": "address"
        },
        {
          "indexed": true,
          "internalType": "uint256",
          "name": "tokenId",
          "type": "uint256"
        }
      ],
      "name": "Approval",
      "type": "event"
    },
    {
      "anonymous": false,
      "inputs": [
        {
          "indexed": true,
          "internalType": "address",
          "name": "owner",
          "type": "address"
        },
        {
          "indexed": true,
          "internalType": "address",
          "name": "operator",
          "type": "address"
        },
        {
          "indexed": false,
          "internalType": "bool",
          "name": "approved",
          "type": "bool"
        }
      ],
      "name": "ApprovalForAll",
      "type": "event"
    },
    {
      "anonymous": false,
      "inputs": [
        {
          "indexed": true,
          "internalType": "address",
          "name": "payee",
          "type": "address"
        },
        {
          "indexed": true,
          "internalType": "uint256",
          "name": "amountInWei",
          "type": "uint256"
        }
      ],
      "name": "DepositedToEscrow",
      "type": "event"
    },
    {
      "anonymous": false,
      "inputs": [
        {
          "indexed": true,
          "internalType": "uint256",
          "name": "hornId",
          "type": "uint256"
        },
        {
          "indexed": true,
          "internalType": "address",
          "name": "from",
          "type": "address"
        },
        {
          "indexed": true,
          "internalType": "address",
          "name": "to",
          "type": "address"
        }
      ],
      "name": "HornDeliveredAndNFTOwnershipTransferred",
      "type": "event"
    },
    {
      "anonymous": false,
      "inputs": [
        {
          "indexed": true,
          "internalType": "uint256",
          "name": "hornId",
          "type": "uint256"
        },
        {
          "indexed": true,
          "internalType": "address",
          "name": "seller",
          "type": "address"
        },
        {
          "indexed": true,
          "internalType": "string",
          "name": "make",
          "type": "string"
        }
      ],
      "name": "HornListedForSale",
      "type": "event"
    },
    {
      "anonymous": false,
      "inputs": [
        {
          "indexed": true,
          "internalType": "uint256",
          "name": "hornId",
          "type": "uint256"
        },
        {
          "indexed": true,
          "internalType": "string",
          "name": "shipTo",
          "type": "string"
        },
        {
          "indexed": true,
          "internalType": "address",
          "name": "buyer",
          "type": "address"
        }
      ],
      "name": "HornPurchased",
      "type": "event"
    },
    {
      "anonymous": false,
      "inputs": [
        {
          "indexed": true,
          "internalType": "uint256",
          "name": "hornId",
          "type": "uint256"
        },
        {
          "indexed": true,
          "internalType": "string",
          "name": "shipTo",
          "type": "string"
        },
        {
          "indexed": true,
          "internalType": "address",
          "name": "to",
          "type": "address"
        }
      ],
      "name": "HornShipped",
      "type": "event"
    },
    {
      "anonymous": false,
      "inputs": [
        {
          "indexed": true,
          "internalType": "uint256",
          "name": "hornId",
          "type": "uint256"
        },
        {
          "indexed": true,
          "internalType": "address",
          "name": "seller",
          "type": "address"
        },
        {
          "indexed": true,
          "internalType": "string",
          "name": "make",
          "type": "string"
        }
      ],
      "name": "NewHornNFTMinted",
      "type": "event"
    },
    {
      "anonymous": false,
      "inputs": [
        {
          "indexed": true,
          "internalType": "address",
          "name": "previousOwner",
          "type": "address"
        },
        {
          "indexed": true,
          "internalType": "address",
          "name": "newOwner",
          "type": "address"
        }
      ],
      "name": "OwnershipTransferred",
      "type": "event"
    },
    {
      "anonymous": false,
      "inputs": [
        {
          "indexed": true,
          "internalType": "uint256",
          "name": "hornId",
          "type": "uint256"
        },
        {
          "indexed": true,
          "internalType": "address",
          "name": "payer",
          "type": "address"
        },
        {
          "indexed": true,
          "internalType": "address",
          "name": "payee",
          "type": "address"
        }
      ],
      "name": "SellerPaid",
      "type": "event"
    },
    {
      "anonymous": false,
      "inputs": [
        {
          "indexed": true,
          "internalType": "address",
          "name": "from",
          "type": "address"
        },
        {
          "indexed": true,
          "internalType": "address",
          "name": "to",
          "type": "address"
        },
        {
          "indexed": true,
          "internalType": "uint256",
          "name": "tokenId",
          "type": "uint256"
        }
      ],
      "name": "Transfer",
      "type": "event"
    },
    {
      "anonymous": false,
      "inputs": [
        {
          "indexed": true,
          "internalType": "address",
          "name": "payee",
          "type": "address"
        },
        {
          "indexed": true,
          "internalType": "uint256",
          "name": "amountInWei",
          "type": "uint256"
        }
      ],
      "name": "WithdrawnFromEscrow",
      "type": "event"
    },
    {
      "stateMutability": "payable",
      "type": "fallback"
    },
    {
      "inputs": [],
      "name": "_hornId",
      "outputs": [
        {
          "internalType": "uint256",
          "name": "_value",
          "type": "uint256"
        }
      ],
      "stateMutability": "view",
      "type": "function"
    },
    {
      "inputs": [
        {
          "internalType": "address",
          "name": "to",
          "type": "address"
        },
        {
          "internalType": "uint256",
          "name": "tokenId",
          "type": "uint256"
        }
      ],
      "name": "approve",
      "outputs": [],
      "stateMutability": "nonpayable",
      "type": "function"
    },
    {
      "inputs": [
        {
          "internalType": "address",
          "name": "owner",
          "type": "address"
        }
      ],
      "name": "balanceOf",
      "outputs": [
        {
          "internalType": "uint256",
          "name": "",
          "type": "uint256"
        }
      ],
      "stateMutability": "view",
      "type": "function"
    },
    {
      "inputs": [
        {
          "internalType": "uint256",
          "name": "",
          "type": "uint256"
        }
      ],
      "name": "buyers",
      "outputs": [
        {
          "internalType": "address",
          "name": "",
          "type": "address"
        }
      ],
      "stateMutability": "view",
      "type": "function"
    },
    {
      "inputs": [
        {
          "internalType": "uint256",
          "name": "tokenId",
          "type": "uint256"
        }
      ],
      "name": "getApproved",
      "outputs": [
        {
          "internalType": "address",
          "name": "",
          "type": "address"
        }
      ],
      "stateMutability": "view",
      "type": "function"
    },
    {
      "inputs": [
        {
          "internalType": "uint256",
          "name": "",
          "type": "uint256"
        }
      ],
      "name": "horns",
      "outputs": [
        {
          "internalType": "string",
          "name": "make",
          "type": "string"
        },
        {
          "internalType": "string",
          "name": "model",
          "type": "string"
        },
        {
          "internalType": "string",
          "name": "style",
          "type": "string"
        },
        {
          "internalType": "uint256",
          "name": "serialNumber",
          "type": "uint256"
        },
        {
          "internalType": "uint256",
          "name": "listPrice",
          "type": "uint256"
        },
        {
          "internalType": "enum HornMarketplace.HornStatus",
          "name": "status",
          "type": "uint8"
        },
        {
          "internalType": "address payable",
          "name": "currentOwner",
          "type": "address"
        }
      ],
      "stateMutability": "view",
      "type": "function"
    },
    {
      "inputs": [
        {
          "internalType": "uint256",
          "name": "",
          "type": "uint256"
        }
      ],
      "name": "hornsForSale",
      "outputs": [
        {
          "internalType": "uint256",
          "name": "",
          "type": "uint256"
        }
      ],
      "stateMutability": "view",
      "type": "function"
    },
    {
      "inputs": [
        {
          "internalType": "address",
          "name": "owner",
          "type": "address"
        },
        {
          "internalType": "address",
          "name": "operator",
          "type": "address"
        }
      ],
      "name": "isApprovedForAll",
      "outputs": [
        {
          "internalType": "bool",
          "name": "",
          "type": "bool"
        }
      ],
      "stateMutability": "view",
      "type": "function"
    },
    {
      "inputs": [
        {
          "internalType": "uint256",
          "name": "__hornId",
          "type": "uint256"
        },
        {
          "internalType": "uint256",
          "name": "_desiredPrice",
          "type": "uint256"
        }
      ],
      "name": "listExistingHornNFT",
      "outputs": [
        {
          "internalType": "uint256",
          "name": "",
          "type": "uint256"
        }
      ],
      "stateMutability": "nonpayable",
      "type": "function"
    },
    {
      "inputs": [
        {
          "internalType": "uint256",
          "name": "__hornId",
          "type": "uint256"
        }
      ],
      "name": "markHornDeliveredAndOwnershipTransferred",
      "outputs": [
        {
          "internalType": "uint256",
          "name": "",
          "type": "uint256"
        }
      ],
      "stateMutability": "nonpayable",
      "type": "function"
    },
    {
      "inputs": [
        {
          "internalType": "uint256",
          "name": "__hornId",
          "type": "uint256"
        },
        {
          "internalType": "string",
          "name": "shippedTo",
          "type": "string"
        }
      ],
      "name": "markHornShipped",
      "outputs": [],
      "stateMutability": "nonpayable",
      "type": "function"
    },
    {
      "inputs": [
        {
          "internalType": "string",
          "name": "_make",
          "type": "string"
        },
        {
          "internalType": "string",
          "name": "_model",
          "type": "string"
        },
        {
          "internalType": "string",
          "name": "_style",
          "type": "string"
        },
        {
          "internalType": "uint256",
          "name": "_serialNumber",
          "type": "uint256"
        }
      ],
      "name": "mintButDontListNewHornNFT",
      "outputs": [
        {
          "internalType": "uint256",
          "name": "",
          "type": "uint256"
        }
      ],
      "stateMutability": "nonpayable",
      "type": "function"
    },
    {
      "inputs": [
        {
          "internalType": "string",
          "name": "_make",
          "type": "string"
        },
        {
          "internalType": "string",
          "name": "_model",
          "type": "string"
        },
        {
          "internalType": "string",
          "name": "_style",
          "type": "string"
        },
        {
          "internalType": "uint256",
          "name": "_serialNumber",
          "type": "uint256"
        },
        {
          "internalType": "uint256",
          "name": "_desiredPrice",
          "type": "uint256"
        }
      ],
      "name": "mintThenListNewHornNFT",
      "outputs": [
        {
          "internalType": "uint256",
          "name": "",
          "type": "uint256"
        }
      ],
      "stateMutability": "nonpayable",
      "type": "function"
    },
    {
      "inputs": [],
      "name": "name",
      "outputs": [
        {
          "internalType": "string",
          "name": "",
          "type": "string"
        }
      ],
      "stateMutability": "view",
      "type": "function"
    },
    {
      "inputs": [],
      "name": "owner",
      "outputs": [
        {
          "internalType": "address",
          "name": "",
          "type": "address"
        }
      ],
      "stateMutability": "view",
      "type": "function"
    },
    {
      "inputs": [
        {
          "internalType": "uint256",
          "name": "tokenId",
          "type": "uint256"
        }
      ],
      "name": "ownerOf",
      "outputs": [
        {
          "internalType": "address",
          "name": "",
          "type": "address"
        }
      ],
      "stateMutability": "view",
      "type": "function"
    },
    {
      "inputs": [
        {
          "internalType": "uint256",
          "name": "__hornId",
          "type": "uint256"
        },
        {
          "internalType": "string",
          "name": "_shipTo",
          "type": "string"
        }
      ],
      "name": "purchaseHornByHornId",
      "outputs": [],
      "stateMutability": "payable",
      "type": "function"
    },
    {
      "inputs": [],
      "name": "renounceOwnership",
      "outputs": [],
      "stateMutability": "nonpayable",
      "type": "function"
    },
    {
      "inputs": [
        {
          "internalType": "address",
          "name": "from",
          "type": "address"
        },
        {
          "internalType": "address",
          "name": "to",
          "type": "address"
        },
        {
          "internalType": "uint256",
          "name": "tokenId",
          "type": "uint256"
        }
      ],
      "name": "safeTransferFrom",
      "outputs": [],
      "stateMutability": "nonpayable",
      "type": "function"
    },
    {
      "inputs": [
        {
          "internalType": "address",
          "name": "from",
          "type": "address"
        },
        {
          "internalType": "address",
          "name": "to",
          "type": "address"
        },
        {
          "internalType": "uint256",
          "name": "tokenId",
          "type": "uint256"
        },
        {
          "internalType": "bytes",
          "name": "_data",
          "type": "bytes"
        }
      ],
      "name": "safeTransferFrom",
      "outputs": [],
      "stateMutability": "nonpayable",
      "type": "function"
    },
    {
      "inputs": [
        {
          "internalType": "address",
          "name": "operator",
          "type": "address"
        },
        {
          "internalType": "bool",
          "name": "approved",
          "type": "bool"
        }
      ],
      "name": "setApprovalForAll",
      "outputs": [],
      "stateMutability": "nonpayable",
      "type": "function"
    },
    {
      "inputs": [
        {
          "internalType": "address",
          "name": "",
          "type": "address"
        }
      ],
      "name": "shippingAddresses",
      "outputs": [
        {
          "internalType": "string",
          "name": "",
          "type": "string"
        }
      ],
      "stateMutability": "view",
      "type": "function"
    },
    {
      "inputs": [
        {
          "internalType": "bytes4",
          "name": "interfaceId",
          "type": "bytes4"
        }
      ],
      "name": "supportsInterface",
      "outputs": [
        {
          "internalType": "bool",
          "name": "",
          "type": "bool"
        }
      ],
      "stateMutability": "view",
      "type": "function"
    },
    {
      "inputs": [],
      "name": "symbol",
      "outputs": [
        {
          "internalType": "string",
          "name": "",
          "type": "string"
        }
      ],
      "stateMutability": "view",
      "type": "function"
    },
    {
      "inputs": [
        {
          "internalType": "uint256",
          "name": "tokenId",
          "type": "uint256"
        }
      ],
      "name": "tokenURI",
      "outputs": [
        {
          "internalType": "string",
          "name": "",
          "type": "string"
        }
      ],
      "stateMutability": "view",
      "type": "function"
    },
    {
      "inputs": [
        {
          "internalType": "address",
          "name": "from",
          "type": "address"
        },
        {
          "internalType": "address",
          "name": "to",
          "type": "address"
        },
        {
          "internalType": "uint256",
          "name": "tokenId",
          "type": "uint256"
        }
      ],
      "name": "transferFrom",
      "outputs": [],
      "stateMutability": "nonpayable",
      "type": "function"
    },
    {
      "inputs": [
        {
          "internalType": "address",
          "name": "newOwner",
          "type": "address"
        }
      ],
      "name": "transferOwnership",
      "outputs": [],
      "stateMutability": "nonpayable",
      "type": "function"
    },
    {
      "inputs": [
        {
          "internalType": "uint256",
          "name": "__hornId",
          "type": "uint256"
        }
      ],
      "name": "sellerInitiateRefundOrSetStatusToOwnedNotForSale",
      "outputs": [
        {
          "internalType": "enum HornMarketplace.HornStatus",
          "name": "",
          "type": "uint8"
        }
      ],
      "stateMutability": "nonpayable",
      "type": "function"
    }
  ],
  "bytecode": "0x60806040523480156200001157600080fd5b506040518060400160405280600481526020017f486f726e000000000000000000000000000000000000000000000000000000008152506040518060400160405280600481526020017f484f524e00000000000000000000000000000000000000000000000000000000815250620000aa6200009b6200012a640100000000026401000000009004565b6401000000006200012e810204565b8151620000bf9060019060208501906200017e565b508051620000d59060029060208401906200017e565b505050604051620000e6906200020d565b604051809103906000f08015801562000103573d6000803e3d6000fd5b5060088054600160a060020a031916600160a060020a039290921691909117905562000288565b3390565b60008054600160a060020a03838116600160a060020a0319831681178455604051919092169283917f8be0079c531659141344cd1fd0a4f28419497f9722a3daafe3b4186f6b6457e09190a35050565b8280546200018c9062000232565b90600052602060002090601f016020900481019282620001b05760008555620001fb565b82601f10620001cb57805160ff1916838001178555620001fb565b82800160010185558215620001fb579182015b82811115620001fb578251825591602001919060010190620001de565b50620002099291506200021b565b5090565b6107208062003d1683390190565b5b808211156200020957600081556001016200021c565b6002810460018216806200024757607f821691505b6020821081141562000282577f4e487b7100000000000000000000000000000000000000000000000000000000600052602260045260246000fd5b50919050565b613a7e80620002986000396000f3fe6080604052600436106101d4576000357c01000000000000000000000000000000000000000000000000000000009004806395d89b4111610109578063c87b56dd116100a7578063e40b96cf11610081578063e40b96cf14610513578063e985e9c514610533578063f2aa821814610553578063f2fde38b14610573576101d4565b8063c87b56dd146104b3578063cf44981a146104d3578063e3cbb368146104f3576101d4565b8063b5178ed5116100e3578063b5178ed514610420578063b7d002f414610453578063b88d4fde14610473578063c0227bbb14610493576101d4565b806395d89b41146103cb578063a22cb465146103e0578063b15fca9e14610400576101d4565b80633a7707451161017657806370a082311161015057806370a0823114610354578063715018a6146103745780638007eb48146103895780638da5cb5b146103b6576101d4565b80633a7707451461030157806342842e0e146103145780636352211e14610334576101d4565b8063095ea7b3116101b2578063095ea7b31461027d578063125bba371461029f57806323b872dd146102cc57806330333e97146102ec576101d4565b806301ffc9a7146101f857806306fdde031461022e578063081812fc14610250575b60405160e560020a62461bcd0281526004016101ef9061384d565b60405180910390fd5b34801561020457600080fd5b5061021861021336600461287a565b610593565b6040516102259190612c24565b60405180910390f35b34801561023a57600080fd5b5061024361060d565b6040516102259190612c3d565b34801561025c57600080fd5b5061027061026b3660046129f6565b61069f565b6040516102259190612bd4565b34801561028957600080fd5b5061029d610298366004612851565b6106e5565b005b3480156102ab57600080fd5b506102bf6102ba366004612a70565b610783565b60405161022591906138f6565b3480156102d857600080fd5b5061029d6102e7366004612710565b6108d5565b3480156102f857600080fd5b506102bf610910565b61029d61030f366004612a26565b610916565b34801561032057600080fd5b5061029d61032f366004612710565b610bcc565b34801561034057600080fd5b5061027061034f3660046129f6565b610be7565b34801561036057600080fd5b506102bf61036f3660046126c4565b610c1f565b34801561038057600080fd5b5061029d610c66565b34801561039557600080fd5b506103a96103a43660046129f6565b610cb4565b6040516102259190612c2f565b3480156103c257600080fd5b50610270610e2b565b3480156103d757600080fd5b50610243610e3a565b3480156103ec57600080fd5b5061029d6103fb366004612817565b610e49565b34801561040c57600080fd5b5061024361041b3660046126c4565b610f1a565b34801561042c57600080fd5b5061044061043b3660046129f6565b610fb4565b6040516102259796959493929190612c50565b34801561045f57600080fd5b506102bf61046e3660046129f6565b611195565b34801561047f57600080fd5b5061029d61048e36600461274b565b6114ee565b34801561049f57600080fd5b506102bf6104ae3660046129f6565b611530565b3480156104bf57600080fd5b506102436104ce3660046129f6565b611551565b3480156104df57600080fd5b5061029d6104ee366004612a26565b6115d7565b3480156104ff57600080fd5b506102bf61050e366004612951565b611858565b34801561051f57600080fd5b506102bf61052e3660046128b2565b611b3a565b34801561053f57600080fd5b5061021861054e3660046126de565b611dc4565b34801561055f57600080fd5b5061027061056e3660046129f6565b611df4565b34801561057f57600080fd5b5061029d61058e3660046126c4565b611e0f565b6000600160e060020a031982167f80ac58cd0000000000000000000000000000000000000000000000000000000014806105f65750600160e060020a031982167f5b5e139f00000000000000000000000000000000000000000000000000000000145b80610605575061060582611e86565b90505b919050565b60606001805461061c9061397a565b80601f01602080910402602001604051908101604052809291908181526020018280546106489061397a565b80156106955780601f1061066a57610100808354040283529160200191610695565b820191906000526020600020905b81548152906001019060200180831161067857829003601f168201915b5050505050905090565b60006106aa82611eb8565b6106c95760405160e560020a62461bcd0281526004016101ef906132d7565b50600090815260056020526040902054600160a060020a031690565b60006106f082610be7565b905080600160a060020a031683600160a060020a031614156107275760405160e560020a62461bcd0281526004016101ef9061353a565b80600160a060020a0316610739611ed5565b600160a060020a0316148061075557506107558161054e611ed5565b6107745760405160e560020a62461bcd0281526004016101ef90612fb9565b61077e8383611ed9565b505050565b6000828152600c60205260408120548390600160a060020a031633146107be5760405160e560020a62461bcd0281526004016101ef9061327a565b600083116107e15760405160e560020a62461bcd0281526004016101ef90612eff565b6000848152600a602052604081206005015460ff1660038111156108185760e060020a634e487b7102600052602160045260246000fd5b14156108395760405160e560020a62461bcd0281526004016101ef90613747565b60098054600181019091557f6e1540171b6c0c960b71a7020d9f60077f6af931a8bbf590da0223dacf75c7af018490556000848152600a6020526040908190206004810185905560058101805460ff191690559051859161089991612b36565b60405190819003812090339083907f762f1a2f7e87bdc2ebbbeb92df2d742317f8e1353aafc0c70b060981e72271f490600090a4949350505050565b6108e66108e0611ed5565b82611f47565b6109055760405160e560020a62461bcd0281526004016101ef9061368d565b61077e838383611fcf565b60075481565b6000838152600a602052604090206004015483906109495760405160e560020a62461bcd0281526004016101ef906133c6565b6000818152600a602052604090206005015460ff1660038111156109805760e060020a634e487b7102600052602160045260246000fd5b156109a05760405160e560020a62461bcd0281526004016101ef906131e8565b6000848152600a6020526040902060040154849034146109d55760405160e560020a62461bcd0281526004016101ef90612cc0565b6008546000868152600c6020526040908190205490517ff340fa01000000000000000000000000000000000000000000000000000000008152600160a060020a039283169263f340fa0192610a2f92911690600401612bd4565b600060405180830381600087803b158015610a4957600080fd5b505af1158015610a5d573d6000803e3d6000fd5b5050336000908152600e60205260409020610a7c925090508585612559565b506000858152600d602090815260408083208054600160a060020a03191633179055600a9091528120600501805460ff191660011790555b600954811015610b36578560098281548110610ae35760e060020a634e487b7102600052603260045260246000fd5b90600052602060002001541415610b245760098181548110610b185760e060020a634e487b7102600052603260045260246000fd5b60009182526020822001555b80610b2e816139b8565b915050610ab4565b506040513390610b499086908690612ae2565b6040519081900381209087907fdbca9a11cad69a5ab275fd9838feb30068a34f31d0f876d995c14a8dd906f70990600090a46000858152600a60205260408082206005015490513492610100909204600160a060020a0316917fe6138e0eb7be5ea87d2296f3ad7469a8364406bface7d4e5de0a21dce1841cdd91a35050505050565b61077e838383604051806020016040528060008152506114ee565b600081815260036020526040812054600160a060020a0316806106055760405160e560020a62461bcd0281526004016101ef906130d0565b6000600160a060020a038216610c4a5760405160e560020a62461bcd0281526004016101ef90613073565b50600160a060020a031660009081526004602052604090205490565b610c6e611ed5565b600160a060020a0316610c7f610e2b565b600160a060020a031614610ca85760405160e560020a62461bcd0281526004016101ef90613391565b610cb26000612102565b565b6000806000838152600a602052604090206005015460ff166003811115610cee5760e060020a634e487b7102600052602160045260246000fd5b1415610d15576000828152600a60205260409020600501805460ff19166003179055610e23565b60016000838152600a602052604090206005015460ff166003811115610d4e5760e060020a634e487b7102600052602160045260246000fd5b1415610d6f5760405160e560020a62461bcd0281526004016101ef906137a4565b60026000838152600a602052604090206005015460ff166003811115610da85760e060020a634e487b7102600052602160045260246000fd5b1415610dc95760405160e560020a62461bcd0281526004016101ef90613597565b60036000838152600a602052604090206005015460ff166003811115610e025760e060020a634e487b7102600052602160045260246000fd5b1415610e235760405160e560020a62461bcd0281526004016101ef90612ea2565b506003919050565b600054600160a060020a031690565b60606002805461061c9061397a565b610e51611ed5565b600160a060020a031682600160a060020a03161415610e855760405160e560020a62461bcd0281526004016101ef90612e6b565b8060066000610e92611ed5565b600160a060020a03908116825260208083019390935260409182016000908120918716808252919093529120805460ff191692151592909217909155610ed6611ed5565b600160a060020a03167f17307eab39ab6107e8899845ad3d59bd9653f200f220920489ca2b5937696c3183604051610f0e9190612c24565b60405180910390a35050565b600e6020526000908152604090208054610f339061397a565b80601f0160208091040260200160405190810160405280929190818152602001828054610f5f9061397a565b8015610fac5780601f10610f8157610100808354040283529160200191610fac565b820191906000526020600020905b815481529060010190602001808311610f8f57829003601f168201915b505050505081565b600a60205260009081526040902080548190610fcf9061397a565b80601f0160208091040260200160405190810160405280929190818152602001828054610ffb9061397a565b80156110485780601f1061101d57610100808354040283529160200191611048565b820191906000526020600020905b81548152906001019060200180831161102b57829003601f168201915b50505050509080600101805461105d9061397a565b80601f01602080910402602001604051908101604052809291908181526020018280546110899061397a565b80156110d65780601f106110ab576101008083540402835291602001916110d6565b820191906000526020600020905b8154815290600101906020018083116110b957829003601f168201915b5050505050908060020180546110eb9061397a565b80601f01602080910402602001604051908101604052809291908181526020018280546111179061397a565b80156111645780601f1061113957610100808354040283529160200191611164565b820191906000526020600020905b81548152906001019060200180831161114757829003601f168201915b50505050600383015460048401546005909401549293909290915060ff8116906101009004600160a060020a031687565b6000818152600d60205260408120548290600160a060020a031633146111d05760405160e560020a62461bcd0281526004016101ef9061318a565b826111db3082611f47565b6111fa5760405160e560020a62461bcd0281526004016101ef90613016565b6000818152600a602052604090206005015460ff1660038111156112315760e060020a634e487b7102600052602160045260246000fd5b6002146112535760405160e560020a62461bcd0281526004016101ef906136ea565b6008546000858152600a60205260408082206005015490517fe3a9db1a0000000000000000000000000000000000000000000000000000000081529192600160a060020a039081169263e3a9db1a926112b6926101009091041690600401612bd4565b60206040518083038186803b1580156112ce57600080fd5b505afa1580156112e2573d6000803e3d6000fd5b505050506040513d601f19601f820116820180604052508101906113069190612a0e565b6008546000878152600a6020526040908190206005015490517f51cff8d9000000000000000000000000000000000000000000000000000000008152929350600160a060020a03918216926351cff8d99261136a9261010090041690600401612bd4565b600060405180830381600087803b15801561138457600080fd5b505af1158015611398573d6000803e3d6000fd5b5050506000868152600d602090815260408083208054600160a060020a03191690558051808301808352848252338552600e909352922091516113db93506125dd565b506000858152600a602090815260408083206005018054600360ff199091161774ffffffffffffffffffffffffffffffffffffffff00191633610100810291909117909155600c90925290912054600160a060020a03169061143f90829088610bcc565b6040513390600160a060020a0383169088907f86ff2a738e00d7cf2613e4bd44ae641e080a2877f978be45ac950525d26d04c590600090a46040513390600160a060020a0383169088907ffc99b02f822d46feedca53aafaa97c596bf87bb34925d350b64a13275388de4a90600090a46040518290600160a060020a038316907f033e0f8c9aa8fcdd1b01ad637814ecdb49b6ddc7445f13555d21b3c2959b5d1f90600090a350949350505050565b6114ff6114f9611ed5565b83611f47565b61151e5760405160e560020a62461bcd0281526004016101ef9061368d565b61152a84848484612152565b50505050565b6009818154811061154057600080fd5b600091825260209091200154905081565b606061155c82611eb8565b61157b5760405160e560020a62461bcd0281526004016101ef90613480565b6000611585612188565b905060008151116115a557604051806020016040528060008152506115d0565b806115af8461219a565b6040516020016115c0929190612b07565b6040516020818303038152906040525b9392505050565b6000838152600c60205260409020548390600160a060020a031633146116125760405160e560020a62461bcd0281526004016101ef9061327a565b6000848152600a60205260409081902060049081015460085492517fe3a9db1a00000000000000000000000000000000000000000000000000000000815287939192600160a060020a039092169163e3a9db1a9161167291339101612bd4565b60206040518083038186803b15801561168a57600080fd5b505afa15801561169e573d6000803e3d6000fd5b505050506040513d601f19601f820116820180604052508101906116c29190612a0e565b146116e25760405160e560020a62461bcd0281526004016101ef90613334565b6000818152600a602052604090206005015460ff1660038111156117195760e060020a634e487b7102600052602160045260246000fd5b60011461173b5760405160e560020a62461bcd0281526004016101ef9061312d565b6000858152600d6020908152604080832054600160a060020a0316808452600e835292819020905161176d9201612b36565b604051602081830303815290604052805190602001208585604051602001611796929190612ae2565b60405160208183030381529060405280519060200120146117cc5760405160e560020a62461bcd0281526004016101ef906134dd565b6000868152600a60205260409020600501805460ff191660021790556117f230876106e5565b6000868152600d602052604090819020549051600160a060020a039091169061181e9087908790612ae2565b6040519081900381209088907f39fd051deea672a32743d0c813cc2c161b3dacddbff9e2415abc2acbf2e088fb90600090a4505050505050565b600080821161187c5760405160e560020a62461bcd0281526004016101ef90612eff565b611886600761230e565b60006118926007612317565b905061189e338261231b565b6040518060e001604052808b8b8080601f016020809104026020016040519081016040528093929190818152602001838380828437600092019190915250505090825250604080516020601f8c018190048102820181019092528a815291810191908b908b9081908401838280828437600092019190915250505090825250604080516020601f8a0181900481028201810190925288815291810191908990899081908401838280828437600092018290525093855250505060208201879052604082018690526060909101908152336020918201526000838152600a825260409020825180519192611996928492909101906125dd565b5060208281015180516119af92600185019201906125dd565b50604082015180516119cb9160028401916020909101906125dd565b50606082015181600301556080820151816004015560a08201518160050160006101000a81548160ff02191690836003811115611a1b5760e060020a634e487b7102600052602160045260246000fd5b021790555060c0919091015160059091018054600160a060020a039092166101000274ffffffffffffffffffffffffffffffffffffffff00199092169190911790556000818152600c602090815260408083208054600160a060020a03191633179055600980546001810182559084527f6e1540171b6c0c960b71a7020d9f60077f6af931a8bbf590da0223dacf75c7af0184905551611ac1918d918d91899101612af2565b60408051601f1981840301815282825280516020918201206000868152600b9092529190208190559150611af8908c908c90612ae2565b60405190819003812090339084907f762f1a2f7e87bdc2ebbbeb92df2d742317f8e1353aafc0c70b060981e72271f490600090a4509998505050505050505050565b6000611b46600761230e565b6000611b526007612317565b9050611b5e338261231b565b6040518060e001604052808a8a8080601f016020809104026020016040519081016040528093929190818152602001838380828437600092019190915250505090825250604080516020601f8b0181900481028201810190925289815291810191908a908a9081908401838280828437600092019190915250505090825250604080516020601f890181900481028201810190925287815291810191908890889081908401838280828437600092018290525093855250505060208201869052604082015260600160038152336020918201526000838152600a825260409020825180519192611c53928492909101906125dd565b506020828101518051611c6c92600185019201906125dd565b5060408201518051611c889160028401916020909101906125dd565b50606082015181600301556080820151816004015560a08201518160050160006101000a81548160ff02191690836003811115611cd85760e060020a634e487b7102600052602160045260246000fd5b021790555060c0919091015160059091018054600160a060020a039092166101000274ffffffffffffffffffffffffffffffffffffffff00199092169190911790556000818152600c602090815260408083208054600160a060020a0319163317905551611d4c918c918c91889101612af2565b60408051601f1981840301815282825280516020918201206000868152600b9092529190208190559150611d83908b908b90612ae2565b60405190819003812090339084907f4d80549dfe39c90078d620fcd854e5cbf03ace471593a7df725d1191056f30a190600090a45098975050505050505050565b600160a060020a0380831660009081526006602090815260408083209385168352929052205460ff165b92915050565b600d60205260009081526040902054600160a060020a031681565b611e17611ed5565b600160a060020a0316611e28610e2b565b600160a060020a031614611e515760405160e560020a62461bcd0281526004016101ef90613391565b600160a060020a038116611e7a5760405160e560020a62461bcd0281526004016101ef90612d7a565b611e8381612102565b50565b600160e060020a031981167f01ffc9a70000000000000000000000000000000000000000000000000000000014919050565b600090815260036020526040902054600160a060020a0316151590565b3390565b60008181526005602052604090208054600160a060020a031916600160a060020a0384169081179091558190611f0e82610be7565b600160a060020a03167f8c5be1e5ebec7d5bd14f71427d1e84f3dd0314c0f7b2291e5b200ac8c7c3b92560405160405180910390a45050565b6000611f5282611eb8565b611f715760405160e560020a62461bcd0281526004016101ef90612f5c565b6000611f7c83610be7565b905080600160a060020a031684600160a060020a03161480611fb7575083600160a060020a0316611fac8461069f565b600160a060020a0316145b80611fc75750611fc78185611dc4565b949350505050565b82600160a060020a0316611fe282610be7565b600160a060020a03161461200b5760405160e560020a62461bcd0281526004016101ef90613423565b600160a060020a0382166120345760405160e560020a62461bcd0281526004016101ef90612e0e565b61203f83838361077e565b61204a600082611ed9565b600160a060020a0383166000908152600460205260408120805460019290612073908490613937565b9091555050600160a060020a03821660009081526004602052604081208054600192906120a190849061390b565b90915550506000818152600360205260408082208054600160a060020a031916600160a060020a0386811691821790925591518493918716917fddf252ad1be2c89b69c2b068fc378daa952ba7f163c4a11628f55a4df523b3ef91a4505050565b60008054600160a060020a03838116600160a060020a0319831681178455604051919092169283917f8be0079c531659141344cd1fd0a4f28419497f9722a3daafe3b4186f6b6457e09190a35050565b61215d848484611fcf565b61216984848484612400565b61152a5760405160e560020a62461bcd0281526004016101ef90612d1d565b60408051602081019091526000815290565b6060816121db575060408051808201909152600181527f30000000000000000000000000000000000000000000000000000000000000006020820152610608565b8160005b811561220557806121ef816139b8565b91506121fe9050600a83613923565b91506121df565b60008167ffffffffffffffff8111156122315760e060020a634e487b7102600052604160045260246000fd5b6040519080825280601f01601f19166020018201604052801561225b576020820181803683370190505b5090505b8415611fc757612270600183613937565b915061227d600a866139d3565b61228890603061390b565b7f0100000000000000000000000000000000000000000000000000000000000000028183815181106122cd5760e060020a634e487b7102600052603260045260246000fd5b60200101907effffffffffffffffffffffffffffffffffffffffffffffffffffffffffffff1916908160001a905350612307600a86613923565b945061225f565b80546001019055565b5490565b600160a060020a0382166123445760405160e560020a62461bcd0281526004016101ef90613245565b61234d81611eb8565b1561236d5760405160e560020a62461bcd0281526004016101ef90612dd7565b6123796000838361077e565b600160a060020a03821660009081526004602052604081208054600192906123a290849061390b565b90915550506000818152600360205260408082208054600160a060020a031916600160a060020a03861690811790915590518392907fddf252ad1be2c89b69c2b068fc378daa952ba7f163c4a11628f55a4df523b3ef908290a45050565b600061241484600160a060020a0316612553565b156125485783600160a060020a031663150b7a02612430611ed5565b8786866040518563ffffffff167c010000000000000000000000000000000000000000000000000000000002815260040161246e9493929190612be8565b602060405180830381600087803b15801561248857600080fd5b505af19250505080156124b8575060408051601f3d908101601f191682019092526124b591810190612896565b60015b612515573d8080156124e6576040519150601f19603f3d011682016040523d82523d6000602084013e6124eb565b606091505b50805161250d5760405160e560020a62461bcd0281526004016101ef90612d1d565b805181602001fd5b600160e060020a0319167f150b7a0200000000000000000000000000000000000000000000000000000000149050611fc7565b506001949350505050565b3b151590565b8280546125659061397a565b90600052602060002090601f01602090048101928261258757600085556125cd565b82601f106125a05782800160ff198235161785556125cd565b828001600101855582156125cd579182015b828111156125cd5782358255916020019190600101906125b2565b506125d9929150612651565b5090565b8280546125e99061397a565b90600052602060002090601f01602090048101928261260b57600085556125cd565b82601f1061262457805160ff19168380011785556125cd565b828001600101855582156125cd579182015b828111156125cd578251825591602001919060010190612636565b5b808211156125d95760008155600101612652565b8035600160a060020a038116811461060857600080fd5b60008083601f84011261268e578182fd5b50813567ffffffffffffffff8111156126a5578182fd5b6020830191508360208285010111156126bd57600080fd5b9250929050565b6000602082840312156126d5578081fd5b6115d082612666565b600080604083850312156126f0578081fd5b6126f983612666565b915061270760208401612666565b90509250929050565b600080600060608486031215612724578081fd5b61272d84612666565b925061273b60208501612666565b9150604084013590509250925092565b60008060008060808587031215612760578081fd5b61276985612666565b93506020612778818701612666565b935060408601359250606086013567ffffffffffffffff8082111561279b578384fd5b818801915088601f8301126127ae578384fd5b8135818111156127c0576127c0613a19565b604051601f8201601f19168101850183811182821017156127e3576127e3613a19565b60405281815283820185018b10156127f9578586fd5b81858501868301379081019093019390935250939692955090935050565b60008060408385031215612829578182fd5b61283283612666565b915060208301358015158114612846578182fd5b809150509250929050565b60008060408385031215612863578182fd5b61286c83612666565b946020939093013593505050565b60006020828403121561288b578081fd5b81356115d081613a32565b6000602082840312156128a7578081fd5b81516115d081613a32565b60008060008060008060006080888a0312156128cc578283fd5b873567ffffffffffffffff808211156128e3578485fd5b6128ef8b838c0161267d565b909950975060208a0135915080821115612907578485fd5b6129138b838c0161267d565b909750955060408a013591508082111561292b578485fd5b506129388a828b0161267d565b989b979a50959894979596606090950135949350505050565b60008060008060008060008060a0898b03121561296c578081fd5b883567ffffffffffffffff80821115612983578283fd5b61298f8c838d0161267d565b909a50985060208b01359150808211156129a7578283fd5b6129b38c838d0161267d565b909850965060408b01359150808211156129cb578283fd5b506129d88b828c0161267d565b999c989b509699959896976060870135966080013595509350505050565b600060208284031215612a07578081fd5b5035919050565b600060208284031215612a1f578081fd5b5051919050565b600080600060408486031215612a3a578081fd5b83359250602084013567ffffffffffffffff811115612a57578182fd5b612a638682870161267d565b9497909650939450505050565b60008060408385031215612a82578182fd5b50508035926020909101359150565b60008151808452612aa981602086016020860161394e565b601f01601f19169290920160200192915050565b60048110612ade5760e060020a634e487b7102600052602160045260246000fd5b9052565b6000828483379101908152919050565b60008385833750909101908152602001919050565b60008351612b1981846020880161394e565b835190830190612b2d81836020880161394e565b01949350505050565b8154600090819060028104600180831680612b5257607f831692505b6020808410821415612b755760e060020a634e487b710287526022600452602487fd5b818015612b895760018114612b9a57612bc6565b60ff19861689528489019650612bc6565b612ba38a6138ff565b885b86811015612bbe5781548b820152908501908301612ba5565b505084890196505b509498975050505050505050565b600160a060020a0391909116815260200190565b6000600160a060020a03808716835280861660208401525083604083015260806060830152612c1a6080830184612a91565b9695505050505050565b901515815260200190565b60208101611dee8284612abd565b6000602082526115d06020830184612a91565b600060e08252612c6360e083018a612a91565b8281036020840152612c75818a612a91565b90508281036040840152612c898189612a91565b915050856060830152846080830152612ca560a0830185612abd565b600160a060020a03831660c083015298975050505050505050565b6020808252602e908201527f5061796d656e7420616d6f756e74206d7573742065786163746c79206d61746360408201527f68206c6973746564207072696365000000000000000000000000000000000000606082015260800190565b60208082526032908201527f4552433732313a207472616e7366657220746f206e6f6e20455243373231526560408201527f63656976657220696d706c656d656e7465720000000000000000000000000000606082015260800190565b60208082526026908201527f4f776e61626c653a206e6577206f776e657220697320746865207a65726f206160408201527f6464726573730000000000000000000000000000000000000000000000000000606082015260800190565b6020808252601c908201527f4552433732313a20746f6b656e20616c7265616479206d696e74656400000000604082015260600190565b60208082526024908201527f4552433732313a207472616e7366657220746f20746865207a65726f2061646460408201527f7265737300000000000000000000000000000000000000000000000000000000606082015260800190565b60208082526019908201527f4552433732313a20617070726f766520746f2063616c6c657200000000000000604082015260600190565b60208082526030908201527f486f726e20697320616c7265616479206d61726b6564206173206f776e65642060408201527f616e64206e6f7420666f722073616c6500000000000000000000000000000000606082015260800190565b60208082526032908201527f596f757220486f726e2069732076616c7561626c6520616e642063616e6e6f7460408201527f20626520736f6c6420666f722066726565210000000000000000000000000000606082015260800190565b6020808252602c908201527f4552433732313a206f70657261746f7220717565727920666f72206e6f6e657860408201527f697374656e7420746f6b656e0000000000000000000000000000000000000000606082015260800190565b60208082526038908201527f4552433732313a20617070726f76652063616c6c6572206973206e6f74206f7760408201527f6e6572206e6f7220617070726f76656420666f7220616c6c0000000000000000606082015260800190565b6020808252603a908201527f5468697320636f6e7472616374206d757374206669727374206265206170707260408201527f6f7665642062792063757272656e7420686f726e206f776e6572000000000000606082015260800190565b6020808252602a908201527f4552433732313a2062616c616e636520717565727920666f7220746865207a6560408201527f726f206164647265737300000000000000000000000000000000000000000000606082015260800190565b60208082526029908201527f4552433732313a206f776e657220717565727920666f72206e6f6e657869737460408201527f656e7420746f6b656e0000000000000000000000000000000000000000000000606082015260800190565b60208082526028908201527f486f726e20686173206e6f74206265656e206d61726b6564206173207061696460408201527f20666f7220796574000000000000000000000000000000000000000000000000606082015260800190565b602080825260409082018190527f546869732066756e6374696f6e206d6179206f6e6c792062652063616c6c6564908201527f20627920612062757965722077686f2068617320616c72656164792070616964606082015260800190565b60208082526025908201527f486f726e206973206e6f742063757272656e746c79206c697374656420666f7260408201527f2073616c65000000000000000000000000000000000000000000000000000000606082015260800190565b6020808252818101527f4552433732313a206d696e7420746f20746865207a65726f2061646472657373604082015260600190565b60208082526038908201527f546869732066756e6374696f6e206d6179206f6e6c792062652063616c6c656460408201527f2062792074686520686f726e204e46542773206f776e65720000000000000000606082015260800190565b6020808252602c908201527f4552433732313a20617070726f76656420717565727920666f72206e6f6e657860408201527f697374656e7420746f6b656e0000000000000000000000000000000000000000606082015260800190565b60208082526034908201527f4275796572206d7573742073656e64207061796d656e7420666f7220486f726e60408201527f204e465420746f20657363726f77206669727374000000000000000000000000606082015260800190565b6020808252818101527f4f776e61626c653a2063616c6c6572206973206e6f7420746865206f776e6572604082015260600190565b60208082526026908201527f486f726e204e4654206d75737420657869737420616e642063616e6e6f74206260408201527f6520667265650000000000000000000000000000000000000000000000000000606082015260800190565b60208082526029908201527f4552433732313a207472616e73666572206f6620746f6b656e2074686174206960408201527f73206e6f74206f776e0000000000000000000000000000000000000000000000606082015260800190565b6020808252602f908201527f4552433732314d657461646174613a2055524920717565727920666f72206e6f60408201527f6e6578697374656e7420746f6b656e0000000000000000000000000000000000606082015260800190565b6020808252603a908201527f4164647265737320676976656e20646f6573206e6f74206d617463682074686560408201527f206f6e65206f6e2066696c6520666f7220746865206275796572000000000000606082015260800190565b60208082526021908201527f4552433732313a20617070726f76616c20746f2063757272656e74206f776e6560408201527f7200000000000000000000000000000000000000000000000000000000000000606082015260800190565b602080825260a6908201527f486f726e2068617320616c7265616479206265656e207368697070656420616e60408201527f64206e6f206c6f6e676572207175616c696669657320666f722061207265667560608201527f6e642c20706c6561736520636f6d706c657465207468652065786368616e676560808201527f20616e64207265646f207468652065786368616e676520696e2072657665727360a08201527f6520696620796f75207769736820746f20737769746368206261636b206f776e60c08201527f657273686970000000000000000000000000000000000000000000000000000060e08201526101000190565b60208082526031908201527f4552433732313a207472616e736665722063616c6c6572206973206e6f74206f60408201527f776e6572206e6f7220617070726f766564000000000000000000000000000000606082015260800190565b60208082526027908201527f486f726e20686173206e6f74206265656e206d61726b6564206173207368697060408201527f7065642079657400000000000000000000000000000000000000000000000000606082015260800190565b60208082526024908201527f596f757220486f726e20697320616c7265616479206c697374656420666f722060408201527f73616c6500000000000000000000000000000000000000000000000000000000606082015260800190565b60208082526068908201527f486f726e2068617320616c7265616479206265656e207075726368617365642060408201527f616e64207061696420666f72206279206120627579657220616e64206f6e2d6360608201527f6861696e20726566756e647320617265206e6f742063757272656e746c79207360808201527f7570706f7274656400000000000000000000000000000000000000000000000060a082015260c00190565b6020808252606b908201527f506c6561736520646f206e6f742073656e64207468697320636f6e747261637460408201527f2066756e647320776974686f757420616e792066756e6374696f6e2063616c6c60608201527f2064617461206f722063616c6c20612066756e6374696f6e207468617420646f60808201527f65736e277420657869737400000000000000000000000000000000000000000060a082015260c00190565b90815260200190565b60009081526020902090565b6000821982111561391e5761391e6139e7565b500190565b60008261393257613932613a00565b500490565b600082821015613949576139496139e7565b500390565b60005b83811015613969578181015183820152602001613951565b8381111561152a5750506000910152565b60028104600182168061398e57607f821691505b602082108114156139b25760e060020a634e487b7102600052602260045260246000fd5b50919050565b60006000198214156139cc576139cc6139e7565b5060010190565b6000826139e2576139e2613a00565b500690565b60e060020a634e487b7102600052601160045260246000fd5b60e060020a634e487b7102600052601260045260246000fd5b60e060020a634e487b7102600052604160045260246000fd5b600160e060020a031981168114611e8357600080fdfea2646970667358221220e609850866d232675f3d526a66d2ce2a4fd3f3b80c2fc589d0e6daf9f837651a64736f6c63430008000033608060405234801561001057600080fd5b50610033610025640100000000610038810204565b64010000000061003c810204565b61008c565b3390565b60008054600160a060020a03838116600160a060020a0319831681178455604051919092169283917f8be0079c531659141344cd1fd0a4f28419497f9722a3daafe3b4186f6b6457e09190a35050565b6106858061009b6000396000f3fe608060405260043610610071577c0100000000000000000000000000000000000000000000000000000000600035046351cff8d98114610076578063715018a6146100985780638da5cb5b146100ad578063e3a9db1a146100d8578063f2fde38b14610105578063f340fa0114610125575b600080fd5b34801561008257600080fd5b50610096610091366004610494565b610138565b005b3480156100a457600080fd5b506100966101f0565b3480156100b957600080fd5b506100c261023e565b6040516100cf91906104ba565b60405180910390f35b3480156100e457600080fd5b506100f86100f3366004610494565b61024d565b6040516100cf91906105f4565b34801561011157600080fd5b50610096610120366004610494565b610268565b610096610133366004610494565b6102df565b61014061038b565b600160a060020a031661015161023e565b600160a060020a0316146101835760405160e560020a62461bcd02815260040161017a906105bf565b60405180910390fd5b600160a060020a03811660008181526001602052604081208054919055906101ab908261038f565b81600160a060020a03167f7084f5476618d8e60b11ef0d7d3f06914655adb8793e28ff7f018d4c76d505d5826040516101e491906105f4565b60405180910390a25050565b6101f861038b565b600160a060020a031661020961023e565b600160a060020a0316146102325760405160e560020a62461bcd02815260040161017a906105bf565b61023c6000610437565b565b600054600160a060020a031690565b600160a060020a031660009081526001602052604090205490565b61027061038b565b600160a060020a031661028161023e565b600160a060020a0316146102aa5760405160e560020a62461bcd02815260040161017a906105bf565b600160a060020a0381166102d35760405160e560020a62461bcd02815260040161017a906104ce565b6102dc81610437565b50565b6102e761038b565b600160a060020a03166102f861023e565b600160a060020a0316146103215760405160e560020a62461bcd02815260040161017a906105bf565b600160a060020a03811660009081526001602052604081208054349283929161034b9084906105fd565b9250508190555081600160a060020a03167f2da466a7b24304f47e87fa2e1e5a81b9831ce54fec19055ce277ca2f39ba42c4826040516101e491906105f4565b3390565b30318111156103b35760405160e560020a62461bcd02815260040161017a90610588565b600082600160a060020a0316826040516103cc906104b7565b60006040518083038185875af1925050503d8060008114610409576040519150601f19603f3d011682016040523d82523d6000602084013e61040e565b606091505b50509050806104325760405160e560020a62461bcd02815260040161017a9061052b565b505050565b60008054600160a060020a0383811673ffffffffffffffffffffffffffffffffffffffff19831681178455604051919092169283917f8be0079c531659141344cd1fd0a4f28419497f9722a3daafe3b4186f6b6457e09190a35050565b6000602082840312156104a5578081fd5b81356104b08161063a565b9392505050565b90565b600160a060020a0391909116815260200190565b60208082526026908201527f4f776e61626c653a206e6577206f776e657220697320746865207a65726f206160408201527f6464726573730000000000000000000000000000000000000000000000000000606082015260800190565b6020808252603a908201527f416464726573733a20756e61626c6520746f2073656e642076616c75652c207260408201527f6563697069656e74206d61792068617665207265766572746564000000000000606082015260800190565b6020808252601d908201527f416464726573733a20696e73756666696369656e742062616c616e6365000000604082015260600190565b6020808252818101527f4f776e61626c653a2063616c6c6572206973206e6f7420746865206f776e6572604082015260600190565b90815260200190565b60008219821115610635577f4e487b710000000000000000000000000000000000000000000000000000000081526011600452602481fd5b500190565b600160a060020a03811681146102dc57600080fdfea2646970667358221220f305965515bf56bd3bdd388a27299eb6d2511a6b76cdf0be030db5497f01ed0064736f6c63430008000033",
  "immutableReferences": {},
  "source": "// SPDX-License-Identifier: MIT\npragma solidity 0.8.0;\n\nimport \"./HornMarketplace.sol\";\n\ncontract Helpers is HornMarketplace {\n\n// @dev Function that sets status of existing horn NFT to OwnedNotForSale, \n    // @notice Used in case minter only wants verifiable historical record or owner decides not to sell the instrument after listing or wishes to refund a buyer\n    // @notice Must be set to internal after testing is done, only temporarily set to public for testing purposes\n    function sellerInitiateRefundOrSetStatusToOwnedNotForSale(uint __hornId) public /*internal onlySeller()*/ returns (HornStatus) {\n        if (horns[__hornId].status == HornStatus.ListedForSale) {\n            horns[__hornId].status = HornStatus.OwnedNotForSale;\n        } else if (horns[__hornId].status == HornStatus.PaidFor) {\n            revert(\"Horn has already been purchased and paid for by a buyer and on-chain refunds are not currently supported\");\n            //REFUND LOGIC HERE: escrow.refundToBuyer(); functino refundToBuyer() probably has a nested mapping of address => uint => enum == buyer => deposits => state.refundable / state.nonrefundable that gets updated when horn is markShipped\n            // refund logic could probably include this next line within the refund function\n            // horns[__hornId].status = HornStatus.OwnedNotForSale;\n        } else if (horns[__hornId].status == HornStatus.Shipped) {\n            revert(\"Horn has already been shipped and no longer qualifies for a refund, please complete the exchange and redo the exchange in reverse if you wish to switch back ownership\");\n        } else if (horns[__hornId].status == HornStatus.OwnedNotForSale) {\n            revert(\"Horn is already marked as owned and not for sale\");\n        }\n\n        return(HornStatus.OwnedNotForSale);\n    }\n}\n",
  "sourcePath": "/home/robriks/ConsensysAcademyBootCamp/final-proj/contracts/Helpers.sol",
  "compiler": {
    "name": "solc",
    "version": "0.8.0+commit.c7dfd78e.Emscripten.clang"
  },
  "schemaVersion": "3.4.3",
  "updatedAt": "2021-11-15T01:55:58.365Z",
  "devdoc": {
    "kind": "dev",
    "methods": {
      "approve(address,uint256)": {
        "details": "See {IERC721-approve}."
      },
      "balanceOf(address)": {
        "details": "See {IERC721-balanceOf}."
      },
      "getApproved(uint256)": {
        "details": "See {IERC721-getApproved}."
      },
      "isApprovedForAll(address,address)": {
        "details": "See {IERC721-isApprovedForAll}."
      },
      "name()": {
        "details": "See {IERC721Metadata-name}."
      },
      "owner()": {
        "details": "Returns the address of the current owner."
      },
      "ownerOf(uint256)": {
        "details": "See {IERC721-ownerOf}."
      },
      "renounceOwnership()": {
        "details": "Leaves the contract without owner. It will not be possible to call `onlyOwner` functions anymore. Can only be called by the current owner. NOTE: Renouncing ownership will leave the contract without an owner, thereby removing any functionality that is only available to the owner."
      },
      "safeTransferFrom(address,address,uint256)": {
        "details": "See {IERC721-safeTransferFrom}."
      },
      "safeTransferFrom(address,address,uint256,bytes)": {
        "details": "See {IERC721-safeTransferFrom}."
      },
      "setApprovalForAll(address,bool)": {
        "details": "See {IERC721-setApprovalForAll}."
      },
      "supportsInterface(bytes4)": {
        "details": "See {IERC165-supportsInterface}."
      },
      "symbol()": {
        "details": "See {IERC721Metadata-symbol}."
      },
      "tokenURI(uint256)": {
        "details": "See {IERC721Metadata-tokenURI}."
      },
      "transferFrom(address,address,uint256)": {
        "details": "See {IERC721-transferFrom}."
      },
      "transferOwnership(address)": {
        "details": "Transfers ownership of the contract to a new account (`newOwner`). Can only be called by the current owner."
      }
    },
    "version": 1
  },
  "userdoc": {
    "kind": "user",
    "methods": {},
    "version": 1
  }
}