{
  "contractName": "HornMarketplace",
  "abi": [
    {
      "inputs": [],
      "stateMutability": "nonpayable",
      "type": "constructor"
    },
    {
      "anonymous": false,
      "inputs": [
        {
          "indexed": true,
          "internalType": "address",
          "name": "owner",
          "type": "address"
        },
        {
          "indexed": true,
          "internalType": "address",
          "name": "approved",
          "type": "address"
        },
        {
          "indexed": true,
          "internalType": "uint256",
          "name": "tokenId",
          "type": "uint256"
        }
      ],
      "name": "Approval",
      "type": "event"
    },
    {
      "anonymous": false,
      "inputs": [
        {
          "indexed": true,
          "internalType": "address",
          "name": "owner",
          "type": "address"
        },
        {
          "indexed": true,
          "internalType": "address",
          "name": "operator",
          "type": "address"
        },
        {
          "indexed": false,
          "internalType": "bool",
          "name": "approved",
          "type": "bool"
        }
      ],
      "name": "ApprovalForAll",
      "type": "event"
    },
    {
      "anonymous": false,
      "inputs": [
        {
          "indexed": true,
          "internalType": "address",
          "name": "payee",
          "type": "address"
        },
        {
          "indexed": true,
          "internalType": "uint256",
          "name": "amountInWei",
          "type": "uint256"
        }
      ],
      "name": "DepositedToEscrow",
      "type": "event"
    },
    {
      "anonymous": false,
      "inputs": [
        {
          "indexed": true,
          "internalType": "uint256",
          "name": "hornId",
          "type": "uint256"
        },
        {
          "indexed": true,
          "internalType": "address",
          "name": "from",
          "type": "address"
        },
        {
          "indexed": true,
          "internalType": "address",
          "name": "to",
          "type": "address"
        }
      ],
      "name": "HornDeliveredAndNFTOwnershipTransferred",
      "type": "event"
    },
    {
      "anonymous": false,
      "inputs": [
        {
          "indexed": true,
          "internalType": "uint256",
          "name": "hornId",
          "type": "uint256"
        },
        {
          "indexed": true,
          "internalType": "address",
          "name": "seller",
          "type": "address"
        },
        {
          "indexed": true,
          "internalType": "string",
          "name": "make",
          "type": "string"
        }
      ],
      "name": "HornListedForSale",
      "type": "event"
    },
    {
      "anonymous": false,
      "inputs": [
        {
          "indexed": true,
          "internalType": "uint256",
          "name": "hornId",
          "type": "uint256"
        },
        {
          "indexed": true,
          "internalType": "string",
          "name": "shipTo",
          "type": "string"
        },
        {
          "indexed": true,
          "internalType": "address",
          "name": "buyer",
          "type": "address"
        }
      ],
      "name": "HornPurchased",
      "type": "event"
    },
    {
      "anonymous": false,
      "inputs": [
        {
          "indexed": true,
          "internalType": "uint256",
          "name": "hornId",
          "type": "uint256"
        },
        {
          "indexed": true,
          "internalType": "string",
          "name": "shipTo",
          "type": "string"
        },
        {
          "indexed": true,
          "internalType": "address",
          "name": "to",
          "type": "address"
        }
      ],
      "name": "HornShipped",
      "type": "event"
    },
    {
      "anonymous": false,
      "inputs": [
        {
          "indexed": true,
          "internalType": "uint256",
          "name": "hornId",
          "type": "uint256"
        },
        {
          "indexed": true,
          "internalType": "address",
          "name": "seller",
          "type": "address"
        },
        {
          "indexed": true,
          "internalType": "string",
          "name": "make",
          "type": "string"
        }
      ],
      "name": "NewHornNFTMinted",
      "type": "event"
    },
    {
      "anonymous": false,
      "inputs": [
        {
          "indexed": true,
          "internalType": "address",
          "name": "previousOwner",
          "type": "address"
        },
        {
          "indexed": true,
          "internalType": "address",
          "name": "newOwner",
          "type": "address"
        }
      ],
      "name": "OwnershipTransferred",
      "type": "event"
    },
    {
      "anonymous": false,
      "inputs": [
        {
          "indexed": true,
          "internalType": "uint256",
          "name": "hornId",
          "type": "uint256"
        },
        {
          "indexed": true,
          "internalType": "address",
          "name": "payer",
          "type": "address"
        },
        {
          "indexed": true,
          "internalType": "address",
          "name": "payee",
          "type": "address"
        }
      ],
      "name": "SellerPaid",
      "type": "event"
    },
    {
      "anonymous": false,
      "inputs": [
        {
          "indexed": true,
          "internalType": "address",
          "name": "from",
          "type": "address"
        },
        {
          "indexed": true,
          "internalType": "address",
          "name": "to",
          "type": "address"
        },
        {
          "indexed": true,
          "internalType": "uint256",
          "name": "tokenId",
          "type": "uint256"
        }
      ],
      "name": "Transfer",
      "type": "event"
    },
    {
      "anonymous": false,
      "inputs": [
        {
          "indexed": true,
          "internalType": "address",
          "name": "payee",
          "type": "address"
        },
        {
          "indexed": true,
          "internalType": "uint256",
          "name": "amountInWei",
          "type": "uint256"
        }
      ],
      "name": "WithdrawnFromEscrow",
      "type": "event"
    },
    {
      "stateMutability": "payable",
      "type": "fallback"
    },
    {
      "inputs": [],
      "name": "_hornId",
      "outputs": [
        {
          "internalType": "uint256",
          "name": "_value",
          "type": "uint256"
        }
      ],
      "stateMutability": "view",
      "type": "function"
    },
    {
      "inputs": [
        {
          "internalType": "address",
          "name": "to",
          "type": "address"
        },
        {
          "internalType": "uint256",
          "name": "tokenId",
          "type": "uint256"
        }
      ],
      "name": "approve",
      "outputs": [],
      "stateMutability": "nonpayable",
      "type": "function"
    },
    {
      "inputs": [
        {
          "internalType": "address",
          "name": "owner",
          "type": "address"
        }
      ],
      "name": "balanceOf",
      "outputs": [
        {
          "internalType": "uint256",
          "name": "",
          "type": "uint256"
        }
      ],
      "stateMutability": "view",
      "type": "function"
    },
    {
      "inputs": [
        {
          "internalType": "uint256",
          "name": "tokenId",
          "type": "uint256"
        }
      ],
      "name": "getApproved",
      "outputs": [
        {
          "internalType": "address",
          "name": "",
          "type": "address"
        }
      ],
      "stateMutability": "view",
      "type": "function"
    },
    {
      "inputs": [
        {
          "internalType": "uint256",
          "name": "",
          "type": "uint256"
        }
      ],
      "name": "hornsForSale",
      "outputs": [
        {
          "internalType": "uint256",
          "name": "",
          "type": "uint256"
        }
      ],
      "stateMutability": "view",
      "type": "function"
    },
    {
      "inputs": [
        {
          "internalType": "address",
          "name": "owner",
          "type": "address"
        },
        {
          "internalType": "address",
          "name": "operator",
          "type": "address"
        }
      ],
      "name": "isApprovedForAll",
      "outputs": [
        {
          "internalType": "bool",
          "name": "",
          "type": "bool"
        }
      ],
      "stateMutability": "view",
      "type": "function"
    },
    {
      "inputs": [],
      "name": "name",
      "outputs": [
        {
          "internalType": "string",
          "name": "",
          "type": "string"
        }
      ],
      "stateMutability": "view",
      "type": "function"
    },
    {
      "inputs": [],
      "name": "owner",
      "outputs": [
        {
          "internalType": "address",
          "name": "",
          "type": "address"
        }
      ],
      "stateMutability": "view",
      "type": "function"
    },
    {
      "inputs": [
        {
          "internalType": "uint256",
          "name": "tokenId",
          "type": "uint256"
        }
      ],
      "name": "ownerOf",
      "outputs": [
        {
          "internalType": "address",
          "name": "",
          "type": "address"
        }
      ],
      "stateMutability": "view",
      "type": "function"
    },
    {
      "inputs": [],
      "name": "renounceOwnership",
      "outputs": [],
      "stateMutability": "nonpayable",
      "type": "function"
    },
    {
      "inputs": [
        {
          "internalType": "address",
          "name": "from",
          "type": "address"
        },
        {
          "internalType": "address",
          "name": "to",
          "type": "address"
        },
        {
          "internalType": "uint256",
          "name": "tokenId",
          "type": "uint256"
        }
      ],
      "name": "safeTransferFrom",
      "outputs": [],
      "stateMutability": "nonpayable",
      "type": "function"
    },
    {
      "inputs": [
        {
          "internalType": "address",
          "name": "from",
          "type": "address"
        },
        {
          "internalType": "address",
          "name": "to",
          "type": "address"
        },
        {
          "internalType": "uint256",
          "name": "tokenId",
          "type": "uint256"
        },
        {
          "internalType": "bytes",
          "name": "_data",
          "type": "bytes"
        }
      ],
      "name": "safeTransferFrom",
      "outputs": [],
      "stateMutability": "nonpayable",
      "type": "function"
    },
    {
      "inputs": [
        {
          "internalType": "address",
          "name": "operator",
          "type": "address"
        },
        {
          "internalType": "bool",
          "name": "approved",
          "type": "bool"
        }
      ],
      "name": "setApprovalForAll",
      "outputs": [],
      "stateMutability": "nonpayable",
      "type": "function"
    },
    {
      "inputs": [
        {
          "internalType": "bytes4",
          "name": "interfaceId",
          "type": "bytes4"
        }
      ],
      "name": "supportsInterface",
      "outputs": [
        {
          "internalType": "bool",
          "name": "",
          "type": "bool"
        }
      ],
      "stateMutability": "view",
      "type": "function"
    },
    {
      "inputs": [],
      "name": "symbol",
      "outputs": [
        {
          "internalType": "string",
          "name": "",
          "type": "string"
        }
      ],
      "stateMutability": "view",
      "type": "function"
    },
    {
      "inputs": [
        {
          "internalType": "uint256",
          "name": "index",
          "type": "uint256"
        }
      ],
      "name": "tokenByIndex",
      "outputs": [
        {
          "internalType": "uint256",
          "name": "",
          "type": "uint256"
        }
      ],
      "stateMutability": "view",
      "type": "function"
    },
    {
      "inputs": [
        {
          "internalType": "address",
          "name": "owner",
          "type": "address"
        },
        {
          "internalType": "uint256",
          "name": "index",
          "type": "uint256"
        }
      ],
      "name": "tokenOfOwnerByIndex",
      "outputs": [
        {
          "internalType": "uint256",
          "name": "",
          "type": "uint256"
        }
      ],
      "stateMutability": "view",
      "type": "function"
    },
    {
      "inputs": [
        {
          "internalType": "uint256",
          "name": "tokenId",
          "type": "uint256"
        }
      ],
      "name": "tokenURI",
      "outputs": [
        {
          "internalType": "string",
          "name": "",
          "type": "string"
        }
      ],
      "stateMutability": "view",
      "type": "function"
    },
    {
      "inputs": [],
      "name": "totalSupply",
      "outputs": [
        {
          "internalType": "uint256",
          "name": "",
          "type": "uint256"
        }
      ],
      "stateMutability": "view",
      "type": "function"
    },
    {
      "inputs": [
        {
          "internalType": "address",
          "name": "from",
          "type": "address"
        },
        {
          "internalType": "address",
          "name": "to",
          "type": "address"
        },
        {
          "internalType": "uint256",
          "name": "tokenId",
          "type": "uint256"
        }
      ],
      "name": "transferFrom",
      "outputs": [],
      "stateMutability": "nonpayable",
      "type": "function"
    },
    {
      "inputs": [
        {
          "internalType": "address",
          "name": "newOwner",
          "type": "address"
        }
      ],
      "name": "transferOwnership",
      "outputs": [],
      "stateMutability": "nonpayable",
      "type": "function"
    },
    {
      "inputs": [
        {
          "internalType": "string",
          "name": "_make",
          "type": "string"
        },
        {
          "internalType": "string",
          "name": "_model",
          "type": "string"
        },
        {
          "internalType": "string",
          "name": "_style",
          "type": "string"
        },
        {
          "internalType": "uint32",
          "name": "_serialNumber",
          "type": "uint32"
        },
        {
          "internalType": "uint32",
          "name": "_desiredPrice",
          "type": "uint32"
        }
      ],
      "name": "mintThenListNewHornNFT",
      "outputs": [
        {
          "internalType": "uint256",
          "name": "",
          "type": "uint256"
        }
      ],
      "stateMutability": "nonpayable",
      "type": "function"
    },
    {
      "inputs": [
        {
          "internalType": "string",
          "name": "_make",
          "type": "string"
        },
        {
          "internalType": "string",
          "name": "_model",
          "type": "string"
        },
        {
          "internalType": "string",
          "name": "_style",
          "type": "string"
        },
        {
          "internalType": "uint32",
          "name": "_serialNumber",
          "type": "uint32"
        }
      ],
      "name": "mintButDontListNewHornNFT",
      "outputs": [
        {
          "internalType": "uint256",
          "name": "",
          "type": "uint256"
        }
      ],
      "stateMutability": "nonpayable",
      "type": "function"
    },
    {
      "inputs": [
        {
          "internalType": "uint256",
          "name": "__hornId",
          "type": "uint256"
        },
        {
          "internalType": "uint32",
          "name": "_desiredPrice",
          "type": "uint32"
        }
      ],
      "name": "listExistingHornNFT",
      "outputs": [
        {
          "internalType": "uint256",
          "name": "",
          "type": "uint256"
        }
      ],
      "stateMutability": "nonpayable",
      "type": "function"
    },
    {
      "inputs": [
        {
          "internalType": "uint256",
          "name": "__hornId",
          "type": "uint256"
        },
        {
          "internalType": "string",
          "name": "_shipTo",
          "type": "string"
        }
      ],
      "name": "purchaseHornByHornId",
      "outputs": [],
      "stateMutability": "payable",
      "type": "function"
    },
    {
      "inputs": [
        {
          "internalType": "uint256",
          "name": "__hornId",
          "type": "uint256"
        },
        {
          "internalType": "string",
          "name": "shippedTo",
          "type": "string"
        }
      ],
      "name": "markHornShipped",
      "outputs": [],
      "stateMutability": "nonpayable",
      "type": "function"
    },
    {
      "inputs": [
        {
          "internalType": "uint256",
          "name": "__hornId",
          "type": "uint256"
        }
      ],
      "name": "markHornDeliveredAndOwnershipTransferred",
      "outputs": [
        {
          "internalType": "uint256",
          "name": "",
          "type": "uint256"
        }
      ],
      "stateMutability": "nonpayable",
      "type": "function"
    },
    {
      "inputs": [
        {
          "internalType": "uint256",
          "name": "__hornId",
          "type": "uint256"
        }
      ],
      "name": "sellerInitiateRefundOrSetStatusToOwnedNotForSale",
      "outputs": [
        {
          "internalType": "enum HornMarketplace.HornStatus",
          "name": "",
          "type": "uint8"
        }
      ],
      "stateMutability": "nonpayable",
      "type": "function"
    },
    {
      "inputs": [],
      "name": "getCurrentHornsForSale",
      "outputs": [
        {
          "internalType": "uint256[]",
          "name": "",
          "type": "uint256[]"
        }
      ],
      "stateMutability": "view",
      "type": "function"
    },
    {
      "inputs": [
        {
          "internalType": "uint256",
          "name": "__hornId",
          "type": "uint256"
        }
      ],
      "name": "getListPriceByHornId",
      "outputs": [
        {
          "internalType": "uint32",
          "name": "",
          "type": "uint32"
        }
      ],
      "stateMutability": "view",
      "type": "function"
    },
    {
      "inputs": [
        {
          "internalType": "uint256",
          "name": "__hornId",
          "type": "uint256"
        }
      ],
      "name": "getCurrentOwnerByMapping",
      "outputs": [
        {
          "internalType": "address payable",
          "name": "",
          "type": "address"
        }
      ],
      "stateMutability": "view",
      "type": "function"
    },
    {
      "inputs": [
        {
          "internalType": "uint256",
          "name": "__hornId",
          "type": "uint256"
        }
      ],
      "name": "getCurrentOwnerByStructAttribute",
      "outputs": [
        {
          "internalType": "address payable",
          "name": "",
          "type": "address"
        }
      ],
      "stateMutability": "view",
      "type": "function"
    },
    {
      "inputs": [
        {
          "internalType": "uint256",
          "name": "__hornId",
          "type": "uint256"
        }
      ],
      "name": "getStatusOfHornByHornId",
      "outputs": [
        {
          "internalType": "enum HornMarketplace.HornStatus",
          "name": "",
          "type": "uint8"
        }
      ],
      "stateMutability": "view",
      "type": "function"
    },
    {
      "inputs": [
        {
          "internalType": "address",
          "name": "payee",
          "type": "address"
        }
      ],
      "name": "getEscrowDepositValue",
      "outputs": [
        {
          "internalType": "uint256",
          "name": "",
          "type": "uint256"
        }
      ],
      "stateMutability": "view",
      "type": "function"
    }
  ],
  "bytecode": "0x60806040523480156200001157600080fd5b506040518060400160405280600481526020017f486f726e000000000000000000000000000000000000000000000000000000008152506040518060400160405280600481526020017f484f524e000000000000000000000000000000000000000000000000000000008152506200009e620000926200014460201b60201c565b6200014c60201b60201c565b8160019080519060200190620000b692919062000210565b508060029080519060200190620000cf92919062000210565b505050604051620000e090620002a1565b604051809103906000f080158015620000fd573d6000803e3d6000fd5b50600c60006101000a81548173ffffffffffffffffffffffffffffffffffffffff021916908373ffffffffffffffffffffffffffffffffffffffff16021790555062000333565b600033905090565b60008060009054906101000a900473ffffffffffffffffffffffffffffffffffffffff169050816000806101000a81548173ffffffffffffffffffffffffffffffffffffffff021916908373ffffffffffffffffffffffffffffffffffffffff1602179055508173ffffffffffffffffffffffffffffffffffffffff168173ffffffffffffffffffffffffffffffffffffffff167f8be0079c531659141344cd1fd0a4f28419497f9722a3daafe3b4186f6b6457e060405160405180910390a35050565b8280546200021e90620002ce565b90600052602060002090601f0160209004810192826200024257600085556200028e565b82601f106200025d57805160ff19168380011785556200028e565b828001600101855582156200028e579182015b828111156200028d57825182559160200191906001019062000270565b5b5090506200029d9190620002af565b5090565b610ccd8062006bfd83390190565b5b80821115620002ca576000816000905550600101620002b0565b5090565b60006002820490506001821680620002e757607f821691505b60208210811415620002fe57620002fd62000304565b5b50919050565b7f4e487b7100000000000000000000000000000000000000000000000000000000600052602260045260246000fd5b6168ba80620003436000396000f3fe6080604052600436106101fd5760003560e01c806370a082311161010d578063b7d002f4116100a0578063c90e32e01161006f578063c90e32e01461080b578063cf44981a14610848578063e985e9c514610871578063f2fde38b146108ae578063fd92de01146108d7576101fe565b8063b7d002f41461072b578063b88d4fde14610768578063c0227bbb14610791578063c87b56dd146107ce576101fe565b80638da5cb5b116100dc5780638da5cb5b1461068157806395d89b41146106ac57806398960435146106d7578063a22cb46514610702576101fe565b806370a08231146105b3578063715018a6146105f05780638007eb4814610607578063817e7bfd14610644576101fe565b806323b872dd116101905780633a7707451161015f5780633a770745146104b757806342842e0e146104d357806349870e53146104fc5780634f6ccce7146105395780636352211e14610576576101fe565b806323b872dd146103e95780632c83e3f4146104125780632f745c591461044f57806330333e971461048c576101fe565b806311723dc2116101cc57806311723dc21461030757806318160ddd1461034457806319df66f41461036f5780631c5e1d5e146103ac576101fe565b806301ffc9a71461023957806306fdde0314610276578063081812fc146102a1578063095ea7b3146102de576101fe565b5b6040517f08c379a000000000000000000000000000000000000000000000000000000000815260040161023090616300565b60405180910390fd5b34801561024557600080fd5b50610260600480360381019061025b9190614998565b610914565b60405161026d9190615e68565b60405180910390f35b34801561028257600080fd5b5061028b61098e565b6040516102989190615e9e565b60405180910390f35b3480156102ad57600080fd5b506102c860048036038101906102c39190614b6f565b610a20565b6040516102d59190615da9565b60405180910390f35b3480156102ea57600080fd5b506103056004803603810190610300919061495c565b610aa5565b005b34801561031357600080fd5b5061032e60048036038101906103299190614b6f565b610bbd565b60405161033b9190615ddf565b60405180910390f35b34801561035057600080fd5b50610359610bfd565b6040516103669190616320565b60405180910390f35b34801561037b57600080fd5b50610396600480360381019061039191906147f1565b610c0a565b6040516103a39190616320565b60405180910390f35b3480156103b857600080fd5b506103d360048036038101906103ce9190614b6f565b610cc3565b6040516103e09190615ddf565b60405180910390f35b3480156103f557600080fd5b50610410600480360381019061040b9190614856565b610d00565b005b34801561041e57600080fd5b5061043960048036038101906104349190614aa3565b610d60565b6040516104469190616320565b60405180910390f35b34801561045b57600080fd5b506104766004803603810190610471919061495c565b611165565b6040516104839190616320565b60405180910390f35b34801561049857600080fd5b506104a161120a565b6040516104ae9190616320565b60405180910390f35b6104d160048036038101906104cc9190614bc1565b611216565b005b3480156104df57600080fd5b506104fa60048036038101906104f59190614856565b6116ef565b005b34801561050857600080fd5b50610523600480360381019061051e9190614b6f565b61170f565b6040516105309190615e83565b60405180910390f35b34801561054557600080fd5b50610560600480360381019061055b9190614b6f565b61173c565b60405161056d9190616320565b60405180910390f35b34801561058257600080fd5b5061059d60048036038101906105989190614b6f565b6117d3565b6040516105aa9190615da9565b60405180910390f35b3480156105bf57600080fd5b506105da60048036038101906105d591906147f1565b611885565b6040516105e79190616320565b60405180910390f35b3480156105fc57600080fd5b5061060561193d565b005b34801561061357600080fd5b5061062e60048036038101906106299190614b6f565b6119c5565b60405161063b9190615e83565b60405180910390f35b34801561065057600080fd5b5061066b600480360381019061066691906149ea565b611d5a565b6040516106789190616320565b60405180910390f35b34801561068d57600080fd5b5061069661216b565b6040516106a39190615da9565b60405180910390f35b3480156106b857600080fd5b506106c1612194565b6040516106ce9190615e9e565b60405180910390f35b3480156106e357600080fd5b506106ec612226565b6040516106f99190615e46565b60405180910390f35b34801561070e57600080fd5b5061072960048036038101906107249190614920565b61227e565b005b34801561073757600080fd5b50610752600480360381019061074d9190614b6f565b6123ff565b60405161075f9190616320565b60405180910390f35b34801561077457600080fd5b5061078f600480360381019061078a91906148a5565b612a23565b005b34801561079d57600080fd5b506107b860048036038101906107b39190614b6f565b612a85565b6040516107c59190616320565b60405180910390f35b3480156107da57600080fd5b506107f560048036038101906107f09190614b6f565b612aa9565b6040516108029190615e9e565b60405180910390f35b34801561081757600080fd5b50610832600480360381019061082d9190614c19565b612b50565b60405161083f9190616320565b60405180910390f35b34801561085457600080fd5b5061086f600480360381019061086a9190614bc1565b612e9e565b005b34801561087d57600080fd5b506108986004803603810190610893919061481a565b613303565b6040516108a59190615e68565b60405180910390f35b3480156108ba57600080fd5b506108d560048036038101906108d091906147f1565b613397565b005b3480156108e357600080fd5b506108fe60048036038101906108f99190614b6f565b61348f565b60405161090b919061633b565b60405180910390f35b60007f780e9d63000000000000000000000000000000000000000000000000000000007bffffffffffffffffffffffffffffffffffffffffffffffffffffffff1916827bffffffffffffffffffffffffffffffffffffffffffffffffffffffff191614806109875750610986826134bf565b5b9050919050565b60606001805461099d90616636565b80601f01602080910402602001604051908101604052809291908181526020018280546109c990616636565b8015610a165780601f106109eb57610100808354040283529160200191610a16565b820191906000526020600020905b8154815290600101906020018083116109f957829003601f168201915b5050505050905090565b6000610a2b826135a1565b610a6a576040517f08c379a0000000000000000000000000000000000000000000000000000000008152600401610a6190616120565b60405180910390fd5b6005600083815260200190815260200160002060009054906101000a900473ffffffffffffffffffffffffffffffffffffffff169050919050565b6000610ab0826117d3565b90508073ffffffffffffffffffffffffffffffffffffffff168373ffffffffffffffffffffffffffffffffffffffff161415610b21576040517f08c379a0000000000000000000000000000000000000000000000000000000008152600401610b1890616200565b60405180910390fd5b8073ffffffffffffffffffffffffffffffffffffffff16610b4061360d565b73ffffffffffffffffffffffffffffffffffffffff161480610b6f5750610b6e81610b6961360d565b613303565b5b610bae576040517f08c379a0000000000000000000000000000000000000000000000000000000008152600401610ba590616000565b60405180910390fd5b610bb88383613615565b505050565b6000600e600083815260200190815260200160002060030160099054906101000a900473ffffffffffffffffffffffffffffffffffffffff169050919050565b6000600980549050905090565b600080600c60009054906101000a900473ffffffffffffffffffffffffffffffffffffffff1673ffffffffffffffffffffffffffffffffffffffff1663e3a9db1a846040518263ffffffff1660e01b8152600401610c689190615da9565b60206040518083038186803b158015610c8057600080fd5b505afa158015610c94573d6000803e3d6000fd5b505050506040513d601f19601f82011682018060405250810190610cb89190614b98565b905080915050919050565b60006010600083815260200190815260200160002060009054906101000a900473ffffffffffffffffffffffffffffffffffffffff169050919050565b610d11610d0b61360d565b826136ce565b610d50576040517f08c379a0000000000000000000000000000000000000000000000000000000008152600401610d4790616260565b60405180910390fd5b610d5b8383836137ac565b505050565b6000808263ffffffff1611610daa576040517f08c379a0000000000000000000000000000000000000000000000000000000008152600401610da190615fc0565b60405180910390fd5b610db4600b613a08565b6000610dc0600b613a1e565b9050610dcc3382613a2c565b6040518060e001604052808b8b8080601f016020809104026020016040519081016040528093929190818152602001838380828437600081840152601f19601f82011690508083019250505050505050815260200189898080601f016020809104026020016040519081016040528093929190818152602001838380828437600081840152601f19601f82011690508083019250505050505050815260200187878080601f016020809104026020016040519081016040528093929190818152602001838380828437600081840152601f19601f8201169050808301925050505050505081526020018563ffffffff1681526020018463ffffffff16815260200160006003811115610f07577f4e487b7100000000000000000000000000000000000000000000000000000000600052602160045260246000fd5b81526020013373ffffffffffffffffffffffffffffffffffffffff16815250600e60008381526020019081526020016000206000820151816000019080519060200190610f55929190614583565b506020820151816001019080519060200190610f72929190614583565b506040820151816002019080519060200190610f8f929190614583565b5060608201518160030160006101000a81548163ffffffff021916908363ffffffff16021790555060808201518160030160046101000a81548163ffffffff021916908363ffffffff16021790555060a08201518160030160086101000a81548160ff0219169083600381111561102f577f4e487b7100000000000000000000000000000000000000000000000000000000600052602160045260246000fd5b021790555060c08201518160030160096101000a81548173ffffffffffffffffffffffffffffffffffffffff021916908373ffffffffffffffffffffffffffffffffffffffff160217905550905050336010600083815260200190815260200160002060006101000a81548173ffffffffffffffffffffffffffffffffffffffff021916908373ffffffffffffffffffffffffffffffffffffffff160217905550600d8190806001815401808255809150506001900390600052602060002001600090919091909150558989604051611109929190615d2b565b60405180910390203373ffffffffffffffffffffffffffffffffffffffff16827f762f1a2f7e87bdc2ebbbeb92df2d742317f8e1353aafc0c70b060981e72271f460405160405180910390a48091505098975050505050505050565b600061117083611885565b82106111b1576040517f08c379a00000000000000000000000000000000000000000000000000000000081526004016111a890615ee0565b60405180910390fd5b600760008473ffffffffffffffffffffffffffffffffffffffff1673ffffffffffffffffffffffffffffffffffffffff168152602001908152602001600020600083815260200190815260200160002054905092915050565b600b8060000154905081565b826000600e600083815260200190815260200160002060030160049054906101000a900463ffffffff1663ffffffff1611611286576040517f08c379a000000000000000000000000000000000000000000000000000000000815260040161127d90616180565b60405180910390fd5b6000600e600083815260200190815260200160002060030160089054906101000a900460ff1660038111156112e4577f4e487b7100000000000000000000000000000000000000000000000000000000600052602160045260246000fd5b14611324576040517f08c379a000000000000000000000000000000000000000000000000000000000815260040161131b906160c0565b60405180910390fd5b83600e600082815260200190815260200160002060030160049054906101000a900463ffffffff1663ffffffff163414611393576040517f08c379a000000000000000000000000000000000000000000000000000000000815260040161138a90615ec0565b60405180910390fd5b600c60009054906101000a900473ffffffffffffffffffffffffffffffffffffffff1673ffffffffffffffffffffffffffffffffffffffff1663f340fa016010600088815260200190815260200160002060009054906101000a900473ffffffffffffffffffffffffffffffffffffffff166040518263ffffffff1660e01b81526004016114219190615da9565b600060405180830381600087803b15801561143b57600080fd5b505af115801561144f573d6000803e3d6000fd5b505050508383601260003373ffffffffffffffffffffffffffffffffffffffff1673ffffffffffffffffffffffffffffffffffffffff16815260200190815260200160002091906114a1929190614609565b50336011600087815260200190815260200160002060006101000a81548173ffffffffffffffffffffffffffffffffffffffff021916908373ffffffffffffffffffffffffffffffffffffffff1602179055506001600e600087815260200190815260200160002060030160086101000a81548160ff02191690836003811115611554577f4e487b7100000000000000000000000000000000000000000000000000000000600052602160045260246000fd5b021790555060005b600d805490508110156116115785600d82815481106115a4577f4e487b7100000000000000000000000000000000000000000000000000000000600052603260045260246000fd5b906000526020600020015414156115fe57600d81815481106115ef577f4e487b7100000000000000000000000000000000000000000000000000000000600052603260045260246000fd5b90600052602060002001600090555b808061160990616668565b91505061155c565b503373ffffffffffffffffffffffffffffffffffffffff168484604051611639929190615d2b565b6040518091039020867fdbca9a11cad69a5ab275fd9838feb30068a34f31d0f876d995c14a8dd906f70960405160405180910390a434600e600087815260200190815260200160002060030160099054906101000a900473ffffffffffffffffffffffffffffffffffffffff1673ffffffffffffffffffffffffffffffffffffffff167fe6138e0eb7be5ea87d2296f3ad7469a8364406bface7d4e5de0a21dce1841cdd60405160405180910390a35050505050565b61170a83838360405180602001604052806000815250612a23565b505050565b6000600e600083815260200190815260200160002060030160089054906101000a900460ff169050919050565b6000611746610bfd565b8210611787576040517f08c379a000000000000000000000000000000000000000000000000000000000815260040161177e90616280565b60405180910390fd5b600982815481106117c1577f4e487b7100000000000000000000000000000000000000000000000000000000600052603260045260246000fd5b90600052602060002001549050919050565b6000806003600084815260200190815260200160002060009054906101000a900473ffffffffffffffffffffffffffffffffffffffff169050600073ffffffffffffffffffffffffffffffffffffffff168173ffffffffffffffffffffffffffffffffffffffff16141561187c576040517f08c379a000000000000000000000000000000000000000000000000000000000815260040161187390616060565b60405180910390fd5b80915050919050565b60008073ffffffffffffffffffffffffffffffffffffffff168273ffffffffffffffffffffffffffffffffffffffff1614156118f6576040517f08c379a00000000000000000000000000000000000000000000000000000000081526004016118ed90616040565b60405180910390fd5b600460008373ffffffffffffffffffffffffffffffffffffffff1673ffffffffffffffffffffffffffffffffffffffff168152602001908152602001600020549050919050565b61194561360d565b73ffffffffffffffffffffffffffffffffffffffff1661196361216b565b73ffffffffffffffffffffffffffffffffffffffff16146119b9576040517f08c379a00000000000000000000000000000000000000000000000000000000081526004016119b090616160565b60405180910390fd5b6119c36000613bfa565b565b6000806003811115611a00577f4e487b7100000000000000000000000000000000000000000000000000000000600052602160045260246000fd5b600e600084815260200190815260200160002060030160089054906101000a900460ff166003811115611a5c577f4e487b7100000000000000000000000000000000000000000000000000000000600052602160045260246000fd5b1415611acc576003600e600084815260200190815260200160002060030160086101000a81548160ff02191690836003811115611ac2577f4e487b7100000000000000000000000000000000000000000000000000000000600052602160045260246000fd5b0217905550611d51565b60016003811115611b06577f4e487b7100000000000000000000000000000000000000000000000000000000600052602160045260246000fd5b600e600084815260200190815260200160002060030160089054906101000a900460ff166003811115611b62577f4e487b7100000000000000000000000000000000000000000000000000000000600052602160045260246000fd5b1415611ba3576040517f08c379a0000000000000000000000000000000000000000000000000000000008152600401611b9a906162e0565b60405180910390fd5b60026003811115611bdd577f4e487b7100000000000000000000000000000000000000000000000000000000600052602160045260246000fd5b600e600084815260200190815260200160002060030160089054906101000a900460ff166003811115611c39577f4e487b7100000000000000000000000000000000000000000000000000000000600052602160045260246000fd5b1415611c7a576040517f08c379a0000000000000000000000000000000000000000000000000000000008152600401611c7190616220565b60405180910390fd5b600380811115611cb3577f4e487b7100000000000000000000000000000000000000000000000000000000600052602160045260246000fd5b600e600084815260200190815260200160002060030160089054906101000a900460ff166003811115611d0f577f4e487b7100000000000000000000000000000000000000000000000000000000600052602160045260246000fd5b1415611d50576040517f08c379a0000000000000000000000000000000000000000000000000000000008152600401611d4790615fa0565b60405180910390fd5b5b60039050919050565b60008787836000838383604051602001611d7693929190615d44565b60405160208183030381529060405280519060200120905060005b611d9b600b613a1e565b811015611dd55781600f6000838152602001908152602001600020541415611dc257600080fd5b8080611dcd90616668565b915050611d91565b50611de0600b613a08565b6000611dec600b613a1e565b9050611df83382613a2c565b6040518060e001604052808e8e8080601f016020809104026020016040519081016040528093929190818152602001838380828437600081840152601f19601f8201169050808301925050505050505081526020018c8c8080601f016020809104026020016040519081016040528093929190818152602001838380828437600081840152601f19601f8201169050808301925050505050505081526020018a8a8080601f016020809104026020016040519081016040528093929190818152602001838380828437600081840152601f19601f8201169050808301925050505050505081526020018863ffffffff168152602001600063ffffffff168152602001600380811115611f33577f4e487b7100000000000000000000000000000000000000000000000000000000600052602160045260246000fd5b81526020013373ffffffffffffffffffffffffffffffffffffffff16815250600e60008381526020019081526020016000206000820151816000019080519060200190611f81929190614583565b506020820151816001019080519060200190611f9e929190614583565b506040820151816002019080519060200190611fbb929190614583565b5060608201518160030160006101000a81548163ffffffff021916908363ffffffff16021790555060808201518160030160046101000a81548163ffffffff021916908363ffffffff16021790555060a08201518160030160086101000a81548160ff0219169083600381111561205b577f4e487b7100000000000000000000000000000000000000000000000000000000600052602160045260246000fd5b021790555060c08201518160030160096101000a81548173ffffffffffffffffffffffffffffffffffffffff021916908373ffffffffffffffffffffffffffffffffffffffff160217905550905050336010600083815260200190815260200160002060006101000a81548173ffffffffffffffffffffffffffffffffffffffff021916908373ffffffffffffffffffffffffffffffffffffffff1602179055508c8c60405161210c929190615d2b565b60405180910390203373ffffffffffffffffffffffffffffffffffffffff16827f4d80549dfe39c90078d620fcd854e5cbf03ace471593a7df725d1191056f30a160405160405180910390a48095505050505050979650505050505050565b60008060009054906101000a900473ffffffffffffffffffffffffffffffffffffffff16905090565b6060600280546121a390616636565b80601f01602080910402602001604051908101604052809291908181526020018280546121cf90616636565b801561221c5780601f106121f15761010080835404028352916020019161221c565b820191906000526020600020905b8154815290600101906020018083116121ff57829003601f168201915b5050505050905090565b6060600d80548060200260200160405190810160405280929190818152602001828054801561227457602002820191906000526020600020905b815481526020019060010190808311612260575b5050505050905090565b61228661360d565b73ffffffffffffffffffffffffffffffffffffffff168273ffffffffffffffffffffffffffffffffffffffff1614156122f4576040517f08c379a00000000000000000000000000000000000000000000000000000000081526004016122eb90615f80565b60405180910390fd5b806006600061230161360d565b73ffffffffffffffffffffffffffffffffffffffff1673ffffffffffffffffffffffffffffffffffffffff16815260200190815260200160002060008473ffffffffffffffffffffffffffffffffffffffff1673ffffffffffffffffffffffffffffffffffffffff16815260200190815260200160002060006101000a81548160ff0219169083151502179055508173ffffffffffffffffffffffffffffffffffffffff166123ae61360d565b73ffffffffffffffffffffffffffffffffffffffff167f17307eab39ab6107e8899845ad3d59bd9653f200f220920489ca2b5937696c31836040516123f39190615e68565b60405180910390a35050565b6000813373ffffffffffffffffffffffffffffffffffffffff166011600083815260200190815260200160002060009054906101000a900473ffffffffffffffffffffffffffffffffffffffff1673ffffffffffffffffffffffffffffffffffffffff16146124a3576040517f08c379a000000000000000000000000000000000000000000000000000000000815260040161249a906160a0565b60405180910390fd5b826124ae30826136ce565b6124ed576040517f08c379a00000000000000000000000000000000000000000000000000000000081526004016124e490616020565b60405180910390fd5b6002600e600083815260200190815260200160002060030160089054906101000a900460ff16600381111561254b577f4e487b7100000000000000000000000000000000000000000000000000000000600052602160045260246000fd5b1461258b576040517f08c379a0000000000000000000000000000000000000000000000000000000008152600401612582906162a0565b60405180910390fd5b6000600c60009054906101000a900473ffffffffffffffffffffffffffffffffffffffff1673ffffffffffffffffffffffffffffffffffffffff1663e3a9db1a600e600088815260200190815260200160002060030160099054906101000a900473ffffffffffffffffffffffffffffffffffffffff166040518263ffffffff1660e01b815260040161261e9190615dc4565b60206040518083038186803b15801561263657600080fd5b505afa15801561264a573d6000803e3d6000fd5b505050506040513d601f19601f8201168201806040525081019061266e9190614b98565b9050600c60009054906101000a900473ffffffffffffffffffffffffffffffffffffffff1673ffffffffffffffffffffffffffffffffffffffff166351cff8d9600e600088815260200190815260200160002060030160099054906101000a900473ffffffffffffffffffffffffffffffffffffffff166040518263ffffffff1660e01b81526004016127019190615ddf565b600060405180830381600087803b15801561271b57600080fd5b505af115801561272f573d6000803e3d6000fd5b5050505060006011600087815260200190815260200160002060006101000a81548173ffffffffffffffffffffffffffffffffffffffff021916908373ffffffffffffffffffffffffffffffffffffffff16021790555060405180602001604052806000815250601260003373ffffffffffffffffffffffffffffffffffffffff1673ffffffffffffffffffffffffffffffffffffffff16815260200190815260200160002090805190602001906127e8929190614583565b506003600e600087815260200190815260200160002060030160086101000a81548160ff02191690836003811115612849577f4e487b7100000000000000000000000000000000000000000000000000000000600052602160045260246000fd5b021790555033600e600087815260200190815260200160002060030160096101000a81548173ffffffffffffffffffffffffffffffffffffffff021916908373ffffffffffffffffffffffffffffffffffffffff16021790555060006010600087815260200190815260200160002060009054906101000a900473ffffffffffffffffffffffffffffffffffffffff1690503373ffffffffffffffffffffffffffffffffffffffff166010600088815260200190815260200160002060009054906101000a9050505061291d8133886116ef565b3373ffffffffffffffffffffffffffffffffffffffff168173ffffffffffffffffffffffffffffffffffffffff16877f86ff2a738e00d7cf2613e4bd44ae641e080a2877f978be45ac950525d26d04c560405160405180910390a43373ffffffffffffffffffffffffffffffffffffffff168173ffffffffffffffffffffffffffffffffffffffff16877ffc99b02f822d46feedca53aafaa97c596bf87bb34925d350b64a13275388de4a60405160405180910390a4818173ffffffffffffffffffffffffffffffffffffffff167f033e0f8c9aa8fcdd1b01ad637814ecdb49b6ddc7445f13555d21b3c2959b5d1f60405160405180910390a381945050505050919050565b612a34612a2e61360d565b836136ce565b612a73576040517f08c379a0000000000000000000000000000000000000000000000000000000008152600401612a6a90616260565b60405180910390fd5b612a7f84848484613cbe565b50505050565b600d8181548110612a9557600080fd5b906000526020600020016000915090505481565b6060612ab4826135a1565b612af3576040517f08c379a0000000000000000000000000000000000000000000000000000000008152600401612aea906161c0565b60405180910390fd5b6000612afd613d1a565b90506000815111612b1d5760405180602001604052806000815250612b48565b80612b2784613d31565b604051602001612b38929190615d6e565b6040516020818303038152906040525b915050919050565b6000823373ffffffffffffffffffffffffffffffffffffffff166010600083815260200190815260200160002060009054906101000a900473ffffffffffffffffffffffffffffffffffffffff1673ffffffffffffffffffffffffffffffffffffffff1614612bf4576040517f08c379a0000000000000000000000000000000000000000000000000000000008152600401612beb90616100565b60405180910390fd5b612bfd846135a1565b612c3c576040517f08c379a0000000000000000000000000000000000000000000000000000000008152600401612c3390616240565b60405180910390fd5b60008363ffffffff1611612c85576040517f08c379a0000000000000000000000000000000000000000000000000000000008152600401612c7c90615fc0565b60405180910390fd5b60006003811115612cbf577f4e487b7100000000000000000000000000000000000000000000000000000000600052602160045260246000fd5b600e600086815260200190815260200160002060030160089054906101000a900460ff166003811115612d1b577f4e487b7100000000000000000000000000000000000000000000000000000000600052602160045260246000fd5b1415612d5c576040517f08c379a0000000000000000000000000000000000000000000000000000000008152600401612d53906162c0565b60405180910390fd5b6000849050600d81908060018154018082558091505060019003906000526020600020016000909190919091505583600e600083815260200190815260200160002060030160046101000a81548163ffffffff021916908363ffffffff1602179055506000600e600083815260200190815260200160002060030160086101000a81548160ff02191690836003811115612e1f577f4e487b7100000000000000000000000000000000000000000000000000000000600052602160045260246000fd5b0217905550600e6000828152602001908152602001600020600001604051612e479190615d92565b60405180910390203373ffffffffffffffffffffffffffffffffffffffff16827f762f1a2f7e87bdc2ebbbeb92df2d742317f8e1353aafc0c70b060981e72271f460405160405180910390a4809250505092915050565b823373ffffffffffffffffffffffffffffffffffffffff166010600083815260200190815260200160002060009054906101000a900473ffffffffffffffffffffffffffffffffffffffff1673ffffffffffffffffffffffffffffffffffffffff1614612f40576040517f08c379a0000000000000000000000000000000000000000000000000000000008152600401612f3790616100565b60405180910390fd5b83600e600082815260200190815260200160002060030160049054906101000a900463ffffffff1663ffffffff16600c60009054906101000a900473ffffffffffffffffffffffffffffffffffffffff1673ffffffffffffffffffffffffffffffffffffffff1663e3a9db1a336040518263ffffffff1660e01b8152600401612fc99190615da9565b60206040518083038186803b158015612fe157600080fd5b505afa158015612ff5573d6000803e3d6000fd5b505050506040513d601f19601f820116820180604052508101906130199190614b98565b14613059576040517f08c379a000000000000000000000000000000000000000000000000000000000815260040161305090616140565b60405180910390fd5b6001600e600083815260200190815260200160002060030160089054906101000a900460ff1660038111156130b7577f4e487b7100000000000000000000000000000000000000000000000000000000600052602160045260246000fd5b146130f7576040517f08c379a00000000000000000000000000000000000000000000000000000000081526004016130ee90616080565b60405180910390fd5b60006011600087815260200190815260200160002060009054906101000a900473ffffffffffffffffffffffffffffffffffffffff169050601260008273ffffffffffffffffffffffffffffffffffffffff1673ffffffffffffffffffffffffffffffffffffffff16815260200190815260200160002060405160200161317e9190615d92565b6040516020818303038152906040528051906020012085856040516020016131a7929190615d2b565b60405160208183030381529060405280519060200120146131fd576040517f08c379a00000000000000000000000000000000000000000000000000000000081526004016131f4906161e0565b60405180910390fd5b6002600e600088815260200190815260200160002060030160086101000a81548160ff0219169083600381111561325d577f4e487b7100000000000000000000000000000000000000000000000000000000600052602160045260246000fd5b021790555061326c3087610aa5565b6011600087815260200190815260200160002060009054906101000a900473ffffffffffffffffffffffffffffffffffffffff1673ffffffffffffffffffffffffffffffffffffffff1685856040516132c6929190615d2b565b6040518091039020877f39fd051deea672a32743d0c813cc2c161b3dacddbff9e2415abc2acbf2e088fb60405160405180910390a4505050505050565b6000600660008473ffffffffffffffffffffffffffffffffffffffff1673ffffffffffffffffffffffffffffffffffffffff16815260200190815260200160002060008373ffffffffffffffffffffffffffffffffffffffff1673ffffffffffffffffffffffffffffffffffffffff16815260200190815260200160002060009054906101000a900460ff16905092915050565b61339f61360d565b73ffffffffffffffffffffffffffffffffffffffff166133bd61216b565b73ffffffffffffffffffffffffffffffffffffffff1614613413576040517f08c379a000000000000000000000000000000000000000000000000000000000815260040161340a90616160565b60405180910390fd5b600073ffffffffffffffffffffffffffffffffffffffff168173ffffffffffffffffffffffffffffffffffffffff161415613483576040517f08c379a000000000000000000000000000000000000000000000000000000000815260040161347a90615f20565b60405180910390fd5b61348c81613bfa565b50565b6000600e600083815260200190815260200160002060030160049054906101000a900463ffffffff169050919050565b60007f80ac58cd000000000000000000000000000000000000000000000000000000007bffffffffffffffffffffffffffffffffffffffffffffffffffffffff1916827bffffffffffffffffffffffffffffffffffffffffffffffffffffffff1916148061358a57507f5b5e139f000000000000000000000000000000000000000000000000000000007bffffffffffffffffffffffffffffffffffffffffffffffffffffffff1916827bffffffffffffffffffffffffffffffffffffffffffffffffffffffff1916145b8061359a575061359982613ede565b5b9050919050565b60008073ffffffffffffffffffffffffffffffffffffffff166003600084815260200190815260200160002060009054906101000a900473ffffffffffffffffffffffffffffffffffffffff1673ffffffffffffffffffffffffffffffffffffffff1614159050919050565b600033905090565b816005600083815260200190815260200160002060006101000a81548173ffffffffffffffffffffffffffffffffffffffff021916908373ffffffffffffffffffffffffffffffffffffffff160217905550808273ffffffffffffffffffffffffffffffffffffffff16613688836117d3565b73ffffffffffffffffffffffffffffffffffffffff167f8c5be1e5ebec7d5bd14f71427d1e84f3dd0314c0f7b2291e5b200ac8c7c3b92560405160405180910390a45050565b60006136d9826135a1565b613718576040517f08c379a000000000000000000000000000000000000000000000000000000000815260040161370f90615fe0565b60405180910390fd5b6000613723836117d3565b90508073ffffffffffffffffffffffffffffffffffffffff168473ffffffffffffffffffffffffffffffffffffffff16148061379257508373ffffffffffffffffffffffffffffffffffffffff1661377a84610a20565b73ffffffffffffffffffffffffffffffffffffffff16145b806137a357506137a28185613303565b5b91505092915050565b8273ffffffffffffffffffffffffffffffffffffffff166137cc826117d3565b73ffffffffffffffffffffffffffffffffffffffff1614613822576040517f08c379a0000000000000000000000000000000000000000000000000000000008152600401613819906161a0565b60405180910390fd5b600073ffffffffffffffffffffffffffffffffffffffff168273ffffffffffffffffffffffffffffffffffffffff161415613892576040517f08c379a000000000000000000000000000000000000000000000000000000000815260040161388990615f60565b60405180910390fd5b61389d838383613f48565b6138a8600082613615565b6001600460008573ffffffffffffffffffffffffffffffffffffffff1673ffffffffffffffffffffffffffffffffffffffff16815260200190815260200160002060008282546138f891906164cf565b925050819055506001600460008473ffffffffffffffffffffffffffffffffffffffff1673ffffffffffffffffffffffffffffffffffffffff168152602001908152602001600020600082825461394f9190616448565b92505081905550816003600083815260200190815260200160002060006101000a81548173ffffffffffffffffffffffffffffffffffffffff021916908373ffffffffffffffffffffffffffffffffffffffff160217905550808273ffffffffffffffffffffffffffffffffffffffff168473ffffffffffffffffffffffffffffffffffffffff167fddf252ad1be2c89b69c2b068fc378daa952ba7f163c4a11628f55a4df523b3ef60405160405180910390a4505050565b6001816000016000828254019250508190555050565b600081600001549050919050565b600073ffffffffffffffffffffffffffffffffffffffff168273ffffffffffffffffffffffffffffffffffffffff161415613a9c576040517f08c379a0000000000000000000000000000000000000000000000000000000008152600401613a93906160e0565b60405180910390fd5b613aa5816135a1565b15613ae5576040517f08c379a0000000000000000000000000000000000000000000000000000000008152600401613adc90615f40565b60405180910390fd5b613af160008383613f48565b6001600460008473ffffffffffffffffffffffffffffffffffffffff1673ffffffffffffffffffffffffffffffffffffffff1681526020019081526020016000206000828254613b419190616448565b92505081905550816003600083815260200190815260200160002060006101000a81548173ffffffffffffffffffffffffffffffffffffffff021916908373ffffffffffffffffffffffffffffffffffffffff160217905550808273ffffffffffffffffffffffffffffffffffffffff16600073ffffffffffffffffffffffffffffffffffffffff167fddf252ad1be2c89b69c2b068fc378daa952ba7f163c4a11628f55a4df523b3ef60405160405180910390a45050565b60008060009054906101000a900473ffffffffffffffffffffffffffffffffffffffff169050816000806101000a81548173ffffffffffffffffffffffffffffffffffffffff021916908373ffffffffffffffffffffffffffffffffffffffff1602179055508173ffffffffffffffffffffffffffffffffffffffff168173ffffffffffffffffffffffffffffffffffffffff167f8be0079c531659141344cd1fd0a4f28419497f9722a3daafe3b4186f6b6457e060405160405180910390a35050565b613cc98484846137ac565b613cd58484848461405c565b613d14576040517f08c379a0000000000000000000000000000000000000000000000000000000008152600401613d0b90615f00565b60405180910390fd5b50505050565b606060405180602001604052806000815250905090565b60606000821415613d79576040518060400160405280600181526020017f30000000000000000000000000000000000000000000000000000000000000008152509050613ed9565b600082905060005b60008214613dab578080613d9490616668565b915050600a82613da4919061649e565b9150613d81565b60008167ffffffffffffffff811115613ded577f4e487b7100000000000000000000000000000000000000000000000000000000600052604160045260246000fd5b6040519080825280601f01601f191660200182016040528015613e1f5781602001600182028036833780820191505090505b5090505b60008514613ed257600182613e3891906164cf565b9150600a85613e4791906166c3565b6030613e539190616448565b60f81b818381518110613e8f577f4e487b7100000000000000000000000000000000000000000000000000000000600052603260045260246000fd5b60200101907effffffffffffffffffffffffffffffffffffffffffffffffffffffffffffff1916908160001a905350600a85613ecb919061649e565b9450613e23565b8093505050505b919050565b60007f01ffc9a7000000000000000000000000000000000000000000000000000000007bffffffffffffffffffffffffffffffffffffffffffffffffffffffff1916827bffffffffffffffffffffffffffffffffffffffffffffffffffffffff1916149050919050565b613f538383836141f3565b600073ffffffffffffffffffffffffffffffffffffffff168373ffffffffffffffffffffffffffffffffffffffff161415613f9657613f91816141f8565b613fd5565b8173ffffffffffffffffffffffffffffffffffffffff168373ffffffffffffffffffffffffffffffffffffffff1614613fd457613fd38382614241565b5b5b600073ffffffffffffffffffffffffffffffffffffffff168273ffffffffffffffffffffffffffffffffffffffff16141561401857614013816143ae565b614057565b8273ffffffffffffffffffffffffffffffffffffffff168273ffffffffffffffffffffffffffffffffffffffff16146140565761405582826144f1565b5b5b505050565b600061407d8473ffffffffffffffffffffffffffffffffffffffff16614570565b156141e6578373ffffffffffffffffffffffffffffffffffffffff1663150b7a026140a661360d565b8786866040518563ffffffff1660e01b81526004016140c89493929190615dfa565b602060405180830381600087803b1580156140e257600080fd5b505af192505050801561411357506040513d601f19601f8201168201806040525081019061411091906149c1565b60015b614196573d8060008114614143576040519150601f19603f3d011682016040523d82523d6000602084013e614148565b606091505b5060008151141561418e576040517f08c379a000000000000000000000000000000000000000000000000000000000815260040161418590615f00565b60405180910390fd5b805181602001fd5b63150b7a0260e01b7bffffffffffffffffffffffffffffffffffffffffffffffffffffffff1916817bffffffffffffffffffffffffffffffffffffffffffffffffffffffff1916149150506141eb565b600190505b949350505050565b505050565b600980549050600a600083815260200190815260200160002081905550600981908060018154018082558091505060019003906000526020600020016000909190919091505550565b6000600161424e84611885565b61425891906164cf565b905060006008600084815260200190815260200160002054905081811461433d576000600760008673ffffffffffffffffffffffffffffffffffffffff1673ffffffffffffffffffffffffffffffffffffffff168152602001908152602001600020600084815260200190815260200160002054905080600760008773ffffffffffffffffffffffffffffffffffffffff1673ffffffffffffffffffffffffffffffffffffffff168152602001908152602001600020600084815260200190815260200160002081905550816008600083815260200190815260200160002081905550505b6008600084815260200190815260200160002060009055600760008573ffffffffffffffffffffffffffffffffffffffff1673ffffffffffffffffffffffffffffffffffffffff16815260200190815260200160002060008381526020019081526020016000206000905550505050565b600060016009805490506143c291906164cf565b90506000600a6000848152602001908152602001600020549050600060098381548110614418577f4e487b7100000000000000000000000000000000000000000000000000000000600052603260045260246000fd5b906000526020600020015490508060098381548110614460577f4e487b7100000000000000000000000000000000000000000000000000000000600052603260045260246000fd5b906000526020600020018190555081600a600083815260200190815260200160002081905550600a60008581526020019081526020016000206000905560098054806144d5577f4e487b7100000000000000000000000000000000000000000000000000000000600052603160045260246000fd5b6001900381819060005260206000200160009055905550505050565b60006144fc83611885565b905081600760008573ffffffffffffffffffffffffffffffffffffffff1673ffffffffffffffffffffffffffffffffffffffff168152602001908152602001600020600083815260200190815260200160002081905550806008600084815260200190815260200160002081905550505050565b600080823b905060008111915050919050565b82805461458f90616636565b90600052602060002090601f0160209004810192826145b157600085556145f8565b82601f106145ca57805160ff19168380011785556145f8565b828001600101855582156145f8579182015b828111156145f75782518255916020019190600101906145dc565b5b509050614605919061468f565b5090565b82805461461590616636565b90600052602060002090601f016020900481019282614637576000855561467e565b82601f1061465057803560ff191683800117855561467e565b8280016001018555821561467e579182015b8281111561467d578235825591602001919060010190614662565b5b50905061468b919061468f565b5090565b5b808211156146a8576000816000905550600101614690565b5090565b60006146bf6146ba84616387565b616356565b9050828152602081018484840111156146d757600080fd5b6146e28482856165f4565b509392505050565b6000813590506146f981616811565b92915050565b60008135905061470e81616828565b92915050565b6000813590506147238161683f565b92915050565b6000815190506147388161683f565b92915050565b600082601f83011261474f57600080fd5b813561475f8482602086016146ac565b91505092915050565b60008083601f84011261477a57600080fd5b8235905067ffffffffffffffff81111561479357600080fd5b6020830191508360018202830111156147ab57600080fd5b9250929050565b6000813590506147c181616856565b92915050565b6000815190506147d681616856565b92915050565b6000813590506147eb8161686d565b92915050565b60006020828403121561480357600080fd5b6000614811848285016146ea565b91505092915050565b6000806040838503121561482d57600080fd5b600061483b858286016146ea565b925050602061484c858286016146ea565b9150509250929050565b60008060006060848603121561486b57600080fd5b6000614879868287016146ea565b935050602061488a868287016146ea565b925050604061489b868287016147b2565b9150509250925092565b600080600080608085870312156148bb57600080fd5b60006148c9878288016146ea565b94505060206148da878288016146ea565b93505060406148eb878288016147b2565b925050606085013567ffffffffffffffff81111561490857600080fd5b6149148782880161473e565b91505092959194509250565b6000806040838503121561493357600080fd5b6000614941858286016146ea565b9250506020614952858286016146ff565b9150509250929050565b6000806040838503121561496f57600080fd5b600061497d858286016146ea565b925050602061498e858286016147b2565b9150509250929050565b6000602082840312156149aa57600080fd5b60006149b884828501614714565b91505092915050565b6000602082840312156149d357600080fd5b60006149e184828501614729565b91505092915050565b60008060008060008060006080888a031215614a0557600080fd5b600088013567ffffffffffffffff811115614a1f57600080fd5b614a2b8a828b01614768565b9750975050602088013567ffffffffffffffff811115614a4a57600080fd5b614a568a828b01614768565b9550955050604088013567ffffffffffffffff811115614a7557600080fd5b614a818a828b01614768565b93509350506060614a948a828b016147dc565b91505092959891949750929550565b60008060008060008060008060a0898b031215614abf57600080fd5b600089013567ffffffffffffffff811115614ad957600080fd5b614ae58b828c01614768565b9850985050602089013567ffffffffffffffff811115614b0457600080fd5b614b108b828c01614768565b9650965050604089013567ffffffffffffffff811115614b2f57600080fd5b614b3b8b828c01614768565b94509450506060614b4e8b828c016147dc565b9250506080614b5f8b828c016147dc565b9150509295985092959890939650565b600060208284031215614b8157600080fd5b6000614b8f848285016147b2565b91505092915050565b600060208284031215614baa57600080fd5b6000614bb8848285016147c7565b91505092915050565b600080600060408486031215614bd657600080fd5b6000614be4868287016147b2565b935050602084013567ffffffffffffffff811115614c0157600080fd5b614c0d86828701614768565b92509250509250925092565b60008060408385031215614c2c57600080fd5b6000614c3a858286016147b2565b9250506020614c4b858286016147dc565b9150509250929050565b6000614c618383615ce7565b60208301905092915050565b614c76816165ac565b82525050565b614c8581616515565b82525050565b614c9481616503565b82525050565b6000614ca5826163dc565b614caf818561640a565b9350614cba836163b7565b8060005b83811015614ceb578151614cd28882614c55565b9750614cdd836163fd565b925050600181019050614cbe565b5085935050505092915050565b614d0181616527565b82525050565b6000614d12826163e7565b614d1c818561641b565b9350614d2c818560208601616603565b614d35816167df565b840191505092915050565b614d49816165be565b82525050565b6000614d5b838561643d565b9350614d688385846165f4565b82840190509392505050565b6000614d7f826163f2565b614d89818561642c565b9350614d99818560208601616603565b614da2816167df565b840191505092915050565b6000614db8826163f2565b614dc2818561643d565b9350614dd2818560208601616603565b80840191505092915050565b60008154614deb81616636565b614df5818661643d565b94506001821660008114614e105760018114614e2157614e54565b60ff19831686528186019350614e54565b614e2a856163c7565b60005b83811015614e4c57815481890152600182019150602081019050614e2d565b838801955050505b50505092915050565b6000614e6a602e8361642c565b91507f5061796d656e7420616d6f756e74206d7573742065786163746c79206d61746360008301527f68206c69737465642070726963650000000000000000000000000000000000006020830152604082019050919050565b6000614ed0602b8361642c565b91507f455243373231456e756d657261626c653a206f776e657220696e646578206f7560008301527f74206f6620626f756e64730000000000000000000000000000000000000000006020830152604082019050919050565b6000614f3660328361642c565b91507f4552433732313a207472616e7366657220746f206e6f6e20455243373231526560008301527f63656976657220696d706c656d656e74657200000000000000000000000000006020830152604082019050919050565b6000614f9c60268361642c565b91507f4f776e61626c653a206e6577206f776e657220697320746865207a65726f206160008301527f64647265737300000000000000000000000000000000000000000000000000006020830152604082019050919050565b6000615002601c8361642c565b91507f4552433732313a20746f6b656e20616c7265616479206d696e746564000000006000830152602082019050919050565b600061504260248361642c565b91507f4552433732313a207472616e7366657220746f20746865207a65726f2061646460008301527f72657373000000000000000000000000000000000000000000000000000000006020830152604082019050919050565b60006150a860198361642c565b91507f4552433732313a20617070726f766520746f2063616c6c6572000000000000006000830152602082019050919050565b60006150e860308361642c565b91507f486f726e20697320616c7265616479206d61726b6564206173206f776e65642060008301527f616e64206e6f7420666f722073616c65000000000000000000000000000000006020830152604082019050919050565b600061514e60328361642c565b91507f596f757220486f726e2069732076616c7561626c6520616e642063616e6e6f7460008301527f20626520736f6c6420666f7220667265652100000000000000000000000000006020830152604082019050919050565b60006151b4602c8361642c565b91507f4552433732313a206f70657261746f7220717565727920666f72206e6f6e657860008301527f697374656e7420746f6b656e00000000000000000000000000000000000000006020830152604082019050919050565b600061521a60388361642c565b91507f4552433732313a20617070726f76652063616c6c6572206973206e6f74206f7760008301527f6e6572206e6f7220617070726f76656420666f7220616c6c00000000000000006020830152604082019050919050565b6000615280603a8361642c565b91507f5468697320636f6e7472616374206d757374206669727374206265206170707260008301527f6f7665642062792063757272656e7420686f726e206f776e65720000000000006020830152604082019050919050565b60006152e6602a8361642c565b91507f4552433732313a2062616c616e636520717565727920666f7220746865207a6560008301527f726f2061646472657373000000000000000000000000000000000000000000006020830152604082019050919050565b600061534c60298361642c565b91507f4552433732313a206f776e657220717565727920666f72206e6f6e657869737460008301527f656e7420746f6b656e00000000000000000000000000000000000000000000006020830152604082019050919050565b60006153b260288361642c565b91507f486f726e20686173206e6f74206265656e206d61726b6564206173207061696460008301527f20666f72207965740000000000000000000000000000000000000000000000006020830152604082019050919050565b600061541860408361642c565b91507f546869732066756e6374696f6e206d6179206f6e6c792062652063616c6c656460008301527f20627920612062757965722077686f2068617320616c726561647920706169646020830152604082019050919050565b600061547e60258361642c565b91507f486f726e206973206e6f742063757272656e746c79206c697374656420666f7260008301527f2073616c650000000000000000000000000000000000000000000000000000006020830152604082019050919050565b60006154e460208361642c565b91507f4552433732313a206d696e7420746f20746865207a65726f20616464726573736000830152602082019050919050565b600061552460388361642c565b91507f546869732066756e6374696f6e206d6179206f6e6c792062652063616c6c656460008301527f2062792074686520686f726e204e46542773206f776e657200000000000000006020830152604082019050919050565b600061558a602c8361642c565b91507f4552433732313a20617070726f76656420717565727920666f72206e6f6e657860008301527f697374656e7420746f6b656e00000000000000000000000000000000000000006020830152604082019050919050565b60006155f060348361642c565b91507f4275796572206d7573742073656e64207061796d656e7420666f7220486f726e60008301527f204e465420746f20657363726f772066697273740000000000000000000000006020830152604082019050919050565b600061565660208361642c565b91507f4f776e61626c653a2063616c6c6572206973206e6f7420746865206f776e65726000830152602082019050919050565b600061569660268361642c565b91507f486f726e204e4654206d75737420657869737420616e642063616e6e6f74206260008301527f65206672656500000000000000000000000000000000000000000000000000006020830152604082019050919050565b60006156fc60298361642c565b91507f4552433732313a207472616e73666572206f6620746f6b656e2074686174206960008301527f73206e6f74206f776e00000000000000000000000000000000000000000000006020830152604082019050919050565b6000615762602f8361642c565b91507f4552433732314d657461646174613a2055524920717565727920666f72206e6f60008301527f6e6578697374656e7420746f6b656e00000000000000000000000000000000006020830152604082019050919050565b60006157c8603a8361642c565b91507f4164647265737320676976656e20646f6573206e6f74206d617463682074686560008301527f206f6e65206f6e2066696c6520666f72207468652062757965720000000000006020830152604082019050919050565b600061582e60218361642c565b91507f4552433732313a20617070726f76616c20746f2063757272656e74206f776e6560008301527f72000000000000000000000000000000000000000000000000000000000000006020830152604082019050919050565b600061589460a68361642c565b91507f486f726e2068617320616c7265616479206265656e207368697070656420616e60008301527f64206e6f206c6f6e676572207175616c696669657320666f722061207265667560208301527f6e642c20706c6561736520636f6d706c657465207468652065786368616e676560408301527f20616e64207265646f207468652065786368616e676520696e2072657665727360608301527f6520696620796f75207769736820746f20737769746368206261636b206f776e60808301527f657273686970000000000000000000000000000000000000000000000000000060a083015260c082019050919050565b600061599260238361642c565b91507f5468617420486f726e204e465420746f6b656e496420646f65736e277420657860008301527f69737400000000000000000000000000000000000000000000000000000000006020830152604082019050919050565b60006159f860318361642c565b91507f4552433732313a207472616e736665722063616c6c6572206973206e6f74206f60008301527f776e6572206e6f7220617070726f7665640000000000000000000000000000006020830152604082019050919050565b6000615a5e602c8361642c565b91507f455243373231456e756d657261626c653a20676c6f62616c20696e646578206f60008301527f7574206f6620626f756e647300000000000000000000000000000000000000006020830152604082019050919050565b6000615ac460278361642c565b91507f486f726e20686173206e6f74206265656e206d61726b6564206173207368697060008301527f70656420796574000000000000000000000000000000000000000000000000006020830152604082019050919050565b6000615b2a60248361642c565b91507f596f757220486f726e20697320616c7265616479206c697374656420666f722060008301527f73616c65000000000000000000000000000000000000000000000000000000006020830152604082019050919050565b6000615b9060688361642c565b91507f486f726e2068617320616c7265616479206265656e207075726368617365642060008301527f616e64207061696420666f72206279206120627579657220616e64206f6e2d6360208301527f6861696e20726566756e647320617265206e6f742063757272656e746c79207360408301527f7570706f727465640000000000000000000000000000000000000000000000006060830152608082019050919050565b6000615c42606b8361642c565b91507f506c6561736520646f206e6f742073656e64207468697320636f6e747261637460008301527f2066756e647320776974686f757420616e792066756e6374696f6e2063616c6c60208301527f2064617461206f722063616c6c20612066756e6374696f6e207468617420646f60408301527f65736e27742065786973740000000000000000000000000000000000000000006060830152608082019050919050565b615cf081616592565b82525050565b615cff81616592565b82525050565b615d0e8161659c565b82525050565b615d25615d208261659c565b6166b1565b82525050565b6000615d38828486614d4f565b91508190509392505050565b6000615d51828587614d4f565b9150615d5d8284615d14565b600482019150819050949350505050565b6000615d7a8285614dad565b9150615d868284614dad565b91508190509392505050565b6000615d9e8284614dde565b915081905092915050565b6000602082019050615dbe6000830184614c8b565b92915050565b6000602082019050615dd96000830184614c6d565b92915050565b6000602082019050615df46000830184614c7c565b92915050565b6000608082019050615e0f6000830187614c8b565b615e1c6020830186614c8b565b615e296040830185615cf6565b8181036060830152615e3b8184614d07565b905095945050505050565b60006020820190508181036000830152615e608184614c9a565b905092915050565b6000602082019050615e7d6000830184614cf8565b92915050565b6000602082019050615e986000830184614d40565b92915050565b60006020820190508181036000830152615eb88184614d74565b905092915050565b60006020820190508181036000830152615ed981614e5d565b9050919050565b60006020820190508181036000830152615ef981614ec3565b9050919050565b60006020820190508181036000830152615f1981614f29565b9050919050565b60006020820190508181036000830152615f3981614f8f565b9050919050565b60006020820190508181036000830152615f5981614ff5565b9050919050565b60006020820190508181036000830152615f7981615035565b9050919050565b60006020820190508181036000830152615f998161509b565b9050919050565b60006020820190508181036000830152615fb9816150db565b9050919050565b60006020820190508181036000830152615fd981615141565b9050919050565b60006020820190508181036000830152615ff9816151a7565b9050919050565b600060208201905081810360008301526160198161520d565b9050919050565b6000602082019050818103600083015261603981615273565b9050919050565b60006020820190508181036000830152616059816152d9565b9050919050565b600060208201905081810360008301526160798161533f565b9050919050565b60006020820190508181036000830152616099816153a5565b9050919050565b600060208201905081810360008301526160b98161540b565b9050919050565b600060208201905081810360008301526160d981615471565b9050919050565b600060208201905081810360008301526160f9816154d7565b9050919050565b6000602082019050818103600083015261611981615517565b9050919050565b600060208201905081810360008301526161398161557d565b9050919050565b60006020820190508181036000830152616159816155e3565b9050919050565b6000602082019050818103600083015261617981615649565b9050919050565b6000602082019050818103600083015261619981615689565b9050919050565b600060208201905081810360008301526161b9816156ef565b9050919050565b600060208201905081810360008301526161d981615755565b9050919050565b600060208201905081810360008301526161f9816157bb565b9050919050565b6000602082019050818103600083015261621981615821565b9050919050565b6000602082019050818103600083015261623981615887565b9050919050565b6000602082019050818103600083015261625981615985565b9050919050565b60006020820190508181036000830152616279816159eb565b9050919050565b6000602082019050818103600083015261629981615a51565b9050919050565b600060208201905081810360008301526162b981615ab7565b9050919050565b600060208201905081810360008301526162d981615b1d565b9050919050565b600060208201905081810360008301526162f981615b83565b9050919050565b6000602082019050818103600083015261631981615c35565b9050919050565b60006020820190506163356000830184615cf6565b92915050565b60006020820190506163506000830184615d05565b92915050565b6000604051905081810181811067ffffffffffffffff8211171561637d5761637c6167b0565b5b8060405250919050565b600067ffffffffffffffff8211156163a2576163a16167b0565b5b601f19601f8301169050602081019050919050565b6000819050602082019050919050565b60008190508160005260206000209050919050565b600081519050919050565b600081519050919050565b600081519050919050565b6000602082019050919050565b600082825260208201905092915050565b600082825260208201905092915050565b600082825260208201905092915050565b600081905092915050565b600061645382616592565b915061645e83616592565b9250827fffffffffffffffffffffffffffffffffffffffffffffffffffffffffffffffff03821115616493576164926166f4565b5b828201905092915050565b60006164a982616592565b91506164b483616592565b9250826164c4576164c3616723565b5b828204905092915050565b60006164da82616592565b91506164e583616592565b9250828210156164f8576164f76166f4565b5b828203905092915050565b600061650e82616572565b9050919050565b600061652082616572565b9050919050565b60008115159050919050565b60007fffffffff0000000000000000000000000000000000000000000000000000000082169050919050565b600081905061656d826167fd565b919050565b600073ffffffffffffffffffffffffffffffffffffffff82169050919050565b6000819050919050565b600063ffffffff82169050919050565b60006165b7826165d0565b9050919050565b60006165c98261655f565b9050919050565b60006165db826165e2565b9050919050565b60006165ed82616572565b9050919050565b82818337600083830152505050565b60005b83811015616621578082015181840152602081019050616606565b83811115616630576000848401525b50505050565b6000600282049050600182168061664e57607f821691505b6020821081141561666257616661616781565b5b50919050565b600061667382616592565b91507fffffffffffffffffffffffffffffffffffffffffffffffffffffffffffffffff8214156166a6576166a56166f4565b5b600182019050919050565b60006166bc826167f0565b9050919050565b60006166ce82616592565b91506166d983616592565b9250826166e9576166e8616723565b5b828206905092915050565b7f4e487b7100000000000000000000000000000000000000000000000000000000600052601160045260246000fd5b7f4e487b7100000000000000000000000000000000000000000000000000000000600052601260045260246000fd5b7f4e487b7100000000000000000000000000000000000000000000000000000000600052602160045260246000fd5b7f4e487b7100000000000000000000000000000000000000000000000000000000600052602260045260246000fd5b7f4e487b7100000000000000000000000000000000000000000000000000000000600052604160045260246000fd5b6000601f19601f8301169050919050565b60008160e01b9050919050565b6004811061680e5761680d616752565b5b50565b61681a81616503565b811461682557600080fd5b50565b61683181616527565b811461683c57600080fd5b50565b61684881616533565b811461685357600080fd5b50565b61685f81616592565b811461686a57600080fd5b50565b6168768161659c565b811461688157600080fd5b5056fea264697066735822122092a48e1d9ed574f32f4e02bb48beb57ad6059371b4bb7c59163f49f68515e66c64736f6c63430008000033608060405234801561001057600080fd5b5061002d61002261003260201b60201c565b61003a60201b60201c565b6100fe565b600033905090565b60008060009054906101000a900473ffffffffffffffffffffffffffffffffffffffff169050816000806101000a81548173ffffffffffffffffffffffffffffffffffffffff021916908373ffffffffffffffffffffffffffffffffffffffff1602179055508173ffffffffffffffffffffffffffffffffffffffff168173ffffffffffffffffffffffffffffffffffffffff167f8be0079c531659141344cd1fd0a4f28419497f9722a3daafe3b4186f6b6457e060405160405180910390a35050565b610bc08061010d6000396000f3fe6080604052600436106100555760003560e01c806351cff8d91461005a578063715018a6146100835780638da5cb5b1461009a578063e3a9db1a146100c5578063f2fde38b14610102578063f340fa011461012b575b600080fd5b34801561006657600080fd5b50610081600480360381019061007c91906107f5565b610147565b005b34801561008f57600080fd5b506100986102c7565b005b3480156100a657600080fd5b506100af61034f565b6040516100bc91906109b7565b60405180910390f35b3480156100d157600080fd5b506100ec60048036038101906100e791906107cc565b610378565b6040516100f99190610a52565b60405180910390f35b34801561010e57600080fd5b50610129600480360381019061012491906107cc565b6103c1565b005b610145600480360381019061014091906107cc565b6104b9565b005b61014f6105e2565b73ffffffffffffffffffffffffffffffffffffffff1661016d61034f565b73ffffffffffffffffffffffffffffffffffffffff16146101c3576040517f08c379a00000000000000000000000000000000000000000000000000000000081526004016101ba90610a32565b60405180910390fd5b6000600160008373ffffffffffffffffffffffffffffffffffffffff1673ffffffffffffffffffffffffffffffffffffffff1681526020019081526020016000205490506000600160008473ffffffffffffffffffffffffffffffffffffffff1673ffffffffffffffffffffffffffffffffffffffff16815260200190815260200160002081905550610275818373ffffffffffffffffffffffffffffffffffffffff166105ea90919063ffffffff16565b8173ffffffffffffffffffffffffffffffffffffffff167f7084f5476618d8e60b11ef0d7d3f06914655adb8793e28ff7f018d4c76d505d5826040516102bb9190610a52565b60405180910390a25050565b6102cf6105e2565b73ffffffffffffffffffffffffffffffffffffffff166102ed61034f565b73ffffffffffffffffffffffffffffffffffffffff1614610343576040517f08c379a000000000000000000000000000000000000000000000000000000000815260040161033a90610a32565b60405180910390fd5b61034d60006106de565b565b60008060009054906101000a900473ffffffffffffffffffffffffffffffffffffffff16905090565b6000600160008373ffffffffffffffffffffffffffffffffffffffff1673ffffffffffffffffffffffffffffffffffffffff168152602001908152602001600020549050919050565b6103c96105e2565b73ffffffffffffffffffffffffffffffffffffffff166103e761034f565b73ffffffffffffffffffffffffffffffffffffffff161461043d576040517f08c379a000000000000000000000000000000000000000000000000000000000815260040161043490610a32565b60405180910390fd5b600073ffffffffffffffffffffffffffffffffffffffff168173ffffffffffffffffffffffffffffffffffffffff1614156104ad576040517f08c379a00000000000000000000000000000000000000000000000000000000081526004016104a4906109d2565b60405180910390fd5b6104b6816106de565b50565b6104c16105e2565b73ffffffffffffffffffffffffffffffffffffffff166104df61034f565b73ffffffffffffffffffffffffffffffffffffffff1614610535576040517f08c379a000000000000000000000000000000000000000000000000000000000815260040161052c90610a32565b60405180910390fd5b600034905080600160008473ffffffffffffffffffffffffffffffffffffffff1673ffffffffffffffffffffffffffffffffffffffff16815260200190815260200160002060008282546105899190610a89565b925050819055508173ffffffffffffffffffffffffffffffffffffffff167f2da466a7b24304f47e87fa2e1e5a81b9831ce54fec19055ce277ca2f39ba42c4826040516105d69190610a52565b60405180910390a25050565b600033905090565b8047101561062d576040517f08c379a000000000000000000000000000000000000000000000000000000000815260040161062490610a12565b60405180910390fd5b60008273ffffffffffffffffffffffffffffffffffffffff1682604051610653906109a2565b60006040518083038185875af1925050503d8060008114610690576040519150601f19603f3d011682016040523d82523d6000602084013e610695565b606091505b50509050806106d9576040517f08c379a00000000000000000000000000000000000000000000000000000000081526004016106d0906109f2565b60405180910390fd5b505050565b60008060009054906101000a900473ffffffffffffffffffffffffffffffffffffffff169050816000806101000a81548173ffffffffffffffffffffffffffffffffffffffff021916908373ffffffffffffffffffffffffffffffffffffffff1602179055508173ffffffffffffffffffffffffffffffffffffffff168173ffffffffffffffffffffffffffffffffffffffff167f8be0079c531659141344cd1fd0a4f28419497f9722a3daafe3b4186f6b6457e060405160405180910390a35050565b6000813590506107b181610b5c565b92915050565b6000813590506107c681610b73565b92915050565b6000602082840312156107de57600080fd5b60006107ec848285016107a2565b91505092915050565b60006020828403121561080757600080fd5b6000610815848285016107b7565b91505092915050565b61082781610adf565b82525050565b600061083a602683610a78565b91507f4f776e61626c653a206e6577206f776e657220697320746865207a65726f206160008301527f64647265737300000000000000000000000000000000000000000000000000006020830152604082019050919050565b60006108a0603a83610a78565b91507f416464726573733a20756e61626c6520746f2073656e642076616c75652c207260008301527f6563697069656e74206d617920686176652072657665727465640000000000006020830152604082019050919050565b6000610906601d83610a78565b91507f416464726573733a20696e73756666696369656e742062616c616e63650000006000830152602082019050919050565b6000610946602083610a78565b91507f4f776e61626c653a2063616c6c6572206973206e6f7420746865206f776e65726000830152602082019050919050565b6000610986600083610a6d565b9150600082019050919050565b61099c81610b23565b82525050565b60006109ad82610979565b9150819050919050565b60006020820190506109cc600083018461081e565b92915050565b600060208201905081810360008301526109eb8161082d565b9050919050565b60006020820190508181036000830152610a0b81610893565b9050919050565b60006020820190508181036000830152610a2b816108f9565b9050919050565b60006020820190508181036000830152610a4b81610939565b9050919050565b6000602082019050610a676000830184610993565b92915050565b600081905092915050565b600082825260208201905092915050565b6000610a9482610b23565b9150610a9f83610b23565b9250827fffffffffffffffffffffffffffffffffffffffffffffffffffffffffffffffff03821115610ad457610ad3610b2d565b5b828201905092915050565b6000610aea82610b03565b9050919050565b6000610afc82610b03565b9050919050565b600073ffffffffffffffffffffffffffffffffffffffff82169050919050565b6000819050919050565b7f4e487b7100000000000000000000000000000000000000000000000000000000600052601160045260246000fd5b610b6581610adf565b8114610b7057600080fd5b50565b610b7c81610af1565b8114610b8757600080fd5b5056fea2646970667358221220d770607a265aeb06db1df17cb43692656108385a92166a7d0fad953d5335e50364736f6c63430008000033",
  "immutableReferences": {},
  "source": "// SPDX-License-Identifier: MIT\npragma solidity 0.8.0;\n\n/** \n  * @title Peer to peer Horn Marketplace using NFTs and Escrow Smart Contract\n  * @author Markus Osterlund, 2nd Horn of National Symphony Orchestra and hopeful Ethereum Engineer @Consensys Academy Bootcamp\n */\n\nimport \"@openzeppelin/contracts/utils/Counters.sol\";\nimport \"@openzeppelin/contracts/access/Ownable.sol\";\nimport \"@openzeppelin/contracts/utils/escrow/Escrow.sol\";\nimport \"@openzeppelin/contracts/token/ERC721/ERC721.sol\";\nimport \"@openzeppelin/contracts/token/ERC721/extensions/ERC721Enumerable.sol\";\n// import \"@openzeppelin/contracts/token/ERC721/IERC721Receiver.sol\"; // Not actually necessary but included here in case users new to NFTs send to address(this)\n\n// use tokenURI to point to images of the listed instrument (host and store on my website)\n\n/*\n   Interfaces\n*/\n\ncontract HornMarketplace is Ownable, /*IERC721Receiver, */ERC721Enumerable {\n    using Counters for Counters.Counter;\n    Counters.Counter /*private*/ public _hornId; // OpenZeppelin library initializes this to 0 by default\n    /*\n        Instantiate Escrow Contract\n    */\n    Escrow escrow;\n    //EscrowContract escrow = EscrowContract(DEVELOPMENT_DEPLOYED_ESCROW_ADDR_HERE); // these two lines necessary?\n    //EscrowContract escrow = EscrowContract(RINKEBY_DEPLOYED_ESCROW_ADDR_HERE)\n\n    /*\n        On-chain Horn data: Metadata Struct\n    */\n    // @param make denotes builder/manufacturer of the instrument \n    // @param model denotes model name of the instrument\n    // @param style denotes double/triple/descant/single/compensating and wrap ie geyer/kruspe/knopf/other\n    // @param serialNumber denotes serial number\n    // @param currentOwner denotes musician who currently owns the instrument\n    // @param buyer denotes buyer who purchased\n    struct Horn { // optimize gas on these struct attributes- which order/size?\n      string make;\n      string model;\n      string style;\n      uint32 serialNumber;\n      uint32 listPrice; // this attribute probably needs to be labeled as 'inWei' and converted from eth at time of listing\n      HornStatus status;\n      address payable currentOwner;\n    }\n\n    /*\n        Enum for Status of Order\n    */\n    enum HornStatus {\n        ListedForSale,\n        PaidFor,\n        Shipped,\n        OwnedNotForSale\n    }\n\n    // @dev hornId is a unique, publicly accessible counter (as opposed to Counter _hornId) for each horn NFT in existence\n    // @dev hornsForSale array allows for quickly viewing listed instruments via frontend\n    // address payable owner;\n    uint[] public hornsForSale;\n\n    // @notice horns mapping keeps track of all horn NFT owners & histories via _hornId (s/o to OpenZep Counter.counter library)\n    mapping (uint => Horn) horns;\n    // @dev Add hash of horn NFT make and serialNumber using Counter.counter to compare all existing hashes to new mints to prevent duplicate NFTs of the same instrument\n    mapping (uint => bytes32) makeAndSerialHashes; // bytes32? bytes memorY?\n    // @dev currentOwners and buyers mappings used for function access control\n    // @dev Add address to buyers when horn is paid for via escrow, address to currentOwners when sale and exchange is complete\n    mapping (uint => address) currentOwners;\n    mapping (uint => address) buyers;\n    mapping (address => string) shippingAddresses; // @param May actually be cheaper to enter and store bytes type via front-end\n    \n    // @notice NFT and IRL exchange events and escrow transaction events used for front-end\n    event HornListedForSale(uint indexed hornId, address indexed seller, string indexed make);\n    event NewHornNFTMinted(uint indexed hornId, address indexed seller, string indexed make);\n    // event BidReceived(uint indexed _hornId); //bidding may be a later feature\n    event HornPurchased(uint indexed hornId, string indexed shipTo, address indexed buyer);\n    event HornShipped(uint indexed hornId, string indexed shipTo, address indexed to);\n    event HornDeliveredAndNFTOwnershipTransferred(uint indexed hornId, address indexed from, address indexed to);\n    event DepositedToEscrow(address indexed payee, uint indexed amountInWei);\n    event WithdrawnFromEscrow(address indexed payee, uint indexed amountInWei);\n    event SellerPaid(uint indexed hornId, address indexed payer, address indexed payee);\n\n    /* \n        Modifiers for function access control!\n    */\n    // @dev Maintain an owner address in case of emergency\n    // modifier onlyOwner() {\n    //     require(msg.sender == owner);\n    //     _;\n    // }\n\n    // @dev Restrict duplicate listings and allow only users who are minting their instrument as an NFT for the first time by checking hashes of concatenated make and serial number\n    modifier nonDuplicateMint(string calldata _make, uint32 _serialNumber) {\n        //Hash concatenated _make and _serialNumber given by user\n        bytes32 hashOfMakeAndSerial = keccak256(abi.encodePacked(_make, _serialNumber)); // bytes32? bytes memory?\n        //Loop through makeAndSerialHashes[] mapping in search for a matching hash, in which case given user input is a duplicate mint\n        for (uint i = 0; i < _hornId.current(); i++) {\n           require(makeAndSerialHashes[i] != hashOfMakeAndSerial);\n        }\n        _;\n    }\n    // @dev Restrict to only buyer who paid and was added to buyers[] mapping\n    modifier onlyBuyerWhoPaid(uint hornId) {\n        require(buyers[hornId] == msg.sender, \"This function may only be called by a buyer who has already paid\");\n        _;\n    }\n    // @dev Restrict to only the current owner of already minted horn NFT\n    modifier onlySeller(uint hornId) {\n        require(currentOwners[hornId] == msg.sender, \"This function may only be called by the horn NFT's owner\");\n        _;\n    }\n    // @dev Checks that function caller sent exact ETH amount to purchase horn for listed price **later can use if/or clauses to support stablecoin purchases\n    modifier paidEnough(uint hornId) {\n        require(msg.value == horns[hornId].listPrice, \"Payment amount must exactly match listed price\"); // later implement logic that calculates stablecoin price equivalents\n        _;\n    }\n    // @dev Following modifiers read enum HornStatus of _hornIds and escrow deposits to maintain security and correct order of function calls thru sale process\n    modifier forSale(uint __hornId) {\n        require(horns[__hornId].listPrice > 0, \"Horn NFT must exist and cannot be free\"); // ensure horn NFT exists and is listPrice is non 0\n        require(uint(horns[__hornId].status) == 0, \"Horn is not currently listed for sale\"); // requires ListedForSale status\n        _;\n    }\n    modifier hornPaidFor(uint __hornId) {\n        require(escrow.depositsOf(msg.sender) == horns[__hornId].listPrice, \"Buyer must send payment for Horn NFT to escrow first\"); // ensure buyer has already deposited payment (listPrice) in escrow\n        require(uint(horns[__hornId].status) == 1, \"Horn has not been marked as paid for yet\"); // requires PaidFor status\n        _;\n    }\n    modifier shipped(uint __hornId) {\n        require(_isApprovedOrOwner(address(this), __hornId), \"This contract must first be approved by current horn owner\"); // ensure this contract is approved to spend horn NFT by the seller\n        require(uint(horns[__hornId].status) == 2, \"Horn has not been marked as shipped yet\"); // requires Shipped status\n        _;\n    }\n\n    // @dev Initializes the Horn NFT with name and symbol and instantiates the escrow contract \n    constructor() ERC721(\"Horn\", \"HORN\") {\n        escrow = new Escrow();\n    }\n    /*\n        Marketplace Function implementations\n    */\n    // @notice List horn for sale by minting with metadata to fill Horn struct on-chain\n    // IF NEW FUNCTION, MAKE SURE ALL MAPPINGS/ATTRIBUTES ARE PROPERLY SET so escrow functions still work on correct addresses (ie line 191)\n    function mintThenListNewHornNFT( \n      string calldata _make, \n      string calldata _model, \n      string calldata _style, \n      uint32 _serialNumber, \n      uint32 _desiredPrice) \n      external \n      /* nonDuplicateMint(uint(_hornId.current())++, _make, _serialNumber) */ // double check how the Counter.counter works with _hornId in a modifier _; setting\n      returns (uint) {\n        // @dev listPrice attribute cannot be set to 0\n        require(_desiredPrice > 0, \"Your Horn is valuable and cannot be sold for free!\");\n        // @dev Increment counter _hornId then store publicly accessible hornId using current counter\n        _hornId.increment();\n        uint hornId = _hornId.current();\n        _mint(msg.sender, hornId);\n        // _setTokenURI(hornId, \"https://netlify.com/largemediafiles/lfs\")\n          \n        // @dev Store all horn metadata on-chain EXCEPT images which are stored externally via URI\n        horns[hornId] = Horn({\n            make: _make,\n            model: _model,\n            style: _style,\n            serialNumber: _serialNumber,\n            listPrice: _desiredPrice,\n            status: HornStatus.ListedForSale,\n            currentOwner: payable(msg.sender)\n        });\n                    \n        // @dev update mappings and arrays to reflect new listing\n        currentOwners[hornId] = msg.sender;\n        hornsForSale.push(hornId);\n\n        emit HornListedForSale(hornId, msg.sender, _make);\n\n        return hornId;\n    }\n\n    // @notice Following function mints an NFT that is not intended to be listed for sale; owner only wants to establish verifiable immutable record of ownership\n    function mintButDontListNewHornNFT(\n      string calldata _make,\n      string calldata _model,\n      string calldata _style,\n      uint32 _serialNumber) \n      external\n      nonDuplicateMint(_make, _serialNumber) \n      returns (uint) {\n        // @dev Increment counter _hornId then store publicly accessible hornId using current counter\n        _hornId.increment();\n        uint hornId = _hornId.current();\n        _mint(msg.sender, hornId);\n        // _setTokenURI(hornId, \"https://blabla.com/\") logic still needs to be implemented\n\n        // @dev Store all horn metadata on-chain EXCEPT images which are stored externally via URI\n        horns[hornId] = Horn({\n            make: _make,\n            model: _model,\n            style: _style,\n            serialNumber: _serialNumber,\n            listPrice: 0,\n            status: HornStatus.OwnedNotForSale,\n            currentOwner: payable(msg.sender)\n        });\n\n          // @dev Update mappings to reflect new mint\n          currentOwners[hornId] = msg.sender;\n\n          emit NewHornNFTMinted(hornId, msg.sender, _make);\n\n          return hornId;\n        }\n    \n    // @notice Following function must check that the hornNFT already exists before listing\n    function listExistingHornNFT(uint __hornId, uint32 _desiredPrice) \n      public \n      onlySeller(__hornId) \n      returns (uint) {\n        require(_exists(__hornId), \"That Horn NFT tokenId doesn't exist\");\n        require(_desiredPrice > 0, \"Your Horn is valuable and cannot be sold for free!\");\n        require(horns[__hornId].status != HornStatus.ListedForSale, \"Your Horn is already listed for sale\");\n\n        uint hornId = __hornId;\n        hornsForSale.push(hornId);\n        // _setTokenURI(hornId, \"https://blabla.com\");  // need image upload prompt on front end\n\n        horns[hornId].listPrice = _desiredPrice;\n        horns[hornId].status = HornStatus.ListedForSale;\n\n        emit HornListedForSale(hornId, msg.sender, horns[hornId].make);\n\n        return hornId;\n    }\n\n    // @dev Require that given __hornId is forSale and not already purchased\n    function purchaseHornByHornId(uint __hornId, string calldata _shipTo) // maybe use bytes for address, remove spaces and concatenate in frontend input? so it can be hashed and stored privately\n      public \n      payable \n      forSale(__hornId) \n      paidEnough(__hornId) {\n        /* storing home addresses on-chain involves significant privacy concerns, however\n        * the recent infrastructure bill classifies any developer who writes code that handles monetary value on a blockchain\n        * as a legally recognized \"broker\" who must report customer information like Address to the IRS\n        * shipping addresses are stored on-chain for legal compliance reasons ONLY\n        * Can these addresses be opaquely stored on front-end instead? zk rollups would alleviate this issue\n        */\n        // @dev Forward payment to escrow contract for safekeeping\n        escrow.deposit(currentOwners[__hornId]);\n        // @dev Add shipping address of buyer aka msg.sender to mapping for later confirmation\n        // @param May be cheaper gas wise to enter bytes instead of string type in front end\n        shippingAddresses[msg.sender] = _shipTo;\n        // @dev Add msg.sender to buyers[] mapping for access control checking during markHornShipped function call and shipping address confirmation: \n        buyers[__hornId] = msg.sender;\n        // @dev Set status to PaidFor so next function to be called must be markHornShipped by seller\n        horns[__hornId].status = HornStatus.PaidFor;\n        // @dev Delete hornId from hornsForSale uint[] array so it is no longer displayed\n        for (uint i = 0; i < hornsForSale.length; i++) {\n            if (hornsForSale[i] == __hornId) {\n                delete hornsForSale[i];\n            }\n        }\n\n        // @notice Emit event to notify seller via frontend that horn is paid for and must be shipped\n        emit HornPurchased(__hornId, _shipTo, msg.sender);\n        emit DepositedToEscrow(horns[__hornId].currentOwner, msg.value);\n    }\n\n    function markHornShipped(uint __hornId, string calldata shippedTo) public \n      onlySeller(__hornId) \n      hornPaidFor(__hornId) {\n        // @dev Set buyer variable to confirm shipping address shipTo against shippingAddresses mapping given by buyer\n        address buyer = buyers[__hornId];\n        // @notice The addresses must match exactly as they are hashed- an issue considering extremely common user error, data fields must be explicit on front end for proper resolution\n        require(keccak256(abi.encodePacked(shippedTo)) == keccak256(abi.encodePacked(shippingAddresses[buyer])), \"Address given does not match the one on file for the buyer\");\n        // @dev Set status of __hornId to Shipped so next function to be called will finalize exchange\n        horns[__hornId].status = HornStatus.Shipped;\n        // @dev Approves this contract as spender of horn nft so that it will be safetransferred in next function call \n        approve(address(this), __hornId);\n        \n        // @notice Emit event to notify buyer via frontend that horn is on its way\n        emit HornShipped(__hornId, shippedTo, buyers[__hornId]);\n    }\n\n    // This function MUST be called in order to release escrow funds to seller, and transfer NFT ownership\n    function markHornDeliveredAndOwnershipTransferred(uint __hornId) public \n      onlyBuyerWhoPaid(__hornId) \n      shipped(__hornId) \n      returns (uint256) {\n        // @dev Save payment amount in uint variable to be visually returned for improved UX/UI\n        uint paymentAmt = escrow.depositsOf(horns[__hornId].currentOwner);\n        // @dev Release escrowed payment funds to the seller from escrow contract\n        escrow.withdraw(horns[__hornId].currentOwner);\n        // @dev Wipe msg.sender from buyers[] and shippingaddresses[] for future txs in case buyer changes address\n        buyers[__hornId] = address(0);\n        shippingAddresses[msg.sender] = \"\";\n        // @dev Set horn status to no longer be for sale and update horn ownership record history\n        horns[__hornId].status = HornStatus.OwnedNotForSale;\n        horns[__hornId].currentOwner = payable(msg.sender);\n        // @dev Set previousOwner variable using currentOwners mapping, before that value is updated to reflect new owner\n        address previousOwner = currentOwners[__hornId];\n        // @dev Update currentOwners mapping to give ownership to buyer\n        currentOwners[__hornId] == msg.sender;\n\n        // @dev Transfer horn NFT from seller(currentOwner) to msg.sender using safeTransferFrom from ERC721 interface (avoids NFTs locked in contracts)\n        safeTransferFrom(previousOwner, msg.sender, __hornId); // if this doesn't work it's because address(this) of this smart contract is the one who was approved in previous function but this function lists the 'from' parameter as the owner. simply change to address(this)\n\n        emit HornDeliveredAndNFTOwnershipTransferred(__hornId, previousOwner, msg.sender);\n        emit SellerPaid(__hornId, previousOwner, msg.sender);\n        emit WithdrawnFromEscrow(previousOwner, paymentAmt);\n\n        return paymentAmt;\n    }\n    \n    // @dev Function that sets status of existing horn NFT to OwnedNotForSale, \n    // @notice Used in case minter only wants verifiable historical record or owner decides not to sell the instrument after listing or wishes to refund a buyer\n    // @notice Must be set to internal after testing is done, only temporarily set to public for testing purposes\n    function sellerInitiateRefundOrSetStatusToOwnedNotForSale(uint __hornId) public /*internal onlySeller()*/ returns (HornStatus) {\n        if (horns[__hornId].status == HornStatus.ListedForSale) {\n            horns[__hornId].status = HornStatus.OwnedNotForSale;\n        } else if (horns[__hornId].status == HornStatus.PaidFor) {\n            revert(\"Horn has already been purchased and paid for by a buyer and on-chain refunds are not currently supported\"); // change this line once refund logic is implemented\n            //REFUND LOGIC HERE: escrow.refundToBuyer(); functino refundToBuyer() probably has a nested mapping of address => uint => enum == buyer => deposits => state.refundable / state.nonrefundable that gets updated when horn is markShipped\n            // refund logic could probably include this next line within the refund function\n            // horns[__hornId].status = HornStatus.OwnedNotForSale;\n        } else if (horns[__hornId].status == HornStatus.Shipped) {\n            revert(\"Horn has already been shipped and no longer qualifies for a refund, please complete the exchange and redo the exchange in reverse if you wish to switch back ownership\");\n        } else if (horns[__hornId].status == HornStatus.OwnedNotForSale) {\n            revert(\"Horn is already marked as owned and not for sale\");\n        }\n\n        return(HornStatus.OwnedNotForSale); // make sure this is correct syntax\n    }\n\n    // function buyerInitiateRefund() does the buyer even need an option to get a refund once paid?\n\n    /*\n        Helper functions that provide (internal?) getter functionality\n    */\n    // @dev Returns an array of hornId uints that are read by the front end to display Horns listed for sale\n    function getCurrentHornsForSale() public view returns (uint[] memory) {\n        return hornsForSale;\n    }\n\n    function getListPriceByHornId(uint __hornId) public view returns (uint32) {\n        return horns[__hornId].listPrice;\n    }\n\n    function getCurrentOwnerByMapping(uint __hornId) public view returns (address payable) {\n        return payable(currentOwners[__hornId]);\n    }\n\n    function getCurrentOwnerByStructAttribute(uint __hornId) public view returns (address payable) {\n        return horns[__hornId].currentOwner;\n    }\n\n    function getStatusOfHornByHornId(uint __hornId) public view returns (HornStatus) {\n        return horns[__hornId].status;\n    }\n\n    function getEscrowDepositValue(address payee) public view returns (uint) {\n        uint escrowBalance = escrow.depositsOf(payee);\n        return escrowBalance;\n    }\n\n    fallback() external payable {\n        revert(\"Please do not send this contract funds without any function call data or call a function that doesn't exist\");\n    }\n\n    // in future, can add filter functions as well to display only doubles or only Lukas, etc\n    /* in future, can add support for ERC20 stablecoin payments via a price getter helper function that uses chainlink to calculate current Eth amount to match listed price in dollars:\n        something like require(msg.value == hornMarketplace.HORNPRICEGETTERFUNCTIONHERE()) but needs to aid user in submitting tx with correct ETH amount\n    */\n\n\n    /*\n        Administrative Functions\n    */\n    /* \n    // Allows owner of the marketplace to withdraw fees accumulated by trading\n    function withdrawAccumulatedFees() external onlyOwner {\n        owner.call{value: address(this).balance};\n    }\n    function pause() external onlyOwner {\n        _pause() // how does this work with pausable openzeppelin library?\n    }\n    */\n}\n",
  "sourcePath": "/home/robriks/ConsensysAcademyBootCamp/final-proj/contracts/HornMarketplace.sol",
  "compiler": {
    "name": "solc",
    "version": "0.8.0+commit.c7dfd78e.Emscripten.clang"
  },
  "schemaVersion": "3.4.3",
  "updatedAt": "2021-11-08T14:14:07.785Z",
  "devdoc": {
    "kind": "dev",
    "methods": {
      "approve(address,uint256)": {
        "details": "See {IERC721-approve}."
      },
      "balanceOf(address)": {
        "details": "See {IERC721-balanceOf}."
      },
      "getApproved(uint256)": {
        "details": "See {IERC721-getApproved}."
      },
      "isApprovedForAll(address,address)": {
        "details": "See {IERC721-isApprovedForAll}."
      },
      "name()": {
        "details": "See {IERC721Metadata-name}."
      },
      "owner()": {
        "details": "Returns the address of the current owner."
      },
      "ownerOf(uint256)": {
        "details": "See {IERC721-ownerOf}."
      },
      "renounceOwnership()": {
        "details": "Leaves the contract without owner. It will not be possible to call `onlyOwner` functions anymore. Can only be called by the current owner. NOTE: Renouncing ownership will leave the contract without an owner, thereby removing any functionality that is only available to the owner."
      },
      "safeTransferFrom(address,address,uint256)": {
        "details": "See {IERC721-safeTransferFrom}."
      },
      "safeTransferFrom(address,address,uint256,bytes)": {
        "details": "See {IERC721-safeTransferFrom}."
      },
      "setApprovalForAll(address,bool)": {
        "details": "See {IERC721-setApprovalForAll}."
      },
      "supportsInterface(bytes4)": {
        "details": "See {IERC165-supportsInterface}."
      },
      "symbol()": {
        "details": "See {IERC721Metadata-symbol}."
      },
      "tokenByIndex(uint256)": {
        "details": "See {IERC721Enumerable-tokenByIndex}."
      },
      "tokenOfOwnerByIndex(address,uint256)": {
        "details": "See {IERC721Enumerable-tokenOfOwnerByIndex}."
      },
      "tokenURI(uint256)": {
        "details": "See {IERC721Metadata-tokenURI}."
      },
      "totalSupply()": {
        "details": "See {IERC721Enumerable-totalSupply}."
      },
      "transferFrom(address,address,uint256)": {
        "details": "See {IERC721-transferFrom}."
      },
      "transferOwnership(address)": {
        "details": "Transfers ownership of the contract to a new account (`newOwner`). Can only be called by the current owner."
      }
    },
    "version": 1
  },
  "userdoc": {
    "kind": "user",
    "methods": {},
    "version": 1
  }
}