{
  "contractName": "HornMarketplace",
  "abi": [
    {
      "inputs": [],
      "stateMutability": "nonpayable",
      "type": "constructor"
    },
    {
      "anonymous": false,
      "inputs": [
        {
          "indexed": true,
          "internalType": "address",
          "name": "owner",
          "type": "address"
        },
        {
          "indexed": true,
          "internalType": "address",
          "name": "approved",
          "type": "address"
        },
        {
          "indexed": true,
          "internalType": "uint256",
          "name": "tokenId",
          "type": "uint256"
        }
      ],
      "name": "Approval",
      "type": "event"
    },
    {
      "anonymous": false,
      "inputs": [
        {
          "indexed": true,
          "internalType": "address",
          "name": "owner",
          "type": "address"
        },
        {
          "indexed": true,
          "internalType": "address",
          "name": "operator",
          "type": "address"
        },
        {
          "indexed": false,
          "internalType": "bool",
          "name": "approved",
          "type": "bool"
        }
      ],
      "name": "ApprovalForAll",
      "type": "event"
    },
    {
      "anonymous": false,
      "inputs": [
        {
          "indexed": true,
          "internalType": "address",
          "name": "payee",
          "type": "address"
        },
        {
          "indexed": true,
          "internalType": "uint256",
          "name": "amountInWei",
          "type": "uint256"
        }
      ],
      "name": "DepositedToEscrow",
      "type": "event"
    },
    {
      "anonymous": false,
      "inputs": [
        {
          "indexed": true,
          "internalType": "uint256",
          "name": "hornId",
          "type": "uint256"
        },
        {
          "indexed": true,
          "internalType": "address",
          "name": "from",
          "type": "address"
        },
        {
          "indexed": true,
          "internalType": "address",
          "name": "to",
          "type": "address"
        }
      ],
      "name": "HornDeliveredAndNFTOwnershipTransferred",
      "type": "event"
    },
    {
      "anonymous": false,
      "inputs": [
        {
          "indexed": true,
          "internalType": "uint256",
          "name": "hornId",
          "type": "uint256"
        },
        {
          "indexed": true,
          "internalType": "address",
          "name": "seller",
          "type": "address"
        }
      ],
      "name": "HornListedForSale",
      "type": "event"
    },
    {
      "anonymous": false,
      "inputs": [
        {
          "indexed": true,
          "internalType": "uint256",
          "name": "hornId",
          "type": "uint256"
        },
        {
          "indexed": true,
          "internalType": "string",
          "name": "shipTo",
          "type": "string"
        },
        {
          "indexed": true,
          "internalType": "address",
          "name": "buyer",
          "type": "address"
        }
      ],
      "name": "HornPurchased",
      "type": "event"
    },
    {
      "anonymous": false,
      "inputs": [
        {
          "indexed": true,
          "internalType": "uint256",
          "name": "hornId",
          "type": "uint256"
        },
        {
          "indexed": true,
          "internalType": "string",
          "name": "shipTo",
          "type": "string"
        },
        {
          "indexed": true,
          "internalType": "address",
          "name": "to",
          "type": "address"
        }
      ],
      "name": "HornShipped",
      "type": "event"
    },
    {
      "anonymous": false,
      "inputs": [
        {
          "indexed": true,
          "internalType": "address",
          "name": "previousOwner",
          "type": "address"
        },
        {
          "indexed": true,
          "internalType": "address",
          "name": "newOwner",
          "type": "address"
        }
      ],
      "name": "OwnershipTransferred",
      "type": "event"
    },
    {
      "anonymous": false,
      "inputs": [
        {
          "indexed": true,
          "internalType": "uint256",
          "name": "hornId",
          "type": "uint256"
        },
        {
          "indexed": true,
          "internalType": "address",
          "name": "payer",
          "type": "address"
        },
        {
          "indexed": true,
          "internalType": "address",
          "name": "payee",
          "type": "address"
        }
      ],
      "name": "SellerPaid",
      "type": "event"
    },
    {
      "anonymous": false,
      "inputs": [
        {
          "indexed": true,
          "internalType": "address",
          "name": "from",
          "type": "address"
        },
        {
          "indexed": true,
          "internalType": "address",
          "name": "to",
          "type": "address"
        },
        {
          "indexed": true,
          "internalType": "uint256",
          "name": "tokenId",
          "type": "uint256"
        }
      ],
      "name": "Transfer",
      "type": "event"
    },
    {
      "anonymous": false,
      "inputs": [
        {
          "indexed": true,
          "internalType": "address",
          "name": "payee",
          "type": "address"
        },
        {
          "indexed": true,
          "internalType": "uint256",
          "name": "amountInWei",
          "type": "uint256"
        }
      ],
      "name": "WithdrawnFromEscrow",
      "type": "event"
    },
    {
      "inputs": [
        {
          "internalType": "address",
          "name": "to",
          "type": "address"
        },
        {
          "internalType": "uint256",
          "name": "tokenId",
          "type": "uint256"
        }
      ],
      "name": "approve",
      "outputs": [],
      "stateMutability": "nonpayable",
      "type": "function"
    },
    {
      "inputs": [
        {
          "internalType": "address",
          "name": "owner",
          "type": "address"
        }
      ],
      "name": "balanceOf",
      "outputs": [
        {
          "internalType": "uint256",
          "name": "",
          "type": "uint256"
        }
      ],
      "stateMutability": "view",
      "type": "function"
    },
    {
      "inputs": [
        {
          "internalType": "uint256",
          "name": "tokenId",
          "type": "uint256"
        }
      ],
      "name": "getApproved",
      "outputs": [
        {
          "internalType": "address",
          "name": "",
          "type": "address"
        }
      ],
      "stateMutability": "view",
      "type": "function"
    },
    {
      "inputs": [
        {
          "internalType": "address",
          "name": "owner",
          "type": "address"
        },
        {
          "internalType": "address",
          "name": "operator",
          "type": "address"
        }
      ],
      "name": "isApprovedForAll",
      "outputs": [
        {
          "internalType": "bool",
          "name": "",
          "type": "bool"
        }
      ],
      "stateMutability": "view",
      "type": "function"
    },
    {
      "inputs": [],
      "name": "name",
      "outputs": [
        {
          "internalType": "string",
          "name": "",
          "type": "string"
        }
      ],
      "stateMutability": "view",
      "type": "function"
    },
    {
      "inputs": [],
      "name": "owner",
      "outputs": [
        {
          "internalType": "address",
          "name": "",
          "type": "address"
        }
      ],
      "stateMutability": "view",
      "type": "function"
    },
    {
      "inputs": [
        {
          "internalType": "uint256",
          "name": "tokenId",
          "type": "uint256"
        }
      ],
      "name": "ownerOf",
      "outputs": [
        {
          "internalType": "address",
          "name": "",
          "type": "address"
        }
      ],
      "stateMutability": "view",
      "type": "function"
    },
    {
      "inputs": [],
      "name": "renounceOwnership",
      "outputs": [],
      "stateMutability": "nonpayable",
      "type": "function"
    },
    {
      "inputs": [
        {
          "internalType": "address",
          "name": "from",
          "type": "address"
        },
        {
          "internalType": "address",
          "name": "to",
          "type": "address"
        },
        {
          "internalType": "uint256",
          "name": "tokenId",
          "type": "uint256"
        }
      ],
      "name": "safeTransferFrom",
      "outputs": [],
      "stateMutability": "nonpayable",
      "type": "function"
    },
    {
      "inputs": [
        {
          "internalType": "address",
          "name": "from",
          "type": "address"
        },
        {
          "internalType": "address",
          "name": "to",
          "type": "address"
        },
        {
          "internalType": "uint256",
          "name": "tokenId",
          "type": "uint256"
        },
        {
          "internalType": "bytes",
          "name": "_data",
          "type": "bytes"
        }
      ],
      "name": "safeTransferFrom",
      "outputs": [],
      "stateMutability": "nonpayable",
      "type": "function"
    },
    {
      "inputs": [
        {
          "internalType": "address",
          "name": "operator",
          "type": "address"
        },
        {
          "internalType": "bool",
          "name": "approved",
          "type": "bool"
        }
      ],
      "name": "setApprovalForAll",
      "outputs": [],
      "stateMutability": "nonpayable",
      "type": "function"
    },
    {
      "inputs": [
        {
          "internalType": "bytes4",
          "name": "interfaceId",
          "type": "bytes4"
        }
      ],
      "name": "supportsInterface",
      "outputs": [
        {
          "internalType": "bool",
          "name": "",
          "type": "bool"
        }
      ],
      "stateMutability": "view",
      "type": "function"
    },
    {
      "inputs": [],
      "name": "symbol",
      "outputs": [
        {
          "internalType": "string",
          "name": "",
          "type": "string"
        }
      ],
      "stateMutability": "view",
      "type": "function"
    },
    {
      "inputs": [
        {
          "internalType": "uint256",
          "name": "index",
          "type": "uint256"
        }
      ],
      "name": "tokenByIndex",
      "outputs": [
        {
          "internalType": "uint256",
          "name": "",
          "type": "uint256"
        }
      ],
      "stateMutability": "view",
      "type": "function"
    },
    {
      "inputs": [
        {
          "internalType": "address",
          "name": "owner",
          "type": "address"
        },
        {
          "internalType": "uint256",
          "name": "index",
          "type": "uint256"
        }
      ],
      "name": "tokenOfOwnerByIndex",
      "outputs": [
        {
          "internalType": "uint256",
          "name": "",
          "type": "uint256"
        }
      ],
      "stateMutability": "view",
      "type": "function"
    },
    {
      "inputs": [
        {
          "internalType": "uint256",
          "name": "tokenId",
          "type": "uint256"
        }
      ],
      "name": "tokenURI",
      "outputs": [
        {
          "internalType": "string",
          "name": "",
          "type": "string"
        }
      ],
      "stateMutability": "view",
      "type": "function"
    },
    {
      "inputs": [],
      "name": "totalSupply",
      "outputs": [
        {
          "internalType": "uint256",
          "name": "",
          "type": "uint256"
        }
      ],
      "stateMutability": "view",
      "type": "function"
    },
    {
      "inputs": [
        {
          "internalType": "address",
          "name": "from",
          "type": "address"
        },
        {
          "internalType": "address",
          "name": "to",
          "type": "address"
        },
        {
          "internalType": "uint256",
          "name": "tokenId",
          "type": "uint256"
        }
      ],
      "name": "transferFrom",
      "outputs": [],
      "stateMutability": "nonpayable",
      "type": "function"
    },
    {
      "inputs": [
        {
          "internalType": "address",
          "name": "newOwner",
          "type": "address"
        }
      ],
      "name": "transferOwnership",
      "outputs": [],
      "stateMutability": "nonpayable",
      "type": "function"
    },
    {
      "inputs": [
        {
          "internalType": "string",
          "name": "_make",
          "type": "string"
        },
        {
          "internalType": "string",
          "name": "_model",
          "type": "string"
        },
        {
          "internalType": "string",
          "name": "_style",
          "type": "string"
        },
        {
          "internalType": "uint32",
          "name": "_serialNumber",
          "type": "uint32"
        },
        {
          "internalType": "uint32",
          "name": "_desiredPrice",
          "type": "uint32"
        }
      ],
      "name": "mintThenListNewHornNFT",
      "outputs": [
        {
          "internalType": "uint256",
          "name": "",
          "type": "uint256"
        }
      ],
      "stateMutability": "nonpayable",
      "type": "function"
    },
    {
      "inputs": [
        {
          "internalType": "uint256",
          "name": "__hornId",
          "type": "uint256"
        },
        {
          "internalType": "string",
          "name": "_shipTo",
          "type": "string"
        }
      ],
      "name": "purchaseHornByHornId",
      "outputs": [],
      "stateMutability": "payable",
      "type": "function"
    },
    {
      "inputs": [
        {
          "internalType": "uint256",
          "name": "__hornId",
          "type": "uint256"
        },
        {
          "internalType": "string",
          "name": "shippedTo",
          "type": "string"
        }
      ],
      "name": "markHornShipped",
      "outputs": [],
      "stateMutability": "nonpayable",
      "type": "function"
    },
    {
      "inputs": [
        {
          "internalType": "uint256",
          "name": "__hornId",
          "type": "uint256"
        }
      ],
      "name": "markHornDeliveredAndOwnershipTransferred",
      "outputs": [
        {
          "internalType": "uint256",
          "name": "",
          "type": "uint256"
        }
      ],
      "stateMutability": "nonpayable",
      "type": "function"
    },
    {
      "inputs": [],
      "name": "getCurrentHornsForSale",
      "outputs": [
        {
          "internalType": "uint256[]",
          "name": "",
          "type": "uint256[]"
        }
      ],
      "stateMutability": "view",
      "type": "function"
    },
    {
      "inputs": [
        {
          "internalType": "uint256",
          "name": "__hornId",
          "type": "uint256"
        }
      ],
      "name": "getListPriceByHornId",
      "outputs": [
        {
          "internalType": "uint32",
          "name": "",
          "type": "uint32"
        }
      ],
      "stateMutability": "view",
      "type": "function"
    },
    {
      "inputs": [
        {
          "internalType": "uint256",
          "name": "__hornId",
          "type": "uint256"
        }
      ],
      "name": "getCurrentOwnerByHornId",
      "outputs": [
        {
          "internalType": "address",
          "name": "",
          "type": "address"
        }
      ],
      "stateMutability": "view",
      "type": "function"
    },
    {
      "inputs": [
        {
          "internalType": "uint256",
          "name": "__hornId",
          "type": "uint256"
        }
      ],
      "name": "getStatusOfHornbyHornId",
      "outputs": [
        {
          "internalType": "enum HornMarketplace.HornStatus",
          "name": "",
          "type": "uint8"
        }
      ],
      "stateMutability": "view",
      "type": "function"
    },
    {
      "inputs": [
        {
          "internalType": "address",
          "name": "payee",
          "type": "address"
        }
      ],
      "name": "getEscrowDepositValue",
      "outputs": [
        {
          "internalType": "uint256",
          "name": "",
          "type": "uint256"
        }
      ],
      "stateMutability": "view",
      "type": "function"
    }
  ],
  "bytecode": "0x60806040523480156200001157600080fd5b506040518060400160405280600481526020017f486f726e000000000000000000000000000000000000000000000000000000008152506040518060400160405280600481526020017f484f524e000000000000000000000000000000000000000000000000000000008152506200009e620000926200014460201b60201c565b6200014c60201b60201c565b8160019080519060200190620000b692919062000210565b508060029080519060200190620000cf92919062000210565b505050604051620000e090620002a1565b604051809103906000f080158015620000fd573d6000803e3d6000fd5b50600c60006101000a81548173ffffffffffffffffffffffffffffffffffffffff021916908373ffffffffffffffffffffffffffffffffffffffff16021790555062000333565b600033905090565b60008060009054906101000a900473ffffffffffffffffffffffffffffffffffffffff169050816000806101000a81548173ffffffffffffffffffffffffffffffffffffffff021916908373ffffffffffffffffffffffffffffffffffffffff1602179055508173ffffffffffffffffffffffffffffffffffffffff168173ffffffffffffffffffffffffffffffffffffffff167f8be0079c531659141344cd1fd0a4f28419497f9722a3daafe3b4186f6b6457e060405160405180910390a35050565b8280546200021e90620002ce565b90600052602060002090601f0160209004810192826200024257600085556200028e565b82601f106200025d57805160ff19168380011785556200028e565b828001600101855582156200028e579182015b828111156200028d57825182559160200191906001019062000270565b5b5090506200029d9190620002af565b5090565b610ccd806200579d83390190565b5b80821115620002ca576000816000905550600101620002b0565b5090565b60006002820490506001821680620002e757607f821691505b60208210811415620002fe57620002fd62000304565b5b50919050565b7f4e487b7100000000000000000000000000000000000000000000000000000000600052602260045260246000fd5b61545a80620003436000396000f3fe6080604052600436106101b75760003560e01c806365f3b675116100ec578063b7d002f41161008a578063cf44981a11610064578063cf44981a1461066f578063e985e9c514610698578063f2fde38b146106d5578063fd92de01146106fe576101b7565b8063b7d002f4146105cc578063b88d4fde14610609578063c87b56dd14610632576101b7565b80638da5cb5b116100c65780638da5cb5b1461052257806395d89b411461054d5780639896043514610578578063a22cb465146105a3576101b7565b806365f3b6751461049157806370a08231146104ce578063715018a61461050b576101b7565b806323b872dd116101595780633a770745116101335780633a770745146103d257806342842e0e146103ee5780634f6ccce7146104175780636352211e14610454576101b7565b806323b872dd1461032f5780632c83e3f4146103585780632f745c5914610395576101b7565b8063095ea7b311610195578063095ea7b314610261578063154abfb21461028a57806318160ddd146102c757806319df66f4146102f2576101b7565b806301ffc9a7146101bc57806306fdde03146101f9578063081812fc14610224575b600080fd5b3480156101c857600080fd5b506101e360048036038101906101de9190613b67565b61073b565b6040516101f09190614b07565b60405180910390f35b34801561020557600080fd5b5061020e6107b5565b60405161021b9190614b3d565b60405180910390f35b34801561023057600080fd5b5061024b60048036038101906102469190613c85565b610847565b6040516102589190614a48565b60405180910390f35b34801561026d57600080fd5b5061028860048036038101906102839190613b2b565b6108cc565b005b34801561029657600080fd5b506102b160048036038101906102ac9190613c85565b6109e4565b6040516102be9190614b22565b60405180910390f35b3480156102d357600080fd5b506102dc610a11565b6040516102e99190614edf565b60405180910390f35b3480156102fe57600080fd5b50610319600480360381019061031491906139c0565b610a1e565b6040516103269190614edf565b60405180910390f35b34801561033b57600080fd5b5061035660048036038101906103519190613a25565b610ad1565b005b34801561036457600080fd5b5061037f600480360381019061037a9190613bb9565b610b31565b60405161038c9190614edf565b60405180910390f35b3480156103a157600080fd5b506103bc60048036038101906103b79190613b2b565b610ed6565b6040516103c99190614edf565b60405180910390f35b6103ec60048036038101906103e79190613cd7565b610f7b565b005b3480156103fa57600080fd5b5061041560048036038101906104109190613a25565b6113e3565b005b34801561042357600080fd5b5061043e60048036038101906104399190613c85565b611403565b60405161044b9190614edf565b60405180910390f35b34801561046057600080fd5b5061047b60048036038101906104769190613c85565b61149a565b6040516104889190614a48565b60405180910390f35b34801561049d57600080fd5b506104b860048036038101906104b39190613c85565b61154c565b6040516104c59190614a48565b60405180910390f35b3480156104da57600080fd5b506104f560048036038101906104f091906139c0565b611589565b6040516105029190614edf565b60405180910390f35b34801561051757600080fd5b50610520611641565b005b34801561052e57600080fd5b506105376116c9565b6040516105449190614a48565b60405180910390f35b34801561055957600080fd5b506105626116f2565b60405161056f9190614b3d565b60405180910390f35b34801561058457600080fd5b5061058d611784565b60405161059a9190614ae5565b60405180910390f35b3480156105af57600080fd5b506105ca60048036038101906105c59190613aef565b611789565b005b3480156105d857600080fd5b506105f360048036038101906105ee9190613c85565b61190a565b6040516106009190614edf565b60405180910390f35b34801561061557600080fd5b50610630600480360381019061062b9190613a74565b611f64565b005b34801561063e57600080fd5b5061065960048036038101906106549190613c85565b611fc6565b6040516106669190614b3d565b60405180910390f35b34801561067b57600080fd5b5061069660048036038101906106919190613cd7565b61206d565b005b3480156106a457600080fd5b506106bf60048036038101906106ba91906139e9565b6124d2565b6040516106cc9190614b07565b60405180910390f35b3480156106e157600080fd5b506106fc60048036038101906106f791906139c0565b612566565b005b34801561070a57600080fd5b5061072560048036038101906107209190613c85565b61265e565b6040516107329190614efa565b60405180910390f35b60007f780e9d63000000000000000000000000000000000000000000000000000000007bffffffffffffffffffffffffffffffffffffffffffffffffffffffff1916827bffffffffffffffffffffffffffffffffffffffffffffffffffffffff191614806107ae57506107ad8261268e565b5b9050919050565b6060600180546107c4906151f5565b80601f01602080910402602001604051908101604052809291908181526020018280546107f0906151f5565b801561083d5780601f106108125761010080835404028352916020019161083d565b820191906000526020600020905b81548152906001019060200180831161082057829003601f168201915b5050505050905090565b600061085282612770565b610891576040517f08c379a000000000000000000000000000000000000000000000000000000000815260040161088890614d7f565b60405180910390fd5b6005600083815260200190815260200160002060009054906101000a900473ffffffffffffffffffffffffffffffffffffffff169050919050565b60006108d78261149a565b90508073ffffffffffffffffffffffffffffffffffffffff168373ffffffffffffffffffffffffffffffffffffffff161415610948576040517f08c379a000000000000000000000000000000000000000000000000000000000815260040161093f90614e5f565b60405180910390fd5b8073ffffffffffffffffffffffffffffffffffffffff166109676127dc565b73ffffffffffffffffffffffffffffffffffffffff1614806109965750610995816109906127dc565b6124d2565b5b6109d5576040517f08c379a00000000000000000000000000000000000000000000000000000000081526004016109cc90614c5f565b60405180910390fd5b6109df83836127e4565b505050565b6000600e600083815260200190815260200160002060030160089054906101000a900460ff169050919050565b6000600980549050905090565b6000600c60009054906101000a900473ffffffffffffffffffffffffffffffffffffffff1673ffffffffffffffffffffffffffffffffffffffff1663e3a9db1a836040518263ffffffff1660e01b8152600401610a7b9190614a48565b60206040518083038186803b158015610a9357600080fd5b505afa158015610aa7573d6000803e3d6000fd5b505050506040513d601f19601f82011682018060405250810190610acb9190613cae565b50919050565b610ae2610adc6127dc565b8261289d565b610b21576040517f08c379a0000000000000000000000000000000000000000000000000000000008152600401610b1890614e7f565b60405180910390fd5b610b2c83838361297b565b505050565b6000610b3d600b612bd7565b6000610b49600b612bed565b9050610b553382612bfb565b6040518060e001604052808b8b8080601f016020809104026020016040519081016040528093929190818152602001838380828437600081840152601f19601f82011690508083019250505050505050815260200189898080601f016020809104026020016040519081016040528093929190818152602001838380828437600081840152601f19601f82011690508083019250505050505050815260200187878080601f016020809104026020016040519081016040528093929190818152602001838380828437600081840152601f19601f8201169050808301925050505050505081526020018563ffffffff1681526020018463ffffffff16815260200160006003811115610c90577f4e487b7100000000000000000000000000000000000000000000000000000000600052602160045260246000fd5b81526020013373ffffffffffffffffffffffffffffffffffffffff16815250600e60008381526020019081526020016000206000820151816000019080519060200190610cde929190613752565b506020820151816001019080519060200190610cfb929190613752565b506040820151816002019080519060200190610d18929190613752565b5060608201518160030160006101000a81548163ffffffff021916908363ffffffff16021790555060808201518160030160046101000a81548163ffffffff021916908363ffffffff16021790555060a08201518160030160086101000a81548160ff02191690836003811115610db8577f4e487b7100000000000000000000000000000000000000000000000000000000600052602160045260246000fd5b021790555060c08201518160030160096101000a81548173ffffffffffffffffffffffffffffffffffffffff021916908373ffffffffffffffffffffffffffffffffffffffff16021790555090505033600f600083815260200190815260200160002060006101000a81548173ffffffffffffffffffffffffffffffffffffffff021916908373ffffffffffffffffffffffffffffffffffffffff160217905550600d8190806001815401808255809150506001900390600052602060002001600090919091909150553373ffffffffffffffffffffffffffffffffffffffff16817f23920e31dc4b1b5c5cc31f7b496ab53fa223a215643aa65e54a60188d585a2c560405160405180910390a38091505098975050505050505050565b6000610ee183611589565b8210610f22576040517f08c379a0000000000000000000000000000000000000000000000000000000008152600401610f1990614b7f565b60405180910390fd5b600760008473ffffffffffffffffffffffffffffffffffffffff1673ffffffffffffffffffffffffffffffffffffffff168152602001908152602001600020600083815260200190815260200160002054905092915050565b826000600e600083815260200190815260200160002060030160049054906101000a900463ffffffff1663ffffffff1611610feb576040517f08c379a0000000000000000000000000000000000000000000000000000000008152600401610fe290614ddf565b60405180910390fd5b6000600e600083815260200190815260200160002060030160089054906101000a900460ff166003811115611049577f4e487b7100000000000000000000000000000000000000000000000000000000600052602160045260246000fd5b14611089576040517f08c379a000000000000000000000000000000000000000000000000000000000815260040161108090614d1f565b60405180910390fd5b83600e600082815260200190815260200160002060030160049054906101000a900463ffffffff1663ffffffff1634146110f8576040517f08c379a00000000000000000000000000000000000000000000000000000000081526004016110ef90614b5f565b60405180910390fd5b600c60009054906101000a900473ffffffffffffffffffffffffffffffffffffffff1673ffffffffffffffffffffffffffffffffffffffff1663f340fa01600f600088815260200190815260200160002060009054906101000a900473ffffffffffffffffffffffffffffffffffffffff166040518263ffffffff1660e01b81526004016111869190614a48565b600060405180830381600087803b1580156111a057600080fd5b505af11580156111b4573d6000803e3d6000fd5b505050508383601160003373ffffffffffffffffffffffffffffffffffffffff1673ffffffffffffffffffffffffffffffffffffffff16815260200190815260200160002091906112069291906137d8565b50336010600087815260200190815260200160002060006101000a81548173ffffffffffffffffffffffffffffffffffffffff021916908373ffffffffffffffffffffffffffffffffffffffff1602179055506001600e600087815260200190815260200160002060030160086101000a81548160ff021916908360038111156112b9577f4e487b7100000000000000000000000000000000000000000000000000000000600052602160045260246000fd5b0217905550600d85815481106112f8577f4e487b7100000000000000000000000000000000000000000000000000000000600052603260045260246000fd5b90600052602060002001600090553373ffffffffffffffffffffffffffffffffffffffff16848460405161132d9291906149f4565b6040518091039020867fdbca9a11cad69a5ab275fd9838feb30068a34f31d0f876d995c14a8dd906f70960405160405180910390a434600e600087815260200190815260200160002060030160099054906101000a900473ffffffffffffffffffffffffffffffffffffffff1673ffffffffffffffffffffffffffffffffffffffff167fe6138e0eb7be5ea87d2296f3ad7469a8364406bface7d4e5de0a21dce1841cdd60405160405180910390a35050505050565b6113fe83838360405180602001604052806000815250611f64565b505050565b600061140d610a11565b821061144e576040517f08c379a000000000000000000000000000000000000000000000000000000000815260040161144590614e9f565b60405180910390fd5b60098281548110611488577f4e487b7100000000000000000000000000000000000000000000000000000000600052603260045260246000fd5b90600052602060002001549050919050565b6000806003600084815260200190815260200160002060009054906101000a900473ffffffffffffffffffffffffffffffffffffffff169050600073ffffffffffffffffffffffffffffffffffffffff168173ffffffffffffffffffffffffffffffffffffffff161415611543576040517f08c379a000000000000000000000000000000000000000000000000000000000815260040161153a90614cbf565b60405180910390fd5b80915050919050565b6000600f600083815260200190815260200160002060009054906101000a900473ffffffffffffffffffffffffffffffffffffffff169050919050565b60008073ffffffffffffffffffffffffffffffffffffffff168273ffffffffffffffffffffffffffffffffffffffff1614156115fa576040517f08c379a00000000000000000000000000000000000000000000000000000000081526004016115f190614c9f565b60405180910390fd5b600460008373ffffffffffffffffffffffffffffffffffffffff1673ffffffffffffffffffffffffffffffffffffffff168152602001908152602001600020549050919050565b6116496127dc565b73ffffffffffffffffffffffffffffffffffffffff166116676116c9565b73ffffffffffffffffffffffffffffffffffffffff16146116bd576040517f08c379a00000000000000000000000000000000000000000000000000000000081526004016116b490614dbf565b60405180910390fd5b6116c76000612dc9565b565b60008060009054906101000a900473ffffffffffffffffffffffffffffffffffffffff16905090565b606060028054611701906151f5565b80601f016020809104026020016040519081016040528092919081815260200182805461172d906151f5565b801561177a5780601f1061174f5761010080835404028352916020019161177a565b820191906000526020600020905b81548152906001019060200180831161175d57829003601f168201915b5050505050905090565b606090565b6117916127dc565b73ffffffffffffffffffffffffffffffffffffffff168273ffffffffffffffffffffffffffffffffffffffff1614156117ff576040517f08c379a00000000000000000000000000000000000000000000000000000000081526004016117f690614c1f565b60405180910390fd5b806006600061180c6127dc565b73ffffffffffffffffffffffffffffffffffffffff1673ffffffffffffffffffffffffffffffffffffffff16815260200190815260200160002060008473ffffffffffffffffffffffffffffffffffffffff1673ffffffffffffffffffffffffffffffffffffffff16815260200190815260200160002060006101000a81548160ff0219169083151502179055508173ffffffffffffffffffffffffffffffffffffffff166118b96127dc565b73ffffffffffffffffffffffffffffffffffffffff167f17307eab39ab6107e8899845ad3d59bd9653f200f220920489ca2b5937696c31836040516118fe9190614b07565b60405180910390a35050565b6000813373ffffffffffffffffffffffffffffffffffffffff166010600083815260200190815260200160002060009054906101000a900473ffffffffffffffffffffffffffffffffffffffff1673ffffffffffffffffffffffffffffffffffffffff16146119ae576040517f08c379a00000000000000000000000000000000000000000000000000000000081526004016119a590614cff565b60405180910390fd5b826119b9308261289d565b6119f8576040517f08c379a00000000000000000000000000000000000000000000000000000000081526004016119ef90614c7f565b60405180910390fd5b6002600e600083815260200190815260200160002060030160089054906101000a900460ff166003811115611a56577f4e487b7100000000000000000000000000000000000000000000000000000000600052602160045260246000fd5b14611a96576040517f08c379a0000000000000000000000000000000000000000000000000000000008152600401611a8d90614ebf565b60405180910390fd5b6000600c60009054906101000a900473ffffffffffffffffffffffffffffffffffffffff1673ffffffffffffffffffffffffffffffffffffffff1663e3a9db1a600e600088815260200190815260200160002060030160099054906101000a900473ffffffffffffffffffffffffffffffffffffffff166040518263ffffffff1660e01b8152600401611b299190614a63565b60206040518083038186803b158015611b4157600080fd5b505afa158015611b55573d6000803e3d6000fd5b505050506040513d601f19601f82011682018060405250810190611b799190613cae565b9050600c60009054906101000a900473ffffffffffffffffffffffffffffffffffffffff1673ffffffffffffffffffffffffffffffffffffffff166351cff8d9600e600088815260200190815260200160002060030160099054906101000a900473ffffffffffffffffffffffffffffffffffffffff166040518263ffffffff1660e01b8152600401611c0c9190614a7e565b600060405180830381600087803b158015611c2657600080fd5b505af1158015611c3a573d6000803e3d6000fd5b5050505060006010600087815260200190815260200160002060006101000a81548173ffffffffffffffffffffffffffffffffffffffff021916908373ffffffffffffffffffffffffffffffffffffffff16021790555060405180602001604052806000815250601160003373ffffffffffffffffffffffffffffffffffffffff1673ffffffffffffffffffffffffffffffffffffffff1681526020019081526020016000209080519060200190611cf3929190613752565b506003600e600087815260200190815260200160002060030160086101000a81548160ff02191690836003811115611d54577f4e487b7100000000000000000000000000000000000000000000000000000000600052602160045260246000fd5b021790555033600e600087815260200190815260200160002060030160096101000a81548173ffffffffffffffffffffffffffffffffffffffff021916908373ffffffffffffffffffffffffffffffffffffffff1602179055506000600f600087815260200190815260200160002060009054906101000a900473ffffffffffffffffffffffffffffffffffffffff1690503373ffffffffffffffffffffffffffffffffffffffff16600f600088815260200190815260200160002060009054906101000a90505050611e5e600e600088815260200190815260200160002060030160099054906101000a900473ffffffffffffffffffffffffffffffffffffffff1633886113e3565b3373ffffffffffffffffffffffffffffffffffffffff168173ffffffffffffffffffffffffffffffffffffffff16877f86ff2a738e00d7cf2613e4bd44ae641e080a2877f978be45ac950525d26d04c560405160405180910390a43373ffffffffffffffffffffffffffffffffffffffff168173ffffffffffffffffffffffffffffffffffffffff16877ffc99b02f822d46feedca53aafaa97c596bf87bb34925d350b64a13275388de4a60405160405180910390a4818173ffffffffffffffffffffffffffffffffffffffff167f033e0f8c9aa8fcdd1b01ad637814ecdb49b6ddc7445f13555d21b3c2959b5d1f60405160405180910390a381945050505050919050565b611f75611f6f6127dc565b8361289d565b611fb4576040517f08c379a0000000000000000000000000000000000000000000000000000000008152600401611fab90614e7f565b60405180910390fd5b611fc084848484612e8d565b50505050565b6060611fd182612770565b612010576040517f08c379a000000000000000000000000000000000000000000000000000000000815260040161200790614e1f565b60405180910390fd5b600061201a612ee9565b9050600081511161203a5760405180602001604052806000815250612065565b8061204484612f00565b604051602001612055929190614a0d565b6040516020818303038152906040525b915050919050565b823373ffffffffffffffffffffffffffffffffffffffff16600f600083815260200190815260200160002060009054906101000a900473ffffffffffffffffffffffffffffffffffffffff1673ffffffffffffffffffffffffffffffffffffffff161461210f576040517f08c379a000000000000000000000000000000000000000000000000000000000815260040161210690614d5f565b60405180910390fd5b83600e600082815260200190815260200160002060030160049054906101000a900463ffffffff1663ffffffff16600c60009054906101000a900473ffffffffffffffffffffffffffffffffffffffff1673ffffffffffffffffffffffffffffffffffffffff1663e3a9db1a336040518263ffffffff1660e01b81526004016121989190614a48565b60206040518083038186803b1580156121b057600080fd5b505afa1580156121c4573d6000803e3d6000fd5b505050506040513d601f19601f820116820180604052508101906121e89190613cae565b14612228576040517f08c379a000000000000000000000000000000000000000000000000000000000815260040161221f90614d9f565b60405180910390fd5b6001600e600083815260200190815260200160002060030160089054906101000a900460ff166003811115612286577f4e487b7100000000000000000000000000000000000000000000000000000000600052602160045260246000fd5b146122c6576040517f08c379a00000000000000000000000000000000000000000000000000000000081526004016122bd90614cdf565b60405180910390fd5b60006010600087815260200190815260200160002060009054906101000a900473ffffffffffffffffffffffffffffffffffffffff169050601160008273ffffffffffffffffffffffffffffffffffffffff1673ffffffffffffffffffffffffffffffffffffffff16815260200190815260200160002060405160200161234d9190614a31565b6040516020818303038152906040528051906020012085856040516020016123769291906149f4565b60405160208183030381529060405280519060200120146123cc576040517f08c379a00000000000000000000000000000000000000000000000000000000081526004016123c390614e3f565b60405180910390fd5b6002600e600088815260200190815260200160002060030160086101000a81548160ff0219169083600381111561242c577f4e487b7100000000000000000000000000000000000000000000000000000000600052602160045260246000fd5b021790555061243b30876108cc565b6010600087815260200190815260200160002060009054906101000a900473ffffffffffffffffffffffffffffffffffffffff1673ffffffffffffffffffffffffffffffffffffffff1685856040516124959291906149f4565b6040518091039020877f39fd051deea672a32743d0c813cc2c161b3dacddbff9e2415abc2acbf2e088fb60405160405180910390a4505050505050565b6000600660008473ffffffffffffffffffffffffffffffffffffffff1673ffffffffffffffffffffffffffffffffffffffff16815260200190815260200160002060008373ffffffffffffffffffffffffffffffffffffffff1673ffffffffffffffffffffffffffffffffffffffff16815260200190815260200160002060009054906101000a900460ff16905092915050565b61256e6127dc565b73ffffffffffffffffffffffffffffffffffffffff1661258c6116c9565b73ffffffffffffffffffffffffffffffffffffffff16146125e2576040517f08c379a00000000000000000000000000000000000000000000000000000000081526004016125d990614dbf565b60405180910390fd5b600073ffffffffffffffffffffffffffffffffffffffff168173ffffffffffffffffffffffffffffffffffffffff161415612652576040517f08c379a000000000000000000000000000000000000000000000000000000000815260040161264990614bbf565b60405180910390fd5b61265b81612dc9565b50565b6000600e600083815260200190815260200160002060030160049054906101000a900463ffffffff169050919050565b60007f80ac58cd000000000000000000000000000000000000000000000000000000007bffffffffffffffffffffffffffffffffffffffffffffffffffffffff1916827bffffffffffffffffffffffffffffffffffffffffffffffffffffffff1916148061275957507f5b5e139f000000000000000000000000000000000000000000000000000000007bffffffffffffffffffffffffffffffffffffffffffffffffffffffff1916827bffffffffffffffffffffffffffffffffffffffffffffffffffffffff1916145b806127695750612768826130ad565b5b9050919050565b60008073ffffffffffffffffffffffffffffffffffffffff166003600084815260200190815260200160002060009054906101000a900473ffffffffffffffffffffffffffffffffffffffff1673ffffffffffffffffffffffffffffffffffffffff1614159050919050565b600033905090565b816005600083815260200190815260200160002060006101000a81548173ffffffffffffffffffffffffffffffffffffffff021916908373ffffffffffffffffffffffffffffffffffffffff160217905550808273ffffffffffffffffffffffffffffffffffffffff166128578361149a565b73ffffffffffffffffffffffffffffffffffffffff167f8c5be1e5ebec7d5bd14f71427d1e84f3dd0314c0f7b2291e5b200ac8c7c3b92560405160405180910390a45050565b60006128a882612770565b6128e7576040517f08c379a00000000000000000000000000000000000000000000000000000000081526004016128de90614c3f565b60405180910390fd5b60006128f28361149a565b90508073ffffffffffffffffffffffffffffffffffffffff168473ffffffffffffffffffffffffffffffffffffffff16148061296157508373ffffffffffffffffffffffffffffffffffffffff1661294984610847565b73ffffffffffffffffffffffffffffffffffffffff16145b80612972575061297181856124d2565b5b91505092915050565b8273ffffffffffffffffffffffffffffffffffffffff1661299b8261149a565b73ffffffffffffffffffffffffffffffffffffffff16146129f1576040517f08c379a00000000000000000000000000000000000000000000000000000000081526004016129e890614dff565b60405180910390fd5b600073ffffffffffffffffffffffffffffffffffffffff168273ffffffffffffffffffffffffffffffffffffffff161415612a61576040517f08c379a0000000000000000000000000000000000000000000000000000000008152600401612a5890614bff565b60405180910390fd5b612a6c838383613117565b612a776000826127e4565b6001600460008573ffffffffffffffffffffffffffffffffffffffff1673ffffffffffffffffffffffffffffffffffffffff1681526020019081526020016000206000828254612ac7919061508e565b925050819055506001600460008473ffffffffffffffffffffffffffffffffffffffff1673ffffffffffffffffffffffffffffffffffffffff1681526020019081526020016000206000828254612b1e9190615007565b92505081905550816003600083815260200190815260200160002060006101000a81548173ffffffffffffffffffffffffffffffffffffffff021916908373ffffffffffffffffffffffffffffffffffffffff160217905550808273ffffffffffffffffffffffffffffffffffffffff168473ffffffffffffffffffffffffffffffffffffffff167fddf252ad1be2c89b69c2b068fc378daa952ba7f163c4a11628f55a4df523b3ef60405160405180910390a4505050565b6001816000016000828254019250508190555050565b600081600001549050919050565b600073ffffffffffffffffffffffffffffffffffffffff168273ffffffffffffffffffffffffffffffffffffffff161415612c6b576040517f08c379a0000000000000000000000000000000000000000000000000000000008152600401612c6290614d3f565b60405180910390fd5b612c7481612770565b15612cb4576040517f08c379a0000000000000000000000000000000000000000000000000000000008152600401612cab90614bdf565b60405180910390fd5b612cc060008383613117565b6001600460008473ffffffffffffffffffffffffffffffffffffffff1673ffffffffffffffffffffffffffffffffffffffff1681526020019081526020016000206000828254612d109190615007565b92505081905550816003600083815260200190815260200160002060006101000a81548173ffffffffffffffffffffffffffffffffffffffff021916908373ffffffffffffffffffffffffffffffffffffffff160217905550808273ffffffffffffffffffffffffffffffffffffffff16600073ffffffffffffffffffffffffffffffffffffffff167fddf252ad1be2c89b69c2b068fc378daa952ba7f163c4a11628f55a4df523b3ef60405160405180910390a45050565b60008060009054906101000a900473ffffffffffffffffffffffffffffffffffffffff169050816000806101000a81548173ffffffffffffffffffffffffffffffffffffffff021916908373ffffffffffffffffffffffffffffffffffffffff1602179055508173ffffffffffffffffffffffffffffffffffffffff168173ffffffffffffffffffffffffffffffffffffffff167f8be0079c531659141344cd1fd0a4f28419497f9722a3daafe3b4186f6b6457e060405160405180910390a35050565b612e9884848461297b565b612ea48484848461322b565b612ee3576040517f08c379a0000000000000000000000000000000000000000000000000000000008152600401612eda90614b9f565b60405180910390fd5b50505050565b606060405180602001604052806000815250905090565b60606000821415612f48576040518060400160405280600181526020017f300000000000000000000000000000000000000000000000000000000000000081525090506130a8565b600082905060005b60008214612f7a578080612f6390615227565b915050600a82612f73919061505d565b9150612f50565b60008167ffffffffffffffff811115612fbc577f4e487b7100000000000000000000000000000000000000000000000000000000600052604160045260246000fd5b6040519080825280601f01601f191660200182016040528015612fee5781602001600182028036833780820191505090505b5090505b600085146130a157600182613007919061508e565b9150600a856130169190615270565b60306130229190615007565b60f81b81838151811061305e577f4e487b7100000000000000000000000000000000000000000000000000000000600052603260045260246000fd5b60200101907effffffffffffffffffffffffffffffffffffffffffffffffffffffffffffff1916908160001a905350600a8561309a919061505d565b9450612ff2565b8093505050505b919050565b60007f01ffc9a7000000000000000000000000000000000000000000000000000000007bffffffffffffffffffffffffffffffffffffffffffffffffffffffff1916827bffffffffffffffffffffffffffffffffffffffffffffffffffffffff1916149050919050565b6131228383836133c2565b600073ffffffffffffffffffffffffffffffffffffffff168373ffffffffffffffffffffffffffffffffffffffff16141561316557613160816133c7565b6131a4565b8173ffffffffffffffffffffffffffffffffffffffff168373ffffffffffffffffffffffffffffffffffffffff16146131a3576131a28382613410565b5b5b600073ffffffffffffffffffffffffffffffffffffffff168273ffffffffffffffffffffffffffffffffffffffff1614156131e7576131e28161357d565b613226565b8273ffffffffffffffffffffffffffffffffffffffff168273ffffffffffffffffffffffffffffffffffffffff16146132255761322482826136c0565b5b5b505050565b600061324c8473ffffffffffffffffffffffffffffffffffffffff1661373f565b156133b5578373ffffffffffffffffffffffffffffffffffffffff1663150b7a026132756127dc565b8786866040518563ffffffff1660e01b81526004016132979493929190614a99565b602060405180830381600087803b1580156132b157600080fd5b505af19250505080156132e257506040513d601f19601f820116820180604052508101906132df9190613b90565b60015b613365573d8060008114613312576040519150601f19603f3d011682016040523d82523d6000602084013e613317565b606091505b5060008151141561335d576040517f08c379a000000000000000000000000000000000000000000000000000000000815260040161335490614b9f565b60405180910390fd5b805181602001fd5b63150b7a0260e01b7bffffffffffffffffffffffffffffffffffffffffffffffffffffffff1916817bffffffffffffffffffffffffffffffffffffffffffffffffffffffff1916149150506133ba565b600190505b949350505050565b505050565b600980549050600a600083815260200190815260200160002081905550600981908060018154018082558091505060019003906000526020600020016000909190919091505550565b6000600161341d84611589565b613427919061508e565b905060006008600084815260200190815260200160002054905081811461350c576000600760008673ffffffffffffffffffffffffffffffffffffffff1673ffffffffffffffffffffffffffffffffffffffff168152602001908152602001600020600084815260200190815260200160002054905080600760008773ffffffffffffffffffffffffffffffffffffffff1673ffffffffffffffffffffffffffffffffffffffff168152602001908152602001600020600084815260200190815260200160002081905550816008600083815260200190815260200160002081905550505b6008600084815260200190815260200160002060009055600760008573ffffffffffffffffffffffffffffffffffffffff1673ffffffffffffffffffffffffffffffffffffffff16815260200190815260200160002060008381526020019081526020016000206000905550505050565b60006001600980549050613591919061508e565b90506000600a60008481526020019081526020016000205490506000600983815481106135e7577f4e487b7100000000000000000000000000000000000000000000000000000000600052603260045260246000fd5b90600052602060002001549050806009838154811061362f577f4e487b7100000000000000000000000000000000000000000000000000000000600052603260045260246000fd5b906000526020600020018190555081600a600083815260200190815260200160002081905550600a60008581526020019081526020016000206000905560098054806136a4577f4e487b7100000000000000000000000000000000000000000000000000000000600052603160045260246000fd5b6001900381819060005260206000200160009055905550505050565b60006136cb83611589565b905081600760008573ffffffffffffffffffffffffffffffffffffffff1673ffffffffffffffffffffffffffffffffffffffff168152602001908152602001600020600083815260200190815260200160002081905550806008600084815260200190815260200160002081905550505050565b600080823b905060008111915050919050565b82805461375e906151f5565b90600052602060002090601f01602090048101928261378057600085556137c7565b82601f1061379957805160ff19168380011785556137c7565b828001600101855582156137c7579182015b828111156137c65782518255916020019190600101906137ab565b5b5090506137d4919061385e565b5090565b8280546137e4906151f5565b90600052602060002090601f016020900481019282613806576000855561384d565b82601f1061381f57803560ff191683800117855561384d565b8280016001018555821561384d579182015b8281111561384c578235825591602001919060010190613831565b5b50905061385a919061385e565b5090565b5b8082111561387757600081600090555060010161385f565b5090565b600061388e61388984614f46565b614f15565b9050828152602081018484840111156138a657600080fd5b6138b18482856151b3565b509392505050565b6000813590506138c8816153b1565b92915050565b6000813590506138dd816153c8565b92915050565b6000813590506138f2816153df565b92915050565b600081519050613907816153df565b92915050565b600082601f83011261391e57600080fd5b813561392e84826020860161387b565b91505092915050565b60008083601f84011261394957600080fd5b8235905067ffffffffffffffff81111561396257600080fd5b60208301915083600182028301111561397a57600080fd5b9250929050565b600081359050613990816153f6565b92915050565b6000815190506139a5816153f6565b92915050565b6000813590506139ba8161540d565b92915050565b6000602082840312156139d257600080fd5b60006139e0848285016138b9565b91505092915050565b600080604083850312156139fc57600080fd5b6000613a0a858286016138b9565b9250506020613a1b858286016138b9565b9150509250929050565b600080600060608486031215613a3a57600080fd5b6000613a48868287016138b9565b9350506020613a59868287016138b9565b9250506040613a6a86828701613981565b9150509250925092565b60008060008060808587031215613a8a57600080fd5b6000613a98878288016138b9565b9450506020613aa9878288016138b9565b9350506040613aba87828801613981565b925050606085013567ffffffffffffffff811115613ad757600080fd5b613ae38782880161390d565b91505092959194509250565b60008060408385031215613b0257600080fd5b6000613b10858286016138b9565b9250506020613b21858286016138ce565b9150509250929050565b60008060408385031215613b3e57600080fd5b6000613b4c858286016138b9565b9250506020613b5d85828601613981565b9150509250929050565b600060208284031215613b7957600080fd5b6000613b87848285016138e3565b91505092915050565b600060208284031215613ba257600080fd5b6000613bb0848285016138f8565b91505092915050565b60008060008060008060008060a0898b031215613bd557600080fd5b600089013567ffffffffffffffff811115613bef57600080fd5b613bfb8b828c01613937565b9850985050602089013567ffffffffffffffff811115613c1a57600080fd5b613c268b828c01613937565b9650965050604089013567ffffffffffffffff811115613c4557600080fd5b613c518b828c01613937565b94509450506060613c648b828c016139ab565b9250506080613c758b828c016139ab565b9150509295985092959890939650565b600060208284031215613c9757600080fd5b6000613ca584828501613981565b91505092915050565b600060208284031215613cc057600080fd5b6000613cce84828501613996565b91505092915050565b600080600060408486031215613cec57600080fd5b6000613cfa86828701613981565b935050602084013567ffffffffffffffff811115613d1757600080fd5b613d2386828701613937565b92509250509250925092565b6000613d3b83836149c7565b60208301905092915050565b613d508161516b565b82525050565b613d5f816150d4565b82525050565b613d6e816150c2565b82525050565b6000613d7f82614f9b565b613d898185614fc9565b9350613d9483614f76565b8060005b83811015613dc5578151613dac8882613d2f565b9750613db783614fbc565b925050600181019050613d98565b5085935050505092915050565b613ddb816150e6565b82525050565b6000613dec82614fa6565b613df68185614fda565b9350613e068185602086016151c2565b613e0f8161538c565b840191505092915050565b613e238161517d565b82525050565b6000613e358385614ffc565b9350613e428385846151b3565b82840190509392505050565b6000613e5982614fb1565b613e638185614feb565b9350613e738185602086016151c2565b613e7c8161538c565b840191505092915050565b6000613e9282614fb1565b613e9c8185614ffc565b9350613eac8185602086016151c2565b80840191505092915050565b60008154613ec5816151f5565b613ecf8186614ffc565b94506001821660008114613eea5760018114613efb57613f2e565b60ff19831686528186019350613f2e565b613f0485614f86565b60005b83811015613f2657815481890152600182019150602081019050613f07565b838801955050505b50505092915050565b6000613f44602e83614feb565b91507f5061796d656e7420616d6f756e74206d7573742065786163746c79206d61746360008301527f68206c69737465642070726963650000000000000000000000000000000000006020830152604082019050919050565b6000613faa602b83614feb565b91507f455243373231456e756d657261626c653a206f776e657220696e646578206f7560008301527f74206f6620626f756e64730000000000000000000000000000000000000000006020830152604082019050919050565b6000614010603283614feb565b91507f4552433732313a207472616e7366657220746f206e6f6e20455243373231526560008301527f63656976657220696d706c656d656e74657200000000000000000000000000006020830152604082019050919050565b6000614076602683614feb565b91507f4f776e61626c653a206e6577206f776e657220697320746865207a65726f206160008301527f64647265737300000000000000000000000000000000000000000000000000006020830152604082019050919050565b60006140dc601c83614feb565b91507f4552433732313a20746f6b656e20616c7265616479206d696e746564000000006000830152602082019050919050565b600061411c602483614feb565b91507f4552433732313a207472616e7366657220746f20746865207a65726f2061646460008301527f72657373000000000000000000000000000000000000000000000000000000006020830152604082019050919050565b6000614182601983614feb565b91507f4552433732313a20617070726f766520746f2063616c6c6572000000000000006000830152602082019050919050565b60006141c2602c83614feb565b91507f4552433732313a206f70657261746f7220717565727920666f72206e6f6e657860008301527f697374656e7420746f6b656e00000000000000000000000000000000000000006020830152604082019050919050565b6000614228603883614feb565b91507f4552433732313a20617070726f76652063616c6c6572206973206e6f74206f7760008301527f6e6572206e6f7220617070726f76656420666f7220616c6c00000000000000006020830152604082019050919050565b600061428e603a83614feb565b91507f5468697320636f6e7472616374206d757374206669727374206265206170707260008301527f6f7665642062792063757272656e7420686f726e206f776e65720000000000006020830152604082019050919050565b60006142f4602a83614feb565b91507f4552433732313a2062616c616e636520717565727920666f7220746865207a6560008301527f726f2061646472657373000000000000000000000000000000000000000000006020830152604082019050919050565b600061435a602983614feb565b91507f4552433732313a206f776e657220717565727920666f72206e6f6e657869737460008301527f656e7420746f6b656e00000000000000000000000000000000000000000000006020830152604082019050919050565b60006143c0602883614feb565b91507f486f726e20686173206e6f74206265656e206d61726b6564206173207061696460008301527f20666f72207965740000000000000000000000000000000000000000000000006020830152604082019050919050565b6000614426604083614feb565b91507f546869732066756e6374696f6e206d6179206f6e6c792062652063616c6c656460008301527f20627920612062757965722077686f2068617320616c726561647920706169646020830152604082019050919050565b600061448c602583614feb565b91507f486f726e206973206e6f742063757272656e746c79206c697374656420666f7260008301527f2073616c650000000000000000000000000000000000000000000000000000006020830152604082019050919050565b60006144f2602083614feb565b91507f4552433732313a206d696e7420746f20746865207a65726f20616464726573736000830152602082019050919050565b6000614532603883614feb565b91507f546869732066756e6374696f6e206d6179206f6e6c792062652063616c6c656460008301527f2062792074686520686f726e204e46542773206f776e657200000000000000006020830152604082019050919050565b6000614598602c83614feb565b91507f4552433732313a20617070726f76656420717565727920666f72206e6f6e657860008301527f697374656e7420746f6b656e00000000000000000000000000000000000000006020830152604082019050919050565b60006145fe603483614feb565b91507f4275796572206d7573742073656e64207061796d656e7420666f7220486f726e60008301527f204e465420746f20657363726f772066697273740000000000000000000000006020830152604082019050919050565b6000614664602083614feb565b91507f4f776e61626c653a2063616c6c6572206973206e6f7420746865206f776e65726000830152602082019050919050565b60006146a4602683614feb565b91507f486f726e204e4654206d75737420657869737420616e642063616e6e6f74206260008301527f65206672656500000000000000000000000000000000000000000000000000006020830152604082019050919050565b600061470a602983614feb565b91507f4552433732313a207472616e73666572206f6620746f6b656e2074686174206960008301527f73206e6f74206f776e00000000000000000000000000000000000000000000006020830152604082019050919050565b6000614770602f83614feb565b91507f4552433732314d657461646174613a2055524920717565727920666f72206e6f60008301527f6e6578697374656e7420746f6b656e00000000000000000000000000000000006020830152604082019050919050565b60006147d6603a83614feb565b91507f4164647265737320676976656e20646f6573206e6f74206d617463682074686560008301527f206f6e65206f6e2066696c6520666f72207468652062757965720000000000006020830152604082019050919050565b600061483c602183614feb565b91507f4552433732313a20617070726f76616c20746f2063757272656e74206f776e6560008301527f72000000000000000000000000000000000000000000000000000000000000006020830152604082019050919050565b60006148a2603183614feb565b91507f4552433732313a207472616e736665722063616c6c6572206973206e6f74206f60008301527f776e6572206e6f7220617070726f7665640000000000000000000000000000006020830152604082019050919050565b6000614908602c83614feb565b91507f455243373231456e756d657261626c653a20676c6f62616c20696e646578206f60008301527f7574206f6620626f756e647300000000000000000000000000000000000000006020830152604082019050919050565b600061496e602783614feb565b91507f486f726e20686173206e6f74206265656e206d61726b6564206173207368697060008301527f70656420796574000000000000000000000000000000000000000000000000006020830152604082019050919050565b6149d081615151565b82525050565b6149df81615151565b82525050565b6149ee8161515b565b82525050565b6000614a01828486613e29565b91508190509392505050565b6000614a198285613e87565b9150614a258284613e87565b91508190509392505050565b6000614a3d8284613eb8565b915081905092915050565b6000602082019050614a5d6000830184613d65565b92915050565b6000602082019050614a786000830184613d47565b92915050565b6000602082019050614a936000830184613d56565b92915050565b6000608082019050614aae6000830187613d65565b614abb6020830186613d65565b614ac860408301856149d6565b8181036060830152614ada8184613de1565b905095945050505050565b60006020820190508181036000830152614aff8184613d74565b905092915050565b6000602082019050614b1c6000830184613dd2565b92915050565b6000602082019050614b376000830184613e1a565b92915050565b60006020820190508181036000830152614b578184613e4e565b905092915050565b60006020820190508181036000830152614b7881613f37565b9050919050565b60006020820190508181036000830152614b9881613f9d565b9050919050565b60006020820190508181036000830152614bb881614003565b9050919050565b60006020820190508181036000830152614bd881614069565b9050919050565b60006020820190508181036000830152614bf8816140cf565b9050919050565b60006020820190508181036000830152614c188161410f565b9050919050565b60006020820190508181036000830152614c3881614175565b9050919050565b60006020820190508181036000830152614c58816141b5565b9050919050565b60006020820190508181036000830152614c788161421b565b9050919050565b60006020820190508181036000830152614c9881614281565b9050919050565b60006020820190508181036000830152614cb8816142e7565b9050919050565b60006020820190508181036000830152614cd88161434d565b9050919050565b60006020820190508181036000830152614cf8816143b3565b9050919050565b60006020820190508181036000830152614d1881614419565b9050919050565b60006020820190508181036000830152614d388161447f565b9050919050565b60006020820190508181036000830152614d58816144e5565b9050919050565b60006020820190508181036000830152614d7881614525565b9050919050565b60006020820190508181036000830152614d988161458b565b9050919050565b60006020820190508181036000830152614db8816145f1565b9050919050565b60006020820190508181036000830152614dd881614657565b9050919050565b60006020820190508181036000830152614df881614697565b9050919050565b60006020820190508181036000830152614e18816146fd565b9050919050565b60006020820190508181036000830152614e3881614763565b9050919050565b60006020820190508181036000830152614e58816147c9565b9050919050565b60006020820190508181036000830152614e788161482f565b9050919050565b60006020820190508181036000830152614e9881614895565b9050919050565b60006020820190508181036000830152614eb8816148fb565b9050919050565b60006020820190508181036000830152614ed881614961565b9050919050565b6000602082019050614ef460008301846149d6565b92915050565b6000602082019050614f0f60008301846149e5565b92915050565b6000604051905081810181811067ffffffffffffffff82111715614f3c57614f3b61535d565b5b8060405250919050565b600067ffffffffffffffff821115614f6157614f6061535d565b5b601f19601f8301169050602081019050919050565b6000819050602082019050919050565b60008190508160005260206000209050919050565b600081519050919050565b600081519050919050565b600081519050919050565b6000602082019050919050565b600082825260208201905092915050565b600082825260208201905092915050565b600082825260208201905092915050565b600081905092915050565b600061501282615151565b915061501d83615151565b9250827fffffffffffffffffffffffffffffffffffffffffffffffffffffffffffffffff03821115615052576150516152a1565b5b828201905092915050565b600061506882615151565b915061507383615151565b925082615083576150826152d0565b5b828204905092915050565b600061509982615151565b91506150a483615151565b9250828210156150b7576150b66152a1565b5b828203905092915050565b60006150cd82615131565b9050919050565b60006150df82615131565b9050919050565b60008115159050919050565b60007fffffffff0000000000000000000000000000000000000000000000000000000082169050919050565b600081905061512c8261539d565b919050565b600073ffffffffffffffffffffffffffffffffffffffff82169050919050565b6000819050919050565b600063ffffffff82169050919050565b60006151768261518f565b9050919050565b60006151888261511e565b9050919050565b600061519a826151a1565b9050919050565b60006151ac82615131565b9050919050565b82818337600083830152505050565b60005b838110156151e05780820151818401526020810190506151c5565b838111156151ef576000848401525b50505050565b6000600282049050600182168061520d57607f821691505b602082108114156152215761522061532e565b5b50919050565b600061523282615151565b91507fffffffffffffffffffffffffffffffffffffffffffffffffffffffffffffffff821415615265576152646152a1565b5b600182019050919050565b600061527b82615151565b915061528683615151565b925082615296576152956152d0565b5b828206905092915050565b7f4e487b7100000000000000000000000000000000000000000000000000000000600052601160045260246000fd5b7f4e487b7100000000000000000000000000000000000000000000000000000000600052601260045260246000fd5b7f4e487b7100000000000000000000000000000000000000000000000000000000600052602160045260246000fd5b7f4e487b7100000000000000000000000000000000000000000000000000000000600052602260045260246000fd5b7f4e487b7100000000000000000000000000000000000000000000000000000000600052604160045260246000fd5b6000601f19601f8301169050919050565b600481106153ae576153ad6152ff565b5b50565b6153ba816150c2565b81146153c557600080fd5b50565b6153d1816150e6565b81146153dc57600080fd5b50565b6153e8816150f2565b81146153f357600080fd5b50565b6153ff81615151565b811461540a57600080fd5b50565b6154168161515b565b811461542157600080fd5b5056fea26469706673582212207dd54418680fd796fc05bca95c9aee5a624362cb2eeed0219bfeb27806a3324e64736f6c63430008000033608060405234801561001057600080fd5b5061002d61002261003260201b60201c565b61003a60201b60201c565b6100fe565b600033905090565b60008060009054906101000a900473ffffffffffffffffffffffffffffffffffffffff169050816000806101000a81548173ffffffffffffffffffffffffffffffffffffffff021916908373ffffffffffffffffffffffffffffffffffffffff1602179055508173ffffffffffffffffffffffffffffffffffffffff168173ffffffffffffffffffffffffffffffffffffffff167f8be0079c531659141344cd1fd0a4f28419497f9722a3daafe3b4186f6b6457e060405160405180910390a35050565b610bc08061010d6000396000f3fe6080604052600436106100555760003560e01c806351cff8d91461005a578063715018a6146100835780638da5cb5b1461009a578063e3a9db1a146100c5578063f2fde38b14610102578063f340fa011461012b575b600080fd5b34801561006657600080fd5b50610081600480360381019061007c91906107f5565b610147565b005b34801561008f57600080fd5b506100986102c7565b005b3480156100a657600080fd5b506100af61034f565b6040516100bc91906109b7565b60405180910390f35b3480156100d157600080fd5b506100ec60048036038101906100e791906107cc565b610378565b6040516100f99190610a52565b60405180910390f35b34801561010e57600080fd5b50610129600480360381019061012491906107cc565b6103c1565b005b610145600480360381019061014091906107cc565b6104b9565b005b61014f6105e2565b73ffffffffffffffffffffffffffffffffffffffff1661016d61034f565b73ffffffffffffffffffffffffffffffffffffffff16146101c3576040517f08c379a00000000000000000000000000000000000000000000000000000000081526004016101ba90610a32565b60405180910390fd5b6000600160008373ffffffffffffffffffffffffffffffffffffffff1673ffffffffffffffffffffffffffffffffffffffff1681526020019081526020016000205490506000600160008473ffffffffffffffffffffffffffffffffffffffff1673ffffffffffffffffffffffffffffffffffffffff16815260200190815260200160002081905550610275818373ffffffffffffffffffffffffffffffffffffffff166105ea90919063ffffffff16565b8173ffffffffffffffffffffffffffffffffffffffff167f7084f5476618d8e60b11ef0d7d3f06914655adb8793e28ff7f018d4c76d505d5826040516102bb9190610a52565b60405180910390a25050565b6102cf6105e2565b73ffffffffffffffffffffffffffffffffffffffff166102ed61034f565b73ffffffffffffffffffffffffffffffffffffffff1614610343576040517f08c379a000000000000000000000000000000000000000000000000000000000815260040161033a90610a32565b60405180910390fd5b61034d60006106de565b565b60008060009054906101000a900473ffffffffffffffffffffffffffffffffffffffff16905090565b6000600160008373ffffffffffffffffffffffffffffffffffffffff1673ffffffffffffffffffffffffffffffffffffffff168152602001908152602001600020549050919050565b6103c96105e2565b73ffffffffffffffffffffffffffffffffffffffff166103e761034f565b73ffffffffffffffffffffffffffffffffffffffff161461043d576040517f08c379a000000000000000000000000000000000000000000000000000000000815260040161043490610a32565b60405180910390fd5b600073ffffffffffffffffffffffffffffffffffffffff168173ffffffffffffffffffffffffffffffffffffffff1614156104ad576040517f08c379a00000000000000000000000000000000000000000000000000000000081526004016104a4906109d2565b60405180910390fd5b6104b6816106de565b50565b6104c16105e2565b73ffffffffffffffffffffffffffffffffffffffff166104df61034f565b73ffffffffffffffffffffffffffffffffffffffff1614610535576040517f08c379a000000000000000000000000000000000000000000000000000000000815260040161052c90610a32565b60405180910390fd5b600034905080600160008473ffffffffffffffffffffffffffffffffffffffff1673ffffffffffffffffffffffffffffffffffffffff16815260200190815260200160002060008282546105899190610a89565b925050819055508173ffffffffffffffffffffffffffffffffffffffff167f2da466a7b24304f47e87fa2e1e5a81b9831ce54fec19055ce277ca2f39ba42c4826040516105d69190610a52565b60405180910390a25050565b600033905090565b8047101561062d576040517f08c379a000000000000000000000000000000000000000000000000000000000815260040161062490610a12565b60405180910390fd5b60008273ffffffffffffffffffffffffffffffffffffffff1682604051610653906109a2565b60006040518083038185875af1925050503d8060008114610690576040519150601f19603f3d011682016040523d82523d6000602084013e610695565b606091505b50509050806106d9576040517f08c379a00000000000000000000000000000000000000000000000000000000081526004016106d0906109f2565b60405180910390fd5b505050565b60008060009054906101000a900473ffffffffffffffffffffffffffffffffffffffff169050816000806101000a81548173ffffffffffffffffffffffffffffffffffffffff021916908373ffffffffffffffffffffffffffffffffffffffff1602179055508173ffffffffffffffffffffffffffffffffffffffff168173ffffffffffffffffffffffffffffffffffffffff167f8be0079c531659141344cd1fd0a4f28419497f9722a3daafe3b4186f6b6457e060405160405180910390a35050565b6000813590506107b181610b5c565b92915050565b6000813590506107c681610b73565b92915050565b6000602082840312156107de57600080fd5b60006107ec848285016107a2565b91505092915050565b60006020828403121561080757600080fd5b6000610815848285016107b7565b91505092915050565b61082781610adf565b82525050565b600061083a602683610a78565b91507f4f776e61626c653a206e6577206f776e657220697320746865207a65726f206160008301527f64647265737300000000000000000000000000000000000000000000000000006020830152604082019050919050565b60006108a0603a83610a78565b91507f416464726573733a20756e61626c6520746f2073656e642076616c75652c207260008301527f6563697069656e74206d617920686176652072657665727465640000000000006020830152604082019050919050565b6000610906601d83610a78565b91507f416464726573733a20696e73756666696369656e742062616c616e63650000006000830152602082019050919050565b6000610946602083610a78565b91507f4f776e61626c653a2063616c6c6572206973206e6f7420746865206f776e65726000830152602082019050919050565b6000610986600083610a6d565b9150600082019050919050565b61099c81610b23565b82525050565b60006109ad82610979565b9150819050919050565b60006020820190506109cc600083018461081e565b92915050565b600060208201905081810360008301526109eb8161082d565b9050919050565b60006020820190508181036000830152610a0b81610893565b9050919050565b60006020820190508181036000830152610a2b816108f9565b9050919050565b60006020820190508181036000830152610a4b81610939565b9050919050565b6000602082019050610a676000830184610993565b92915050565b600081905092915050565b600082825260208201905092915050565b6000610a9482610b23565b9150610a9f83610b23565b9250827fffffffffffffffffffffffffffffffffffffffffffffffffffffffffffffffff03821115610ad457610ad3610b2d565b5b828201905092915050565b6000610aea82610b03565b9050919050565b6000610afc82610b03565b9050919050565b600073ffffffffffffffffffffffffffffffffffffffff82169050919050565b6000819050919050565b7f4e487b7100000000000000000000000000000000000000000000000000000000600052601160045260246000fd5b610b6581610adf565b8114610b7057600080fd5b50565b610b7c81610af1565b8114610b8757600080fd5b5056fea2646970667358221220d770607a265aeb06db1df17cb43692656108385a92166a7d0fad953d5335e50364736f6c63430008000033",
  "immutableReferences": {},
  "source": "// SPDX-License-Identifier: MIT\npragma solidity 0.8.0;\n\n/** \n  * @title Peer to peer Horn Marketplace using NFTs and Escrow Smart Contract\n  * @author Markus Osterlund, 2nd Horn of National Symphony Orchestra and hopeful Ethereum Engineer @Consensys Academy Bootcamp\n */\n\nimport \"@openzeppelin/contracts/utils/Counters.sol\";\nimport \"@openzeppelin/contracts/access/Ownable.sol\";\nimport \"@openzeppelin/contracts/utils/escrow/Escrow.sol\";\nimport \"@openzeppelin/contracts/token/ERC721/ERC721.sol\";\nimport \"@openzeppelin/contracts/token/ERC721/extensions/ERC721Enumerable.sol\";\n// import \"@openzeppelin/contracts/token/ERC721/IERC721Receiver.sol\"; // Not actually necessary but included here in case users new to NFTs send to address(this)\n\n// use tokenURI to point to images of the listed instrument (host and store on my website)\n\n/*\n   Interfaces\n*/\n\ncontract HornMarketplace is Ownable, /*IERC721Receiver, */ERC721Enumerable {\n    using Counters for Counters.Counter;\n    Counters.Counter private _hornId; // OpenZeppelin library initializes this to 0 by default\n    /*\n        Instantiate Escrow Contract\n    */\n    Escrow escrow;\n    //EscrowContract escrow = EscrowContract(DEVELOPMENT_DEPLOYED_ESCROW_ADDR_HERE); // these two lines necessary?\n    //EscrowContract escrow = EscrowContract(RINKEBY_DEPLOYED_ESCROW_ADDR_HERE)\n\n    /*\n        On-chain Horn data: Metadata Struct\n    */\n    // @param make denotes builder/manufacturer of the instrument \n    // @param model denotes model name of the instrument\n    // @param style denotes double/triple/descant/single/compensating and wrap ie geyer/kruspe/knopf/other\n    // @param serialNumber denotes serial number\n    // @param currentOwner denotes musician who currently owns the instrument\n    // @param buyer denotes buyer who purchased\n    struct Horn { // optimize gas on these struct attributes- which order/size?\n      string make;\n      string model;\n      string style;\n      uint32 serialNumber;\n      uint32 listPrice; // this attribute probably needs to be labeled as 'inWei' and converted from eth at time of listing\n      HornStatus status;\n      address payable currentOwner;\n    }\n\n    /*\n        Enum for Status of Order\n    */\n    enum HornStatus {\n        ListedForSale,\n        PaidFor,\n        Shipped,\n        OwnedNotForSale\n    }\n\n    // @dev hornId is a unique, publicly accessible counter (as opposed to Counter _hornId) for each horn NFT in existence\n    // @dev hornsForSale array allows for quickly viewing listed instruments via frontend\n    // address payable owner;\n    uint[] hornsForSale;\n\n    // @notice horns mapping keeps track of all horn NFT owners & histories via _hornId (s/o to OpenZep Counter.counter library)\n    mapping (uint => Horn) horns;\n    // @dev Add hash of horn NFT make and serialNumber using Counter.counter to compare all hashes to new mints in an effort to avoid duplicate NFTs of single instruments\n    // mapping (uint => bytes memory) makeAndSerialHashes; // bytes32? \n    // @dev currentOwners and buyers mappings used for function access control\n    // @dev Add address to buyers when horn is paid for via escrow, address to currentOwners when sale and exchange is complete\n    mapping (uint => address) currentOwners;\n    mapping (uint => address) buyers;\n    mapping (address => string) shippingAddresses;\n    \n    // @notice NFT and IRL exchange events and escrow transaction events used for front-end\n    event HornListedForSale(uint indexed hornId, address indexed seller /*, string makeAndModel*/); // make and model may be useful for front end\n    // event BidReceived(uint indexed _hornId); //bidding may be a later feature\n    event HornPurchased(uint indexed hornId, string indexed shipTo, address indexed buyer);\n    event HornShipped(uint indexed hornId, string indexed shipTo, address indexed to);\n    event HornDeliveredAndNFTOwnershipTransferred(uint indexed hornId, address indexed from, address indexed to);\n    event DepositedToEscrow(address indexed payee, uint indexed amountInWei);\n    event WithdrawnFromEscrow(address indexed payee, uint indexed amountInWei);\n    event SellerPaid(uint indexed hornId, address indexed payer, address indexed payee);\n\n\n    /* \n        Modifiers for Roles-based function access!\n    */\n    // @dev Maintain an owner address in case of emergency\n    // modifier onlyOwner() {\n    //     require(msg.sender == owner);\n    //     _;\n    // }\n    // @dev Restrict to only users who are minting their instrument as an NFT for the first time by checking hashes of concatenated make and serial number\n    // modifier nonDuplicateListing(uint hornId??, string make, uint serialNumber) {\n        // require(!_exists(hornId), \"This horn NFT has already been minted\");\n        // checkIfAlreadyMinted(_make, _serialNumber);\n\n    // @dev Helper function to ensure that duplicate NFTs of the same horn are not minted by comparing hashes in a mapping\n    // function checkIfAlreadyMinted(string make, uint32 serialNumber) internal pure returns (bool) {\n    //   bytes memory hashOfMakeAndSerial = keccak256(abi.encodePacked(_make + _serialNumber)); // bytes32?\n    //   for (i = 0, i < horns[].length, i++) {\n    //     require(makeAndSerialHashes[i] != hashOfMakeAndSerial);\n    //   } \n    // }\n\n    // @dev Restrict to only buyer who paid and was added to buyers[] mapping\n    modifier onlyBuyerWhoPaid(uint hornId) {\n        require(buyers[hornId] == msg.sender, \"This function may only be called by a buyer who has already paid\");\n        _;\n    }\n    // @dev Restrict to only the current owner of already minted horn NFT\n    modifier onlySeller(uint hornId) {\n        require(currentOwners[hornId] == msg.sender, \"This function may only be called by the horn NFT's owner\");\n        _;\n    }\n    // @dev Checks that function caller sent exact ETH amount to purchase horn for listed price **later can use if/or clauses to support stablecoin purchases\n    modifier paidEnough(uint hornId) {\n        require(msg.value == horns[hornId].listPrice, \"Payment amount must exactly match listed price\"); // later implement logic that calculates stablecoin price equivalents\n        _;\n    }\n    // @dev Following modifiers read enum HornStatus of _hornIds and escrow deposits to maintain security and correct order of function calls thru sale process\n    modifier forSale(uint __hornId) {\n        require(horns[__hornId].listPrice > 0, \"Horn NFT must exist and cannot be free\"); // ensure horn NFT exists and is listPrice is non 0\n        require(uint(horns[__hornId].status) == 0, \"Horn is not currently listed for sale\"); // requires ListedForSale status\n        _;\n    }\n    modifier hornPaidFor(uint __hornId) {\n        require(escrow.depositsOf(msg.sender) == horns[__hornId].listPrice, \"Buyer must send payment for Horn NFT to escrow first\"); // ensure buyer has already deposited payment (listPrice) in escrow\n        require(uint(horns[__hornId].status) == 1, \"Horn has not been marked as paid for yet\"); // requires PaidFor status\n        _;\n    }\n    modifier shipped(uint __hornId) {\n        require(_isApprovedOrOwner(address(this), __hornId), \"This contract must first be approved by current horn owner\"); // ensure this contract is approved to spend horn NFT by the seller\n        require(uint(horns[__hornId].status) == 2, \"Horn has not been marked as shipped yet\"); // requires Shipped status\n        _;\n    }\n\n    // @dev Initializes the Horn NFT with name and symbol and instantiates the escrow contract \n    constructor() ERC721(\"Horn\", \"HORN\") {\n        escrow = new Escrow();\n    }\n    /*\n        Marketplace Function implementations\n    */\n    // @notice List horn for sale by minting with metadata to fill Horn struct on-chain\n    // CHANGE THIS function to have an if clause that accommodates first time listing vs listing an existing NFT or create new function for existing horn nFTs? \n    // IF NEW FUNCTION, MAKE SURE ALL MAPPINGS/ATTRIBUTES ARE PROPERLY SET so escrow functions still work on correct addresses (ie line 191)\n    function mintThenListNewHornNFT( \n        string calldata _make, \n        string calldata _model, \n        string calldata _style, \n        uint32 _serialNumber, \n        uint32 _desiredPrice) \n        external /* nonDuplicateListing(_hornId.current(), _make, _serialNumber) */ // double check how the Counter.counter works with _hornId in a modifier _; setting\n        returns (uint /*, string*/) {\n          // @dev Increment counter _hornId then store publicly accessible hornId using current counter\n          _hornId.increment();\n          uint hornId = _hornId.current();\n          _mint(msg.sender, hornId);\n          // _setTokenURI logic still needs to be implemented\n          \n          // @dev Store all horn metadata on-chain EXCEPT images which are stored externally via URI\n          horns[hornId] = Horn({\n            make: _make,\n            model: _model,\n            style: _style,\n            serialNumber: _serialNumber,\n            listPrice: _desiredPrice,\n            status: HornStatus.ListedForSale,\n            currentOwner: payable(msg.sender)\n          });\n                    \n          // @dev update mappings and arrays to reflect new listing\n          currentOwners[hornId] = msg.sender;\n          hornsForSale.push(hornId);\n\n          // string makeAndModel = _make + _model; // for emitting new listing events on front end?\n          // return makeAndModel; // Might help front end to provide make and model event emission\n\n          emit HornListedForSale(hornId, msg.sender /*, makeAndModel*/);\n\n          return hornId;\n\n    }\n    \n    // following function must check that the hornNFT already exists!  and onlySeller(id) checks that it is owned by the caller of the function\n    /* function listExistingHornNFT(uint __hornId, uint32 _desiredPrice) public onlySeller(__hornId) {\n        add to hornsforsale uint[] array // consider adding a boolean struct attribute: forsale which may be easier than using uint[] array?\n        set hornstatus to forsale\n    }\n    */\n\n    // @dev Require that given __hornId is forSale and not already purchased\n    function purchaseHornByHornId(uint __hornId, string calldata _shipTo) \n      public \n      payable \n      forSale(__hornId) \n      paidEnough(__hornId) {\n        /* storing home addresses on-chain involves significant privacy concerns, however\n        * the recent infrastructure bill classifies any developer who writes code that handles monetary value on a blockchain\n        * as a legally recognized \"broker\" who must report customer information like Address to the IRS\n        * shipping addresses are stored on-chain for legal compliance reasons ONLY\n        * Can these addresses be opaquely stored on front-end instead? zk rollups would alleviate this issue\n        */\n        // @dev Forward payment to escrow contract for safekeeping\n        escrow.deposit(currentOwners[__hornId]);\n        // @dev Add shipping address of buyer aka msg.sender to mapping for later confirmation\n        shippingAddresses[msg.sender] = _shipTo;\n        // @dev Add msg.sender to buyers[] mapping for access control checking during markHornShipped function call and shipping address confirmation: \n        buyers[__hornId] = msg.sender;\n        // @dev Set status to PaidFor so next function to be called must be markHornShipped by seller\n        horns[__hornId].status = HornStatus.PaidFor;\n        // @dev Delete hornId from hornsForSale uint[] array so it is no longer displayed\n        delete hornsForSale[__hornId];\n\n        // @notice Emit event to notify seller via frontend that horn is paid for and must be shipped\n        emit HornPurchased(__hornId, _shipTo, msg.sender);\n        emit DepositedToEscrow(horns[__hornId].currentOwner, msg.value);\n    }\n\n    function markHornShipped(uint __hornId, string calldata shippedTo) public \n      onlySeller(__hornId) \n      hornPaidFor(__hornId) {\n        // @dev Set buyer variable to confirm shipping address shipTo against shippingAddresses mapping given by buyer\n        address buyer = buyers[__hornId];\n        // @notice The addresses must match exactly as they are hashed- an issue considering extremely common user error, data fields must be explicit on front end for proper resolution\n        require(keccak256(abi.encodePacked(shippedTo)) == keccak256(abi.encodePacked(shippingAddresses[buyer])), \"Address given does not match the one on file for the buyer\");\n        // @dev Set status of __hornId to Shipped so next function to be called will finalize exchange\n        horns[__hornId].status = HornStatus.Shipped;\n        // @dev Approves this contract as spender of horn nft so that it will be safetransferred in next function call \n        approve(address(this), __hornId);\n        \n        // @notice Emit event to notify buyer via frontend that horn is on its way\n        emit HornShipped(__hornId, shippedTo, buyers[__hornId]);\n    }\n\n    // This function MUST be called in order to release escrow funds to seller, and transfer NFT ownership\n    function markHornDeliveredAndOwnershipTransferred(uint __hornId) public \n      onlyBuyerWhoPaid(__hornId) \n      shipped(__hornId) \n      returns (uint256) {\n        // @dev Save payment amount in uint variable to be visually returned for improved UX/UI\n        uint paymentAmt = escrow.depositsOf(horns[__hornId].currentOwner);\n        // @dev Release escrowed payment funds to the seller from escrow contract\n        escrow.withdraw(horns[__hornId].currentOwner);\n        // @dev Wipe msg.sender from buyers[] and shippingaddresses[] for future txs in case buyer changes address\n        buyers[__hornId] = address(0);\n        shippingAddresses[msg.sender] = \"\";\n        // @dev Set horn status to no longer be for sale and update horn ownership record history\n        horns[__hornId].status = HornStatus.OwnedNotForSale;\n        horns[__hornId].currentOwner = payable(msg.sender);\n        // @dev Set previousOwner variable using currentOwners mapping, before that value is updated to reflect new owner\n        address previousOwner = currentOwners[__hornId];\n        // @dev Update currentOwners mapping to give ownership to buyer\n        currentOwners[__hornId] == msg.sender;\n\n        // @dev Transfer horn NFT from seller(currentOwner) to msg.sender using safeTransferFrom from ERC721 interface (avoids NFTs locked in contracts)\n        safeTransferFrom(horns[__hornId].currentOwner, msg.sender, __hornId);\n\n        emit HornDeliveredAndNFTOwnershipTransferred(__hornId, previousOwner, msg.sender);\n        emit SellerPaid(__hornId, previousOwner, msg.sender);\n        emit WithdrawnFromEscrow(previousOwner, paymentAmt);\n\n        return paymentAmt;\n    }\n    \n    /*\n        Helper functions that provide (internal?) getter functionality\n    */\n\n    function getCurrentHornsForSale() public view returns (uint[] memory) {\n        // loop through hornForSale[] uint array and display them to frontend to parse via hornId (could also do array of structs)\n        // for (i = 0, i < hornsForSale[].length, i++) {\n            // hornId = hornsForSale[i].id; // if I go this route i must add an id attribute to the horn structs- is there another way to view hornids of hornsforsale\n            // return horns[hornId];\n        //}\n    }\n\n    function getListPriceByHornId(uint __hornId) public view returns (uint32) {\n        return horns[__hornId].listPrice;\n    }\n\n    function getCurrentOwnerByHornId(uint __hornId) public view returns (address) {\n        return currentOwners[__hornId];\n    }\n\n    function getStatusOfHornbyHornId(uint __hornId) public view returns (HornStatus) {\n        return horns[__hornId].status;\n    }\n\n    function getEscrowDepositValue(address payee) public view returns (uint) {\n        escrow.depositsOf(payee);\n    }\n\n    // in future, can add filter functions as well to display only doubles or only Lukas, etc\n    /* in future, can add support for ERC20 stablecoin payments via a price getter helper function that uses chainlink to calculate current Eth amount to match listed price in dollars:\n        something like require(msg.value == hornMarketplace.HORNPRICEGETTERFUNCTIONHERE()) but needs to aid user in submitting tx with correct ETH amount\n    */\n\n\n    /*\n        Administrative Functions\n    */\n    /* \n    // Allows owner of the marketplace to withdraw fees accumulated by trading\n    function withdrawAccumulatedFees() external onlyOwner {\n        owner.call{value: address(this).balance};\n    }\n    function pause() external onlyOwner {\n        _pause() // how does this work with pausable openzeppelin library?\n    }\n    */\n}\n",
  "sourcePath": "/home/robriks/ConsensysAcademyBootCamp/final-proj/contracts/HornMarketplace.sol",
  "compiler": {
    "name": "solc",
    "version": "0.8.0+commit.c7dfd78e.Emscripten.clang"
  },
  "schemaVersion": "3.4.3",
  "updatedAt": "2021-10-27T02:10:44.176Z",
  "devdoc": {
    "kind": "dev",
    "methods": {
      "approve(address,uint256)": {
        "details": "See {IERC721-approve}."
      },
      "balanceOf(address)": {
        "details": "See {IERC721-balanceOf}."
      },
      "getApproved(uint256)": {
        "details": "See {IERC721-getApproved}."
      },
      "isApprovedForAll(address,address)": {
        "details": "See {IERC721-isApprovedForAll}."
      },
      "name()": {
        "details": "See {IERC721Metadata-name}."
      },
      "owner()": {
        "details": "Returns the address of the current owner."
      },
      "ownerOf(uint256)": {
        "details": "See {IERC721-ownerOf}."
      },
      "renounceOwnership()": {
        "details": "Leaves the contract without owner. It will not be possible to call `onlyOwner` functions anymore. Can only be called by the current owner. NOTE: Renouncing ownership will leave the contract without an owner, thereby removing any functionality that is only available to the owner."
      },
      "safeTransferFrom(address,address,uint256)": {
        "details": "See {IERC721-safeTransferFrom}."
      },
      "safeTransferFrom(address,address,uint256,bytes)": {
        "details": "See {IERC721-safeTransferFrom}."
      },
      "setApprovalForAll(address,bool)": {
        "details": "See {IERC721-setApprovalForAll}."
      },
      "supportsInterface(bytes4)": {
        "details": "See {IERC165-supportsInterface}."
      },
      "symbol()": {
        "details": "See {IERC721Metadata-symbol}."
      },
      "tokenByIndex(uint256)": {
        "details": "See {IERC721Enumerable-tokenByIndex}."
      },
      "tokenOfOwnerByIndex(address,uint256)": {
        "details": "See {IERC721Enumerable-tokenOfOwnerByIndex}."
      },
      "tokenURI(uint256)": {
        "details": "See {IERC721Metadata-tokenURI}."
      },
      "totalSupply()": {
        "details": "See {IERC721Enumerable-totalSupply}."
      },
      "transferFrom(address,address,uint256)": {
        "details": "See {IERC721-transferFrom}."
      },
      "transferOwnership(address)": {
        "details": "Transfers ownership of the contract to a new account (`newOwner`). Can only be called by the current owner."
      }
    },
    "version": 1
  },
  "userdoc": {
    "kind": "user",
    "methods": {},
    "version": 1
  }
}