{
  "contractName": "HornMarketplace",
  "abi": [
    {
      "inputs": [],
      "stateMutability": "nonpayable",
      "type": "constructor"
    },
    {
      "anonymous": false,
      "inputs": [
        {
          "indexed": true,
          "internalType": "address",
          "name": "owner",
          "type": "address"
        },
        {
          "indexed": true,
          "internalType": "address",
          "name": "approved",
          "type": "address"
        },
        {
          "indexed": true,
          "internalType": "uint256",
          "name": "tokenId",
          "type": "uint256"
        }
      ],
      "name": "Approval",
      "type": "event"
    },
    {
      "anonymous": false,
      "inputs": [
        {
          "indexed": true,
          "internalType": "address",
          "name": "owner",
          "type": "address"
        },
        {
          "indexed": true,
          "internalType": "address",
          "name": "operator",
          "type": "address"
        },
        {
          "indexed": false,
          "internalType": "bool",
          "name": "approved",
          "type": "bool"
        }
      ],
      "name": "ApprovalForAll",
      "type": "event"
    },
    {
      "anonymous": false,
      "inputs": [
        {
          "indexed": true,
          "internalType": "address",
          "name": "payee",
          "type": "address"
        },
        {
          "indexed": true,
          "internalType": "uint256",
          "name": "amountInWei",
          "type": "uint256"
        }
      ],
      "name": "DepositedToEscrow",
      "type": "event"
    },
    {
      "anonymous": false,
      "inputs": [
        {
          "indexed": true,
          "internalType": "uint256",
          "name": "hornId",
          "type": "uint256"
        },
        {
          "indexed": true,
          "internalType": "address",
          "name": "from",
          "type": "address"
        },
        {
          "indexed": true,
          "internalType": "address",
          "name": "to",
          "type": "address"
        }
      ],
      "name": "HornDeliveredAndNFTOwnershipTransferred",
      "type": "event"
    },
    {
      "anonymous": false,
      "inputs": [
        {
          "indexed": true,
          "internalType": "uint256",
          "name": "hornId",
          "type": "uint256"
        },
        {
          "indexed": true,
          "internalType": "address",
          "name": "seller",
          "type": "address"
        },
        {
          "indexed": true,
          "internalType": "string",
          "name": "make",
          "type": "string"
        }
      ],
      "name": "HornListedForSale",
      "type": "event"
    },
    {
      "anonymous": false,
      "inputs": [
        {
          "indexed": true,
          "internalType": "uint256",
          "name": "hornId",
          "type": "uint256"
        },
        {
          "indexed": true,
          "internalType": "string",
          "name": "shipTo",
          "type": "string"
        },
        {
          "indexed": true,
          "internalType": "address",
          "name": "buyer",
          "type": "address"
        }
      ],
      "name": "HornPurchased",
      "type": "event"
    },
    {
      "anonymous": false,
      "inputs": [
        {
          "indexed": true,
          "internalType": "uint256",
          "name": "hornId",
          "type": "uint256"
        },
        {
          "indexed": true,
          "internalType": "string",
          "name": "shipTo",
          "type": "string"
        },
        {
          "indexed": true,
          "internalType": "address",
          "name": "to",
          "type": "address"
        }
      ],
      "name": "HornShipped",
      "type": "event"
    },
    {
      "anonymous": false,
      "inputs": [
        {
          "indexed": true,
          "internalType": "uint256",
          "name": "hornId",
          "type": "uint256"
        },
        {
          "indexed": true,
          "internalType": "address",
          "name": "seller",
          "type": "address"
        },
        {
          "indexed": true,
          "internalType": "string",
          "name": "make",
          "type": "string"
        }
      ],
      "name": "NewHornNFTMinted",
      "type": "event"
    },
    {
      "anonymous": false,
      "inputs": [
        {
          "indexed": true,
          "internalType": "address",
          "name": "previousOwner",
          "type": "address"
        },
        {
          "indexed": true,
          "internalType": "address",
          "name": "newOwner",
          "type": "address"
        }
      ],
      "name": "OwnershipTransferred",
      "type": "event"
    },
    {
      "anonymous": false,
      "inputs": [
        {
          "indexed": true,
          "internalType": "uint256",
          "name": "hornId",
          "type": "uint256"
        },
        {
          "indexed": true,
          "internalType": "address",
          "name": "payer",
          "type": "address"
        },
        {
          "indexed": true,
          "internalType": "address",
          "name": "payee",
          "type": "address"
        }
      ],
      "name": "SellerPaid",
      "type": "event"
    },
    {
      "anonymous": false,
      "inputs": [
        {
          "indexed": true,
          "internalType": "address",
          "name": "from",
          "type": "address"
        },
        {
          "indexed": true,
          "internalType": "address",
          "name": "to",
          "type": "address"
        },
        {
          "indexed": true,
          "internalType": "uint256",
          "name": "tokenId",
          "type": "uint256"
        }
      ],
      "name": "Transfer",
      "type": "event"
    },
    {
      "anonymous": false,
      "inputs": [
        {
          "indexed": true,
          "internalType": "address",
          "name": "payee",
          "type": "address"
        },
        {
          "indexed": true,
          "internalType": "uint256",
          "name": "amountInWei",
          "type": "uint256"
        }
      ],
      "name": "WithdrawnFromEscrow",
      "type": "event"
    },
    {
      "stateMutability": "payable",
      "type": "fallback",
      "payable": true
    },
    {
      "inputs": [],
      "name": "_hornId",
      "outputs": [
        {
          "internalType": "uint256",
          "name": "_value",
          "type": "uint256"
        }
      ],
      "stateMutability": "view",
      "type": "function",
      "constant": true
    },
    {
      "inputs": [
        {
          "internalType": "address",
          "name": "to",
          "type": "address"
        },
        {
          "internalType": "uint256",
          "name": "tokenId",
          "type": "uint256"
        }
      ],
      "name": "approve",
      "outputs": [],
      "stateMutability": "nonpayable",
      "type": "function"
    },
    {
      "inputs": [
        {
          "internalType": "address",
          "name": "owner",
          "type": "address"
        }
      ],
      "name": "balanceOf",
      "outputs": [
        {
          "internalType": "uint256",
          "name": "",
          "type": "uint256"
        }
      ],
      "stateMutability": "view",
      "type": "function",
      "constant": true
    },
    {
      "inputs": [
        {
          "internalType": "uint256",
          "name": "",
          "type": "uint256"
        }
      ],
      "name": "buyers",
      "outputs": [
        {
          "internalType": "address",
          "name": "",
          "type": "address"
        }
      ],
      "stateMutability": "view",
      "type": "function",
      "constant": true
    },
    {
      "inputs": [
        {
          "internalType": "uint256",
          "name": "tokenId",
          "type": "uint256"
        }
      ],
      "name": "getApproved",
      "outputs": [
        {
          "internalType": "address",
          "name": "",
          "type": "address"
        }
      ],
      "stateMutability": "view",
      "type": "function",
      "constant": true
    },
    {
      "inputs": [
        {
          "internalType": "uint256",
          "name": "",
          "type": "uint256"
        }
      ],
      "name": "horns",
      "outputs": [
        {
          "internalType": "string",
          "name": "make",
          "type": "string"
        },
        {
          "internalType": "string",
          "name": "model",
          "type": "string"
        },
        {
          "internalType": "string",
          "name": "style",
          "type": "string"
        },
        {
          "internalType": "uint256",
          "name": "serialNumber",
          "type": "uint256"
        },
        {
          "internalType": "uint256",
          "name": "listPrice",
          "type": "uint256"
        },
        {
          "internalType": "enum HornMarketplace.HornStatus",
          "name": "status",
          "type": "uint8"
        },
        {
          "internalType": "address payable",
          "name": "currentOwner",
          "type": "address"
        }
      ],
      "stateMutability": "view",
      "type": "function",
      "constant": true
    },
    {
      "inputs": [
        {
          "internalType": "uint256",
          "name": "",
          "type": "uint256"
        }
      ],
      "name": "hornsForSale",
      "outputs": [
        {
          "internalType": "uint256",
          "name": "",
          "type": "uint256"
        }
      ],
      "stateMutability": "view",
      "type": "function",
      "constant": true
    },
    {
      "inputs": [
        {
          "internalType": "address",
          "name": "owner",
          "type": "address"
        },
        {
          "internalType": "address",
          "name": "operator",
          "type": "address"
        }
      ],
      "name": "isApprovedForAll",
      "outputs": [
        {
          "internalType": "bool",
          "name": "",
          "type": "bool"
        }
      ],
      "stateMutability": "view",
      "type": "function",
      "constant": true
    },
    {
      "inputs": [],
      "name": "name",
      "outputs": [
        {
          "internalType": "string",
          "name": "",
          "type": "string"
        }
      ],
      "stateMutability": "view",
      "type": "function",
      "constant": true
    },
    {
      "inputs": [],
      "name": "owner",
      "outputs": [
        {
          "internalType": "address",
          "name": "",
          "type": "address"
        }
      ],
      "stateMutability": "view",
      "type": "function",
      "constant": true
    },
    {
      "inputs": [
        {
          "internalType": "uint256",
          "name": "tokenId",
          "type": "uint256"
        }
      ],
      "name": "ownerOf",
      "outputs": [
        {
          "internalType": "address",
          "name": "",
          "type": "address"
        }
      ],
      "stateMutability": "view",
      "type": "function",
      "constant": true
    },
    {
      "inputs": [],
      "name": "renounceOwnership",
      "outputs": [],
      "stateMutability": "nonpayable",
      "type": "function"
    },
    {
      "inputs": [
        {
          "internalType": "address",
          "name": "from",
          "type": "address"
        },
        {
          "internalType": "address",
          "name": "to",
          "type": "address"
        },
        {
          "internalType": "uint256",
          "name": "tokenId",
          "type": "uint256"
        }
      ],
      "name": "safeTransferFrom",
      "outputs": [],
      "stateMutability": "nonpayable",
      "type": "function"
    },
    {
      "inputs": [
        {
          "internalType": "address",
          "name": "from",
          "type": "address"
        },
        {
          "internalType": "address",
          "name": "to",
          "type": "address"
        },
        {
          "internalType": "uint256",
          "name": "tokenId",
          "type": "uint256"
        },
        {
          "internalType": "bytes",
          "name": "_data",
          "type": "bytes"
        }
      ],
      "name": "safeTransferFrom",
      "outputs": [],
      "stateMutability": "nonpayable",
      "type": "function"
    },
    {
      "inputs": [
        {
          "internalType": "address",
          "name": "operator",
          "type": "address"
        },
        {
          "internalType": "bool",
          "name": "approved",
          "type": "bool"
        }
      ],
      "name": "setApprovalForAll",
      "outputs": [],
      "stateMutability": "nonpayable",
      "type": "function"
    },
    {
      "inputs": [
        {
          "internalType": "address",
          "name": "",
          "type": "address"
        }
      ],
      "name": "shippingAddresses",
      "outputs": [
        {
          "internalType": "string",
          "name": "",
          "type": "string"
        }
      ],
      "stateMutability": "view",
      "type": "function",
      "constant": true
    },
    {
      "inputs": [
        {
          "internalType": "bytes4",
          "name": "interfaceId",
          "type": "bytes4"
        }
      ],
      "name": "supportsInterface",
      "outputs": [
        {
          "internalType": "bool",
          "name": "",
          "type": "bool"
        }
      ],
      "stateMutability": "view",
      "type": "function",
      "constant": true
    },
    {
      "inputs": [],
      "name": "symbol",
      "outputs": [
        {
          "internalType": "string",
          "name": "",
          "type": "string"
        }
      ],
      "stateMutability": "view",
      "type": "function",
      "constant": true
    },
    {
      "inputs": [
        {
          "internalType": "uint256",
          "name": "tokenId",
          "type": "uint256"
        }
      ],
      "name": "tokenURI",
      "outputs": [
        {
          "internalType": "string",
          "name": "",
          "type": "string"
        }
      ],
      "stateMutability": "view",
      "type": "function",
      "constant": true
    },
    {
      "inputs": [
        {
          "internalType": "address",
          "name": "from",
          "type": "address"
        },
        {
          "internalType": "address",
          "name": "to",
          "type": "address"
        },
        {
          "internalType": "uint256",
          "name": "tokenId",
          "type": "uint256"
        }
      ],
      "name": "transferFrom",
      "outputs": [],
      "stateMutability": "nonpayable",
      "type": "function"
    },
    {
      "inputs": [
        {
          "internalType": "address",
          "name": "newOwner",
          "type": "address"
        }
      ],
      "name": "transferOwnership",
      "outputs": [],
      "stateMutability": "nonpayable",
      "type": "function"
    },
    {
      "inputs": [
        {
          "internalType": "string",
          "name": "_make",
          "type": "string"
        },
        {
          "internalType": "string",
          "name": "_model",
          "type": "string"
        },
        {
          "internalType": "string",
          "name": "_style",
          "type": "string"
        },
        {
          "internalType": "uint256",
          "name": "_serialNumber",
          "type": "uint256"
        },
        {
          "internalType": "uint256",
          "name": "_desiredPrice",
          "type": "uint256"
        }
      ],
      "name": "mintThenListNewHornNFT",
      "outputs": [
        {
          "internalType": "uint256",
          "name": "",
          "type": "uint256"
        }
      ],
      "stateMutability": "nonpayable",
      "type": "function"
    },
    {
      "inputs": [
        {
          "internalType": "string",
          "name": "_make",
          "type": "string"
        },
        {
          "internalType": "string",
          "name": "_model",
          "type": "string"
        },
        {
          "internalType": "string",
          "name": "_style",
          "type": "string"
        },
        {
          "internalType": "uint256",
          "name": "_serialNumber",
          "type": "uint256"
        }
      ],
      "name": "mintButDontListNewHornNFT",
      "outputs": [
        {
          "internalType": "uint256",
          "name": "",
          "type": "uint256"
        }
      ],
      "stateMutability": "nonpayable",
      "type": "function"
    },
    {
      "inputs": [
        {
          "internalType": "uint256",
          "name": "__hornId",
          "type": "uint256"
        },
        {
          "internalType": "uint256",
          "name": "_desiredPrice",
          "type": "uint256"
        }
      ],
      "name": "listExistingHornNFT",
      "outputs": [
        {
          "internalType": "uint256",
          "name": "",
          "type": "uint256"
        }
      ],
      "stateMutability": "nonpayable",
      "type": "function"
    },
    {
      "inputs": [
        {
          "internalType": "uint256",
          "name": "__hornId",
          "type": "uint256"
        },
        {
          "internalType": "string",
          "name": "_shipTo",
          "type": "string"
        }
      ],
      "name": "purchaseHornByHornId",
      "outputs": [],
      "stateMutability": "payable",
      "type": "function",
      "payable": true
    },
    {
      "inputs": [
        {
          "internalType": "uint256",
          "name": "__hornId",
          "type": "uint256"
        },
        {
          "internalType": "string",
          "name": "shippedTo",
          "type": "string"
        }
      ],
      "name": "markHornShipped",
      "outputs": [],
      "stateMutability": "nonpayable",
      "type": "function"
    },
    {
      "inputs": [
        {
          "internalType": "uint256",
          "name": "__hornId",
          "type": "uint256"
        }
      ],
      "name": "markHornDeliveredAndOwnershipTransferred",
      "outputs": [
        {
          "internalType": "uint256",
          "name": "",
          "type": "uint256"
        }
      ],
      "stateMutability": "nonpayable",
      "type": "function"
    }
  ],
  "bytecode": "0x60806040523480156200001157600080fd5b506040518060400160405280600481526020017f486f726e000000000000000000000000000000000000000000000000000000008152506040518060400160405280600481526020017f484f524e00000000000000000000000000000000000000000000000000000000815250620000aa6200009b6200012a640100000000026401000000009004565b6401000000006200012e810204565b8151620000bf9060019060208501906200017e565b508051620000d59060029060208401906200017e565b505050604051620000e6906200020d565b604051809103906000f08015801562000103573d6000803e3d6000fd5b5060088054600160a060020a031916600160a060020a039290921691909117905562000288565b3390565b60008054600160a060020a03838116600160a060020a0319831681178455604051919092169283917f8be0079c531659141344cd1fd0a4f28419497f9722a3daafe3b4186f6b6457e09190a35050565b8280546200018c9062000232565b90600052602060002090601f016020900481019282620001b05760008555620001fb565b82601f10620001cb57805160ff1916838001178555620001fb565b82800160010185558215620001fb579182015b82811115620001fb578251825591602001919060010190620001de565b50620002099291506200021b565b5090565b610720806200394083390190565b5b808211156200020957600081556001016200021c565b6002810460018216806200024757607f821691505b6020821081141562000282577f4e487b7100000000000000000000000000000000000000000000000000000000600052602260045260246000fd5b50919050565b6136a880620002986000396000f3fe6080604052600436106101b9576000357c01000000000000000000000000000000000000000000000000000000009004806395d89b4111610109578063c87b56dd116100a7578063e40b96cf11610081578063e40b96cf146104cb578063e985e9c5146104eb578063f2aa82181461050b578063f2fde38b1461052b576101b9565b8063c87b56dd1461046b578063cf44981a1461048b578063e3cbb368146104ab576101b9565b8063b5178ed5116100e3578063b5178ed5146103d8578063b7d002f41461040b578063b88d4fde1461042b578063c0227bbb1461044b576101b9565b806395d89b4114610383578063a22cb46514610398578063b15fca9e146103b8576101b9565b806330333e97116101765780636352211e116101505780636352211e1461031957806370a0823114610339578063715018a6146103595780638da5cb5b1461036e576101b9565b806330333e97146102d15780633a770745146102e657806342842e0e146102f9576101b9565b806301ffc9a7146101dd57806306fdde0314610213578063081812fc14610235578063095ea7b314610262578063125bba371461028457806323b872dd146102b1575b60405160e560020a62461bcd0281526004016101d490613477565b60405180910390fd5b3480156101e957600080fd5b506101fd6101f83660046126b9565b61054b565b60405161020a9190612a3e565b60405180910390f35b34801561021f57600080fd5b506102286105c5565b60405161020a9190612a49565b34801561024157600080fd5b50610255610250366004612835565b610657565b60405161020a91906129ee565b34801561026e57600080fd5b5061028261027d366004612690565b61069d565b005b34801561029057600080fd5b506102a461029f3660046128af565b61073b565b60405161020a9190613520565b3480156102bd57600080fd5b506102826102cc36600461254f565b61088d565b3480156102dd57600080fd5b506102a46108c8565b6102826102f4366004612865565b6108ce565b34801561030557600080fd5b5061028261031436600461254f565b610b84565b34801561032557600080fd5b50610255610334366004612835565b610b9f565b34801561034557600080fd5b506102a4610354366004612503565b610bd7565b34801561036557600080fd5b50610282610c1e565b34801561037a57600080fd5b50610255610c6c565b34801561038f57600080fd5b50610228610c7b565b3480156103a457600080fd5b506102826103b3366004612656565b610c8a565b3480156103c457600080fd5b506102286103d3366004612503565b610d5b565b3480156103e457600080fd5b506103f86103f3366004612835565b610df5565b60405161020a9796959493929190612a5c565b34801561041757600080fd5b506102a4610426366004612835565b610fd6565b34801561043757600080fd5b5061028261044636600461258a565b61132f565b34801561045757600080fd5b506102a4610466366004612835565b611371565b34801561047757600080fd5b50610228610486366004612835565b611392565b34801561049757600080fd5b506102826104a6366004612865565b611418565b3480156104b757600080fd5b506102a46104c6366004612790565b611699565b3480156104d757600080fd5b506102a46104e63660046126f1565b61197b565b3480156104f757600080fd5b506101fd61050636600461251d565b611c05565b34801561051757600080fd5b50610255610526366004612835565b611c33565b34801561053757600080fd5b50610282610546366004612503565b611c4e565b6000600160e060020a031982167f80ac58cd0000000000000000000000000000000000000000000000000000000014806105ae5750600160e060020a031982167f5b5e139f00000000000000000000000000000000000000000000000000000000145b806105bd57506105bd82611cc5565b90505b919050565b6060600180546105d4906135a4565b80601f0160208091040260200160405190810160405280929190818152602001828054610600906135a4565b801561064d5780601f106106225761010080835404028352916020019161064d565b820191906000526020600020905b81548152906001019060200180831161063057829003601f168201915b5050505050905090565b600061066282611cf7565b6106815760405160e560020a62461bcd0281526004016101d4906130a0565b50600090815260056020526040902054600160a060020a031690565b60006106a882610b9f565b905080600160a060020a031683600160a060020a031614156106df5760405160e560020a62461bcd0281526004016101d490613303565b80600160a060020a03166106f1611d14565b600160a060020a0316148061070d575061070d81610506611d14565b61072c5760405160e560020a62461bcd0281526004016101d490612d82565b6107368383611d18565b505050565b6000828152600c60205260408120548390600160a060020a031633146107765760405160e560020a62461bcd0281526004016101d490613043565b600083116107995760405160e560020a62461bcd0281526004016101d490612cc8565b6000848152600a602052604081206005015460ff1660038111156107d05760e060020a634e487b7102600052602160045260246000fd5b14156107f15760405160e560020a62461bcd0281526004016101d49061341a565b60098054600181019091557f6e1540171b6c0c960b71a7020d9f60077f6af931a8bbf590da0223dacf75c7af018490556000848152600a6020526040908190206004810185905560058101805460ff191690559051859161085191612950565b60405190819003812090339083907f762f1a2f7e87bdc2ebbbeb92df2d742317f8e1353aafc0c70b060981e72271f490600090a4949350505050565b61089e610898611d14565b82611d86565b6108bd5760405160e560020a62461bcd0281526004016101d490613360565b610736838383611e0e565b60075481565b6000838152600a602052604090206004015483906109015760405160e560020a62461bcd0281526004016101d49061318f565b6000818152600a602052604090206005015460ff1660038111156109385760e060020a634e487b7102600052602160045260246000fd5b156109585760405160e560020a62461bcd0281526004016101d490612fb1565b6000848152600a60205260409020600401548490341461098d5760405160e560020a62461bcd0281526004016101d490612ae6565b6008546000868152600c6020526040908190205490517ff340fa01000000000000000000000000000000000000000000000000000000008152600160a060020a039283169263f340fa01926109e7929116906004016129ee565b600060405180830381600087803b158015610a0157600080fd5b505af1158015610a15573d6000803e3d6000fd5b5050336000908152600e60205260409020610a34925090508585612398565b506000858152600d602090815260408083208054600160a060020a03191633179055600a9091528120600501805460ff191660011790555b600954811015610aee578560098281548110610a9b5760e060020a634e487b7102600052603260045260246000fd5b90600052602060002001541415610adc5760098181548110610ad05760e060020a634e487b7102600052603260045260246000fd5b60009182526020822001555b80610ae6816135e2565b915050610a6c565b506040513390610b0190869086906128fc565b6040519081900381209087907fdbca9a11cad69a5ab275fd9838feb30068a34f31d0f876d995c14a8dd906f70990600090a46000858152600a60205260408082206005015490513492610100909204600160a060020a0316917fe6138e0eb7be5ea87d2296f3ad7469a8364406bface7d4e5de0a21dce1841cdd91a35050505050565b6107368383836040518060200160405280600081525061132f565b600081815260036020526040812054600160a060020a0316806105bd5760405160e560020a62461bcd0281526004016101d490612e99565b6000600160a060020a038216610c025760405160e560020a62461bcd0281526004016101d490612e3c565b50600160a060020a031660009081526004602052604090205490565b610c26611d14565b600160a060020a0316610c37610c6c565b600160a060020a031614610c605760405160e560020a62461bcd0281526004016101d49061315a565b610c6a6000611f41565b565b600054600160a060020a031690565b6060600280546105d4906135a4565b610c92611d14565b600160a060020a031682600160a060020a03161415610cc65760405160e560020a62461bcd0281526004016101d490612c91565b8060066000610cd3611d14565b600160a060020a03908116825260208083019390935260409182016000908120918716808252919093529120805460ff191692151592909217909155610d17611d14565b600160a060020a03167f17307eab39ab6107e8899845ad3d59bd9653f200f220920489ca2b5937696c3183604051610d4f9190612a3e565b60405180910390a35050565b600e6020526000908152604090208054610d74906135a4565b80601f0160208091040260200160405190810160405280929190818152602001828054610da0906135a4565b8015610ded5780601f10610dc257610100808354040283529160200191610ded565b820191906000526020600020905b815481529060010190602001808311610dd057829003601f168201915b505050505081565b600a60205260009081526040902080548190610e10906135a4565b80601f0160208091040260200160405190810160405280929190818152602001828054610e3c906135a4565b8015610e895780601f10610e5e57610100808354040283529160200191610e89565b820191906000526020600020905b815481529060010190602001808311610e6c57829003601f168201915b505050505090806001018054610e9e906135a4565b80601f0160208091040260200160405190810160405280929190818152602001828054610eca906135a4565b8015610f175780601f10610eec57610100808354040283529160200191610f17565b820191906000526020600020905b815481529060010190602001808311610efa57829003601f168201915b505050505090806002018054610f2c906135a4565b80601f0160208091040260200160405190810160405280929190818152602001828054610f58906135a4565b8015610fa55780601f10610f7a57610100808354040283529160200191610fa5565b820191906000526020600020905b815481529060010190602001808311610f8857829003601f168201915b50505050600383015460048401546005909401549293909290915060ff8116906101009004600160a060020a031687565b6000818152600d60205260408120548290600160a060020a031633146110115760405160e560020a62461bcd0281526004016101d490612f53565b8261101c3082611d86565b61103b5760405160e560020a62461bcd0281526004016101d490612ddf565b6000818152600a602052604090206005015460ff1660038111156110725760e060020a634e487b7102600052602160045260246000fd5b6002146110945760405160e560020a62461bcd0281526004016101d4906133bd565b6008546000858152600a60205260408082206005015490517fe3a9db1a0000000000000000000000000000000000000000000000000000000081529192600160a060020a039081169263e3a9db1a926110f79261010090910416906004016129ee565b60206040518083038186803b15801561110f57600080fd5b505afa158015611123573d6000803e3d6000fd5b505050506040513d601f19601f82011682018060405250810190611147919061284d565b6008546000878152600a6020526040908190206005015490517f51cff8d9000000000000000000000000000000000000000000000000000000008152929350600160a060020a03918216926351cff8d9926111ab92610100900416906004016129ee565b600060405180830381600087803b1580156111c557600080fd5b505af11580156111d9573d6000803e3d6000fd5b5050506000868152600d602090815260408083208054600160a060020a03191690558051808301808352848252338552600e9093529220915161121c935061241c565b506000858152600a602090815260408083206005018054600360ff199091161774ffffffffffffffffffffffffffffffffffffffff00191633610100810291909117909155600c90925290912054600160a060020a03169061128090829088610b84565b6040513390600160a060020a0383169088907f86ff2a738e00d7cf2613e4bd44ae641e080a2877f978be45ac950525d26d04c590600090a46040513390600160a060020a0383169088907ffc99b02f822d46feedca53aafaa97c596bf87bb34925d350b64a13275388de4a90600090a46040518290600160a060020a038316907f033e0f8c9aa8fcdd1b01ad637814ecdb49b6ddc7445f13555d21b3c2959b5d1f90600090a350949350505050565b61134061133a611d14565b83611d86565b61135f5760405160e560020a62461bcd0281526004016101d490613360565b61136b84848484611f91565b50505050565b6009818154811061138157600080fd5b600091825260209091200154905081565b606061139d82611cf7565b6113bc5760405160e560020a62461bcd0281526004016101d490613249565b60006113c6611fc7565b905060008151116113e65760405180602001604052806000815250611411565b806113f084611fd9565b604051602001611401929190612921565b6040516020818303038152906040525b9392505050565b6000838152600c60205260409020548390600160a060020a031633146114535760405160e560020a62461bcd0281526004016101d490613043565b6000848152600a60205260409081902060049081015460085492517fe3a9db1a00000000000000000000000000000000000000000000000000000000815287939192600160a060020a039092169163e3a9db1a916114b3913391016129ee565b60206040518083038186803b1580156114cb57600080fd5b505afa1580156114df573d6000803e3d6000fd5b505050506040513d601f19601f82011682018060405250810190611503919061284d565b146115235760405160e560020a62461bcd0281526004016101d4906130fd565b6000818152600a602052604090206005015460ff16600381111561155a5760e060020a634e487b7102600052602160045260246000fd5b60011461157c5760405160e560020a62461bcd0281526004016101d490612ef6565b6000858152600d6020908152604080832054600160a060020a0316808452600e83529281902090516115ae9201612950565b6040516020818303038152906040528051906020012085856040516020016115d79291906128fc565b604051602081830303815290604052805190602001201461160d5760405160e560020a62461bcd0281526004016101d4906132a6565b6000868152600a60205260409020600501805460ff19166002179055611633308761069d565b6000868152600d602052604090819020549051600160a060020a039091169061165f90879087906128fc565b6040519081900381209088907f39fd051deea672a32743d0c813cc2c161b3dacddbff9e2415abc2acbf2e088fb90600090a4505050505050565b60008082116116bd5760405160e560020a62461bcd0281526004016101d490612cc8565b6116c7600761214d565b60006116d36007612156565b90506116df338261215a565b6040518060e001604052808b8b8080601f016020809104026020016040519081016040528093929190818152602001838380828437600092019190915250505090825250604080516020601f8c018190048102820181019092528a815291810191908b908b9081908401838280828437600092019190915250505090825250604080516020601f8a0181900481028201810190925288815291810191908990899081908401838280828437600092018290525093855250505060208201879052604082018690526060909101908152336020918201526000838152600a8252604090208251805191926117d79284929091019061241c565b5060208281015180516117f0926001850192019061241c565b506040820151805161180c91600284019160209091019061241c565b50606082015181600301556080820151816004015560a08201518160050160006101000a81548160ff0219169083600381111561185c5760e060020a634e487b7102600052602160045260246000fd5b021790555060c0919091015160059091018054600160a060020a039092166101000274ffffffffffffffffffffffffffffffffffffffff00199092169190911790556000818152600c602090815260408083208054600160a060020a03191633179055600980546001810182559084527f6e1540171b6c0c960b71a7020d9f60077f6af931a8bbf590da0223dacf75c7af0184905551611902918d918d9189910161290c565b60408051601f1981840301815282825280516020918201206000868152600b9092529190208190559150611939908c908c906128fc565b60405190819003812090339084907f762f1a2f7e87bdc2ebbbeb92df2d742317f8e1353aafc0c70b060981e72271f490600090a4509998505050505050505050565b6000611987600761214d565b60006119936007612156565b905061199f338261215a565b6040518060e001604052808a8a8080601f016020809104026020016040519081016040528093929190818152602001838380828437600092019190915250505090825250604080516020601f8b0181900481028201810190925289815291810191908a908a9081908401838280828437600092019190915250505090825250604080516020601f890181900481028201810190925287815291810191908890889081908401838280828437600092018290525093855250505060208201869052604082015260600160038152336020918201526000838152600a825260409020825180519192611a949284929091019061241c565b506020828101518051611aad926001850192019061241c565b5060408201518051611ac991600284019160209091019061241c565b50606082015181600301556080820151816004015560a08201518160050160006101000a81548160ff02191690836003811115611b195760e060020a634e487b7102600052602160045260246000fd5b021790555060c0919091015160059091018054600160a060020a039092166101000274ffffffffffffffffffffffffffffffffffffffff00199092169190911790556000818152600c602090815260408083208054600160a060020a0319163317905551611b8d918c918c9188910161290c565b60408051601f1981840301815282825280516020918201206000868152600b9092529190208190559150611bc4908b908b906128fc565b60405190819003812090339084907f4d80549dfe39c90078d620fcd854e5cbf03ace471593a7df725d1191056f30a190600090a45098975050505050505050565b600160a060020a03918216600090815260066020908152604080832093909416825291909152205460ff1690565b600d60205260009081526040902054600160a060020a031681565b611c56611d14565b600160a060020a0316611c67610c6c565b600160a060020a031614611c905760405160e560020a62461bcd0281526004016101d49061315a565b600160a060020a038116611cb95760405160e560020a62461bcd0281526004016101d490612ba0565b611cc281611f41565b50565b600160e060020a031981167f01ffc9a70000000000000000000000000000000000000000000000000000000014919050565b600090815260036020526040902054600160a060020a0316151590565b3390565b60008181526005602052604090208054600160a060020a031916600160a060020a0384169081179091558190611d4d82610b9f565b600160a060020a03167f8c5be1e5ebec7d5bd14f71427d1e84f3dd0314c0f7b2291e5b200ac8c7c3b92560405160405180910390a45050565b6000611d9182611cf7565b611db05760405160e560020a62461bcd0281526004016101d490612d25565b6000611dbb83610b9f565b905080600160a060020a031684600160a060020a03161480611df6575083600160a060020a0316611deb84610657565b600160a060020a0316145b80611e065750611e068185611c05565b949350505050565b82600160a060020a0316611e2182610b9f565b600160a060020a031614611e4a5760405160e560020a62461bcd0281526004016101d4906131ec565b600160a060020a038216611e735760405160e560020a62461bcd0281526004016101d490612c34565b611e7e838383610736565b611e89600082611d18565b600160a060020a0383166000908152600460205260408120805460019290611eb2908490613561565b9091555050600160a060020a0382166000908152600460205260408120805460019290611ee0908490613535565b90915550506000818152600360205260408082208054600160a060020a031916600160a060020a0386811691821790925591518493918716917fddf252ad1be2c89b69c2b068fc378daa952ba7f163c4a11628f55a4df523b3ef91a4505050565b60008054600160a060020a03838116600160a060020a0319831681178455604051919092169283917f8be0079c531659141344cd1fd0a4f28419497f9722a3daafe3b4186f6b6457e09190a35050565b611f9c848484611e0e565b611fa88484848461223f565b61136b5760405160e560020a62461bcd0281526004016101d490612b43565b60408051602081019091526000815290565b60608161201a575060408051808201909152600181527f300000000000000000000000000000000000000000000000000000000000000060208201526105c0565b8160005b8115612044578061202e816135e2565b915061203d9050600a8361354d565b915061201e565b60008167ffffffffffffffff8111156120705760e060020a634e487b7102600052604160045260246000fd5b6040519080825280601f01601f19166020018201604052801561209a576020820181803683370190505b5090505b8415611e06576120af600183613561565b91506120bc600a866135fd565b6120c7906030613535565b7f01000000000000000000000000000000000000000000000000000000000000000281838151811061210c5760e060020a634e487b7102600052603260045260246000fd5b60200101907effffffffffffffffffffffffffffffffffffffffffffffffffffffffffffff1916908160001a905350612146600a8661354d565b945061209e565b80546001019055565b5490565b600160a060020a0382166121835760405160e560020a62461bcd0281526004016101d49061300e565b61218c81611cf7565b156121ac5760405160e560020a62461bcd0281526004016101d490612bfd565b6121b860008383610736565b600160a060020a03821660009081526004602052604081208054600192906121e1908490613535565b90915550506000818152600360205260408082208054600160a060020a031916600160a060020a03861690811790915590518392907fddf252ad1be2c89b69c2b068fc378daa952ba7f163c4a11628f55a4df523b3ef908290a45050565b600061225384600160a060020a0316612392565b156123875783600160a060020a031663150b7a0261226f611d14565b8786866040518563ffffffff167c01000000000000000000000000000000000000000000000000000000000281526004016122ad9493929190612a02565b602060405180830381600087803b1580156122c757600080fd5b505af19250505080156122f7575060408051601f3d908101601f191682019092526122f4918101906126d5565b60015b612354573d808015612325576040519150601f19603f3d011682016040523d82523d6000602084013e61232a565b606091505b50805161234c5760405160e560020a62461bcd0281526004016101d490612b43565b805181602001fd5b600160e060020a0319167f150b7a0200000000000000000000000000000000000000000000000000000000149050611e06565b506001949350505050565b3b151590565b8280546123a4906135a4565b90600052602060002090601f0160209004810192826123c6576000855561240c565b82601f106123df5782800160ff1982351617855561240c565b8280016001018555821561240c579182015b8281111561240c5782358255916020019190600101906123f1565b50612418929150612490565b5090565b828054612428906135a4565b90600052602060002090601f01602090048101928261244a576000855561240c565b82601f1061246357805160ff191683800117855561240c565b8280016001018555821561240c579182015b8281111561240c578251825591602001919060010190612475565b5b808211156124185760008155600101612491565b8035600160a060020a03811681146105c057600080fd5b60008083601f8401126124cd578182fd5b50813567ffffffffffffffff8111156124e4578182fd5b6020830191508360208285010111156124fc57600080fd5b9250929050565b600060208284031215612514578081fd5b611411826124a5565b6000806040838503121561252f578081fd5b612538836124a5565b9150612546602084016124a5565b90509250929050565b600080600060608486031215612563578081fd5b61256c846124a5565b925061257a602085016124a5565b9150604084013590509250925092565b6000806000806080858703121561259f578081fd5b6125a8856124a5565b935060206125b78187016124a5565b935060408601359250606086013567ffffffffffffffff808211156125da578384fd5b818801915088601f8301126125ed578384fd5b8135818111156125ff576125ff613643565b604051601f8201601f191681018501838111828210171561262257612622613643565b60405281815283820185018b1015612638578586fd5b81858501868301379081019093019390935250939692955090935050565b60008060408385031215612668578182fd5b612671836124a5565b915060208301358015158114612685578182fd5b809150509250929050565b600080604083850312156126a2578182fd5b6126ab836124a5565b946020939093013593505050565b6000602082840312156126ca578081fd5b81356114118161365c565b6000602082840312156126e6578081fd5b81516114118161365c565b60008060008060008060006080888a03121561270b578283fd5b873567ffffffffffffffff80821115612722578485fd5b61272e8b838c016124bc565b909950975060208a0135915080821115612746578485fd5b6127528b838c016124bc565b909750955060408a013591508082111561276a578485fd5b506127778a828b016124bc565b989b979a50959894979596606090950135949350505050565b60008060008060008060008060a0898b0312156127ab578081fd5b883567ffffffffffffffff808211156127c2578283fd5b6127ce8c838d016124bc565b909a50985060208b01359150808211156127e6578283fd5b6127f28c838d016124bc565b909850965060408b013591508082111561280a578283fd5b506128178b828c016124bc565b999c989b509699959896976060870135966080013595509350505050565b600060208284031215612846578081fd5b5035919050565b60006020828403121561285e578081fd5b5051919050565b600080600060408486031215612879578081fd5b83359250602084013567ffffffffffffffff811115612896578182fd5b6128a2868287016124bc565b9497909650939450505050565b600080604083850312156128c1578182fd5b50508035926020909101359150565b600081518084526128e8816020860160208601613578565b601f01601f19169290920160200192915050565b6000828483379101908152919050565b60008385833750909101908152602001919050565b60008351612933818460208801613578565b835190830190612947818360208801613578565b01949350505050565b815460009081906002810460018083168061296c57607f831692505b602080841082141561298f5760e060020a634e487b710287526022600452602487fd5b8180156129a357600181146129b4576129e0565b60ff198616895284890196506129e0565b6129bd8a613529565b885b868110156129d85781548b8201529085019083016129bf565b505084890196505b509498975050505050505050565b600160a060020a0391909116815260200190565b6000600160a060020a03808716835280861660208401525083604083015260806060830152612a3460808301846128d0565b9695505050505050565b901515815260200190565b60006020825261141160208301846128d0565b600060e08252612a6f60e083018a6128d0565b8281036020840152612a81818a6128d0565b90508281036040840152612a9581896128d0565b91505085606083015284608083015260048410612ac55760e060020a634e487b7102600052602160045260246000fd5b8360a0830152600160a060020a03831660c083015298975050505050505050565b6020808252602e908201527f5061796d656e7420616d6f756e74206d7573742065786163746c79206d61746360408201527f68206c6973746564207072696365000000000000000000000000000000000000606082015260800190565b60208082526032908201527f4552433732313a207472616e7366657220746f206e6f6e20455243373231526560408201527f63656976657220696d706c656d656e7465720000000000000000000000000000606082015260800190565b60208082526026908201527f4f776e61626c653a206e6577206f776e657220697320746865207a65726f206160408201527f6464726573730000000000000000000000000000000000000000000000000000606082015260800190565b6020808252601c908201527f4552433732313a20746f6b656e20616c7265616479206d696e74656400000000604082015260600190565b60208082526024908201527f4552433732313a207472616e7366657220746f20746865207a65726f2061646460408201527f7265737300000000000000000000000000000000000000000000000000000000606082015260800190565b60208082526019908201527f4552433732313a20617070726f766520746f2063616c6c657200000000000000604082015260600190565b60208082526032908201527f596f757220486f726e2069732076616c7561626c6520616e642063616e6e6f7460408201527f20626520736f6c6420666f722066726565210000000000000000000000000000606082015260800190565b6020808252602c908201527f4552433732313a206f70657261746f7220717565727920666f72206e6f6e657860408201527f697374656e7420746f6b656e0000000000000000000000000000000000000000606082015260800190565b60208082526038908201527f4552433732313a20617070726f76652063616c6c6572206973206e6f74206f7760408201527f6e6572206e6f7220617070726f76656420666f7220616c6c0000000000000000606082015260800190565b6020808252603a908201527f5468697320636f6e7472616374206d757374206669727374206265206170707260408201527f6f7665642062792063757272656e7420686f726e206f776e6572000000000000606082015260800190565b6020808252602a908201527f4552433732313a2062616c616e636520717565727920666f7220746865207a6560408201527f726f206164647265737300000000000000000000000000000000000000000000606082015260800190565b60208082526029908201527f4552433732313a206f776e657220717565727920666f72206e6f6e657869737460408201527f656e7420746f6b656e0000000000000000000000000000000000000000000000606082015260800190565b60208082526028908201527f486f726e20686173206e6f74206265656e206d61726b6564206173207061696460408201527f20666f7220796574000000000000000000000000000000000000000000000000606082015260800190565b602080825260409082018190527f546869732066756e6374696f6e206d6179206f6e6c792062652063616c6c6564908201527f20627920612062757965722077686f2068617320616c72656164792070616964606082015260800190565b60208082526025908201527f486f726e206973206e6f742063757272656e746c79206c697374656420666f7260408201527f2073616c65000000000000000000000000000000000000000000000000000000606082015260800190565b6020808252818101527f4552433732313a206d696e7420746f20746865207a65726f2061646472657373604082015260600190565b60208082526038908201527f546869732066756e6374696f6e206d6179206f6e6c792062652063616c6c656460408201527f2062792074686520686f726e204e46542773206f776e65720000000000000000606082015260800190565b6020808252602c908201527f4552433732313a20617070726f76656420717565727920666f72206e6f6e657860408201527f697374656e7420746f6b656e0000000000000000000000000000000000000000606082015260800190565b60208082526034908201527f4275796572206d7573742073656e64207061796d656e7420666f7220486f726e60408201527f204e465420746f20657363726f77206669727374000000000000000000000000606082015260800190565b6020808252818101527f4f776e61626c653a2063616c6c6572206973206e6f7420746865206f776e6572604082015260600190565b60208082526026908201527f486f726e204e4654206d75737420657869737420616e642063616e6e6f74206260408201527f6520667265650000000000000000000000000000000000000000000000000000606082015260800190565b60208082526029908201527f4552433732313a207472616e73666572206f6620746f6b656e2074686174206960408201527f73206e6f74206f776e0000000000000000000000000000000000000000000000606082015260800190565b6020808252602f908201527f4552433732314d657461646174613a2055524920717565727920666f72206e6f60408201527f6e6578697374656e7420746f6b656e0000000000000000000000000000000000606082015260800190565b6020808252603a908201527f4164647265737320676976656e20646f6573206e6f74206d617463682074686560408201527f206f6e65206f6e2066696c6520666f7220746865206275796572000000000000606082015260800190565b60208082526021908201527f4552433732313a20617070726f76616c20746f2063757272656e74206f776e6560408201527f7200000000000000000000000000000000000000000000000000000000000000606082015260800190565b60208082526031908201527f4552433732313a207472616e736665722063616c6c6572206973206e6f74206f60408201527f776e6572206e6f7220617070726f766564000000000000000000000000000000606082015260800190565b60208082526027908201527f486f726e20686173206e6f74206265656e206d61726b6564206173207368697060408201527f7065642079657400000000000000000000000000000000000000000000000000606082015260800190565b60208082526024908201527f596f757220486f726e20697320616c7265616479206c697374656420666f722060408201527f73616c6500000000000000000000000000000000000000000000000000000000606082015260800190565b6020808252606b908201527f506c6561736520646f206e6f742073656e64207468697320636f6e747261637460408201527f2066756e647320776974686f757420616e792066756e6374696f6e2063616c6c60608201527f2064617461206f722063616c6c20612066756e6374696f6e207468617420646f60808201527f65736e277420657869737400000000000000000000000000000000000000000060a082015260c00190565b90815260200190565b60009081526020902090565b6000821982111561354857613548613611565b500190565b60008261355c5761355c61362a565b500490565b60008282101561357357613573613611565b500390565b60005b8381101561359357818101518382015260200161357b565b8381111561136b5750506000910152565b6002810460018216806135b857607f821691505b602082108114156135dc5760e060020a634e487b7102600052602260045260246000fd5b50919050565b60006000198214156135f6576135f6613611565b5060010190565b60008261360c5761360c61362a565b500690565b60e060020a634e487b7102600052601160045260246000fd5b60e060020a634e487b7102600052601260045260246000fd5b60e060020a634e487b7102600052604160045260246000fd5b600160e060020a031981168114611cc257600080fdfea26469706673582212209fdf994d35756cef18cb8c7a50c14d70ee84f2992de04a9be9c9a5a9a338323a64736f6c63430008000033608060405234801561001057600080fd5b50610033610025640100000000610038810204565b64010000000061003c810204565b61008c565b3390565b60008054600160a060020a03838116600160a060020a0319831681178455604051919092169283917f8be0079c531659141344cd1fd0a4f28419497f9722a3daafe3b4186f6b6457e09190a35050565b6106858061009b6000396000f3fe608060405260043610610071577c0100000000000000000000000000000000000000000000000000000000600035046351cff8d98114610076578063715018a6146100985780638da5cb5b146100ad578063e3a9db1a146100d8578063f2fde38b14610105578063f340fa0114610125575b600080fd5b34801561008257600080fd5b50610096610091366004610494565b610138565b005b3480156100a457600080fd5b506100966101f0565b3480156100b957600080fd5b506100c261023e565b6040516100cf91906104ba565b60405180910390f35b3480156100e457600080fd5b506100f86100f3366004610494565b61024d565b6040516100cf91906105f4565b34801561011157600080fd5b50610096610120366004610494565b610268565b610096610133366004610494565b6102df565b61014061038b565b600160a060020a031661015161023e565b600160a060020a0316146101835760405160e560020a62461bcd02815260040161017a906105bf565b60405180910390fd5b600160a060020a03811660008181526001602052604081208054919055906101ab908261038f565b81600160a060020a03167f7084f5476618d8e60b11ef0d7d3f06914655adb8793e28ff7f018d4c76d505d5826040516101e491906105f4565b60405180910390a25050565b6101f861038b565b600160a060020a031661020961023e565b600160a060020a0316146102325760405160e560020a62461bcd02815260040161017a906105bf565b61023c6000610437565b565b600054600160a060020a031690565b600160a060020a031660009081526001602052604090205490565b61027061038b565b600160a060020a031661028161023e565b600160a060020a0316146102aa5760405160e560020a62461bcd02815260040161017a906105bf565b600160a060020a0381166102d35760405160e560020a62461bcd02815260040161017a906104ce565b6102dc81610437565b50565b6102e761038b565b600160a060020a03166102f861023e565b600160a060020a0316146103215760405160e560020a62461bcd02815260040161017a906105bf565b600160a060020a03811660009081526001602052604081208054349283929161034b9084906105fd565b9250508190555081600160a060020a03167f2da466a7b24304f47e87fa2e1e5a81b9831ce54fec19055ce277ca2f39ba42c4826040516101e491906105f4565b3390565b30318111156103b35760405160e560020a62461bcd02815260040161017a90610588565b600082600160a060020a0316826040516103cc906104b7565b60006040518083038185875af1925050503d8060008114610409576040519150601f19603f3d011682016040523d82523d6000602084013e61040e565b606091505b50509050806104325760405160e560020a62461bcd02815260040161017a9061052b565b505050565b60008054600160a060020a0383811673ffffffffffffffffffffffffffffffffffffffff19831681178455604051919092169283917f8be0079c531659141344cd1fd0a4f28419497f9722a3daafe3b4186f6b6457e09190a35050565b6000602082840312156104a5578081fd5b81356104b08161063a565b9392505050565b90565b600160a060020a0391909116815260200190565b60208082526026908201527f4f776e61626c653a206e6577206f776e657220697320746865207a65726f206160408201527f6464726573730000000000000000000000000000000000000000000000000000606082015260800190565b6020808252603a908201527f416464726573733a20756e61626c6520746f2073656e642076616c75652c207260408201527f6563697069656e74206d61792068617665207265766572746564000000000000606082015260800190565b6020808252601d908201527f416464726573733a20696e73756666696369656e742062616c616e6365000000604082015260600190565b6020808252818101527f4f776e61626c653a2063616c6c6572206973206e6f7420746865206f776e6572604082015260600190565b90815260200190565b60008219821115610635577f4e487b710000000000000000000000000000000000000000000000000000000081526011600452602481fd5b500190565b600160a060020a03811681146102dc57600080fdfea2646970667358221220f305965515bf56bd3bdd388a27299eb6d2511a6b76cdf0be030db5497f01ed0064736f6c63430008000033",
  "immutableReferences": {},
  "source": "// SPDX-License-Identifier: MIT\npragma solidity 0.8.0;\n\n/** \n  * @title Peer to peer Horn Marketplace using NFTs and Escrow Smart Contract\n  * @author Markus Osterlund aka hornosexual.eth, 2nd Horn of National Symphony Orchestra and hopeful Ethereum Engineer @Consensys Academy Bootcamp\n */\n\n\nimport \"./Escrow.sol\";\n\nimport \"../node_modules/@openzeppelin/contracts/utils/Counters.sol\";\nimport \"../node_modules/@openzeppelin/contracts/access/Ownable.sol\";\nimport \"../node_modules/@openzeppelin/contracts/token/ERC721/ERC721.sol\";\n\n/*\n   Interfaces\n*/\n\ncontract HornMarketplace is Ownable, ERC721 {\n    using Counters for Counters.Counter;\n    Counters.Counter /*private*/ public _hornId; // OpenZeppelin library initializes this to 0 by default\n    /*\n        Instantiate Escrow Contract\n    */\n    Escrow escrow;\n    //EscrowContract escrow = EscrowContract(DEVELOPMENT_DEPLOYED_ESCROW_ADDR_HERE); // these two lines necessary?\n    //EscrowContract escrow = EscrowContract(RINKEBY_DEPLOYED_ESCROW_ADDR_HERE)\n\n    /*\n        On-chain Horn data: Metadata Struct\n    */\n    // @param make denotes builder/manufacturer of the instrument \n    // @param model denotes model name of the instrument\n    // @param style denotes double/triple/descant/single/compensating and wrap ie geyer/kruspe/knopf/other\n    // @param serialNumber denotes serial number\n    // @param currentOwner denotes musician who currently owns the instrument\n    // @param buyer denotes buyer who purchased\n    struct Horn { // optimize gas on these struct attributes- which order/size?\n      string make;\n      string model;\n      string style;\n      uint serialNumber;\n      uint listPrice; // this attribute probably needs to be labeled as 'inWei' and converted from eth at time of listing\n      HornStatus status;\n      address payable currentOwner;\n    }\n\n    /*\n        Enum for Status of Order\n    */\n    enum HornStatus {\n        ListedForSale,\n        PaidFor,\n        Shipped,\n        OwnedNotForSale\n    }\n\n    // @dev hornId is a unique, publicly accessible counter (as opposed to Counter _hornId) for each horn NFT in existence\n    // @dev hornsForSale array allows for quickly viewing listed instruments via frontend\n    // address payable owner;\n    uint[] public hornsForSale;\n\n    // @notice horns mapping keeps track of all horn NFT owners & histories via _hornId (s/o to OpenZep Counter.counter library)\n    mapping (uint => Horn) public horns;\n    // @dev Add hash of horn NFT make and serialNumber using Counter.counter to compare all existing hashes to new mints to prevent duplicate NFTs of the same instrument\n    mapping (uint => bytes32) makeAndSerialHashes;\n    // @dev currentOwners and buyers mappings used for function access control\n    // @dev Add address to buyers when horn is paid for via escrow, address to currentOwners when sale and exchange is complete\n    mapping (uint => address) currentOwners;\n    mapping (uint => address) public buyers;\n    mapping (address => string) public shippingAddresses; // @param May actually be cheaper to enter and store bytes type via front-end\n    \n    // @notice NFT and IRL exchange events and escrow transaction events used for front-end\n    event HornListedForSale(uint indexed hornId, address indexed seller, string indexed make);\n    event NewHornNFTMinted(uint indexed hornId, address indexed seller, string indexed make);\n    // event BidReceived(uint indexed _hornId); //bidding may be a later feature\n    event HornPurchased(uint indexed hornId, string indexed shipTo, address indexed buyer);\n    event HornShipped(uint indexed hornId, string indexed shipTo, address indexed to);\n    event HornDeliveredAndNFTOwnershipTransferred(uint indexed hornId, address indexed from, address indexed to);\n    event DepositedToEscrow(address indexed payee, uint indexed amountInWei);\n    event WithdrawnFromEscrow(address indexed payee, uint indexed amountInWei);\n    event SellerPaid(uint indexed hornId, address indexed payer, address indexed payee);\n\n\n    // @dev Restrict duplicate listings and allow only users who are minting their instrument as an NFT for the first time by checking hashes of concatenated make and serial number\n    // modifier nonDuplicateMint(string calldata _make, uint _serialNumber) { //THE MAKEANDSERIALHASHES MAPPING CAN ACTUALLY BE TURNED INTO BYTES ARRAY\n    //     //Hash concatenated _make and _serialNumber given by user\n    //     bytes32 hashOfMakeAndSerial = keccak256(abi.encodePacked(_make, _serialNumber));\n    //     uint numberOfLoops = (_hornId.current()) + 1;\n    //     //Loop through makeAndSerialHashes[] mapping in search for a matching hash, in which case given user input is a duplicate mint\n    //     for (uint i = 0; i < numberOfLoops; i++) {\n    //        require(makeAndSerialHashes[i] != hashOfMakeAndSerial, \"This Horn NFT has already been minted\");\n    //     }\n    //     _;\n    // }\n    // @dev Restrict to only buyer who paid and was added to buyers[] mapping\n    modifier onlyBuyerWhoPaid(uint hornId) {\n        require(buyers[hornId] == msg.sender, \"This function may only be called by a buyer who has already paid\");\n        _;\n    }\n    // @dev Restrict to only the current owner of already minted horn NFT\n    modifier onlySeller(uint hornId) {\n        require(currentOwners[hornId] == msg.sender, \"This function may only be called by the horn NFT's owner\");\n        _;\n    }\n    // @dev Checks that function caller sent exact ETH amount to purchase horn for listed price **later can use if/or clauses to support stablecoin purchases\n    modifier paidEnough(uint hornId) {\n        require(msg.value == horns[hornId].listPrice, \"Payment amount must exactly match listed price\"); // later implement logic that calculates stablecoin price equivalents\n        _;\n    }\n    // @dev Following modifiers read enum HornStatus of _hornIds and escrow deposits to maintain security and correct order of function calls thru sale process\n    modifier forSale(uint __hornId) {\n        require(horns[__hornId].listPrice > 0, \"Horn NFT must exist and cannot be free\"); // ensure horn NFT exists and is listPrice is non 0\n        require(uint(horns[__hornId].status) == 0, \"Horn is not currently listed for sale\"); // requires ListedForSale status\n        _;\n    }\n    modifier hornPaidFor(uint __hornId) {\n        require(escrow.depositsOf(msg.sender) == horns[__hornId].listPrice, \"Buyer must send payment for Horn NFT to escrow first\"); // ensure buyer has already deposited payment (listPrice) in escrow\n        require(uint(horns[__hornId].status) == 1, \"Horn has not been marked as paid for yet\"); // requires PaidFor status\n        _;\n    }\n    modifier shipped(uint __hornId) {\n        require(_isApprovedOrOwner(address(this), __hornId), \"This contract must first be approved by current horn owner\"); // ensure this contract is approved to spend horn NFT by the seller\n        require(uint(horns[__hornId].status) == 2, \"Horn has not been marked as shipped yet\"); // requires Shipped status\n        _;\n    }\n\n    // @dev Initializes the Horn NFT with name and symbol and instantiates the escrow contract \n    constructor() ERC721(\"Horn\", \"HORN\") {\n        escrow = new Escrow();\n    }\n    /*\n        Marketplace Function implementations\n    */\n    // @notice List horn for sale by minting with metadata to fill Horn struct on-chain\n    // IF NEW FUNCTION, MAKE SURE ALL MAPPINGS/ATTRIBUTES ARE PROPERLY SET so escrow functions still work on correct addresses (ie line 191)\n    function mintThenListNewHornNFT( \n      string calldata _make, \n      string calldata _model, \n      string calldata _style, \n      uint _serialNumber, \n      uint _desiredPrice) \n      external \n      /*nonDuplicateMint(_make, _serialNumber)*/\n      returns (uint) {\n        // @dev listPrice attribute cannot be set to 0\n        require(_desiredPrice > 0, \"Your Horn is valuable and cannot be sold for free!\");\n        // @dev Increment counter _hornId then store publicly accessible hornId using current counter\n        _hornId.increment();\n        uint hornId = _hornId.current();\n        _mint(msg.sender, hornId);\n        \n        // _setTokenURI(hornId, \"https://githubpages.io/largemediafiles/lfs\")\n          \n        // @dev Store all horn metadata on-chain EXCEPT images which are stored externally via URI\n        horns[hornId] = Horn({\n            make: _make,\n            model: _model,\n            style: _style,\n            serialNumber: _serialNumber,\n            listPrice: _desiredPrice,\n            status: HornStatus.ListedForSale,\n            currentOwner: payable(msg.sender)\n        });\n                    \n        // @dev update mappings and arrays to reflect new listing\n        currentOwners[hornId] = msg.sender;\n        hornsForSale.push(hornId);\n        bytes32 hashOfMakeAndSerial = keccak256(abi.encodePacked(_make, _serialNumber));\n        makeAndSerialHashes[hornId] = hashOfMakeAndSerial;\n\n        emit HornListedForSale(hornId, msg.sender, _make);\n\n        return hornId;\n    }\n\n    // @notice Following function mints an NFT that is not intended to be listed for sale; owner only wants to establish verifiable immutable record of ownership\n    function mintButDontListNewHornNFT(\n      string calldata _make,\n      string calldata _model,\n      string calldata _style,\n      uint _serialNumber) \n      external\n    //   nonDuplicateMint(_make, _serialNumber) \n      returns (uint) {\n        // @dev Increment counter _hornId then store publicly accessible hornId using current counter\n        _hornId.increment();\n        uint hornId = _hornId.current();\n        _mint(msg.sender, hornId);\n        // _setTokenURI(hornId, \"https://blabla.com/\") logic still needs to be implemented\n\n        // @dev Store all horn metadata on-chain EXCEPT images which are stored externally via URI\n        horns[hornId] = Horn({\n            make: _make,\n            model: _model,\n            style: _style,\n            serialNumber: _serialNumber,\n            listPrice: 0,\n            status: HornStatus.OwnedNotForSale,\n            currentOwner: payable(msg.sender)\n        });\n\n          // @dev Update mappings to reflect new mint\n          currentOwners[hornId] = msg.sender;\n          bytes32 hashOfMakeAndSerial = keccak256(abi.encodePacked(_make, _serialNumber));\n          makeAndSerialHashes[hornId] = hashOfMakeAndSerial;\n\n          emit NewHornNFTMinted(hornId, msg.sender, _make);\n\n          return hornId;\n        }\n    \n    // @notice Following function must check that the hornNFT already exists before listing\n    function listExistingHornNFT(uint __hornId, uint _desiredPrice) \n      public \n      onlySeller(__hornId) \n      returns (uint) {\n        require(_desiredPrice > 0, \"Your Horn is valuable and cannot be sold for free!\");\n        require(horns[__hornId].status != HornStatus.ListedForSale, \"Your Horn is already listed for sale\");\n\n        uint hornId = __hornId;\n        hornsForSale.push(hornId);\n        // _setTokenURI(hornId, \"https://blabla.com\");  // need image upload prompt on front end\n\n        horns[hornId].listPrice = _desiredPrice;\n        horns[hornId].status = HornStatus.ListedForSale;\n\n        emit HornListedForSale(hornId, msg.sender, horns[hornId].make);\n\n        return hornId;\n    }\n\n    // @dev Require that given __hornId is forSale and not already purchased\n    function purchaseHornByHornId(uint __hornId, string calldata _shipTo) // maybe use bytes for address, remove spaces and concatenate in frontend input? so it can be hashed and stored privately\n      public \n      payable \n      forSale(__hornId) \n      paidEnough(__hornId) {\n        /* storing home addresses on-chain involves significant privacy concerns, however\n        * the recent infrastructure bill classifies any developer who writes code that handles monetary value on a blockchain\n        * as a legally recognized \"broker\" who must report customer information like Address to the IRS\n        * shipping addresses are stored on-chain for legal compliance reasons ONLY\n        * Can these addresses be opaquely stored on front-end instead? zk rollups would alleviate this issue\n        */\n        // @dev Forward payment to escrow contract for safekeeping\n        escrow.deposit(currentOwners[__hornId]);\n        // @dev Add shipping address of buyer aka msg.sender to mapping for later confirmation\n        // @param May be cheaper gas wise to enter bytes instead of string type in front end\n        shippingAddresses[msg.sender] = _shipTo;\n        // @dev Add msg.sender to buyers[] mapping for access control checking during markHornShipped function call and shipping address confirmation: \n        buyers[__hornId] = msg.sender;\n        // @dev Set status to PaidFor so next function to be called must be markHornShipped by seller\n        horns[__hornId].status = HornStatus.PaidFor;\n        // @dev Delete hornId from hornsForSale uint[] array so it is no longer displayed\n        for (uint i = 0; i < hornsForSale.length; i++) {\n            if (hornsForSale[i] == __hornId) {\n                delete hornsForSale[i];\n            }\n        }\n\n        // @notice Emit event to notify seller via frontend that horn is paid for and must be shipped\n        emit HornPurchased(__hornId, _shipTo, msg.sender);\n        emit DepositedToEscrow(horns[__hornId].currentOwner, msg.value);\n    }\n\n    function markHornShipped(uint __hornId, string calldata shippedTo) public \n      onlySeller(__hornId) \n      hornPaidFor(__hornId) {\n        // @dev Set buyer variable to confirm shipping address shipTo against shippingAddresses mapping given by buyer\n        address buyer = buyers[__hornId];\n        // @notice The addresses must match exactly as they are hashed- an issue considering extremely common user error, data fields must be explicit on front end for proper resolution\n        require(keccak256(abi.encodePacked(shippedTo)) == keccak256(abi.encodePacked(shippingAddresses[buyer])), \"Address given does not match the one on file for the buyer\");\n        // @dev Set status of __hornId to Shipped so next function to be called will finalize exchange\n        horns[__hornId].status = HornStatus.Shipped;\n        // @dev Approves this contract as spender of horn nft so that it will be safetransferred in next function call \n        approve(address(this), __hornId);\n        \n        // @notice Emit event to notify buyer via frontend that horn is on its way\n        emit HornShipped(__hornId, shippedTo, buyers[__hornId]);\n    }\n\n    // This function MUST be called in order to release escrow funds to seller, and transfer NFT ownership\n    function markHornDeliveredAndOwnershipTransferred(uint __hornId) public \n      onlyBuyerWhoPaid(__hornId) \n      shipped(__hornId) \n      returns (uint256) {\n        // @dev Save payment amount in uint variable to be visually returned for improved UX/UI\n        uint paymentAmt = escrow.depositsOf(horns[__hornId].currentOwner);\n        // @dev Release escrowed payment funds to the seller from escrow contract\n        escrow.withdraw(horns[__hornId].currentOwner);\n        // @dev Wipe msg.sender from buyers[] and shippingaddresses[] for future txs in case buyer changes address\n        buyers[__hornId] = address(0);\n        shippingAddresses[msg.sender] = \"\";\n        // @dev Set horn status to no longer be for sale and update horn ownership record history\n        horns[__hornId].status = HornStatus.OwnedNotForSale;\n        horns[__hornId].currentOwner = payable(msg.sender);\n        // @dev Set previousOwner variable using currentOwners mapping, before that value is updated to reflect new owner\n        address previousOwner = currentOwners[__hornId];\n        // @dev Update currentOwners mapping to give ownership to buyer\n        currentOwners[__hornId] == msg.sender;\n\n        // @dev Transfer horn NFT from seller(currentOwner) to msg.sender using safeTransferFrom from ERC721 interface (avoids NFTs locked in contracts)\n        safeTransferFrom(previousOwner, msg.sender, __hornId); // if this doesn't work it's because address(this) of this smart contract is the one who was approved in previous function but this function lists the 'from' parameter as the owner. simply change to address(this)\n\n        emit HornDeliveredAndNFTOwnershipTransferred(__hornId, previousOwner, msg.sender);\n        emit SellerPaid(__hornId, previousOwner, msg.sender);\n        emit WithdrawnFromEscrow(previousOwner, paymentAmt);\n\n        return paymentAmt;\n    }\n\n    fallback() external payable {\n        revert(\"Please do not send this contract funds without any function call data or call a function that doesn't exist\");\n    }\n}\n",
  "sourcePath": "/home/robriks/ConsensysAcademyBootCamp/final-proj/contracts/HornMarketplace.sol",
  "compiler": {
    "name": "solc",
    "version": "0.8.0+commit.c7dfd78e.Emscripten.clang"
  },
  "schemaVersion": "3.4.3",
  "updatedAt": "2021-11-15T01:55:59.665Z",
  "networkType": "ethereum",
  "devdoc": {
    "kind": "dev",
    "methods": {
      "approve(address,uint256)": {
        "details": "See {IERC721-approve}."
      },
      "balanceOf(address)": {
        "details": "See {IERC721-balanceOf}."
      },
      "getApproved(uint256)": {
        "details": "See {IERC721-getApproved}."
      },
      "isApprovedForAll(address,address)": {
        "details": "See {IERC721-isApprovedForAll}."
      },
      "name()": {
        "details": "See {IERC721Metadata-name}."
      },
      "owner()": {
        "details": "Returns the address of the current owner."
      },
      "ownerOf(uint256)": {
        "details": "See {IERC721-ownerOf}."
      },
      "renounceOwnership()": {
        "details": "Leaves the contract without owner. It will not be possible to call `onlyOwner` functions anymore. Can only be called by the current owner. NOTE: Renouncing ownership will leave the contract without an owner, thereby removing any functionality that is only available to the owner."
      },
      "safeTransferFrom(address,address,uint256)": {
        "details": "See {IERC721-safeTransferFrom}."
      },
      "safeTransferFrom(address,address,uint256,bytes)": {
        "details": "See {IERC721-safeTransferFrom}."
      },
      "setApprovalForAll(address,bool)": {
        "details": "See {IERC721-setApprovalForAll}."
      },
      "supportsInterface(bytes4)": {
        "details": "See {IERC165-supportsInterface}."
      },
      "symbol()": {
        "details": "See {IERC721Metadata-symbol}."
      },
      "tokenURI(uint256)": {
        "details": "See {IERC721Metadata-tokenURI}."
      },
      "transferFrom(address,address,uint256)": {
        "details": "See {IERC721-transferFrom}."
      },
      "transferOwnership(address)": {
        "details": "Transfers ownership of the contract to a new account (`newOwner`). Can only be called by the current owner."
      }
    },
    "version": 1
  },
  "userdoc": {
    "kind": "user",
    "methods": {},
    "version": 1
  }
}