{
  "contractName": "Seller",
  "abi": [
    {
      "inputs": [],
      "stateMutability": "nonpayable",
      "type": "constructor"
    },
    {
      "inputs": [
        {
          "internalType": "address",
          "name": "_mkt",
          "type": "address"
        }
      ],
      "name": "mintThenListTestHornNFT",
      "outputs": [
        {
          "internalType": "uint256",
          "name": "",
          "type": "uint256"
        }
      ],
      "stateMutability": "nonpayable",
      "type": "function"
    },
    {
      "inputs": [
        {
          "internalType": "address",
          "name": "_mkt",
          "type": "address"
        }
      ],
      "name": "mintDontListTestHornNFT",
      "outputs": [
        {
          "internalType": "uint256",
          "name": "",
          "type": "uint256"
        }
      ],
      "stateMutability": "nonpayable",
      "type": "function"
    }
  ],
  "bytecode": "0x608060405234801561001057600080fd5b50600180556101a46002556103ec8061002a6000396000f3fe608060405234801561001057600080fd5b5060043610610052577c0100000000000000000000000000000000000000000000000000000000600035046372d696e48114610057578063d047bcb914610080575b600080fd5b61006a6100653660046101fe565b610093565b604051610077919061036d565b60405180910390f35b61006a61008e3660046101fe565b61017f565b6000805473ffffffffffffffffffffffffffffffffffffffff191673ffffffffffffffffffffffffffffffffffffffff838116919091178083556001546040517fe40b96cf000000000000000000000000000000000000000000000000000000008152919092169163e40b96cf9161010e91906004016102e1565b602060405180830381600087803b15801561012857600080fd5b505af115801561013c573d6000803e3d6000fd5b505050506040513d601f19601f820116820180604052508101906101609190610239565b5060018054908190600061017383610376565b90915550909392505050565b6000805473ffffffffffffffffffffffffffffffffffffffff191673ffffffffffffffffffffffffffffffffffffffff838116919091178083556001546002546040517fe3cbb368000000000000000000000000000000000000000000000000000000008152929093169263e3cbb3689261010e929190600401610326565b60006020828403121561020f578081fd5b813573ffffffffffffffffffffffffffffffffffffffff81168114610232578182fd5b9392505050565b60006020828403121561024a578081fd5b5051919050565b600481527f4265726700000000000000000000000000000000000000000000000000000000602082015260400190565b600581527f4765796572000000000000000000000000000000000000000000000000000000602082015260400190565b600681527f446f75626c650000000000000000000000000000000000000000000000000000602082015260400190565b6000608082526102f360808301610251565b8281036020840152610304816102b1565b9050828103604084015261031781610281565b91505082606083015292915050565b600060a0825261033860a08301610251565b8281036020840152610349816102b1565b9050828103604084015261035c81610281565b606084019590955250506080015290565b90815260200190565b60006000198214156103af577f4e487b710000000000000000000000000000000000000000000000000000000081526011600452602481fd5b506001019056fea2646970667358221220ea510fd4b7142b7a9d30365e25de4468292b36f414e054785a50ceada9222ced64736f6c63430008000033",
  "immutableReferences": {},
  "source": "// SPDX-License-Identifier: MIT\npragma solidity 0.8.0;\n\ninterface hornMarketplace {\n        function mintThenListNewHornNFT(string calldata _make, string calldata _model, string calldata _style, uint _serialNumber, uint _listPrice) external returns (uint);\n        function mintButDontListNewHornNFT(string calldata _make, string calldata _model, string calldata _style, uint _serialNumber) external returns (uint);\n    }\n\ncontract Seller {\n\n    hornMarketplace _market; // store marketplace contract address for low level calls\n    uint serialNumberCounter;\n    uint _defaultListPrice;\n\n    // @param Constructor parameter _mkt passed in by the HornMarketplace_test contract that instantiates this one\n    constructor() { // in morning delete this constructor parameter and use deployed address of market\n        serialNumberCounter = 1;\n        _defaultListPrice = 420;\n    }\n\n\n    function mintThenListTestHornNFT(address _mkt) public returns (uint) {\n        _market = hornMarketplace(_mkt);\n        _market.mintThenListNewHornNFT(\n            \"Berg\", \n            \"Double\", \n            \"Geyer\", \n            serialNumberCounter, \n            _defaultListPrice\n            );\n\n        uint currentHornId = serialNumberCounter;\n        serialNumberCounter++;\n        return currentHornId;\n    }\n\n    function mintDontListTestHornNFT(address _mkt) public returns (uint) {\n        _market = hornMarketplace(_mkt);\n        _market.mintButDontListNewHornNFT(\n            \"Berg\",\n            \"Double\",\n            \"Geyer\", \n            serialNumberCounter\n        );\n        uint currentHornId = serialNumberCounter;\n        serialNumberCounter++;\n        return currentHornId;\n    }\n}\n",
  "sourcePath": "/home/robriks/ConsensysAcademyBootCamp/final-proj/contracts/Seller_for_testing_only.sol",
  "compiler": {
    "name": "solc",
    "version": "0.8.0+commit.c7dfd78e.Emscripten.clang"
  },
  "schemaVersion": "3.4.3",
  "updatedAt": "2021-11-15T01:57:27.456Z",
  "networkType": "ethereum",
  "devdoc": {
    "kind": "dev",
    "methods": {},
    "version": 1
  },
  "userdoc": {
    "kind": "user",
    "methods": {},
    "version": 1
  }
}